:020000040800F2
:1000000048150020CD0000082D4A0008E3390008FB
:1000100000000000000000000000000000000000E0
:1000200000000000000000000000000081720008D5
:100030000000000000000000AD5B0008F197000820
:10004000DF000008000000001D650008DF00000858
:10005000DF000008CF130008DF130008EF130008CB
:1000600000000000DF000008DF000008DF000008DB
:10007000DF000008DF000008DF00000800000000CB
:10008000DF000008DF000008DF000008DF000008D4
:10009000DF000008DF000008DF000008DF000008C4
:1000A000DF000008DF000008DF000008DF000008B4
:1000B000DF000008F5A100080348854600F0E2FCD7
:1000C0000048004759AD0008481500200448804703
:1000D00004480047FEE7FEE7FEE7FEE7FEE7FEE72F
:1000E000BD980008B900000830B50B460146002055
:1000F0002022012409E00D46D5409D4205D31D462E
:100100009540491B2546954040191546521E002D25
:10011000F1DC30BD70B500242546002801DA012449
:100120004042002901DA01254942FFF7DDFFAC42D8
:1001300000D04042002C00D0494270BDF0B51FB441
:1001400086B000200090019002900698069980B237
:1001500004900798090C020400141143079000272B
:10016000089D099806913E463C4603900398A9B223
:100170000204000C039004982D0C15434843002101
:10018000224600F067FBC719714110340E46402C1F
:10019000ECDB3846029A00F05DFB009A019B801868
:1001A0000090594102980191103002904028CCDB18
:1001B00000980BB0F0BD10B5202A04DB0846203AA9
:1001C000D040002110BD0B46D340D0402024A21ABD
:1001D00091400843194610BD03460B439B0703D0CB
:1001E00009E008C9121F08C0042AFAD203E00B78FC
:1001F0000370401C491C521EF9D27047D2B201E074
:100200000270401C491EFBD270470022F6E710B571
:1002100013460A4604461946FFF7F0FF204610BD74
:10022000421C0178401C0029FBD1801A704710B590
:10023000002200E0521C835C8C5CA34201D1002BA5
:10024000F8D1D8B2E1B2401A10BD024670B54A40AA
:10025000D30FDB0740002DD04A002AD0010E140E28
:10026000000212020919400A520A8418E5010446E4
:100270005443000A120A2E045043A4194219200CB8
:10028000C543AA18120C0125AD03521C52191204C1
:100290007F39240400D0521C104301D44000491E71
:1002A000C2B20C06C0092018401C4008802A02D0A7
:1002B00003E0002070BD40084000002900DA002063
:1002C000184370BDF0B507460846584087B0C00FC8
:1002D000049048000E46590040084908BC1A88415D
:1002E00005D2384631461E4617460B460246580090
:1002F000400810434CD0300D039040055900400D8C
:10030000490D0590401A0290402872DA1803012125
:10031000000B09050843019004980092002805D0BD
:100320000199524200208841009201900298402198
:100330000A1A0199009800F08DFA05460C466B46A2
:1003400007CB00F097FAC0197141039A0E0D0023F4
:10035000D71756401A467A40164344D0049A002ACA
:100360002DD0029A012A039A15DC1205C01A914178
:1003700001263605001C7141D20F059ED20700935D
:10038000019202962A46234600F0D5FA07B0F0BD46
:1003900038463146FAE71605224A0F46B218C01A07
:1003A000B74101210905001C4F4100187F4111464A
:1003B00018187941E20F10436D19644113E0E20708
:1003C0006D0815436408C2071443039A01261205F9
:1003D000C01A91413605001C7141CE0740083043D8
:1003E0004908C01851412A46234600F097FACDE744
:1003F000FFE7049801224000C117121A00238B4125
:1004000004983146C417381AA141EEE730B40124EC
:10041000E407634030BC55E730B40124E407614091
:1004200030BC4FE70000E0FFF0B51FB488B00B9977
:100430000998002448400999C00F490049080991CA
:10044000C0070B990090490049080B910999089839
:10045000A64608431CD00B990A98084318D009985F
:1004600001244000420D4800410D09982405000375
:10047000000B204309900B980003000B20430B90C6
:1004800050181C494018002201901446104605E0FF
:10049000002001460DB0F0BD032801DA034600E05C
:1004A00003239C46C11A0AAE0AE05F0008ADED5B6B
:1004B0004F00F75B7D430027AA187C41491C5B1E57
:1004C0006145F2DD410004AB5A522104120C0A438B
:1004D000240C401C0828DFDB01980290009970462C
:1004E00001910090059B049A0799069800F023FA61
:1004F000D0E700000DFCFFFFF0B50C465C4085B076
:10050000E40FE40703944C00002664085900944665
:10051000490802460296224321D062460A431ED071
:100520006200570D4A000E032303550D01240246B5
:100530002C492405781B1B0B360B401823432643FC
:10054000614600901C46501AB44103D30098401CE9
:10055000009002E0921800985B41002803DA002026
:10056000014605B0F0BD0020012109050746864679
:1005700011E064461D46141BB54106D36546521B67
:10058000B341744607430C43A646CD0740084908CB
:10059000284392185B4105460D43EAD110461843A3
:1005A00013D06046194650407140084306D060465B
:1005B000101AB34106D20122002306E000220123D3
:1005C000DB0702E00122D243531000987446010574
:1005D000381C6141029C039D0019694100F09EF99D
:1005E000BFE70000FD03000010B50022962311466E
:1005F00000F05BF910BD00000EB5C217C10F5040EE
:10060000CA0740180021054B0293019200910A4647
:100610000B4600F090F903B000BD00003304000069
:100620000EB505490291002100910A460B46019141
:1006300000F081F903B000BD330400000EB5054A97
:100640000292002200921346019200F074F903B066
:1006500000BD000033040000410040020122400AB6
:10066000D205090E80187F2901DA002070479629EB
:1006700003DC9622511AC84070479639884070476B
:1006800070B5CD0F4A0009030123090B1B0519435F
:100690000B4BED070024520D9A4201DA002070BD89
:1006A000074B34339A4203DC9A1AFFF784FD02E0C9
:1006B0000449511888402C43F1D0404270BD0000DD
:1006C000FF030000CDFBFFFF4A0009030123090BD4
:1006D0001B051943094B10B5520D9A4201DA00204F
:1006E00010BD064B34339A4203DC9A1AFFF763FDC0
:1006F00010BD03495118884010BD0000FF030000E1
:10070000CDFBFFFF4A0009030123090B1B05194319
:100710000A4B10B5520D9A4202DA0020014610BD74
:10072000064B34339A4203DC9A1AFFF744FD10BD9E
:10073000034BD21800F08EF810BD0000FF0300003C
:10074000CDFBFFFFC20FD207400040080BD0C10D08
:100750000723DB01C91840020905400A1143C208FA
:1007600040071143704700200146704710B500292B
:1007700004DB0124E40740428C412146002B04DBCA
:100780001C460123DB075242A3418B4200D1824227
:1007900010BD000010B5002904DB0124E40740422D
:1007A0008C412146002B04DB1C460123DB0752420F
:1007B000A341994200D1904210BD0000CB0FDB074E
:1007C000490010B5490802460A4307D00A0D07241C
:1007D0000903E401090B121B002A01DC002010BDF3
:1007E000C900440F0C43C100E018D205801800F086
:1007F00054F810BDF0B51FB40646002082B005467F
:100800004024019100901BE0019922460F4630469A
:10081000FFF7D1FC049A059B801A994110D310462A
:100820001946224600F016F8361A8F4101972246E3
:1008300001200021009F00F00DF838184D41009074
:100840002046641E0028DFDC019B009829463246C2
:1008500007B0F0BD10B5202A04DB0146203A9140D4
:10086000002010BD914020239C1A0346E340194309
:10087000904010BD10B5202A06DBCB170846203A61
:100880001041C1170B4306E00B461341D040202412
:10089000A21A91400843194610BD002904DA401CF1
:1008A000490001D140084000704770B40024050C95
:1008B00005D11024000402D1002921D01124050EF5
:1008C00001D100020834050F01D10001241D850F5C
:1008D00001D18000A41C002801DB4000641C002919
:1008E00008D020252E1B0D46F540A14000D0012147
:1008F0002943084301061B1B000ADB1D02D500200B
:1009000070BC7047DB05181880180029F8DA401C05
:100910004900F5D170BC40084000704710B5002B6D
:1009200008DA0024401C614192185B411A4301D14E
:100930004008400010BDF0B51FB482B005460C0061
:1009400003D0084609F0E6FC02E009F0E3FC2030A1
:100950000246009021462846FFF77CFF049B059A3B
:1009600004460F4618431143084314D01846104359
:100970001BD0009840210A1A18460599FFF71BFC66
:1009800005460E46009A05990498FFF763FF084351
:1009900005D0012004E02046394607B0F0BD002014
:1009A000C11705430E432C43374300990E98630546
:1009B000401A7905E40A00220C43FD0A0A3002D5E8
:1009C00000200146E9E70105101969410C9C0D9DC5
:1009D00000196941FFF7A2FFDFE770B54B005B0824
:1009E00003430BD04B005C0D002633466542B341F8
:1009F000D417AD1AA34102DB0020014670BD1205D9
:100A00003018514170BD0000F8B505464800400857
:100A10000C46284304D06000184A400D904201DD86
:100A20002846F8BD15493539884210DC88420BDB71
:100A3000290D200308432903014305D0E00F104985
:100A4000C00741180020F8BD00200146F8BD161A65
:100A50004020821B28462146FFF7FCFE07460091F6
:100A6000284621463246FFF7A6FB3A46009BFFF791
:100A700055FF3246FFF7EEFEF8BD000033040000DC
:100A80000000F03F064C0125064E05E0E36807CC68
:100A90002B430C3C98471034B442F7D3FFF710FBBC
:100AA000B0C30008D0C30008FEB500231A461B1AC5
:100AB0008A4103DB0020014603B0F0BD4A000D036C
:100AC00001212D0B0905520D0D43D10702D100184C
:100AD0006D41521E5110FF31FF3101310027044694
:100AE0003E46384600970191024601210020090543
:100AF000FFF761FBC3197141F818324684468E46F0
:100B00004A4161462846611A904104D36046241A3E
:100B1000954176461F46241900986D41401C00906F
:100B20003428E1DDF91930467041091BA84103D290
:100B30000022D243134601E000221346019801052A
:100B4000381C7141FFF7EAFEB6E770B58C180578DE
:100B5000401C6B075B0F01D10378401C2A1106D1A2
:100B60000278401C03E006780E70401C491C5B1E96
:100B7000F9D12B0705D40023521E0DD40B70491C4C
:100B8000FAE70378401CCB1A921C03E01D780D7025
:100B9000491C5B1C521EF9D5A142D8D3002070BD60
:100BA00030B589B005460C461022002105A80AF090
:100BB00049F92246243205A905A809F0BFFE684676
:100BC000007D8021084000281CD000BF00200AE0E2
:100BD00005A9095C490005AB421C9A5CD21111437E
:100BE00005AA1154401C0F28F2DB08A9C978490650
:100BF0000A0E08A9CA7000BFC8788721484008A912
:100C0000C87016E000BF00200AE005A9095C490091
:100C100005AB421C9A5CD211114305AA1154401C29
:100C20000F28F2DB08A9C97849060A0E08A9CA707C
:100C300000BF206A10280FD100BF002009E0214624
:100C40001031095C05AA125C514022461032115441
:100C5000401C1028F3DB59E06846007D80210840E5
:100C600000281CD000BF00200AE005A9095C49004B
:100C700005AB421C9A5CD211114305AA1154401CC9
:100C80000F28F2DB08A9C97849060A0E08A9CA701C
:100C900000BFC8788721484008A9C87016E000BF87
:100CA00000200AE005A9095C490005AB421C9A5CDA
:100CB000D211114305AA1154401C0F28F2DB08A9D8
:100CC000C97849060A0E08A9CA7000BF80212046CB
:100CD0001030226A815404E0002120461030226A3C
:100CE0008154206A401C20621028F5D300BF0020E8
:100CF00009E021461031095C05AA125C51402246E8
:100D000010321154401C1028F3DB00BF00BF00203C
:100D100006E0215C22461032125C51402154401CF6
:100D20001028F6DB00BF1022214601A80AF070F857
:100D300022462432294601A809F000FE1022002193
:100D400005A80AF07FF809B030BD10B5044610229E
:100D5000002120460AF076F800202062F0220021CF
:100D6000204624300AF06EF810BD70B505460C46DA
:100D70002A4624321021204609F00EFE70BDF0B53F
:100D800085B004460F461546206A002830D0102151
:100D9000206A081AA84202D2206A081A00E02846EF
:100DA0000646B2B223461033216AC81839460AF003
:100DB0002FF8206A80192062206A102801D3B542DA
:100DC00001D105B0F0BD00BF002006E0215C224645
:100DD0001032125C51402154401C1028F6DB00BF39
:100DE000224624322146204609F0A8FDBF19AD1B3A
:100DF0001CE000BF002004E0215C3A5C514021541B
:100E0000401C1028F8DB00BF10222146684609F07C
:100E1000FFFF224624326946684609F08FFD102202
:100E20006946204609F0F4FF1037103D102DE0D838
:100E3000AAB239462046103009F0EAFF256200BF09
:100E4000BFE7000070B504460125A01E030009F0AD
:100E500078FA07051328364B677C8A0047480078E4
:100E60000F2808DA454803780078401C434E30705C
:100E70004348C454002578E0404800780E280FDA33
:100E80003E4803780078401C3C4E30703C48C454C7
:100E9000304603780078401C30703948C154002532
:100EA00063E0364800780F2808DA34480378007881
:100EB000401C324E30703248C454002555E02F4853
:100EC00000780E280FDA2D4803780078401C2B4E4E
:100ED00030702B48C454304603780078401C307082
:100EE0002748C154002540E0244800780D2816DA30
:100EF000224803780078401C204E30702048C454AB
:100F0000304603780078401C30701D48C15430468C
:100F100003780078401C30701948C254002524E042
:100F2000164800780E280FDA144803780078401C21
:100F3000124E30701248C454304603780078401C7A
:100F400030700F48C15400250FE00C4800780F287E
:100F500008DA0A4803780078401C084E30700848C8
:100F6000C454002501E0022070BD00BF002D02D155
:100F70000120044B18702846F6E700008F0000207F
:100F8000ED0A00208E00002070B503460C460020BC
:100F9000154D2956012B25D1052903D10025134EC6
:100FA00035601FE0114D2D68402D01D3012000E078
:100FB00000200E4D2D68602D14D30C4D2D78203D52
:100FC000AD06AD0E002D0DD1052901DD4D1E69B216
:100FD000052907D1012C05D1054D2D88072635435C
:100FE000034E3580117070BDF20000208800002093
:100FF000FC0A002010B508480078002800D100BF86
:101000000648407D002805D005A00449C860C8688E
:1010100009F01CF910BD0000BC010020FC010020FB
:1010200041434B000020704708B535480078002840
:1010300064D100F07BFC08F0EFFB102009F0E0FD2C
:1010400000BF304840690121C90408432D49486167
:10105000084640690121C9040840009000BF00BF54
:1010600000BF28484069C90008432649486108462E
:101070004069012189050840009000BF00BF00BF02
:1010800020484069491108431E49486108464069A3
:10109000012149040840009000BF00BF00BF19486B
:1010A00040694900084317494861084640690121E1
:1010B00089040840009000BF00BF03F09FFB03F0CD
:1010C000BFFB05F037FA00220121022000F080FC6E
:1010D000022000F071FC002203211D2000F078FCAA
:1010E0001D2000F069FC06F029FB02F07FFC05F0F2
:1010F00031FF05F0FDFE01200149087008BD000028
:10110000530000200010024010B50121490310488F
:1011100000F0EEFB01280DD1142009F07BFD012128
:1011200049030B4800F0E4FB012810D100200949D5
:1011300008700CE0142009F06DFD012149030448FA
:1011400000F0D6FB002802D101200249087010BD32
:10115000000800484900002070B5044600204849B6
:10116000487204214648401DFFF74FF84449491C86
:1011700044A009F0BFF801204149487000214048CF
:1011800081702178C17061780171C078002843D0E6
:1011900000BF414B04223A49491C404802F0A8FBD9
:1011A0003749491C3EA009F0A5F8322009F032FD6C
:1011B0004048C07900281FD0002506E03E48415D28
:1011C0003EA009F097F8681CC5B2042DF6DB3DA0DF
:1011D00009F090F800203749C871084682883649DE
:1011E0002748401DFEF7F8FF324881883248FFF754
:1011F0000CF800202F4988802148407A401C204963
:101200004872491D081FFFF712F8002837D01C4804
:10121000407A0228BDDD32E01F4B04221849491CE8
:101220001E4802F065FB1649491C27A009F062F828
:10123000322009F0EFFC1F48C07900281FD000259C
:1012400006E01D48415D1DA009F054F8681CC5B2B8
:10125000042DF6DB1BA009F04DF800201549C871DC
:101260000846828814490648401DFEF7B5FF11481C
:1012700081881148FEF7C9FF00200E49888070BDA3
:101280004900002074785F64617461303030203D23
:101290002025730D0A000000FFFF0000D00200208F
:1012A00074785F64617461353535203D2025730D98
:1012B0000A0000004007002044030020253032646B
:1012C000000000000D0A000074785F6461746136EC
:1012D0003636203D2025730D0A00000000B587B08A
:1012E00000BF224840690121490408431F49486161
:1012F00008464069012149040840019000BF00BF31
:1013000000BF1A4840694900084318494861084627
:101310004069012189040840019000BF00BF0220FC
:1013200002900120039004900320059002A9092057
:10133000C00600F0E5F9002202210920C00600F0F5
:10134000E0FA0320000202900120039004900320A1
:10135000059002A9064800F0D3F9002203210902F2
:10136000034800F0CEFA07B000BD000000100240B4
:101370000004004810B5044608F0EEFA002803D037
:10138000204605F0EBF902E0204608F0EFFA10BD28
:1013900030B5024600231046D417240F2418240524
:1013A000230E042B01DC082A01DB002030BD10468F
:1013B000D417240F241824112401151B0124AC4038
:1013C0005D004D5BA5435C000D530120EEE710B5B9
:1013D000012000F085F9022000F082F910BD10B55F
:1013E000042000F07DF9082000F07AF910BD10B556
:1013F000102000F075F9202000F072F9402000F074
:101400006FF9802000F06CF9FF20013000F068F9DE
:101410000120400200F064F90120800200F060F930
:101420000120C00200F05CF90120000300F058F92F
:101430000120400300F054F90120800300F050F92E
:101440000120C00300F04CF910BD000000B587B0CA
:1014500000BF114840690121890408430E494861D1
:1014600008464069012189040840019000BF00BF7F
:10147000881102900120039002200490032005901F
:1014800002A9064800F03CF901221103034800F0CC
:1014900038FA07B000BD0000001002400004004808
:1014A00010B502A008F026FF10BD00006572726F33
:1014B000720D0A00024600210FE0C800094B1858BF
:1014C000904208D8481CC0001858904203D9C80060
:1014D000C01800797047481CC1B21529EDD300BF70
:1014E000FEE70000FCC1000800B587B000BF11484E
:1014F00040690121C90408430E4948610846406912
:101500000121C9040840019000BF00BF881102906A
:10151000094803900220049002A9084800F0F0F85E
:1015200000220721084600F053FA072000F044FA91
:1015300007B000BD00100240000011100008004874
:10154000F0B587B006460C46002005900690039043
:1015500004900025205E07460290012010E0410023
:10156000615EB94202DD4100675E07E04100625EF4
:1015700002998A4202DA4100615E0291411C48B23E
:10158000B042ECDB00200FE04100615EB94209D1BE
:1015900005AA505505A94A5D0C49895C03AA515515
:1015A000691C4DB2411C48B2B042EDDB691E0020FF
:1015B0000AF0A8FAC0B2019003A90198085C044996
:1015C00008700846007807B0F0BD00003E02002019
:1015D0001101002070B504460D46164632462946D4
:1015E000204600F08EF970BD70B50446002521201C
:1015F000005D022803D00420A06301251EE02068BE
:1016000000680E218843216808602068006840084F
:101610004000216808600120216C8840E16B48602F
:1016200001212120015500BF00212020015500BFCC
:10163000606B002802D02046616B8847284670BD49
:1016400010B5044601218902601A8C4214D004DCD2
:10165000022C0BD0042C31D10BE001218902401A5D
:101660000DD00321C902401A28D10BE006F08AF8F8
:1016700025E006F089FA22E006F040FB1FE006F0C4
:10168000E3FB1CE0012149030E4800F031F9012879
:1016900010D1142009F0BEFA01214903094800F0D5
:1016A00027F9012809D100200749087007A008F090
:1016B00021FE02E001200449087000BF00BF00BF06
:1016C00010BD000000080048490000204750494F65
:1016D0005F50494E5F31335F3232320D0A000000F5
:1016E00010B50446054840692040002804D003484E
:1016F00044612046FFF7A4FF10BD00000004014034
:1017000078B50346002200240020DEE00126964042
:101710000D6835402C46002C7ED04D68022D02D03D
:101720004D68122D15D1D508AE001D462035A8599B
:101730005507EE0E0F25B5400646AE433046560718
:10174000F60E0D69B5402843D508AD001E4620367B
:101750007051186856000325B5400646AE43304622
:101760000D79AD07AD0F5600B540284318604D68A0
:10177000012D08D04D68022D05D04D68112D02D0E5
:101780004D68122D18D1986856000325B5400646BD
:10179000AE4330465600CD68B5402843986058683F
:1017A000012595400646AE43304610264D6835402B
:1017B0002D09954028435860D86856000325B54048
:1017C0000646AE43304656008D68B5402843D86083
:1017D000012636074D683540B54275D100BF3E4DF4
:1017E000AD69012635433C4EB5613546AD69ED071F
:1017F000ED0F009500BF00BF384D9608B600A85900
:1018000095072E0F0F25B5400646AE4330460925F5
:10181000ED06AB4203D100E056E000250FE0304D6D
:10182000AB4201D101250AE02E4DAB4201D1022588
:1018300005E02D4DAB4201D1032500E005259607BB
:10184000360FB5402843254D9608B600A851274DC0
:1018500028680546A5432846012636044D683540CC
:10186000B54202D1054625432846204D28606868C8
:101870000546A5432846012676044D683540B54205
:1018800002D1054625432846184D6860A8680546DC
:10189000A5432846012636054D683540B54202D19C
:1018A000054625432846114DA860E8680546A5432E
:1018B0002846012676054D683540B54202D10546D9
:1018C00025432846094DE860521C0D68D540002D7F
:1018D00000D01BE778BD0000001002400800014066
:1018E0000004004800080048000C004800040140C3
:1018F000024613690B40002B01D0012000E00020BC
:101900007047002A01D0816100E0816270470000C9
:101910000148006870470000040000200248006889
:10192000401C0149086070470400002010B50648BB
:1019300000681021084304490860032000F006F8FD
:1019400000F018F8002010BD0020024070B50446D9
:1019500000F0BAF906467D21C900FEF7C5FB054631
:1019600001F072FD00222146501E00F031F80020E7
:1019700070BD000008B500BF0E4880690121084312
:101980000C49886108468069C007C00F009000BFFD
:1019900000BF00221146501F00F01AF80022114625
:1019A000901E00F015F800221146501E00F010F8AD
:1019B00008BD00000010024000BFC206D20E012187
:1019C0009140024A116000BF7047000000E100E052
:1019D00070B504460D4616462946204603F028F801
:1019E00070BD0000F8B50446002600250121090459
:1019F0002068084088427AD100274B48C069090313
:101A0000084000280DD100BF4748C0690843464937
:101A1000C8610846C06909040840009000BF00BFC3
:101A2000012742480068FF2101310840002816D1F3
:101A30003E48006808433D490860FFF769FF0646D5
:101A400006E0FFF765FF801B642801D90320F8BD7D
:101A500036480068FF21013108400028F1D03248A3
:101A6000006A0321090208400546002D2DD0606858
:101A70000840A84229D02C48006A884305462A48D5
:101A8000006A012109040843274908620846006AE0
:101A90000121090488432449086208460562E807D1
:101AA000C00F002811D0FFF733FF064607E0FFF70D
:101AB0002FFF801B1E49884201D90320C7E71A481F
:101AC000006A022108400028F1D01748006A03216B
:101AD000090288436168084313490862012F05D150
:101AE0000846C069090488430F49C86100BF2078CF
:101AF000C007C00F002807D00B48006B800880008B
:101B0000A16808430849086320212068084020286C
:101B100007D10548006B10218843E168084302495A
:101B20000863002093E700000010024000700040AE
:101B30008813000070B504460D4600265D48006815
:101B4000C007C00FA8420ED25A48006840084000A3
:101B500028435849086008460068C007C00FA842DB
:101B600001D0012070BD022120680840022807D161
:101B700051484068F0218843A16808434E494860B5
:101B80002078C007C00F00285FD06068012808D106
:101B900049480068012149040840002815D1012066
:101BA000E0E76068022808D143480068012149063F
:101BB0000840002809D10120D4E73F4800680221ED
:101BC0000840002801D10120CCE73B48406880084C
:101BD00080006168084338494860FFF799FE06466F
:101BE000606801280FD107E0FFF792FE801B3349A0
:101BF000884201D90320B5E72F4840680C210840EE
:101C00000428F1D121E0606802280FD107E0FFF736
:101C10007FFE801B2949884201D90320A2E726487C
:101C200040680C2108400828F1D10EE007E0FFF7DA
:101C30006FFE801B2149884201D9032092E71E488C
:101C400040680C2108400028F1D11A480068C007FC
:101C5000C00FA8420ED9174800684008400028432A
:101C60001449086008460068C007C00FA84201D0A8
:101C7000012077E7042120680840042808D10E4895
:101C80004068072109028843E16808430A4948601F
:101C900000F032F808494968F02211400909084A61
:101CA000515CC840074908600320FFF74FFE002041
:101CB00058E7000000200240001002408813000096
:101CC000D2BD0008000000200148006870470000F5
:101CD0000000002000B5FFF7F7FF0549496807221B
:101CE00012021140090A034A515CC84000BD0000BD
:101CF00000100240E2BD0008F0B589B025A0014601
:101D00000EC9C06805AC0EC4089026A001460EC9D5
:101D1000C06801AC0EC404900024002600270025F2
:101D200000200090234844680C20204000282AD03E
:101D3000042802D0082825D102E01F48009025E0A1
:101D40000F2080042040800C05A90D5C1948C06A52
:101D50000007000F01A90E5C0320C00320400121F1
:101D60000904884206D131461348FEF7BDF968439D
:101D7000074605E031461048FEF7B6F968430746C6
:101D8000009703E000BF0C48009000BF00BF009820
:101D900009B0F0BD02030405060708090A0B0C0D83
:101DA0000E0F10100102030405060708090A0B0CA8
:101DB0000D0E0F100010024000127A00F8B5044614
:101DC00000252078C007C00F002872D0FA4840686C
:101DD0000C21084004280CD0F74840680840082827
:101DE00013D1F5484068490308400121090488429D
:101DF0000BD1F148006801214904084000286BD04C
:101E00006068002868D10120F8BD00BF6068012823
:101E100007D1E9480068012109040843E649086040
:101E200031E0606800280ED1E34800680121090410
:101E30008843E14908600846006801218904884315
:101E4000DD4908601FE0606805280ED1DA480068A7
:101E5000012189040843D849086008460068012127
:101E600009040843D44908600DE0D3480068012103
:101E700009048843D04908600846006801218904A4
:101E80008843CD49086000BF6068002812D0FFF782
:101E90003FFD054606E0FFF73BFD401B642801D9E6
:101EA0000320B1E7C4480068012149040840002824
:101EB000F1D011E0FFF72CFD054606E0FFF728FD05
:101EC000401B642801D903209EE7BB48006801211C
:101ED000490408400028F1D1022120680840022866
:101EE00062D1B54840680C21084000280CD0B248A7
:101EF0004068084008281CD1AF48406849030840A2
:101F00000121C903884214D1AB480068022108406E
:101F1000002804D0E068012801D0012074E7A64819
:101F20000068F82188432169C9000843A249086074
:101F30003AE0E068002820D09F480068012108436B
:101F40009D490860FFF7E4FC054606E0FFF7E0FC6A
:101F5000401B022801D9032056E797480068022158
:101F600008400028F2D094480068F821884321698D
:101F7000C90008439049086016E08F48006840088F
:101F800040008D490860FFF7C3FC054606E0FFF7F7
:101F9000BFFC401B022801D9032035E786480068B2
:101FA000022108400028F2D10821206808400828B2
:101FB00031D1E069002817D07F48406A01210843E9
:101FC0007D494862FFF7A4FC054606E0FFF7A0FC48
:101FD000401B022801D9032016E77748406A0221F6
:101FE00008400028F2D016E07348406A40084000DC
:101FF00071494862FFF78CFC054606E0FFF788FC54
:10200000401B022801D90320FEE66B48406A0221EA
:1020100008400028F2D1042120680840042871D12A
:1020200000266548C0698906084000280DD100BF18
:102030006148C06908436049C8610846C06909042D
:102040000840009000BF00BF01265C480068FF21E7
:1020500001310840002816D1584800680843574904
:102060000860FFF755FC054606E0FFF751FC401BF2
:10207000642801D90320C7E650480068FF210131D8
:1020800008400028F1D000BFA068012806D14A48C6
:10209000006A01210843484908622BE0A068002833
:1020A0000CD14548006A4008400043490862084690
:1020B000006A04218843404908621BE0A0680528A3
:1020C0000CD13D48006A042108433B490862084698
:1020D000006A01210843384908620BE03648006A6B
:1020E00040084000344908620846006A04218843D9
:1020F0003149086200BFA068002813D0FFF708FC30
:10210000054608E029E0FFF703FC401B2C49884204
:1021100001D9032078E62848006A022108400028F7
:10212000F1D011E0FFF7F4FB054607E0FFF7F0FB05
:10213000401B2349884201D9032065E61E48006AF6
:10214000022108400028F1D1012E05D11A48C069AA
:10215000310788431849C86100BF10212068084032
:1021600010285FD1606901282CD11348406B0421ED
:102170000843114948630846406B012108430E4952
:102180004863FFF7C5FB054606E0FFF7C1FB401BB0
:10219000022801D9032037E60748406B0221084096
:1021A0000028F2D00448406BF8218843A169C90097
:1021B00008430149486335E00010024000700040C8
:1021C000881300006069401D00280FD14E48406B05
:1021D000042188434C4948630846406BF8218843F2
:1021E000A169C9000843484948631BE04648406B61
:1021F00004210843444948630846406B40084000B6
:102200004863FFF785FB054606E0FFF781FB401BAF
:10221000022801D90320F7E53B48406B0221084022
:102220000028F2D1206A00286CD0374840680C2181
:102230000840082864D0206A022847D13248006844
:1022400001210906884330490860FFF761FB054614
:1022500006E0FFF75DFB401B022801D90320D3E510
:10226000294800680121490608400028F1D100BF33
:102270002548C06A00090001E16A08432249C86292
:10228000616AA06A0843204949687B22D2039143CE
:1022900008431D49486000BF08460068012109063F
:1022A000084319490860FFF733FB054606E0FFF7CE
:1022B0002FFB401B022801D90320A5E51248006826
:1022C0000121490608400028F1D01BE00E480068B3
:1022D0000121090688430C490860FFF719FB0546F0
:1022E00006E0FFF715FB401B022801D903208BE510
:1022F000054800680121490608400028F1D101E0A5
:10230000012081E500207FE50010024010B5044661
:1023100072B607F0C7FB62B610BD000010B50446E8
:1023200020688068012109030840000B002811D0B3
:102330002068C06809110840000A00280AD0204619
:10234000FFF7E4FF2068C068802108400549084382
:102350002168C8600120400403494861012060777A
:1023600010BD00007FFEFFFF00040140F0B50646EF
:102370000C4617460025306840681249084005465B
:10238000FF2000042840000CE0701F2000022840BD
:10239000000A6070A806800EA07007204003284045
:1023A000400B2070002F0BD1E07804F07BF8E07038
:1023B000607804F077F86070A07804F073F8A0708B
:1023C0000020F0BD3FFFFF00F0B505460C46174664
:1023D00000262868806A6060286800694004400C14
:1023E000A060286800681249084006463F200004A3
:1023F0003040000C20707F2000023040000A6070E6
:102400007006400EA070012080053040000CE07086
:10241000002F0BD1207804F045F82070607804F08C
:1024200041F86070A07804F03DF8A0700020F0BD85
:102430007F7F7F0010B50446002C01D1012010BD24
:10244000607F002803D12077204600F065F8022045
:10245000607700BFCA202168486253202168486223
:1024600000BF204604F038F8002808D000BFFF2045
:102470002168486200BF042060770120DFE7206800
:1024800080682449084021688860216960680843A1
:102490006169084321688968084321688860216868
:1024A000E0680861206800692189090408432168FF
:1024B00008612068C068802188432168C86020685E
:1024C00080682021084000280DD1204600F040FA05
:1024D000002808D000BFFF202168486200BF042008
:1024E00060770120ABE72068006C012189048843F4
:1024F000216808642068006CA169084321680864A9
:1025000000BFFF202168486200BF012060770020E3
:1025100095E70000BFFF8FFF054A0168914205D192
:102520000449096AD2131143024A1162704700003C
:102530000028004000100240FEB504460D46164635
:10254000002700200190009000BF207F012801D1CA
:102550000220FEBD0120207700BF02206077002E00
:102560002AD12068806840210840002800D002E07D
:102570000020E87000BFE869002800D100E000BF3B
:10258000287803F09CFF0304687803F098FF0002AA
:102590000343A87803F093FF0343E8780004034360
:1025A0002021485D03F08BFF00060343E8690343E5
:1025B0006869034301932FE0206880684021084048
:1025C000002804D0287803F06DFF019002E000207D
:1025D000E87000BFE869002805D12021485D03F0BC
:1025E00061FF019005E02021485D03F05BFF019051
:1025F00000BF28780004697809020843A9780843D5
:10260000E978090408432021495D09060843E9697E
:102610000843696908430190A96968680843009004
:1026200000BFCA202168486253202168486200BF69
:1026300020688068FF210131884321688860206814
:10264000C06880210840284908432168C860FFF716
:102650005FF9074613E0FFF75BF9C01B7D21C90056
:1026600088420CD900BFFF202168486200BF0320C8
:10267000607700BF0020207700BF032069E7206853
:10268000C068C007C00F0028E5D001982168C86164
:1026900000982168486420688068FF210131084360
:1026A0002168886020688068012109030843216847
:1026B00088600E4800680121490408430B490860FE
:1026C000084680680121490408430849886000BF22
:1026D000FF202168486200BF0120607700BF002012
:1026E000207700BF00BF34E77FFEFFFF00040140FA
:1026F000F8B504460D461646002700BF207F012886
:1027000001D10220F8BD0120207700BF02206077B0
:10271000002E09D1687810210840102804D168786B
:10272000EF2108400A306870002E11D1E87803F0DC
:10273000C6FE0304687803F0C2FE00020343A878D3
:1027400003F0BDFE03432878400303431F4612E015
:10275000687803F0A7FE0746A87803F0A3FE0746B3
:10276000E8780004697809020843A97808432978C1
:1027700049030843074600BFCA2021684862532026
:102780002168486200BF204603F0A6FE00280CD056
:1027900000BFFF202168486200BF0420607700BFAF
:1027A0000020207700BF0120ACE71748384021689F
:1027B00048602068C068802188432168C86020681C
:1027C000806820210840002811D1204600F0C0F880
:1027D00000280CD000BFFF202168486200BF042001
:1027E000607700BF0020207700BF01208AE700BF8C
:1027F000FF202168486200BF0120607700BF0020F1
:10280000207700BF00BF7DE73FFFFF00F8B504461B
:102810000D461646002700BF207F012801D1022067
:10282000F8BD0120207700BF02206077002E1BD169
:102830002068806840210840002800D002E0002085
:10284000E87000BF287803F03AFE0304687803F0CC
:1028500036FE00020343A87803F031FE0343E87814
:10286000000403431F4618E02068806840210840A8
:10287000002804D0287803F015FE074602E0002067
:10288000E87000BF28780004697809020843A97835
:102890000843E97809040843074600BFCA202168B5
:1028A000486253202168486200BF204603F014FEAE
:1028B00000280CD000BFFF202168486200BF042020
:1028C000607700BF0020207700BF0120A8E71F48E5
:1028D00038402168086020688068012189048843A5
:1028E000216888602969E868084321688968084385
:1028F000216888602068C068802188432168C8609A
:102900002068806820210840002811D1204600F06E
:102910001FF800280CD000BFFF202168486200BFCC
:102920000420607700BF0020207700BF012077E7F8
:1029300000BFFF202168486200BF0120607700BF10
:102940000020207700BF00BF6AE700007F7F7F0084
:1029500070B5044600252068C068A021884321681E
:10296000C860FEF7D5FF054608E0FEF7D1FF401B23
:102970007D21C900884201D9032070BD2068C0684C
:10298000202108400028F0D00020F6E770B504466A
:10299000002C01D1012070BD606A002800D100BF69
:1029A00001214903A06A884200D100BF5D20005D7B
:1029B000002805D100215C200155204600F06CF86C
:1029C00002215D200155206800684021884321686C
:1029D000086007210902E068884201D9002501E06A
:1029E00001252D030F210902E068884206D0072146
:1029F0000902E068884201D00021A162206B002812
:102A000009D107210902E068884202D90221216325
:102A100001E001212163A16860680843216908433E
:102A20006169084301225202A16911400843E1692A
:102A30000843216A0843A16A084321680860206BA3
:102A4000022805D1206800689100084321680860C9
:102A5000A069000C04210840616A0843616B0843C7
:102A6000E168084328432168486001214903A06ABE
:102A7000884202D12168E06A08612068C0690121AA
:102A8000C90288432168C8610020206601215D20B9
:102A9000015500207FE7000010B586B004461949B3
:102AA000206888422CD100BF1748406901214904A1
:102AB0000843154948610846406901214904084016
:102AC000009000BF00BF00BF0F4880694911084354
:102AD0000D4988610846806989140840009000BF4C
:102AE00000BFE0200190022002900020039003200C
:102AF00004900020059001A90920C006FEF700FE01
:102B000006B010BD0030014000100240F0B585B0A5
:102B100004460D4617461E46002003900290019081
:102B200007210902E068884201D8012F00D900BFBF
:102B3000FF210531606888420ED1A06800280BD1C2
:102B400004215D2001553B462A4629462046009631
:102B500000F058FA05B0F0BD00BF5C20005D012810
:102B600001D10220F6E701215C20015500BFFEF7EC
:102B7000CFFE02905D20005D012802D0022001906E
:102B800026E1002D01D0002F02D1012001901FE18C
:102B900004215D2001550020206625644420075350
:102BA000462007530020A063A087E087E0642065EB
:102BB000C902A06A884213D100BF20680068884318
:102BC00021680860206800680121490308432168E2
:102BD000086000BF4620005B401E81B246200153C2
:102BE00007210902E068884207D92068406801216E
:102BF000090388432168486006E020684068012195
:102C000009030843216848600121C903A06888427C
:102C100005D1206800684910884321680860206851
:102C2000006840210840402804D02068006808431C
:102C30002168086007210902E068884224D81EE064
:102C400020688068C007C00F00280AD02068007B79
:102C500028706D1C4620005B401E81B24620015347
:102C60000DE0002E08D0701C002808D0FEF750FEA2
:102C70000299401AB04202D303200190A8E04620F6
:102C8000005B0028DCD123E01EE020688068C007DC
:102C9000C00F00280AD02068C0682880AD1C4620DC
:102CA000005B401E81B2462001530DE0002E08D08B
:102CB000701C002808D0FEF72BFE0299401AB04283
:102CC00002D30320019083E04620005B0028DCD182
:102CD00001214903A06A88425ED12068006849103A
:102CE000084321680860029833460122114600908B
:102CF000204604F071FA002802D00320019067E01A
:102D000007210902E068884203D92068C06828804A
:102D100002E02068007B28700298334601221146A9
:102D20000090204604F058FA002806D0206E0221B8
:102D300008432066032001904AE00F210902E06861
:102D4000884206D12068C06881B2039168468089B4
:102D500022E02068017B03916846808907210902EF
:102D6000E068884218D1206B022815D102983346BA
:102D7000012211460090204604F02EFA002806D0C9
:102D8000206E0221084320660320019020E0206885
:102D9000017B03916846808931462046029A04F0FF
:102DA00045F9002801D02020206620688068102185
:102DB0000840102806D1206E0221084320660948E9
:102DC00021688860206E002801D00120019000BF9A
:102DD00001215D20015500BF00215C20015500BF8D
:102DE0000198B7E6EFFF0000FEB504460D46174612
:102DF0001E4600200290019007210902E0688842E7
:102E000001D8012F00D900BF00BF5C20005D012860
:102E100001D10220FEBD01215C20015500BFFEF75B
:102E200077FD02905D20005D012802D00220019014
:102E3000DDE0002D01D0002F02D101200190D6E06D
:102E400003215D20015500202066A563A787E78741
:102E500020640021442001534620015300202065B6
:102E6000E0640121C903A068884205D12068006898
:102E7000491008432168086001214903A06A88427B
:102E80000DD100BF20680068884321680860206871
:102E900000680121490308432168086000BF2068D9
:102EA000006840210840402804D02068006808439A
:102EB0002168086007210902E06888422DD960680E
:102EC000002802D0E08F012806D128882168C86038
:102ED000AD1CE08F401EE0871BE020688068022167
:102EE0000840022807D128882168C860AD1CE08FFF
:102EF000401EE0870DE0002E08D0701C002808D08E
:102F0000FEF706FD0299401AB04202D30320019059
:102F10006DE0E08F0028E0D142E06068002802D038
:102F2000E08F012811D1E08F012807D92888216876
:102F3000C860AD1CE08F801EE08706E0287821681D
:102F400008736D1CE08F401EE08726E020688068D3
:102F500002210840022812D1E08F012807D92888D1
:102F60002168C860AD1CE08F801EE08715E02878DE
:102F7000216808736D1CE08F401EE0870DE0002E75
:102F800008D0701C002808D0FEF7C2FC0299401A35
:102F9000B04202D30320019029E0E08F0028D5D170
:102FA00001214903A06A884205D1206800684910C0
:102FB00008432168086031462046029A04F07DF8F3
:102FC000002801D020202066A068002809D100BF79
:102FD00000902068C068009020688068009000BF62
:102FE00000BF206E002801D00120019000BF012108
:102FF0005D20015500BF00215C20015500BF0198F4
:1030000008E70000F0B587B004460D4616461F4697
:10301000002006900590049003900120029000206B
:10302000019007210902E068884201D8012F00D9E8
:1030300000BF00BF5C20005D012802D1022007B064
:10304000F0BD01215C20015500BFFEF761FC03903B
:103050005D20005D069060680590069801280DD0FF
:10306000FF2105310598884205D1A068002802D1CA
:103070000698042802D002200190C5E1002D03D05B
:10308000002E01D0002F02D101200190BCE15D2073
:10309000005D042802D005215D2001550020206636
:1030A00026644620075344200753A563E787A78774
:1030B0000020E064206501214903A06A88420DD107
:1030C00000BF2068006888432168086020680068A5
:1030D0000121490308432168086000BF0721090254
:1030E000E068884203D84620005B012807D92068A1
:1030F00040680121090388432168486006E0206890
:10310000406801210903084321684860206800687D
:1031100040210840402804D0206800680843216806
:10312000086007210902E068884270D960680028B9
:1031300002D0E08F012806D128882168C860AD1C24
:10314000E08F401EE08759E00298002832D0E08FDF
:1031500000282FD02068806802210840022829D149
:1031600028882168C860AD1CE08F401EE0870020E1
:103170000290E08F00281DD101214903A06A8842F6
:1031800018D1206800680421084000280BD120686D
:10319000406808210840082805D120680068890196
:1031A000084321680860206800680121090308437A
:1031B000216808604620005B002811D020688068E4
:1031C000C007C00F00280BD02068C0683080B61C34
:1031D0004620005B401E81B2462001530120029030
:1031E0000C98401C002809D0FEF792FB0399411A65
:1031F0000C98814202D30320019005E1E08F002862
:10320000A2D14620005B00289ED19FE0FFE76068C6
:10321000002802D0E08F012811D1E08F012807D9C2
:1032200028882168C860AD1CE08F801EE08706E01A
:103230002878216808736D1CE08F401EE0877DE0D0
:10324000029800283DD0E08F00283AD0206880689E
:1032500002210840022834D1E08F012807D92888AC
:103260002168C860AD1CE08F801EE08706E02878EA
:10327000216808736D1CE08F401EE08700200290DB
:10328000E08F00281DD101214903A06A884218D18E
:10329000206800680421084000280BD1206840689D
:1032A00008210840082805D12068006889010843E2
:1032B000216808602068006801210903084321682B
:1032C00008604620005B00282AD020688068C0077C
:1032D000C00F002824D04620005B012814D92068A4
:1032E000C0683080B61C4620005B801E81B246203C
:1032F0000153005B012811D82068406801210903AF
:1033000008432168486009E02068007B3070761C23
:103310004620005B401E81B24620015301200290EE
:103320000C98401C002809D0FEF7F2FA0399411AC4
:103330000C98814202D30320019065E0E08F0028C1
:1033400000D07DE74620005B0028FAD10121490327
:10335000A06A88423AD10398009001221146204683
:103360000C9B03F039FF002806D0206E0221084391
:1033700020660320019047E00F210902E06888429F
:1033800006D12068C06881B204916846008A1DE0B9
:103390002068017B04916846008A206B022815D1C1
:1033A000039800900122114620460C9B03F014FF65
:1033B000002806D0206E02210843206603200190D9
:1033C00022E02068017B04916846008A20688068BA
:1033D00010210840102808D1206E022108432066E1
:1033E0000E4821688860012001902046039A0C99BC
:1033F00003F063FE002801D020202066206E002804
:1034000001D00120019000BF01215D20015500BFC6
:1034100000215C20015500BF019810E6EFFF00007D
:10342000042806D10649096904221143044A11619E
:1034300005E00349096904229143014A116170477B
:1034400000E000E07047000070B504462546681EA5
:103450000949884201D901200CE0681E07494861EA
:103460000321081F01F0E4FA0020044988610720C5
:103470000861002070BD0000FFFFFF0000E000E0D9
:1034800010B5FFF7DFFF10BD704701460022002393
:103490006920425C6A20435C104618437047000074
:1034A000F8B504462068C569206806682807000F3B
:1034B0000090009800280BD120202840002807D039
:1034C00020203040002803D0204606F0C7FCF8BD7D
:1034D00020688768009800287ED0F807C00F002871
:1034E00004D1FF20213030400028F5D0E807C00F7C
:1034F00000280BD0FF2001303040002806D00120EA
:1035000021680862E06E01210843E066022028403D
:1035100000280AD0F807C00F002806D00220216832
:103520000862E06E04210843E06604202840002879
:103530000AD0F807C00F002806D0042021680862CE
:10354000E06E02210843E0660820284000280ED0E3
:1035500020203040002803D1F807C00F002806D0F3
:10356000082021680862E06E08210843E066E06EEA
:10357000002841D020202840002806D020203040BC
:10358000002802D0204606F069FCE06E08210840C1
:10359000002805D12068806840210840002826D0F6
:1035A000204606F03AFC2068806840210840002848
:1035B00019D020688068884321688860606E002880
:1035C0000DD01B48616E4863606EFEF70DF8002851
:1035D00012D0606E416B00E00FE088470CE020469F
:1035E000FFF752FF08E02046FFF74EFF04E02046B9
:1035F000FFF74AFF0020E06669E7802028400028A6
:1036000007D080203040002803D0204606F080FDFF
:103610005DE740202840002807D0402030400028A7
:1036200003D0204606F00AFC51E700BF4FE7000038
:10363000039E000810B50446002C01D1012010BDE6
:10364000A069002800D000E000BF6920005D0028CC
:1036500005D1002168200155204600F02DF82421D5
:103660006920015520680068400840002168086012
:10367000204606F03BFC012800D1E0E7606A002804
:1036800002D0204606F036FB206840680121C902BE
:103690008843216848602068806808218843216841
:1036A000886020680068012108432168086020467E
:1036B00006F098FBC3E7000010B586B004462B491E
:1036C000206888422DD100BF2948806901218903E3
:1036D0000843274988610846806901218903084019
:1036E000009000BF00BF00BF2148406909010843A6
:1036F0001F4948610846406901218904084000903B
:1037000000BF00BFC0200190022002900120039062
:10371000032004900020059001A91648FDF7F0FF52
:1037200021E01549206888421DD100BF1048C069BA
:103730000121090508430E49C8610846C0690121F5
:1037400009050840009000BF00BF1820019002202A
:10375000029001200390032004900420059001A909
:103760000448FDF7CDFF06B010BD00000038014051
:1037700000100240000400480050004010B503460D
:103780006A20C05C20286AD1002901D0002A01D11A
:10379000012010BD012424039868A04208D11869B3
:1037A000002805D1C807C00F002801D00120F0E78C
:1037B00000BF6820C05C012801D10220E9E7012494
:1037C0006820C45400BF59655820C2525A20C252C2
:1037D00000BF24039868A0420AD11869002803D1C9
:1037E000204C5C20C45220E0FF245C20C4521CE02A
:1037F000986800280AD11869002803D1FF245C20AA
:10380000C45212E07F245C20C4520EE0012424073D
:103810009868A04209D11869002803D17F245C2050
:10382000C45202E03F245C20C45200BF0020D8668E
:1038300022246A20C45400BF00246820C45400BF5E
:1038400018688068012420431C68A060186800681C
:10385000FF24213420431C682060002099E70220C7
:1038600097E70000FF01000010B504461A492068E0
:10387000884230D11948807923280CD11748808894
:10388000042808D101201549C8710846818814A070
:1038900006F030FD16E0114880790A2808D10F485B
:1038A00081881248FCF7B1FC00210C48818009E0B6
:1038B0000A48817982880D48815408488088401CD4
:1038C000064988800548808801218902884202DBF8
:1038D00000200249888010BD0050004040070020B1
:1038E0006C656E203D2025640D0A00004403002015
:1038F000FEB504460D4616461F460020019069207D
:10390000005D20286AD1002D01D0002E01D10120B8
:10391000FEBD01210903A068884208D12069002862
:1039200005D1E807C00F002801D00120F0E700BF53
:103930006820005D012801D10220E9E7012168200B
:10394000015500BF0020E066212169200155FDF7E7
:10395000DFFF0190502006535220065325E05220ED
:10396000005B401E81B2522001530097002280214B
:103970002046019B06F005FC002801D00320C7E784
:1039800001210903A06888420BD12069002808D1D1
:103990000295029D2888C005C00D21680885AD1CD0
:1039A00003E028786D1C216808855220005B002800
:1039B000D5DC0097002240212046019B06F0E1FB68
:1039C000002801D00320A3E720216920015500BF72
:1039D00000216820015500BF002099E7022097E7E9
:1039E000704700BFFEE701460846704700B587B044
:1039F00000BF114840690121490408430E4948614C
:103A000008464069012149040840019000BF00BFF9
:103A1000881002900120039004900320059002A9D1
:103A20000648FDF76DFE00220121C9030920C006EA
:103A3000FDF767FF07B000BD00100240000400481A
:103A4000F7B50446002600250027082C01DB0320DB
:103A5000FEBD3A480078C007C00F002807D037489D
:103A6000006820210840202801D00120F0E76846A6
:103A7000007A000701176846082282561011814219
:103A800013DC6946097A090708170022052106F0A8
:103A900027FC002809D06A46082151560811002247
:103AA000052106F01DFC002800D10126032C18DAA0
:103AB000E100234A51580198884200D00125684608
:103AC000007A00070017002800DD01266A46082159
:103AD000515608110022052106F002FC002800D1F1
:103AE0000126184A0198116A8847012804D10198D3
:103AF000002801D0002D00D00125012E03D1012D79
:103B000001D10620A4E7012E01D10520A0E7012D57
:103B100001D104209CE7E00009494018029A01996C
:103B200006C0E00006494018477107480088012197
:103B3000A140084304490880002089E714010020BF
:103B4000A800002004BE0008FC0A00201CB50446A2
:103B500012480078C007C00F002807D00F4800683F
:103B600020210840202801D001201CBD032C01DAAF
:103B70000320FAE7002000900190E0000849401877
:103B8000019A009906C007492046FDF701FC00286C
:103B900001D10320E9E700BF0020E6E7140100207F
:103BA000A8000020FC0A0020FFB581B007460E46A1
:103BB0001C460B9D1E490A9848718C712004000E0A
:103BC000C8712002000E0872200E48728D722804FF
:103BD000000EC8722802000E0873280E4873CE73B8
:103BE0001448FDF7B2F813480399FDF7BEF8102208
:103BF0000F491048FDF7C3F8F2B239460D48FDF7FA
:103C0000BEF80C490C48FCF7CBFF0B48C078000607
:103C10000949897809040843074949780902084392
:103C20000549097808430C99086005B0F0BD00000B
:103C30005C010020080D0020F40B00200EB51420BC
:103C400069460870684600F075FA01980EBD0000DC
:103C500010B5044609480A4908600A4848600A48FD
:103C600088600A49206808606068486008496068A0
:103C70000860034800F032F810BD000091480008C9
:103C8000E80B0020F14800087D490008540100209D
:103C900050010020FEB504460D4616461F4603217E
:103CA00068460170019400F0EBFA04216846017047
:103CB000019500F0E5FA052168460170019600F0D3
:103CC000DFFA062168460170019700F0D9FA012158
:103CD00068460170017100F0D3FAFEBD70B504466C
:103CE0000D46002C01D1032070BD2068002805D0AE
:103CF0006068002802D0A068002801D10320F3E703
:103D00004248046042480560002042490870424928
:103D1000087001204149086000204149086041497C
:103D2000086041490870012040490870002040495E
:103D300008704049086007203F49088000203F493B
:103D400008703F4908703F49087001203E490870DB
:103D500000203E4908703E49087001203D49088016
:103D600000213D4A116051603C4A116051600020C1
:103D70003B4908703B483C4908603C483C49086066
:103D800040003C4908603C483C4908603C483D498B
:103D900008603D493D4805F02BFE34493B4805F09D
:103DA000DFFE3B493B4805F023FE3B493B4805F01D
:103DB0001FFE3B493B4805F01BFE3B493B4805F0D5
:103DC00017FE3B483B4908603B4888603B48086118
:103DD0003B4848603B48C8603B48016835488847D5
:103DE000394948698047064607F044FF08203749AB
:103DF00008700120364908700846007805F086FCF6
:103E00003149C86A804700206EE700001801002091
:103E10001C01002049010020740000207C000020CB
:103E2000800000208800002076000020850000200F
:103E30008600002014010020FC0A0020F100002070
:103E4000F2000020F3000020F4000020F500002024
:103E5000F6000020F80000200001002008010020EA
:103E600010010020C0C62D003801002040420F0084
:103E70002001002024010020404B4C00280100209C
:103E8000808D5B002C010020014D0008080B0020F4
:103E9000315B0008380B0020455A00084C0B00200D
:103EA000C15A0008600B0020A94A0008740B0020CA
:103EB000F95700081C0B0020115000083957000862
:103EC000DD5900089957000804BE000811010020C0
:103ED00075000020F8B504460D4616461F461048EA
:103EE000FCF733FF31460E48FCF73FFFEAB22146AC
:103EF0000B48FCF744FF0A490A48FCF751FE094801
:103F0000C0780006074989780904084305494978BB
:103F1000090208430349097808433860F8BD0000E6
:103F2000080D0020F40B0020FFB585B005460E46B5
:103F30001C460E9F07A80090F02200211C4806F0A6
:103F400081FF1B4A1021284606F026FD1022002181
:103F500001A806F077FF012168460171062231466B
:103F6000401D06F055FF022202A80330009906F01A
:103F70004FFF0F4A214601A806F0E0FC1022002165
:103F800001A806F05FFF0221684601710622314652
:103F9000401D06F03DFF022202A80330009906F002
:103FA00037FF034A394601A806F0C8FC09B0F0BD46
:103FB000140C0020F8B505460E4617461C46F022A4
:103FC00000210B4806F03EFF094A1021384606F052
:103FD000E3FC074A2146284606F0B0FC102E06DB1B
:103FE000034A214610312846103006F0A7FCF8BDE0
:103FF000140C0020F0B585B0044602200390002088
:1040000001900090002C02D1032005B0F0BD414882
:104010000078C007C00F002805D13E480068102175
:104020000840102801D10120EFE70020029018225B
:104030000021394806F006FF0120374948702078F2
:10404000002804D0012813D0032834D124E0012013
:104050000090324908706946087AE0218843403070
:10406000029020790190A668A7890E25655723E064
:10407000012000902A490870E07B284908706946B1
:10408000087AE02188438030029020790190A66868
:10409000A7890E2565570FE0012000901F49087081
:1040A0006946087AE0218843E030029066682789F3
:1040B0000A25655700E000BF00BF0098012827D1FE
:1040C0001848007800280BD100220521284606F068
:1040D00007F9002802D01448057001E0032094E796
:1040E0003B46324602A8019905F088F803900398F0
:1040F00000280AD12078084908700C480078400848
:104100004000401C0949087002E00020084908707E
:1041100003987AE714010020A00B00203C01002046
:104120003D01002087000020F2000020490100200E
:104130008C00002000B501460022002901D1032097
:1041400000BD0878030006F0FCF8170D1115191DC5
:104150002124272B2F32373A3E42464A4E52575C93
:10416000606468002F480078087158E02E48007895
:10417000087154E02D480078087150E02C48006820
:1041800048604CE02B480068486048E02A48486096
:1041900045E02A48486042E02948007808713EE03E
:1041A0002848007808713AE02748486037E0274BF4
:1041B00009CB8B60486032E0254848602FE02548F5
:1041C000007808712BE024480068486027E0234805
:1041D0000068486023E02248006848601FE02148EA
:1041E000006848601BE020480068486017E01F4BEB
:1041F00000201856087112E01D4B00201856087157
:104200000DE01C480068486009E01B4800684860F1
:1042100005E01A480068486001E0022200BF00BFC4
:1042200010468DE7740000208600002087000020E3
:10423000680000206C000020D0070020E00700206C
:104240007500002076000020A8000020E800002073
:10425000FC0A0020F400002038010020200100208A
:1042600024010020280100202C010020F200002061
:10427000F10000207C000020800000207000002061
:1042800070B504460025002C01D1032070BD5748AD
:104290000078C007C00F002801D00120F6E7207881
:1042A000030006F04EF8140B24282C30343F4A4EFD
:1042B0009E5257626E72767A7E82909E20794C4929
:1042C000087008460078002804D0012806D002288B
:1042D0000BD104E04749C86A804706E005E00020AA
:1042E0004549087001F0ECFB00BF00BF7BE020797E
:1042F0004249087077E020794149087073E04149EC
:10430000606808606FE04049606808606BE0606862
:10431000002805D010223D48616806F079FD00E0D4
:10432000032560E06068002805D0102238486168E5
:1043300006F06EFD00E0032555E0207905F0E6F972
:1043400051E02079334908704DE03348A268616834
:1043500006C048E06068002805D002222F48616846
:1043600006F056FD00E003253DE02079012806DB3C
:1043700020790F2803DC20792949087000E0032503
:1043800031E02849606808602DE0274960680860CE
:1043900029E026496068086025E0254960680860D2
:1043A00021E02449606808601DE0042020560022B6
:1043B000052105F095FF002803D020791E490870DB
:1043C00000E003250FE0042020560522002105F01F
:1043D00087FF002803D020791849087000E00325E2
:1043E00001E0022500BF00BF28464FE7140100206E
:1043F0007400002004BE00088C000020860000200D
:1044000087000020680000206C000020D0070020FA
:10441000E007002076000020E8000020FC0A0020D1
:10442000F400002038010020200100202401002099
:10443000280100202C010020F2000020F1000020C3
:10444000FFB583B004460D460E9F0C9E0D98029753
:104450000096019029462046069B059A00F002F836
:1044600007B0F0BDFFB581B00D461E460027012004
:104470000090F0220021304806F0E4FC2E4A102182
:10448000039806F089FA2D490A9848718E71300414
:10449000000EC8713002000E0872300E48720B9880
:1044A00088720B980004000EC8720B980002000E70
:1044B00008730B98000E487320E020490098C873D9
:1044C0000098401C80B200901B4A1D491B4806F012
:1044D00035FA00240AE039190198405C1849095D51
:1044E00048403A190C998854601C84B2102CF2DBB5
:1044F0002846103885B238461030C7B2102DDCDAA5
:10450000002D16DD0D490098C8730B4A0C490B4865
:1045100006F014FA00240AE039190198405C0849B1
:10452000095D48403A190C998854601C84B2AC4229
:10453000F2DB05B0F0BD0000140C00206C0100207F
:10454000040C0020FFB587B005460E46174618221A
:1045500000211A4806F076FC12216846017404A86E
:10456000FFF7E8FD01216846017002968781057119
:1045700069460A98C8736846017D8173FFF73AFD62
:10458000030005F0DEFE0B070910141414140B0DC4
:104590000E12140000240CE001240AE0022408E0BA
:1045A00000BF032405E0042403E0062401E0012405
:1045B00000BF00BF20460BB0F0BD0000D00B0020B4
:1045C000F0B587B005460E46174618220021184858
:1045D00006F038FC12216846017404A8FFF7AAFD12
:1045E000002168460170029687810571017D817303
:1045F000FFF700FD030005F0A4FE0B0709101414DB
:1046000014140B0D0E12140000240CE001240AE017
:10461000022408E000BF032405E0042403E006248C
:1046200001E0012400BF00BF204607B0F0BD00003C
:10463000D00B00203EB5044602216846017004718B
:10464000FFF71EFE3EBD3EB50446002168460170E0
:104650000471FFF715FE3EBD014908707047000068
:104660001001002010B50349086B80470149886B91
:10467000804710BD04BE000870B50020474908609F
:104680000721052007F03EFAC0B2454908724549A6
:10469000087001204449C87008468078012805D177
:1046A00042A005F027FE00203F49887043A005F096
:1046B00021FE00203C49487660E000203A494870DD
:1046C0004249086B804701F0BDF9FFF7CBFF05F0C9
:1046D00039F80646FBF7C0FF0446F02006F0A6FABC
:1046E0002046F03006F0A2FA3848C16B0120884716
:1046F0002D49497E4A002C491A31885229480178AF
:104700002948427E2A3081542A38407E410026487A
:104710001A30405A401EC04301B22348407E420036
:1047200021481A3081521A38417E2A30435C2A3897
:10473000407E41001C481A30425E214624A005F00C
:10474000D9FD1948407E401C174948761548007825
:10475000401C1449087008460078082801D105203B
:1047600008700E48056800BF0F484078012804D043
:104770000A480068401B3228F6D300BF0A488078F8
:10478000002803D10848407E032896DB0020064914
:10479000C87008700D49C86A804770BDB00100201C
:1047A000480200201101002014020020696E7420CC
:1047B00063616420616761696E0D0A00696E74202F
:1047C000636164204D4F44450D0A000004BE00089B
:1047D00073796D626F6C54696D65203D2025642C82
:1047E000727373695B305D203D20256420436861EE
:1047F0006E6E656C203D2025640D0A0010B50E48D4
:104800000E490860E1204002486000210B488160A9
:10481000C16001610C21416100218161C1610162BE
:104820000020064948620846FEF704FF002801D030
:10483000FCF736FE10BD0000003801406002002089
:1048400010B5104810490860E1204002486000217E
:104850000D488160C16001610C21416100218161CD
:10486000C16101620020084948620846FEF7E2FE85
:10487000002801D0FCF714FE012204490248FEF78B
:104880007DFF10BD00500040D002002046070020F0
:1048900010B5044660781249087012480078400844
:1048A0004000401C0F490870A0780D49C87060791D
:1048B0008870207948700C4800788007C00F002865
:1048C0000CD1094800784007C00F002806D10748DE
:1048D00002680448904700200249087010BD00009B
:1048E000D00B00204C010020490100205401002081
:1048F00010B5044660781E4908701E4800780221F1
:104900008843801C1B490870084600783021884382
:10491000617C09013022114008431649087008469D
:10492000007808218843A178C90008221140084373
:1049300010490870607B012806D1084600780421E0
:104940008843001D0B490870E07809490871A06888
:104950008860207B0873E089C881207C0874064841
:1049600002680448904700200249087010BD00000A
:10497000D00B00204C0100205401002010B504464B
:10498000607800283BD12078002802D0012834D15B
:1049900018E06078214908702148007840084000FC
:1049A000401C1F4908700846007802218843801C7B
:1049B0001B490870084600788021884380301849D8
:1049C00008701BE01648007840084000401C14495D
:1049D00008700846007802218843801C104908703E
:1049E000084600784021884340300D490870207CFB
:1049F0000A490875607C487500E000BF00BF09489F
:104A000000788007C00F002807D1074803490268D3
:104A10000348904700200249087010BDD00B0020C9
:104A20004C01002049010020540100207047000083
:104A300010B5002819DA1A4A03071B0F083B9B0818
:104A40009B00D2588307DC0EFF23A3409A438B07B9
:104A50001B0E8407E40EA3401A43114B0407240FD6
:104A6000083CA408A4001A5118E00E4A03231B02B4
:104A7000D21883089B00D2588307DC0EFF23A34083
:104A80009A438B071B0E8407E40EA3401A43054B81
:104A9000032424021B198408A4001A5110BD00002D
:104AA0001CED00E000E100E010B50D4805F0ACF8A9
:104AB0000C480078012807D10B4908700B480068A2
:104AC000042188430949086009480078022806D172
:104AD000084800780821884308300649087010BD4E
:104AE000740B00208C0000203E01002014010020E7
:104AF0007400002049010020F8B504460D462878CE
:104B0000002804D0012804D0032803D100E002E0EB
:104B100001E000E000BF00BF2078C00900280FD0EE
:104B200050A005F0E7FB524805F06EF8012051490E
:104B3000087002F0BFF9002105204F4A1268904723
:104B4000687801280FD14C480068002820D04B49D4
:104B50000320494A1268904701204949087049A03A
:104B600005F0C8FB14E020788007C00F00280FD1A3
:104B70002078C00900280BD146480078002807D1CA
:104B800045A005F0B7FB002104203B4A126890477E
:104B900020788007C00F002845D0287B3749C8807F
:104BA0000846C2880830A968FBF716FBE889334934
:104BB0000880287C887020788006800F401CC87090
:104BC000287908710846C088009008460023C35E13
:104BD0008278C17837A005F08DFB20784007C00FA0
:104BE000002820D02448006800281CD02349012038
:104BF000214A126890472148C088002813DD38A058
:104C000005F078FB002607E01C480830815D38A0DD
:104C100005F070FB701CC6B21848C088B042F3DCC7
:104C20001BA005F067FB2078C007C00F002818D034
:104C300011480068002814D0002108460E4A126866
:104C400090472078C009002803D000200C498870C4
:104C500002E001200A49887027A005F04BFB04F010
:104C6000FBFBF8BD6A6F696E20646F6E650D0A000C
:104C7000BC0F0020BC010020B8010020D00F002094
:104C8000F801002041434B205265636569766564F5
:104C90000D0A0000520200203D3D3D3D3D4E4F209B
:104CA00041434B205245504C593D3D3D3D3D0D0A41
:104CB0000000000077696E203D20256420736E722D
:104CC000203D2025642072737369203D20256420D7
:104CD00073697A65203D202564200D0A00000000DC
:104CE0005278496E666F2E627566203D2000000086
:104CF0002530327820000000446F6E650D0A0000F8
:104D000010B5AC4804F080FF0024AB4800780007E1
:104D1000C00F00287ED0A84800784007C00F0028A8
:104D200005D1A5480078C007C00F002818D0A348B7
:104D30004078022803D0A2484078022810D1A14828
:104D40000068400840009F4908609F4800789B49E0
:104D50004871002008710021984A9160D1600124B7
:104D60009A48007800284DD1002C4BD19248007809
:104D70004007C00F00280DD091480078002809D1C5
:104D80008F484078002801D1914908609148007807
:104D900091490870884800784007C00F002805D165
:104DA00085480078C007C00F00282BD08A480078BB
:104DB00088490978884205DA7F4800788007C00F63
:104DC000002817D000208449087084480068401CDF
:104DD0008249086082480078002804D17C48006835
:104DE000401C7B49086077480068400840007549CE
:104DF000086007E070480078082188436E49087011
:104E000004F094F96C4800788007C00F002823D084
:104E10006A4800E05EE00079012805D06A48007821
:104E200070490978884217DD00206F49087067498A
:104E300008706B480078002804D165480068401C61
:104E400063490860604800785C4948715D480068C3
:104E5000400840005B49086063480078012857D14A
:104E60005848006810210840002851D15E49087058
:104E7000554800785B49097888422CDA5248007816
:104E8000082828DC50480078401C4F4908700878F2
:104E9000C10F091849104900411A01290DD1534980
:104EA00000200856401E052803DD00200856401E3D
:104EB00000E0052040B24D4908703F4800780821C5
:104EC00088433D4908704AA005F014FA04F02EF911
:104ED00004F0C2FA1CE04A48008807210843484908
:104EE00008803848006840084000364908600020C3
:104EF000364908703149087133480078487138489C
:104F00000078002804D132480068401C304908600D
:104F10002C48006802210840022804D12948006872
:104F200088432849086027480068002828D122487B
:104F30000078C007C00F00280AD032480068016816
:104F40001E4888471C480078400840001A490870ED
:104F5000194800784007C00F00280AD02948006887
:104F6000816817488847144800780421884312490B
:104F7000087011480078082188430F49087006E03E
:104F800021490C4804F0ECFD0A4804F0F9FD0A48F8
:104F900000788007C00F00280AD01A4800684168CE
:104FA0001A4888470448007802218843024908705B
:104FB00010BD0000080B002049010020A00B0020BC
:104FC000B80B0020140100203D0100208C000020BF
:104FD0007C000020F4000020F50000208800002064
:104FE000840000203C0100203E010020F20000204F
:104FF0005363686564756C6554780D0A00000000A1
:10500000FC0A00201801002040420F00880B0020FD
:10501000FFB595B005460C46F649F7A005F06AF9CC
:105020000020119010900F90FF200E9000200D9006
:105030000C9000270B900A90099000260890F048E9
:105040000790F0480690002005900490EE49087102
:10505000EE491798C88118980874ED48007848748C
:105060000020C8708870487188600873487388741D
:1050700048610870E7480078022802D0E649C86A0B
:105080008047E64804F0C0FD1198411CC9B2119157
:10509000285C1390E248C078002805D010A9087B4E
:1050A000E02188438030139010A8007B4009030062
:1050B00005F047F908FB05FBFAF9F8FBF7FBD948BF
:1050C0000078012800D1E3E2D7A005F013F9601EB3
:1050D00081B2D94BD9480268681CFEF76BFF10A853
:1050E000007BD549491E0870201F81B20CABD34804
:1050F0000268D148401EFEF7EDFE201FCE49491E32
:10510000085C0743E01E085C00020743A01E085C21
:1051100000040743601E085C000607430C988742A2
:105120007ED1B848B64B0090C5480288491CC34898
:105130000068FEF7F9FEC048401E0079C1490860CA
:10514000BD48401E4079000209680843BD49086017
:10515000B948401E8079000409680843B9490860CD
:10516000B548401EC079B8490860B348401E007A6F
:10517000000209680843B4490860AF48401E407AFD
:10518000000409680843B0490860AB48401E807AB3
:10519000000609680843AC490860A748401EC07A69
:1051A0004006400FA9490870A348401EC07A000776
:1051B000000FA7490871A048401E007B0007000FA0
:1051C000A449086008460068002801D10120086051
:1051D000A0480068FBF724FA00229F4B0191009041
:1051E000FBF722F903910290FBF76EFA99490860E8
:1051F00008460068FBF714FA0022974B01910090D3
:10520000FBF760F803910290FBF75EFA93490860A0
:10521000601E102839DD502069460873904800E070
:1052200044E00068202108438D4908600320019074
:10523000002000901FE000980D307F49491E095C56
:1052400000980E307C4A521E105C00020843009900
:105250000F31515C0904084364214843029001A8BE
:1052600007C8FEF7EDFB0198401CC0B20190009802
:10527000C01CC0B2009001980828DCDB78480068A8
:10528000202188437649086000BF00207549487096
:105290000120644908707449002008567349087059
:1052A00007E0D7E107E005E006E0EBE105206D4906
:1052B0004870EDE100BF00BF1198411CC9B21191C7
:1052C000285C10901198411CC9B21191285C000211
:1052D0001099084310901198411CC9B21191285C93
:1052E00000041099084310901198411CC9B2119103
:1052F000285C0006109908431090534910980968DB
:10530000884224D05A480068089012E00898016842
:10531000109881420AD1012005900898001D07903D
:105320000898143006900898466A05E00898806A44
:10533000089008980028E9D100BF059800280ED1F0
:1053400007203249487000F039FE19B0F0BD002046
:1053500005902B4807902B48069046480668119800
:10536000411CC9B21191295C12911198411CC9B21A
:105370001191285C0B901198411CC9B21191285CC5
:1053800000020B9908430B9010A8007A0007000F49
:1053900008300F90201F285C0743E01E285C0002A5
:1053A0000743A01E285C00040743601E285C00061B
:1053B0000743B0B20A900A990B98401A80B209903C
:1053C0000121C9030998884256DA099836180CA8B1
:1053D0000121019600910290201F81B22846109B66
:1053E000079AFEF7E1FB0C98874260D101200490F8
:1053F0005DE0000076C1000825730D0A0000000082
:10540000D0070020E0070020A00B0020880B002020
:10541000480100207400002004BE0008600B00203A
:1054200014020020860000206A6F696E20616363A9
:10543000657074200D0A0000EF0900206000002054
:1054400064000020680000206C000020F0000020B4
:10545000E80000202001002080842E41240100204B
:1054600014010020B80B0020F3000020F2000020FF
:1054700070000020800000200120000431180998ED
:1054800000B2081803900CA901220398009202911F
:105490000190201F81B22846109B079AFEF784FBDB
:1054A0000C98874202D101200490039E00BF04980B
:1054B00001287DD10020844948700598887010A883
:1054C000007AC006C00F4871002088600873084643
:1054D000466100207D4948707D4908600598012893
:1054E00014D10220784908700898406AB0420AD165
:1054F0000898406A002806D0062048700846466191
:1055000000F05CFD21E70898466221E010A8007BCE
:105510004009052805D101206E4908706A490870C4
:1055200004E000206B490870674908706A48006809
:10553000B0420BD168480068002807D006206249B5
:1055400048700846466100F039FDFEE66248066094
:1055500010A8007A8006C00F002808D001205B49FF
:105560000871594988745D4804F04EFB0BE0002037
:10557000564908715A4800785A490978884202DD2C
:10558000564804F041FB10A8007A0007000F0028DD
:1055900006DD1898C3B2082128460F9A00F048FD8E
:1055A000201F0F99401A002841DD201F0F9A00E0AC
:1055B00045E0811A4CA004F09DFE0F98411CC9B231
:1055C0000F91285C0E90201F0F99401AC0B20D90C9
:1055D0003D490E98C8700E98002814D14948012101
:1055E0000196009102900F9828180390109B079A3B
:1055F0000D99FEF725FF1898C3B2002141480D9A76
:1056000000F016FD13E03F48012101960091029041
:105610000F9828180390109B069A0D99FEF710FF1B
:105620003848294988600D98087301204873364826
:10563000007802218843801C3349087009E0082063
:105640002149487031A00C9904F054FE00F0B6FCDA
:105650007BE61DE01198291822462A4805F0D8FB60
:105660000320194908700020487026488860119866
:10567000201A08732448007802218843801C22499C
:10568000087005E001201049487000F097FC00BF49
:1056900000BF26480078002805D125480078022858
:1056A00001D100F00DFA184800780821884308302D
:1056B000154908707D21C9001E4804F051FA1D48A3
:1056C00004F05EFA00BF40E6880B0020A00B00202B
:1056D000880000208D00002080000020740B002036
:1056E0003D0100203C0100206170705061796C6FB9
:1056F00061645374617274496E646578203D20253D
:10570000640D0A00EE09002049010020494E464F71
:105710005F5354415455535F4D49435F4641494C93
:10572000206D6963203D2025640D0A00480100209A
:1057300074000020080B002010B5104800780228E3
:1057400003D00F49C86A804701E000F0B9F90D485D
:105750000078012810D10C480078012802D10420DB
:105760000A49487004200A4948700A48007808210C
:10577000884308300749087010BD000074000020FD
:1057800004BE0008480100208C000020A00B00206F
:10579000B80B00204901002010B5104800780228FD
:1057A00003D00F49C86A804701E000F089F90D482D
:1057B0000078012810D10C480078012802D103207C
:1057C0000A49487003200A4948700A4800780821AD
:1057D000884308300749087010BD0000740000209D
:1057E00004BE0008480100208C000020A00B00200F
:1057F000B80B002049010020F0B587B004F0A8F8EC
:1058000005460E465E480078022803D05D49C86A06
:10581000804701E000F054F95B480078C0005B4924
:10582000401840791821484359494018C66085609E
:1058300058480078012826D153480078C0005349C1
:10584000401840791821484351490C5A0020524AC7
:1058500006CA0192029103902046019B029A039985
:10586000FAF76CFC4C4B0CCB801A9941464A1278E3
:10587000D200464BD218527918235A43444BD218BF
:10588000516110610CE000213F4A1278D2003F4B79
:10589000D218527918235A433D4BD21811615161E5
:1058A0003E4860C03C4903C93D4A17880022049223
:1058B000059106903A46049BFAF740FC364B0CCB18
:1058C000801A9941374B0CCB80185941354A03C295
:1058D0003548007801282DD134480168344804F057
:1058E0003FF9334804F04CF925480078022807D0E6
:1058F00030480168304804F033F92F4804F040F98B
:105900001F480078022803D02C480078012829D1AC
:105910002B49484206F0F6F826490968294A8918B1
:10592000401801460090284804F01AF9264804F06F
:1059300027F917E0002025494870032024494870C2
:1059400024480078002806D122480078400840000A
:10595000401C204908701F480078082188430830FF
:105960001C49087015480078002806D1174948706E
:1059700019480078401C1849087007B0F0BD0000B5
:105980007400002004BE000811010020A8000020BF
:1059900090000020100100204001002000010020A4
:1059A000F8000020080100208500002030010020C0
:1059B0004C0B002034010020600B00208C000020E4
:1059C00040420F0080841E00740B0020A00B0020BA
:1059D000B80B002049010020F500002010B50B484D
:1059E0000078022803D00A49C86A804701E000F025
:1059F00067F802200749487007494870074800784F
:105A00000821884308300549087010BD7400002043
:105A100004BE0008A00B0020B80B002049010020A4
:105A200010B5012003490870034904A004F062FC8A
:105A300010BD0000540200200CC3000825730D0A9D
:105A400000000000F8B5052500240026144804F0E5
:105A5000DBF800201349087013480078022802D1AF
:105A60001249086B80471248007812490978401A99
:105A700044B2002C00DA0024032C00DB0825062C9D
:105A800000D1012600200C4900900978C9000B4A7A
:105A900050582B463246214601F06CF9F8BD000003
:105AA0004C0B0020480100207400002004BE0008B8
:105AB000F2000020F000002011010020A8000020CA
:105AC00038B505240025164804F09EF80120154934
:105AD000087015480079032800DB08241248007973
