:020000040800F2
:10000000401B0020D5000008778B0008356A0008E7
:1000100000000000000000000000000000000000E0
:1000200000000000000000000000000043B90008CC
:100030000000000000000000519F00087DE800085B
:10004000E7000008E7000008F9AB0008E700000837
:10005000E7000008B1210008C1210008D1210008F3
:10006000E7000008E7000008E7000008E7000008D4
:10007000E7000008E700000871F40008E700000846
:10008000E7000008E7000008E700000800000000A3
:10009000E7000008E7000008E7000008E7000008A4
:1000A000E7000008E7000008E7000008E700000894
:1000B00019F40008E7000008E7000008E70000085E
:1000C0000348854600F0D2FE00480047BD090108FC
:1000D000401B00200448804704480047FEE7FEE735
:1000E000FEE7FEE7FEE7FEE759E90008C100000869
:1000F00030B50B46014600202022012409E00D46C0
:10010000D5409D4205D31D469540491B2546954047
:1001100040191546521E002DF1DC30BD70B500248B
:100120002546002801DA01244042002901DA012590
:100130004942FFF7DDFFAC4200D04042002C00D026
:10014000494270BDF0B51FB40646002082B0054696
:100150004024019100901BE0019922460F46304651
:1001600000F024FD049A059B801A994110D3104693
:100170001946224600F00AFD361A8F4101972246A1
:1001800001200021009F00F001FD38184D41009032
:100190002046641E0028DFDC019B00982946324679
:1001A00007B0F0BDF0B51FB486B0002000900190FC
:1001B00002900698069980B204900798090C0204F0
:1001C0000014114307900027089D099806913E46A8
:1001D0003C4603900398A9B20204000C03900498D3
:1001E0002D0C154348430021224600F0CFFCC719CF
:1001F000714110340E46402CECDB3846029A00F078
:10020000C5FC009A019B8018009059410298019109
:10021000103002904028CCDB00980BB0F0BD0346B4
:100220000B439B0703D009E008C9121F08C0042A2A
:10023000FAD203E00B780370401C491C521EF9D21D
:100240007047D2B201E00270401C491EFBD27047D9
:100250000022F6E710B513460A4604461946FFF792
:10026000F0FF204610BD30B505462A460B461078F3
:100270001C78521C5B1C002801D0A042F7D0002C37
:1002800003D0002802D06D1CEFE7284630BD421C89
:100290000178401C0029FBD1801A704710B500225C
:1002A00000E0521C835C8C5CA34201D1002BF8D18E
:1002B000D8B2E1B2401A10BD0321001D401E0378E0
:1002C00012021A43491EF9D510467047034610B56D
:1002D00008330722040E090221435B1E1C7800022A
:1002E0002043521EF6D510BD034603220870000AB3
:1002F000491C521EFAD51846704770B504460D4683
:10030000072310700E06000A3043090A521C5B1EB8
:10031000F7D52046294670BD0FB400B58DB00990C1
:100320000B9010A900200091C0430A9000200C906F
:1003300006480690064807906A4609A80F9900F0FB
:100340006FFC0DB008BC04B018470000410C000859
:10035000610C0008FFB50027FF4383B000205C68F4
:1003600001909E681D46A9697F1C049888470090EB
:10037000296A88470028F6D10098401C0CD0032039
:1003800040028443002E19DD600614D500982B2806
:1003900009D02D280FD103E00020C04307B0F0BDE5
:1003A000012080020443A9697F1C04988847761EB7
:1003B0000090002E02DD0098302803D00598002818
:1003C00025D035E0012040020443A969761E7F1C38
:1003D000049888470090002E03DD782805D058281F
:1003E00003D00598002810D022E00598002801D0FD
:1003F00010281DD1012040028443A969761E7F1C6C
:10040000049888470090102002E0082000E00A20AD
:1004100005900DE0012149020C43059A0199761ED1
:10042000514308180190A9697F1C049888470090DF
:10043000002E05DD0599009800F0DCFB0028E9DAC4
:10044000E96904988847A00502D40120C043A5E7C4
:10045000E00722D1600611D56005019800D5404221
:1004600029680A1D2A600968220501D5087014E070
:10047000220701D5088010E008600EE02868011D01
:1004800029600068210502D50199017005E0210766
:10049000019901D5018000E0016038467EE7F8B59A
:1004A00002464A40D40F42004B0052085B089A4271
:1004B00002D20246084611464A0023D0C30D4A0024
:1004C000DDB2120EAD1A202D35DA49020126490A95
:1004D000F6058A19002C00D0524220214F1B1146EC
:1004E000B9402A411018C20D9A4221D0002C17D0D1
:1004F000012D08DCDA05801AD20F8019D207DBB291
:1005000000F0C8FBF8BDDA05801A012340001B0685
:10051000C01880185A428018CA0F1043490007E0DB
:100520004908C2071143DA05801A8019400880186B
:1005300000F0A8FBF8BD61000122511A001BF7E78B
:100540000122D2075140AAE70122D2075040A6E774
:10055000024670B54A40D30FDB0740002DD04A0059
:100560002AD0010E140E000212020919400A520A82
:100570008418E50104465443000A120A2E0450432D
:10058000A4194219200CC543AA18120C0125AD0369
:10059000521C521912047F39240400D0521C1043FB
:1005A00001D44000491EC2B20C06C0092018401CEC
:1005B0004008802A02D003E0002070BD40084000BF
:1005C000002900DA0020184370BD70B502464A4089
:1005D000D50F40004A00ED0740085208002814D00B
:1005E000002A12D0C40DD30D41020120C0055202D1
:1005F000490A520AE41A091812187D34914201D3AB
:10060000641C00E04900002C01DA002070BD0023CA
:10061000914201D3891A0343400849000028F7D1C9
:1006200000290AD0914202D10121C90705E0914277
:1006300001D2012101E00121C943E005C0184019A0
:1006400000F020FB70BD0000F0B50746084658409A
:1006500087B0C00F049048000E4659004008490872
:10066000BC1A884105D2384631461E4617460B460D
:1006700002465800400810434CD0300D039040050E
:100680005900400D490D0590401A0290402872DA39
:1006900018030121000B09050843019004980092FA
:1006A000002805D001995242002088410092019013
:1006B000029840210A1A0199009800F067FA05464D
:1006C0000C466B4607CB00F082FAC0197141039AC1
:1006D0000E0D0023D71756401A467A40164344D0D1
:1006E000049A002A2DD0029A012A039A15DC1205D9
:1006F000C01A914101263605001C7141D20F059E9A
:10070000D2070093019202962A46234600F008FB86
:1007100007B0F0BD38463146FAE71605224A0F46C3
:10072000B218C01AB74101210905001C4F41001839
:100730007F41114618187941E20F10436D19644149
:1007400013E0E2076D0815436408C2071443039AD7
:1007500001261205C01A91413605001C7141CE07D1
:10076000400830434908C01851412A46234600F04A
:10077000CAFACDE7FFE7049801224000C117121A18
:1007800000238B4104983146C417381AA141EEE783
:1007900030B40124E407634030BC55E730B4012491
:1007A000E407614030BC4FE70000E0FFF0B51FB444
:1007B00088B00B990998002448400999C00F490056
:1007C00049080991C0070B990090490049080B910D
:1007D00009990898A64608431CD00B990A98084323
:1007E00018D0099801244000420D4800410D099895
:1007F00024050003000B204309900B980003000B15
:1008000020430B9050181C494018002201901446B8
:10081000104605E0002001460DB0F0BD032801DAC6
:10082000034600E003239C46C11A0AAE0AE05F00BB
:1008300008ADED5B4F00F75B7D430027AA187C41B4
:10084000491C5B1E6145F2DD410004AB5A52210494
:10085000120C0A43240C401C0828DFDB019802908C
:100860000099704601910090059B049A079906989B
:1008700000F056FAD0E700000DFCFFFFF0B50C4683
:100880005C4085B0E40FE40703944C000026640844
:1008900059009446490802460296224321D06246F6
:1008A0000A431ED06200570D4A000E032303550D64
:1008B000012402462C492405781B1B0B360B4018DB
:1008C00023432643614600901C46501AB44103D38B
:1008D0000098401C009002E0921800985B410028AC
:1008E00003DA0020014605B0F0BD00200121090512
:1008F0000746864611E064461D46141BB54106D3E3
:100900006546521BB341744607430C43A646CD07C8
:1009100040084908284392185B4105460D43EAD137
:100920001046184313D060461946504071400843A2
:1009300006D06046101AB34106D20122002306E019
:1009400000220123DB0702E00122D243531000986A
:1009500074460105381C6141029C039D00196941E0
:1009600000F0D1F9BFE70000FD03000010B5002240
:100970009623114600F08EF910BD00000EB5C21787
:10098000C10F5040CA0740180021054B0293019245
:1009900000910A460B4600F0C3F903B000BD000009
:1009A000330400000EB505490291002100910A466A
:1009B0000B46019100F0B4F903B000BD3304000010
:1009C0000EB5054A0292002200921346019200F0F1
:1009D000A7F903B000BD000033040000410040024D
:1009E0000122400AD205090E80187F2901DA002071
:1009F0007047962903DC9622511AC84070479639F1
:100A00008840704770B5CD0F4A0009030123090BD8
:100A10001B0519430B4BED070024520D9A4201DAD6
:100A2000002070BD074B34339A4203DC9A1A00F061
:100A3000BDF802E00449511888402C43F1D04042EF
:100A400070BD0000FF030000CDFBFFFF4A0009035B
:100A50000123090B1B051943094B10B5520D9A428E
:100A600001DA002010BD064B34339A4203DC9A1A97
:100A700000F09CF810BD03495118884010BD0000DB
:100A8000FF030000CDFBFFFF4A0009030123090B10
:100A90001B0519430A4B10B5520D9A4202DA002089
:100AA000014610BD064B34339A4203DC9A1A00F01B
:100AB0007DF810BD034BD21800F068F810BD00009F
:100AC000FF030000CDFBFFFFC20FD207400040082C
:100AD0000BD0C10D0723DB01C91840020905400AEC
:100AE0001143C20840071143704700200146704778
:100AF00010B5002904DB0124E40740428C41214663
:100B0000002B04DB1C460123DB075242A3418B422E
:100B100000D1824210BD000010B5002904DB012481
:100B2000E40740428C412146002B04DB1C46012394
:100B3000DB075242A341994200D1904210BD000010
:100B4000CB0FDB07490010B5490802460A4307D01E
:100B50000A0D07240903E401090B121B002A01DC1A
:100B6000002010BDC900440F0C43C100E018D2059D
:100B7000801800F087F810BD0122D207002800DBA2
:100B8000101A002900DB511A8842704710B5202A3C
:100B900004DB0146203A9140002010BD9140202303
:100BA0009C1A0346E3401943904010BD10B5202A1B
:100BB00004DB0846203AD040002110BD0B46D3404C
:100BC000D0402024A21A91400843194610BD10B508
:100BD000202A06DBCB170846203A1041C1170B43E9
:100BE00006E00B461341D0402024A21A914008434E
:100BF000194610BD3A2800D23038202302469A43C5
:100C0000412A01D310463738884201D30020C0431F
:100C10007047000002681378511801601846704749
:100C200010B5D1600449516104491162002111617C
:100C3000114600F035F910BD150C0008910E0008A2
:100C40004268002A08D001680B78491C002B03D0A9
:100C5000521E06C0184670470121C160881E7047A9
:100C60004268002A0BD0C3680168002B07D1836853
:100C70008B4204D0491E521C06C000207047002041
:100C8000C0437047002904DA401C490001D14008E4
:100C90004000704770B40024050C05D110240004F6
:100CA00002D1002921D01124050E01D100020834FF
:100CB000050F01D10001241D850F01D18000A41C66
:100CC000002801DB4000641C002908D020252E1BD1
:100CD0000D46F540A14000D00121294308430106FB
:100CE0001B1B000ADB1D02D5002070BC7047DB0512
:100CF000181880180029F8DA401C4900F5D170BC9A
:100D000040084000704710B5002B08DA0024401C52
:100D1000614192185B411A4301D14008400010BD67
:100D2000F0B51FB482B005460C0003D008460EF0A3
:100D3000E3FC02E00EF0E0FC203002460090214689
:100D40002846FFF723FF049B059A04460F461843E5
:100D50001143084314D0184610431BD0009840217B
:100D60000A1A18460599FFF721FF05460E46009A14
:100D700005990498FFF70AFF084305D0012004E015
:100D80002046394607B0F0BD0020C11705430E4389
:100D90002C43374300990E986305401A7905E40AFD
:100DA00000220C43FD0A0A3002D500200146E9E783
:100DB0000105101969410C9C0D9D00196941FFF74F
:100DC000A2FFDFE770B54B005B0803430BD04B007D
:100DD0005C0D002633466542B341D417AD1AA341DA
:100DE00002DB0020014670BD12053018514170BD74
:100DF000F8B50546480040080C46284304D060007A
:100E0000184A400D904201DD2846F8BD1549353994
:100E1000884210DC88420BDB290D2003084329039C
:100E2000014305D0E00F1049C00741180020F8BD6C
:100E300000200146F8BD161A4020821B2846214694
:100E4000FFF7A4FE07460091284621463246FFF7E9
:100E5000ADFE3A46009BFFF756FF3246FFF796FE7F
:100E6000F8BD0000330400000000F03F064C0125EF
:100E7000064E05E0E36807CC2B430C3C9847103442
:100E8000B442F7D3FFF720F9582401087824010869
:100E900010B50F21C0B2490200F0F0F910BD0000FA
:100EA000F3B58DB000200A9001200B900026084673
:100EB0000C300C4609906269012109989047051E83
:100EC0002ED0252D2DD0216A8847002818D06269A0
:100ED000012109989047216A88470028F7D1411ECF
:100EE00062690998904700E0761CA1690D988847CF
:100EF000216A88470028F7D1E1690D988847DAE729
:100F0000A1690D9888470746A84201D1761CD2E70F
:100F1000E1690D9888477F1C02D10A98002877D094
:100F200049E1002762693D463946099890472A28D9
:100F30000CD16269012109989047012506E00A2138
:100F40004F433F18303FEBD4102005436269012125
:100F500009989047014630390A2903D29B498F42AC
:100F6000DEDCECE7E90600D4994F6C280AD04C2867
:100F700010D0682824D06A282ED074280CD07A2863
:100F80000AD00DE062690121099890476C2823D0AE
:100F900004211CE020200543626901210998904743
:100FA000A760656065284FD026DC582839D01ADC48
:100FB000452849D012DC252834D04128B0D143E05F
:100FC0006269012109989047682802D008210D43E1
:100FD000E6E70120C002DEE70220DCE7462833D046
:100FE00047282CD130E05B2870D061282CD06328B2
:100FF0006CD0642823D161E06F284FD009DC6628CB
:1010000022D0672820D0692826D06E2817D12EE05C
:10101000CDE070284DD073286FD075284ED0782839
:101020000DD154E0A1690D9888470546252800D1C7
:101030006CE7E1690D9888476D1C00D16DE7BAE057
:101040000A224CE00A2252E0012023466A46C043AD
:101050000D99C046C046A3E0284640210843606081
:10106000A807234601D5002239E000223FE0E80727
:1010700000D020E72068011D21600068290501D506
:10108000067018E7290701D5068014E7A90703D5DC
:10109000F117066041600EE706600CE72846402124
:1010A00008436060A807234601D5082217E00822FC
:1010B0001DE0484928460840606016E02846402167
:1010C00008436060A8072346BCD5B9E715E0284669
:1010D000402108436060A80707D52346102201205D
:1010E000C0430D99C046C0465AE023461022012055
:1010F000C0430D99FFF72EF952E000210C910B46E9
:101100000091632802D05B2807D043E0E80601D4B1
:101110000120A060012000903CE062690121099853
:1011200090475E2805D101200C900146626909981C
:1011300090472169002906D10B4601AA8F00491C5E
:10114000D3510829FADB002835D0216900290ED1B6
:10115000C117C90E09184A11930001AA9A18490922
:101160004901411A012013688840034313606269F2
:101170000121099890475D28E5D10C98002808D0F6
:10118000002001AB81005A58401CD2435A50082815
:10119000F8DB01AB01202246C0430D99C046C04692
:1011A00000280ADA401C06D10B98002803D0002042
:1011B000C0430FB0F0BD0A98FBE7E90702D10A99D6
:1011C000491C0A91361800200B9074E6CCCCCC0C4C
:1011D000FFFFFF7FF1F7FFFFFEB500231A461B1A42
:1011E0008A4103DB0020014603B0F0BD4A000D0335
:1011F00001212D0B0905520D0D43D10702D1001815
:101200006D41521E5110FF31FF310131002704465C
:101210003E4638460097019102460121002009050B
:10122000FFF7C4FCC3197141F818324684468E4654
:101230004A4161462846611A904104D36046241A07
:10124000954176461F46241900986D41401C009038
:101250003428E1DDF91930467041091BA84103D259
:101260000022D243134601E00022134601980105F3
:10127000381C7141FFF747FDB6E700007F2801D910
:10128000002207E0054B42089A5CC00700D1120912
:101290001207120F0120904008407047E822010811
:1012A00070B58C180578401C6B075B0F01D1037873
:1012B000401C2A1106D10278401C03E006780E700B
:1012C000401C491C5B1EF9D12B0705D40023521E7C
:1012D0000DD40B70491CFAE70378401CCB1A921C02
:1012E00003E01D780D70491C5B1C521EF9D5A1420C
:1012F000D8D3002070BD70B50446002520688068F2
:10130000042108408008002829D02068806808400F
:1013100000280BD02068806802210840002805D1F1
:1013200020688068102108432168886002F06EF907
:1013300005460EE002F06AF9401B0A2809D9A06DA3
:1013400010210843A065E06D01210843E0650120FC
:1013500070BD20688068042108400028EAD1002080
:10136000F6E7000038B50446074908480068FEF76C
:10137000BFFE6043009002E00098401E009000987D
:101380000028F9D138BD000040420F0000000020C5
:1013900070B504460025206880688007800F01280A
:1013A00007D120680068C007C00F002801D00120C5
:1013B00000E00020002837D0206880680521084020
:1013C000012800D100E0002000280AD000BF2068DA
:1013D0008068022108432168886003202168086032
:1013E00009E0A06D10210843A065E06D01210843CC
:1013F000E065012070BD02F009F905460EE002F03B
:1014000005F9401B0A2809D9A06D10210843A065E1
:10141000E06D01210843E0650120EBE7206880686A
:10142000C007C00F0028EAD10020E3E770B50446EA
:101430000025206880688007800F012807D1206878
:101440000068C007C00F002801D0012000E0002084
:10145000002839D1206880681C490840002801D143
:10146000012000E00020002809D1A06D10210843D0
:10147000A065E06D01210843E065012070BD206892
:10148000806801210843216888600120FFF76AFF16
:1014900002F0BCF805460EE002F0B8F8401B0A283E
:1014A00009D9A06D10210843A065E06D0121084312
:1014B000E0650120E2E720680068C007C00F012155
:1014C000484048400028E7D00020D7E717000080B8
:1014D00030B589B005460C461022002105A80FF052
:1014E0008DFB2246243205A905A80EF053FE68465E
:1014F000007D8021084000281CD000BF00200AE0A9
:1015000005A9095C490005AB421C9A5CD211114344
:1015100005AA1154401C0F28F2DB08A9C978490616
:101520000A0E08A9CA7000BFC8788721484008A9D8
:10153000C87016E000BF00200AE005A9095C490058
:1015400005AB421C9A5CD211114305AA1154401CF0
:101550000F28F2DB08A9C97849060A0E08A9CA7043
:1015600000BF206A10280FD100BF002009E02146EB
:101570001031095C05AA125C514022461032115408
:10158000401C1028F3DB59E06846007D80210840AC
:1015900000281CD000BF00200AE005A9095C490012
:1015A00005AB421C9A5CD211114305AA1154401C90
:1015B0000F28F2DB08A9C97849060A0E08A9CA70E3
:1015C00000BFC8788721484008A9C87016E000BF4E
:1015D00000200AE005A9095C490005AB421C9A5CA1
:1015E000D211114305AA1154401C0F28F2DB08A99F
:1015F000C97849060A0E08A9CA7000BF8021204692
:101600001030226A815404E0002120461030226A02
:101610008154206A401C20621028F5D300BF0020AE
:1016200009E021461031095C05AA125C51402246AE
:1016300010321154401C1028F3DB00BF00BF002003
:1016400006E0215C22461032125C51402154401CBD
:101650001028F6DB00BF1022214601A80FF0B4FAD3
:1016600022462432294601A80EF094FD10220021C2
:1016700005A80FF0C3FA09B030BD10B5044610221A
:10168000002120460FF0BAFA00202062F02200214B
:10169000204624300FF0B2FA10BD70B505460C4656
:1016A0002A462432102120460EF0A2FD70BDF0B56E
:1016B00085B004460F461546206A002830D0102118
:1016C000206A081AA84202D2206A081A00E02846B6
:1016D0000646B2B223461033216AC81839460FF0C5
:1016E00073FA206A80192062206A102801D3B5425B
:1016F00001D105B0F0BD00BF002006E0215C22460C
:101700001032125C51402154401C1028F6DB00BFFF
:1017100022462432214620460EF03CFDBF19AD1B67
:101720001CE000BF002004E0215C3A5C51402154E1
:10173000401C1028F8DB00BF1022214668460FF03D
:1017400043FA22462432694668460EF023FD1022F1
:10175000694620460FF038FA1037103D102DE0D8BA
:10176000AAB23946204610300FF02EFA256200BF8B
:10177000BFE70000FEB504460D460026002000909D
:10178000019401200003029001A91B4801F03AFADC
:10179000002801D000F052FD0021174801F0C6F9E1
:1017A000002717E0144801F085FC6421124801F07D
:1017B0000DFC00BF104801F0C9FA012149020840A0
:1017C0000028F7D00C4801F0C4FA009000983618B1
:1017D000781CC7B2AF42E5DB074801F0A7FC0194D3
:1017E0000648029001A9044801F00CFA2946304647
:1017F000FEF77EFCFEBD0000F40900200110000091
:1018000070B504460125A01E03000DF0A4FF0705D6
:101810001328364B677C8A00474800780F2808DA7F
:10182000454803780078401C434E30704348C45408
:10183000002578E0404800780E280FDA3E4803780B
:101840000078401C3C4E30703C48C454304603780D
:101850000078401C30703948C154002563E0364898
:1018600000780F2808DA344803780078401C324E9C
:1018700030703248C454002555E02F4800780E28B7
:101880000FDA2D4803780078401C2B4E30702B481F
:10189000C454304603780078401C30702748C15447
:1018A000002540E0244800780D2816DA2248037805
:1018B0000078401C204E30702048C45430460378D5
:1018C0000078401C30701D48C154304603780078C1
:1018D000401C30701948C254002524E01648007896
:1018E0000E280FDA144803780078401C124E30702E
:1018F0001248C454304603780078401C30700F48BA
:10190000C15400250FE00C4800780F2808DA0A4877
:1019100003780078401C084E30700848C4540025F5
:1019200001E0022070BD00BF002D02D10120044B58
:1019300018702846F6E70000770100205D100020AF
:101940007601002070B503460C460020154D29563F
:10195000012B25D1002903D10025134E35601FE04E
:10196000114D2D68402D01D3012000E000200E4DC7
:101970002D68602D14D30C4D2D78203DAD06AD0E95
:10198000002D0DD1002901DD4D1E69B2002907D1BE
:10199000012C05D1054D2D8807263543034E358092
:1019A000117070BDB2010020700100206C10002089
:1019B00000B587B090480068400840008E49086034
:1019C000084600680121090688438B4908600846DB
:1019D000806B090488438849886300BF0846C06A51
:1019E000012108438449C8620846C06AC007C00F85
:1019F000019000BF00BF00BF0846C06A0221084333
:101A00007D49C8620846C06A02210840019000BFB3
:101A100000BF00BF7848C06A042108437649C86205
:101A20000846C06A04210840019000BF00BF00BF03
:101A30007148C06A802108436F49C8620846C06A7D
:101A400080210840019000BF00BF6C4801F0A0FA5F
:101A500000206A4988656A480068006840084000BC
:101A60006749096808600021654840304170654851
:101A70000068006840084000624909680860002169
:101A8000604860304172604800680068400840006B
:101A90005D490968086000215B48603041725B481D
:101AA0000068006840084000584909680860002143
:101AB00056486030417256480068006840218843AB
:101AC0005349096808600021514840304174514829
:101AD000029003200390002004900220059002A9A8
:101AE0000520000701F08CFC8120000202901120EB
:101AF0000390002004900220059002A90520000711
:101B000001F07EFC0122812109020520000701F07D
:101B100077FDF02002900220039000200490022024
:101B2000059002A90520000701F06AFC3A480290DE
:101B300003200390002004900220059002A937485A
:101B400001F05EFC20200290112003900020049000
:101B50000220059002A9314801F052FC0122202107
:101B60002E4801F04DFD2E480290032003900020E6
:101B700004900220059002A92A4801F041FC2A485D
:101B8000029003200390002004900220059002A9F7
:101B9000264801F035FC00220321244801F030FDE5
:101BA000234800690221884321490861214840688F
:101BB0000121490608431F49486000201E4908705A
:101BC0001E4908700C48C06A400840000A49C862B3
:101BD0000846C06A022188430749C8620846C06AAD
:101BE000042188430449C8620846C06A80218843AA
:101BF0000149C86207B000BD00100240F40900208E
:101C0000540A002044030020B403002024040020D0
:101C1000F80800200F7F000038FD0000000400508D
:101C2000FF3F000000080050FCFF0000001C0050B7
:101C300000E000E000ED00E030000020080000209F
:101C400010B500BF0549097CFF222D3251430846DB
:101C50006421FEF763FAC4B2204610BDCC02002016
:101C600000B587B03D480078002875D102F05AF9D8
:101C70003B48406B01210843394948630846806B63
:101C800009040843364988630CF00CFE00BF344851
:101C9000C06A042108433249C8620846C06A042168
:101CA0000840069000BF00BF00BF2D48C06A8021D9
:101CB00008432B49C8620846C06A80210840069044
:101CC00000BF00BF00BF2648C06A02210843244964
:101CD000C8620846C06A02210840069000BF00BFE3
:101CE00000BF1F48C06A012108431D49C862084659
:101CF000C06AC007C00F069000BF00BF06F0A0FB7F
:101D00001848007800280AD0012202A9164803F0DA
:101D10002FFB012201A9144803F0FCFA00BF06F0D2
:101D2000B1FB06F05FFB06F02DFB05F0DBF908F0D8
:101D30006FFF00220121022002F032F9022002F09E
:101D400023F90AF075F806F04FF909F0EBFC09F0F9
:101D5000B7FC01200149087007B000BD3000002029
:101D60000010024031000020D00900201FB50446B9
:101D700000200190029003901348006901901248DE
:101D8000406902901048406A039010A001A90EC952
:101D90000DF0A2FC0C48406A000E20700A48406A10
:101DA0000002000E60700848808C0004000EA070D5
:101DB0000548808CE070E0780090A3786278217804
:101DC0000DA00DF089FC1FBD4000F81F49445B3099
:101DD0005D203D20253032782049445B315D203D37
:101DE00020253032782049445B325D203D2025306B
:101DF00038780D0A000000003B4465766963653A57
:101E000025303278253032782530327825303278D6
:101E10003B0D0A0010B5002201214902024801F0E1
:101E2000EFFB012010BD0000000400503EB5044649
:101E30000D460A2C01DD00203EBD7D20C0000121A1
:101E40000B462246009501910290D721054801F0EA
:101E50005DFE002804D004A00DF03EFC0020EBE75E
:101E60002878E9E7540A002048414C5F4932435F33
:101E70004D656D5F52656164206572726F720D0A07
:101E8000000000003EB504460D460A2C01DD00208E
:101E90003EBD7D20C00001210B46224600950191E8
:101EA0000290D621054801F013FF002804D004A0B9
:101EB0000DF012FC0020EBE70120E9E7540A0020B6
:101EC00048414C5F4932435F4D656D5F577269749D
:101ED00065206572726F720D0A00000030B502460F
:101EE0000B460C48002112E0555C684000240AE0D3
:101EF000C507ED0F002D03D04010074D684000E0EE
:101F00004010651CECB2082CF2DB4D1CE9B2994282
:101F1000EADB30BDFFFF000001A00000F0B58DB08E
:101F200000200B900C900A210120FFF723FC69464A
:101F300088854649098B4A008A186946898D4A4333
:101F40001046FEF713FD0A900A214148FFF712FCE4
:101F500080B26946C8853D49098B4A008A1869469E
:101F6000C98D4A431046FEF701FD09900A21394800
:101F7000FFF700FC69460886098E0A03501AFEF72F
:101F8000F5FC089008990A98FEF71FFB07463249AE
:101F9000FEF7DEFA0646FEF797FD04460D46089961
:101FA0000998FEF712FB07462C49FEF7D1FA0646C0
:101FB000FEF78AFD0690079102AA33C26846808D1B
:101FC00000906846C38D028E2048018B24480DF096
:101FD00083FB08990A98FEF7F8FA05461E49FEF7B2
:101FE000B7FA04461F49FEF7C7FD03D201211E4878
:101FF000C17302E000211C48C17308990998FEF7DB
:10200000E4FA07461549FEF7A3FA06461749FEF714
:1020100097FA05461649FEF7D8FA0446FEF7DEFCA5
:10202000C1B211480174007C642803DB64210E48AE
:10203000017406E00C48007C052802DC03210A48F4
:1020400001740948007C0DB0F0BD00006000F81F6D
:10205000020000040000024400A0BE450000FA4453
:102060002823010800A08C45CC0200200000614517
:102070000000C0401CB5044600201249087005202D
:102080004870002088700120C87000200871084640
:10209000447100208871084600900921684601714A
:1020A00041712821C1800199009800F0EDF80128C4
:1020B00000D11CBD0348417903A00DF00DFB0020A9
:1020C000F7E70000D00A0020636F6E74726F6C2017
:1020D0006661696C3A25640D0A000000F0B504469B
:1020E00000260027002512E02046E117090F0918F5
:1020F00009110901661A39467F1C102007F089FF73
:10210000704345192046E117090F09180C11002CDE
:10211000EAD12846F0BD10B50446204608F008FF75
:1021200010BD30B5024600231046D417240F2418E2
:102130002405230E042B01DC052A01DB002030BD21
:102140001046D417240F241824112401151B012430
:10215000AC405D004D5BA5435C000D530120EEE7F4
:1021600000B587B000BF1148C06A012108430F497C
:10217000C8620846C06AC007C00F019000BF00BF18
:10218000881502901120039000200490059002A968
:102190000520000701F034F90022FF21013105205C
:1021A000000701F02DFA07B000BD0000001002404A
:1021B00010B5012001F014F9022001F011F910BD51
:1021C00010B5042001F00CF9082001F009F910BD48
:1021D00010B5102001F004F9202001F001F9402091
:1021E00001F0FEF8802001F0FBF8FF20013001F043
:1021F000F7F80120400201F0F3F80120800201F01D
:10220000EFF80120C00201F0EBF80120000301F01B
:10221000E7F80120400301F0E3F80120800301F01A
:10222000DFF80120C00301F0DBF810BD10B501227A
:1022300011020520000701F0E3F910BD10B502A05E
:102240000DF04AFA10BD00006572726F720D0A003F
:1022500010B5002415E00122D1030520000700F08D
:1022600071FB7D20C0000EF001F900220121C9039D
:102270000520000700F066FBC8200EF0F7F8601C90
:10228000C4B2032CE7DB10BDF3B581B00020009091
:102290006A46127A921ED1B20198FFF71FFE0646D7
:1022A0006846007A801E019A165431126846007AF8
:1022B000401E019A1154002501E0681CC5B2684611
:1022C000007AA842F9DC012220213C4801F098F96B
:1022D000282000F0ADFF6846027A394B3948019951
:1022E00004F02EFB00222021344801F089F96A46CF
:1022F000517A0198FDF7ACFF812189003248FDF742
:10230000A7FF002131480181282000F091FF01F052
:102310007DF9044600BF01F079F907462A48001FFD
:10232000FDF7CAFF381A1428F5D901F06FF9001B20
:102330006428F0D301F06AF907462348001FFDF72F
:10234000BBFF381A142822D92048008900281ED043
:102350000E2001F00DFE1D490A891B490198FDF769
:102360005EFF812189001848FDF772FF1748007A47
:102370000090002001E0411CC8B214490989814243
:10238000F9DC0021114801810E2001F0FDFD6846B5
:10239000417A0098814201D00020FEBD6A46517A00
:1023A0000198FFF79BFD002805D0D12108A00DF072
:1023B00093F90220F1E70120EFE70000000400504C
:1023C000FFFF000024040020A6060020A208002031
:1023D0006C696E65203D2025640D0A0000B587B04C
:1023E00000BF1048C06A022108430E49C86208466F
:1023F000C06A02210840019000BF00BF8020029007
:1024000011200390002004900320059002A90648A3
:1024100000F0F6FF01228021034801F0F1F807B037
:1024200000BD0000001002400004005010B5012261
:102430008021024801F0E4F810BD000000040050C3
:1024400000B587B000BF0D48C06A022108430B49A0
:10245000C8620846C06A02210840019000BF00BF60
:10246000802002900120039004900320059002A98F
:10247000034800F0C5FF07B000BD00000010024097
:102480000004005070B50546002418E006216143A1
:102490000D4A8818FDF710FFA8420ED8611C0622CD
:1024A0005143094A8818FDF707FFA84205D90620BD
:1024B000604305494018007970BD601CC4B2152CFA
:1024C000E4D300BFFEE700000A1D0108F0B58FB09D
:1024D000D248FDF7F1FE044604F0D4FF054621463C
:1024E000FDF706FE002903D0CD484079002818D01A
:1024F000CB480078002814D1C9488B21426CC9A070
:102500000DF0EAF80020C64908710870887048701C
:102510004871FFF795FF00F049FA01F077F8C049DC
:102520004864BF48C078002873D0BD4800780028B0
:10253000FAD00020BA49C8700120C0490870B849D3
:10254000891DBF4806F07EF9BD488630FDF7B4FE10
:102550000746FEF727FA05460022BA4BFEF78EF92A
:1025600009910890B6488130FDF7A6FE0746FEF7B0
:1025700019FA05460022B34BFEF780F90791069041
:10258000AF488030807A04900999089803910290AE
:10259000AB48803040790090ABA0079B069A0DF0C5
:1025A0009BF8B048FDF788FEAE49483909884A22B1
:1025B0004254A3488130FDF77FFE0A90A048803046
:1025C00040790B909E488630FDF776FE0C909C4833
:1025D0008030807A0D9000240120A249483908807B
:1025E0005BE02046E10F091849104900611A0129F2
:1025F00010D19C48FDF760FE9A4948390A8809883D
:10260000491C984B483B1980A1000AAB595C815486
:1026100041E085E09348FDF74FFE924948390A882A
:102620000988491C8F4B483B1980A1000AAB5958B7
:10263000090E81548B48FDF73FFE8A4948390A88C4
:102640000988491C874B483B1980A1000AAB59589F
:102650000902090E81548348FDF72EFE814948394D
:102660000A880988491C7F4B483B1980A1000AABA6
:10267000595A0904090E81547A48FDF71DFE79491B
:1026800048390A880988491C764B483B1980A100C3
:102690000AAB595C8154601CC4B272484838008847
:1026A0000A289EDD00BF6F48FDF706FE0546294655
:1026B00000200CF0B5FF5948801F00790028F2D0A7
:1026C00072B600205549891F087162B600205B4927
:1026D000087000216348083881750020504908704F
:1026E00061480CF091FA614948420FF02FF96049B6
:1026F000451829465C480CF033FA5B480CF040FA68
:10270000102158480838417401204549087100F0EB
:102710007DFF58490860012149488030C1727AE044
:1027200000F074FF3E49496C401A5349884235D93C
:102730003B480078002831D03948C07800282DD196
:1027400000F064FF3649496C441A21464BA00CF056
:10275000C3FFFFF743FE002031490870881DFDF7D5
:1027600096FD044621462E48801DFDF771FD20216F
:102770003C48083841740120294908710121394831
:102780000838817501202D49087000F03FFF394954
:10279000086000212A488030C1723CE0204800795E
:1027A000002838D11E480078002834D1FFF716FEE3
:1027B0001B48801DFDF76BFD044621461848801D0F
:1027C000FDF746FD1548801F8078002807D030218E
:1027D0002448083841742EA00CF07EFF03E000214D
:1027E00020480838417401200D49087101211D4815
:1027F000083881750120114908702C480CF004FA42
:1028000000220121C9030520000700F0F9FE00F0B5
:10281000FDFE184908600FB0F0BD0000AE140020A6
:10282000B00800206C696E65203D20256420746925
:102830006D65203D2025640D0A000000F202002095
:10284000040B0020006AF84032322D2D2D252E3544
:1028500066202531632C20252E3566202531630D19
:102860000A000000D40200200415002040420F009E
:10287000809698002C000020E09304004750535F9E
:1028800054494D453232203A2025640D0A0000009B
:1028900048617264776172655F45786973745F47F8
:1028A0005053204552524F520D0A0000F00A0020AA
:1028B000F0B587B006460C460020059006900390C0
:1028C00004900025205E07460290012010E04100A0
:1028D000615EB94202DD4100675E07E04100625E71
:1028E00002998A4202DA4100615E0291411C48B2BB
:1028F000B042ECDB00200FE04100615EB94209D13B
:1029000005AA505505A94A5D0C49895C03AA515591
:10291000691C4DB2411C48B2B042EDDB691E00207B
:102920000FF014F8C0B2019003A90198085C0449A3
:1029300008700846007807B0F0BD000026030020AC
:10294000D101002070B504460D4616463246294690
:10295000204600F055FE70BD10B51248C07805281D
:1029600005D11149FF202130FDF7BEFC19E00D48CB
:10297000C0780A2804D10C499020FDF7B5FC10E07E
:102980000848C0780F2804D107496020FDF7ACFC47
:1029900007E00448C0781E2803D103493020FDF722
:1029A000A3FC10BDE4020020AE14002010B5FFF718
:1029B0003DFD002400BF1C2001F0DAFA344B0E224A
:1029C00034A1384803F0BCFF1C2001F0DDFA7D2063
:1029D000C00000F02DFC641C552133A00CF07CFEDF
:1029E00034480078002801D1032CE4D900F00EFE11
:1029F000304908640846007800280DD1032C0BD913
:102A00002D488078002805D030212C4841742CA016
:102A10000CF062FE002010BD26480078002835D05A
:102A200000BF1C2001F0A4FA194B34222BA11D4831
:102A300003F086FF1C2001F0A7FAC82000F0F8FB85
:102A40001C4840780028ECD000BF1C2001F090FA10
:102A50000F4B13222EA1134803F072FF1C2001F02C
:102A600093FAC82000F0E4FB124880780028ECD0EC
:102A700007F0BEFA2B480CF0C7F82B4929480CF098
:102A80006FF828480CF07CF80120C4E70020C2E76A
:102A9000FFFF000024504D544B3130332A33300DAA
:102AA0000A000000B40300206C696E65203D2025FB
:102AB000640D0A00B0080020A8140020CC020020F9
:102AC00048617264776172655F45786973745F47C6
:102AD0005053204552524F520D0A000024504D547D
:102AE0004B3331342C312C302C302C302C302C30DA
:102AF0002C302C302C302C302C302C302C302C30F6
:102B00002C302C302C312C302C302A32380D0A004D
:102B100024504D544B3232302C313030302A314633
:102B20000D0A0000F00A002020A10700F8B50446B5
:102B300000250026002700BF5420005D012801D198
:102B40000220F8BD01215420015500BF2068806893
:102B50008007800F012806D12068006808400028FF
:102B600001D0012000E0002000283FD1A06DFF210E
:102B70000131884302210843A0652068C0688707A7
:102B8000BF0F2068C068800880002168C860206886
:102B900080680121C90708432168886000F036FD7C
:102BA000064611E000F032FD801B0A280CD9A06D0A
:102BB0000221884310210843A06500BF0021542052
:102BC000015500BF0120BCE720688068C00FC00726
:102BD0000028E7D12068C06838432168C860A06D2C
:102BE0000221884301210843A06504E0A06D202153
:102BF0000843A065012500BF00215420015500BFF6
:102C000028469EE770B504460D4600BF5420005D7F
:102C1000012801D1022070BD01215420015500BFBF
:102C20002068806804210840800800280AD0A06D30
:102C300020210843A06500BF00215420015500BF9A
:102C40000120E8E73C496868884238D02068806AFB
:102C500029684903490B08432168886228684003B2
:102C6000400B3649084001218904884208D1344884
:102C7000806849010843324988600A20FEF772FBE8
:102C800028684003400B2F4908400121490488422D
:102C900005D12B4880684901084329498860286884
:102CA0004003400B284908400121090488423BD1D8
:102CB00023488068090208432149886034E020687D
:102CC000806A29684903490B88432168886228681B
:102CD0004003400B1949084001218904884205D16D
:102CE000174880684901884315498860286840036F
:102CF000400B1449084001214904884205D110487D
:102D00008068490188430E49886028684003400B69
:102D10000D49084001210904884205D1084880680E
:102D2000090288430649886000BF002154200155EC
:102D300000BF00206FE70000011000000000044801
:102D40000027014000000244000001400146886D58
:102D5000704701460868006C7047000010B50446D3
:102D6000002C01D1012010BDA06D002806D1E06526
:102D7000002154200155204600F00AF9A06D1021D1
:102D80000840002806D12068806804210840800897
:102D900000280AD0A06D10210843A06500BF0021C3
:102DA0005420015500BF0120DDE7A06DFF21013156
:102DB000884302210843A065206880688007800F4F
:102DC000012807D120680068C007C00F002801D083
:102DD000012000E0002000283AD100BF032189072C
:102DE0006068884207D049426068884203D0490041
:102DF000606888420CD120680069800080082168E2
:102E0000086120680069616808432168086112E070
:102E10002068006980008008216808615A4880683D
:102E20000F21890488435849886008468068616892
:102E300008435549886000BF2068C068182188434E
:102E40002168C8602068C068A16808432168C8601C
:102E50004D4880680121490688434B4988600846EF
:102E60008068218F49060843474988602068806848
:102E7000012109070840002804D120688068084320
:102E8000216888602068C068404908402168C8609F
:102E90002169E068022901D1042100E000210843F2
:102EA000216A49030843216B49000843616B0843C9
:102EB000A16989030843E169C90308432168C96816
:102EC00008432168C860FF21C231A06A884207D048
:102ED000E16AA06A08432168C96808432168C8609C
:102EE000606A012812D1206A002807D12068C068D2
:102EF0000121090408432168C86007E0A06D202172
:102F00000843A065E06D01210843E065206C0128BD
:102F100017D120680069FF21890088432168086172
:102F2000616CA06C0843E16C08432168096908439F
:102F3000216808612068006901210843216808614F
:102F40000BE020680069C007C00F002805D020688A
:102F50000069400840002168086120684069C00895
:102F6000C0002168486120684069E16B084321681E
:102F700048610020E065A06D0221884301210843DB
:102F8000A0650020EFE60000002701401902FEFFC7
:102F900010B586B004460B492068884210D10A4813
:102FA000406B4915084308494863012001900320FC
:102FB00002900020039001A90520000700F020FAEC
:102FC00006B010BD0024014000100240F8B50446D0
:102FD0000D46002600276069082801D1082711E066
:102FE0002068C068C007C00F00280AD0A06D20214B
:102FF0000843A06500BF00215420015500BF0120F7
:10300000F8BD0C2700F002FB064614E0681C0028FF
:1030100011D0002D04D000F0F9FA801BA8420AD983
:10302000A06D04210843A06500BF00215420015574
:1030300000BF0320E4E72068006838400028E5D09E
:10304000A06D012149020843A0652068C0680321E2
:1030500089020840002825D1206A002822D1206852
:1030600000680821084008281CD1206880680421D5
:103070000840800800280DD1206840680C21884352
:1030800021684860A06DFF21013188430121084378
:10309000A06507E0A06D20210843A065E06D012137
:1030A0000843E065A069002802D10C20216808606F
:1030B0000020A5E770B5044600252068806804213B
:1030C0000840800800282BD100BF5420005D012853
:1030D00001D1022070BD01215420015500BFE069DB
:1030E000012803D02046FEF7A1F90546002D18D18E
:1030F000A06D0D490840FF2101310843A065002063
:10310000E06500BF00215420015500BF1C2021684C
:10311000086020688068042108432168886000E016
:1031200002252846D6E70000FEF1FFFF70B50446F1
:10313000002500BF5420005D012801D1022070BD90
:1031400001215420015500BF2046FEF7D4F8054662
:10315000002D0CD12046FEF71BF90546002D06D1A7
:10316000A06DFF210131884301210843A06500BF04
:1031700000215420015500BF2846E0E770B5044601
:1031800000252520005D022803D00420E0630125EE
:1031900049E0206800680E218843216808602068A3
:1031A0000068400840002168086020492068884283
:1031B00001D1012026E01D4914312068884201D147
:1031C00010201FE0194928312068884201D180155C
:1031D00018E016493C312068884201D1801411E082
:1031E000124950312068884202D10120000409E0D0
:1031F0000E4964312068884202D10120000501E0B7
:10320000012000060949083948600121252001559F
:1032100000BF00212420015500BFA06B002802D070
:103220002046A16B8847284670BD00000800024078
:1032300031B5002400F0EAF9044600BF00F0E6F9D9
:10324000001B00998842F9D338BD0000F0B50B4649
:1032500000210022002479E001258D401D402A46EE
:10326000002A72D005684F000326BE403543056032
:10327000CD08AE0005462035AD594E07F70E0F2696
:10328000BE40B543CE08B60007462037BD5185681D
:103290004F000326BE40B5438560456801268E4039
:1032A000B5434560C5684F000326BE40B543C560C1
:1032B000294D8E08B600AC598D072E0F0F25B5404D
:1032C0002C4005252D07A84201D1002519E0234DEA
:1032D000A84201D1012514E0214DA84201D10225C7
:1032E0000FE0204DA84201D103250AE01E4DA8425F
:1032F00001D1042505E01D4DA84201D1052500E0BE
:1033000006258E07360FB540A5421ED18D072E0F1C
:103310000F25B5402C46104D8E08B600AD59A5437B
:103320000D4E8F08BF00F551114D2D689543104E7D
:10333000356035466D68954375603546AD68954393
:10334000B5603546ED689543F560491C1D46CD4096
:10335000002D81D1F0BD00000800014000040050A4
:1033600000080050000C005000100050001C0050DD
:103370000004014010B50446022C0AD0042C0BD0E6
:10338000E01FF93800280AD003210902401A10D1A1
:1033900009E008F071FD0DE008F056FF0AE006A014
:1033A0000CF09AF906E009F009F808A00CF094F97D
:1033B00000E000BF00BF10BD4348415247452049CF
:1033C0004E5445525255500D0A00000053583132A8
:1033D00037364F6E44696F324972710D0A00000032
:1033E00010B50446054840692040002804D0034831
:1033F00044612046FFF7BEFF10BD000000040140FD
:1034000070B50346002200240020DFE0012696402C
:103410000D6835402C46002C77D04D68022D02D027
:103420004D68122D15D1D508AE001D462035A8597E
:103430005507EE0E0F25B5400646AE4330465607FB
:10344000F60E0D69B5402843D508AD001E4620365E
:1034500070514D68012D08D04D68022D05D04D6882
:10346000112D02D04D68122D18D1986856000325F1
:10347000B5400646AE4330465600CD68B5402843B9
:1034800098605868012595400646AE4330461026A0
:103490004D6835402D0995402843586018685600FE
:1034A0000325B5400646AE4330460D79AD07AD0F56
:1034B0005600B54028431860D86856000325B5402B
:1034C0000646AE43304656008D68B5402843D86066
:1034D000012636074D683540B54276D13E4D6D6BBD
:1034E000012635433C4E75633C4D9608B600A859FD
:1034F00095072E0F0F25B5400646AE4330460525ED
:103500002D07AB4202D100251AE05EE0344DAB42FC
:1035100001D1012514E0334DAB4201D102250FE06A
:10352000314DAB4201D103250AE0304DAB4201D110
:10353000042505E02E4DAB4201D1052500E006250E
:103540009607360FB5402843244D9608B600A8517B
:10355000284D28680546A5432846012636044D68AF
:103560003540B54202D1054625432846214D286005
:1035700068680546A5432846012676044D6835400F
:10358000B54202D10546254328461A4D6860A86811
:103590000546A5432846012636054D683540B54207
:1035A00002D1054625432846124DA860E868054625
:1035B000A5432846012676054D683540B54202D11F
:1035C0000546254328460B4DE860521C0D68D54042
:1035D000002D00D01AE770BD001002400800014025
:1035E0000004005000080050000C00500010005073
:1035F000001C00500004014042694A40426170478B
:10360000002A01D0816100E08162704701480068B2
:10361000704700000400002002464120805C202802
:103620002FD100BF4020805C012801D102207047CB
:1036300001234020835400BF242341208354106879
:103640000068400840001368186010680068012393
:103650001B039843136818601068006808431368D8
:10366000186010680068012318431368186020234D
:103670004120835400BF00234020835400BF00201A
:10368000D5E70220D3E710B502460B4600214120C2
:10369000805C20282ED100BF4020805C012801D111
:1036A000022010BD01244020845400BF2424412066
:1036B0008454106800684008400014682060106856
:1036C00001680F2424020846A04301461802014362
:1036D00010680160106800680124204314682060AD
:1036E00020244120845400BF00244020845400BF83
:1036F0000020D6E70220D4E710B50446002C01D103
:10370000012010BD24214120015520680068400897
:10371000400021680860204600F0BCFB0020606487
:10372000002141200155002020634220015500BFA7
:103730004020015500BF0020E3E7000010B504461B
:10374000002C01D1012010BD4120005D002805D1D1
:10375000002140200155204600F0B6FB24214120E5
:1037600001552068006840084000216808600F216A
:103770000906606888432168086120688068012123
:10378000C903884321688860E068012806D10121C7
:10379000C903A06808432168886005E021218902E7
:1037A000A068084321688860E068022802D180028E
:1037B00021684860206840681449084321684860CF
:1037C0002068C0680121C90388432168C860616915
:1037D00020690843A169090208432168C860216A79
:1037E000E0690843216808602068006801210843F7
:1037F00021680860002060642021412001550020DC
:10380000206300214220015500209CE70080000237
:10381000FFB581B0044616461F4600254120005DD5
:1038200020286ED100BF4020005D012802D1022077
:1038300005B0F0BD01214020015500BFFFF7E6FEB5
:10384000054619230122D1032046009503F032FBDF
:10385000002801D00320EBE722214120015510214F
:103860004220015500206064666267856063608D58
:10387000FF280CD9FF202085092080020090208D90
:10388000C2B20B052046029903F0FCFA0CE0608DF1
:103890002085092080020090208DC2B201235B06A2
:1038A0002046029903F0EEFA48E02A4620460A999B
:1038B00003F02AFB002806D0606C042801D1012007
:1038C000B6E70320B4E72068406AC1B2626A501CC0
:1038D00060621170208D401E2085608D401E6085C5
:1038E000208D00282AD1608D002827D00095002245
:1038F000802120460A9B03F0DDFA002802D0032035
:1039000096E741E0608DFF280CD9FF20208500203C
:103910000090208DC2B201231B062046029903F0BD
:10392000B1FA0BE0608D208500200090208DC2B29E
:1039300001235B062046029903F0A4FA608D00285B
:10394000B3D12A4620460A9903F02AFB002806D064
:10395000606C042801D101206AE7032068E7202079
:103960002168C861206840680849084021684860AB
:1039700020214120015500214220015500BF402057
:10398000015500BF002053E7022051E700E800FE88
:10399000FFB581B0044616461F4600254120005D54
:1039A00020287CD100BF4020005D012802D10220E8
:1039B00005B0F0BD01214020015500BFFFF726FEF4
:1039C000054619230122D1032046009503F072FA1F
:1039D000002801D00320EBE72121412001551021CF
:1039E0004220015500206064666267856063608DD7
:1039F000FF280BD9FF20208548020090208DC2B2FD
:103A00000B052046029903F03DFA0CE0608D2085FD
:103A1000012040030090208DC2B201235B062046A6
:103A2000029903F02FFA47E02A4620460A9903F04C
:103A3000E4FA002806D0606C042801D10120B7E721
:103A40000320B5E7616A481C6062087821688862D3
:103A5000608D401E6085208D401E2085208D0028B1
:103A60002AD1608D002827D0009500228021204691
:103A70000A9B03F01FFA002801D0032098E7608D0D
:103A8000FF280DD9FF20208500200090208DC2B294
:103A900001231B062046029903F0F4F90CE031E003
:103AA000608D208500200090208DC2B201235B062E
:103AB0002046029903F0E6F9608D0028B4D12A4629
:103AC00020460A9903F06CFA002806D0606C04289E
:103AD00001D101206CE703206AE720202168C8613A
:103AE000206840680849084021684860202141203A
:103AF000015500214220015500BF4020015500BF63
:103B0000002055E7022053E700E800FEFFB583B030
:103B100004460C9F0E9E00254120005D202871D197
:103B2000002F02D00D98002802D1012007B0F0BD6F
:103B300000BF4020005D012801D10220F6E70121ED
:103B40004020015500BFFFF761FD05461923012202
:103B5000D1032046009503F0ADF9002801D00320E1
:103B6000E4E7222141200155402142200155002057
:103B7000606467620D98608500206063009601951F
:103B8000204604A90EC903F0EBF8002810D0606CA1
:103B9000042806D100BF00214020015500BF0120AC
:103BA000C4E700BF00214020015500BF0320BDE74E
:103BB000608DFF280DD9FF2020850920800200900C
:103BC000208DC2B201231B062046049903F05AF946
:103BD0000CE0608D2085092080020090208DC2B20B
:103BE00001235B062046049903F04CF900BF3346DD
:103BF000002204212046009503F05CF9002802D041
:103C0000032093E75FE02068406AC1B2626A501CFB
:103C100060621170208D401E2085608D401E608581
:103C2000208D002829D1608D002826D0334600221F
:103C300080212046009503F03DF9002801D00320A3
:103C400074E7608DFF280CD9FF20208500200090AC
:103C5000208DC2B201231B062046049903F012F9FD
:103C60000BE0608D208500200090208DC2B20123E2
:103C70005B062046049903F005F9608D0028B6D153
:103C80002A463146204603F08BF9002806D0606CA6
:103C9000042801D1012049E7032047E720202168BB
:103CA000C8612068406809490840216848602021AF
:103CB0004120015500214220015500BF40200155FF
:103CC00000BF002032E7022030E7000000E800FEDD
:103CD000FFB583B004460C9F0E9E00254120005D79
:103CE000202870D1002F02D00D98002802D1012089
:103CF00007B0F0BD00BF4020005D012801D10220C7
:103D0000F6E701214020015500BFFFF77FFC054683
:103D100019230122D1032046009503F0CBF8002897
:103D200001D00320E4E72121412001554021422018
:103D300001550020606467620D9860850020606313
:103D400000960195204604A90EC903F052F80028F8
:103D500010D0606C042806D100BF0021402001551E
:103D600000BF0120C4E700BF00214020015500BF73
:103D70000320BDE7608DFF280CD9FF20208500209F
:103D80000090208DC2B201231B062046049903F047
:103D900079F80BE0608D208500200090208DC2B264
:103DA00001235B062046049903F06CF800BF2A4605
:103DB0003146204603F021F9002807D0606C042822
:103DC00002D1012094E760E0032091E7616A481C7A
:103DD0006062087821688862608D401E6085208D51
:103DE000401E2085208D002829D1608D002826D0F6
:103DF0003346002280212046009503F05BF800281E
:103E000001D0032074E7608DFF280CD9FF202085A6
:103E100000200090208DC2B201231B062046049989
:103E200003F030F80BE0608D208500200090208D9D
:103E3000C2B201235B062046049903F023F8608D8B
:103E40000028B4D12A463146204603F0A9F80028BC
:103E500006D0606C042801D1012049E7032047E720
:103E600020202168C861206840680949084021680D
:103E7000486020214120015500214220015500BF0A
:103E80004020015500BF002032E7022030E700004B
:103E900000E800FE10B504460849206888420BD1AE
:103EA0000748806B01218905884305498863032100
:103EB00049030448FFF7CAF910BD0000005800404C
:103EC000001002400004005010B586B004460E49B0
:103ED0002068884215D103204003019012200290EF
:103EE00001200390032004900520059001A90748B4
:103EF000FFF786FA0648806B0121890508430449CB
:103F0000886306B010BD0000005800400004005057
:103F10000010024002480068401C014908607047D8
:103F20000400002010B506480068402108430449F9
:103F30000860002000F006F800F018F8002010BD1E
:103F40000020024070B504467D21C9000648006883
:103F5000FCF7CEF8054602F0ABF900222146501ED0
:103F600000F01EF8002070BD000000207047000027
:103F700000BFC206D20E01219140024A116000BF6B
:103F80007047000080E100E000BFC206D20E0121B0
:103F90009140024A116000BF7047000000E100E05C
:103FA00070B504460D4616462946204604F0E4FD49
:103FB00070BD00000348006801218902884301495F
:103FC0000860704700700040034800680121490202
:103FD00008430149086070470070004003480068CA
:103FE00010218843014908607047000000700040BC
:103FF0000348006810210843014908607047000029
:104000000070004010B5024600200E4B1868800872
:1040100080000346134318460A4B18600A4B1B697D
:1040200004242343084C2361012901D130BF02E05D
:1040300040BF20BF20BF044B1B690424A343024C94
:10404000236110BD0070004000ED00E0F0B585B0C8
:1040500005460026002003900290002400270190CE
:104060000090102D7ED008DC012D7CD0022D7BD05D
:10407000042D7AD0082D79D13BE1202D0AD0402D96
:1040800051D0E81FF938002871D007210902401AE1
:10409000F1D100E000BFC6480669006903210904A8
:1040A0000840044601200004844206D1C01130407B
:1040B000002802D06010029034E0012040048442C5
:1040C00006D102203040002802D0BA48029029E0F0
:1040D00003200004844223D1B54840380068012100
:1040E0004904084000281BD0B1484038006821012D
:1040F00008400390012109050398401A09D0401A8D
:1041000004D0401A08D1AC48029008E0AB480290B5
:1041100005E0AB48029002E0AA48029000BF01E02F
:10412000002002903FE1A248C068012189060840B2
:104130000446002C42D19E4840380068491008408F
:1041400000283BD09A484038C0680F2189040840B5
:10415000074697484038C068032189050840019008
:10416000B80C05E0EAE03AE064E08FE01AE1F4E040
:1041700095490F5C0198800D401C01908C48403897
:10418000C06801210904084000280CD18848403843
:10419000006810210840002802D08A48009004E0FE
:1041A0008A48009001E08A48009000987843009087
:1041B00001990098FBF79CFF02900FE00120800618
:1041C000844209D17A48403880680221084000289A
:1041D00002D08048029001E000200290E3E07448A1
:1041E000C0688407A40F002C03D100F05FFB02908D
:1041F0001FE0022C09D16E484038006804210840B5
:10420000002802D07148029013E0012C03D100F085
:104210005FFB02900DE0032C09D165480069012184
:1042200049020840002802D08801029001E00020E5
:104230000290B8E05E48C0680C2108400446002C9B
:1042400003D100F021FB02901FE0082C09D158484F
:104250004038006804210840002802D05B480290E2
:1042600013E0042C03D100F033FB02900DE00C2C82
:1042700009D14F480069012149020840002802D0B5
:104280008801029001E0002002908CE04848C0685C
:104290000321890208400446002C03D100F0F4FAFF
:1042A000029025E00120C002844209D140484038F4
:1042B000006804210840002802D04448029017E01A
:1042C00001208002844203D100F002FB02900FE043
:1042D00003208002844209D1354800690121490246
:1042E0000840002802D08801029001E000200290DE
:1042F00059E02F48C0680321090308400446002CF8
:1043000003D100F0C1FA029017E00120400384427B
:1043100009D127484038006804210840002802D00D
:104320002A48029009E001200003844203D100F0F2
:10433000CFFA029001E00020029034E01C4840389F
:10434000806B012189050840884203D100F09CFA66
:10435000029001E00020029025E01548C06803218A
:10436000090408400446002C03D100F08DFA0290A5
:1043700017E001204004844209D10D48403800680C
:1043800004210840002802D01048029009E00120D2
:104390000004844203D100F09BFA029001E0002067
:1043A000029000E000BF00BF029805B0F0BD000021
:1043B000401002408890000020A1070040420F00FA
:1043C00080841E0000093D00661C01080024F400E2
:1043D00000127A00006CDC02F8B5044600260025C5
:1043E000202120680840202804D089012068084046
:1043F00088427DD1202120680840202800D100BFBC
:104400000121C90220680840884200D100BF00276E
:104410009948806B012109070840002805D196487A
:10442000806B084394498863012794480068FF2102
:1044300001310840002816D19048006808438F4990
:104440000860FFF7E3F8064606E0FFF7DFF8801B99
:10445000642801D90320F8BD88480068FF21013194
:1044600008400028F1D0844800680321090508406D
:10447000054660680840A84203D1A0680840A842E9
:104480000ED00321090460680840884208D17A48A8
:104490000068012149040840002801D00120DAE722
:1044A0007548403000690321090408400546002D85
:1044B00049D060680840A84204D020212068084004
:1044C00020280BD003210904A0680840A8423AD054
:1044D0000121C90220680840884234D16648403032
:1044E000006903210904884305466348403000E021
:1044F00052E000690121C90408435F494031086165
:10450000084600690121C90488435B4940310861BC
:104510000846056180152840002814D0FFF776F87A
:10452000064607E0FFF772F8801B5549884201D91B
:10453000032090E7504840300069012149020840BB
:10454000400A0028EED000BF00BF032109046068C4
:10455000084088420AD1484800680901884303227C
:1045600012056168114008434349086000BF424892
:1045700040300069032212046168114008433E493B
:104580004031086100BF012F05D13B48806B890590
:1045900088433949886300BF2078C007C00F0028CE
:1045A00009D035484030C06880088000E168084381
:1045B00031494031C860022120680840022809D1F1
:1045C0002D484030C0680C218843216908432A499E
:1045D0004031C86004212068084004280AD12648D8
:1045E0004030C06803218902884361690843224939
:1045F0004031C86008212068084008280AD11E48B8
:104600004030C068032109038843A16908431A495F
:104610004031C860FF2101312068084088420AD13A
:1046200015484030C068032109048843E169084304
:1046300011494031C860402120680840402809D114
:104640000D484030C06809058843616A08430A493B
:104650004031C86080212068084080280AD106487F
:104660004030C068032189048843216A0843024915
:104670004031C8600020EEE60010024000700040AB
:104680008813000070B504460D4600267648006881
:10469000C007C00FA8420ED273480068400840000F
:1046A00028437149086008460068C007C00FA84247
:1046B00001D0012070BD022120680840022807D1E6
:1046C0006A48C068F0218843A16808436749C86008
:1046D0002078C007C00F00284CD06068022809D19C
:1046E00062480068012149040840400C002824D198
:1046F0000120DFE76068032809D15C4800680121D8
:1047000049060840400E002817D10120D2E7606812
:10471000012808D155480068042108408008002875
:104720000BD10120C6E75148006801214902084029
:10473000400A002801D10120BCE74C48C06880082D
:104740008000616808434949C860FEF75FFF06467C
:10475000606802280FD107E0FEF758FF801B44492C
:10476000884201D90320A5E74048C0680C210840D1
:104770000828F1D134E0606803280FD107E0FEF784
:1047800045FF801B3A49884201D9032092E7374808
:10479000C0680C2108400C28F1D121E06068012894
:1047A0000FD107E0FEF732FF801B3149884201D963
:1047B00003207FE72D48C0680C2108400428F1D170
:1047C0000EE007E0FEF722FF801B2949884201D94D
:1047D00003206FE72548C0680C2108400028F1D16C
:1047E00021480068C007C00FA8420ED91E480068C3
:1047F0004008400028431C49086008460068C0077C
:10480000C00FA84201D0012054E7042120680840CD
:10481000042808D11548C068072109028843E168C7
:1048200008431249C860082120680840082809D1B7
:104830000E48C0680721C90288432169C90008439E
:104840000A49C86000F044F80849C968F0221140DC
:104850000909084A515CC840074908600020FFF771
:1048600071FB002026E700000020024000100240FB
:10487000881300004E1C0108000000200148006859
:10488000704700000000002000B5FFF7F7FF054962
:10489000C968072212021140090A034A515CC84044
:1048A00000BD0000001002405E1C010800B5FFF7CB
:1048B000E5FF0549C9680722D2021140C90A034A27
:1048C000515CC84000BD0000001002405E1C0108A1
:1048D000FEB500250026002700240020019000904E
:1048E0002F48C5680C202840002847D0042804D051
:1048F00008280ED00C2840D10EE02948006810216D
:104900000840002802D02748009001E02648009087
:1049100042E0264800903FE00F2080042840800CB1
:1049200023490E5C032080052840800D471C1C484D
:10493000C068012109040840002807D01B497143C1
:1049400008463946FBF7D4FB044614E014480068D7
:1049500010210840002807D0124971430846394603
:10496000FBF7C6FB044606E00F497143084639468B
:10497000FBF7BEFB044600940EE000BF0848406809
:10498000072149030840400B01900198401C012178
:104990008140C803009000BF00BF0098FEBD00002A
:1049A0000010024000093D000024F40000127A00CB
:1049B000661C0108F8B5044600252078C007C00F22
:1049C00000287DD0FE48C0680C21084008280BD084
:1049D000FB48C06808400C2813D1F948C068012181
:1049E0000904084088420CD1F548006801214904B7
:1049F0000840400C002863D06068002860D1012086
:104A0000F8BD00BF012109046068884205D1EC4867
:104A100000680843EA49086027E005210904606846
:104A200088420ED1E6480068012189040843E44920
:104A3000086008460068012109040843E04908604D
:104A400013E0DF480068012109048843DC4908605D
:104A500008460068012109040840009000BFD848BA
:104A6000006889008843D649086000BF6068002854
:104A700013D0FEF7CBFD054606E0FEF7C7FD401B51
:104A8000642801D90320BBE7CD480068012149040F
:104A90000840400C0028F0D012E0FEF7B7FD0546B4
:104AA00006E0FEF7B3FD401B642801D90320A7E709
:104AB000C3480068012149040840400C0028F0D197
:104AC000022120680840022868D1BD48C0680C2136
:104AD000084004280BD0BA48C06808400C281DD1F3
:104AE000B748C068012109040840002816D1B4481D
:104AF0000068042108408008002804D0E0680128EC
:104B000001D001207CE7AE4840681F21090288439C
:104B1000216909020843AA4948603FE0E06800288B
:104B200024D0A748006809218843E1680843A449C4
:104B30000860FEF76BFD054606E0FEF767FD401BCB
:104B4000022801D903205BE79D4800680421084042
:104B500080080028F1D09A4840681F210902884344
:104B60002169090208439649486017E094480068A3
:104B70004008400092490860FEF748FD054606E0FF
:104B8000FEF744FD401B022801D9032038E78C487A
:104B900000680421084080080028F1D11021206815
:104BA0000840102860D18648C0680C2108400028C1
:104BB0005BD183480068012149020840400A00286F
:104BC00004D0E069002801D1012019E77C48616A1E
:104BD0004068072252031040814219D9606A05F0EB
:104BE00083FF002801D001200AE7754840680721AB
:104BF00049038843616A0843714948600846406830
:104C00000002000A218C090608436D49486018E03B
:104C10006B484068072149038843616A0843684933
:104C20004860084640680002000A218C09060843D3
:104C300063494860606A05F057FF002801D00120F1
:104C4000DEE6606A400B401C01218140C8035C49DC
:104C5000C968F022114009095A4A515CC8405A49B2
:104C600008600020FFF76EF949E0E06900282CD0C9
:104C700053480068FF210131084351490860FEF79D
:104C8000C5FC054606E0FEF7C1FC401B022801D921
:104C90000320B5E64A480068012149020840400A5D
:104CA0000028F0D046484068072149038843616ADC
:104CB000084343494860084640680002000A218CC6
:104CC000090608433E49486019E03D480068FF2155
:104CD000013188433A490860FEF798FC054606E032
:104CE000FEF794FC401B022801D9032088E63448D3
:104CF0000068012149020840400A0028F0D108213B
:104D000020680840082839D1606900281BD02C4849
:104D10004030006901210843294940310861FEF70C
:104D200075FC054606E0FEF771FC401B022801D920
:104D3000032065E62248403000690221084040080F
:104D40000028F0D01AE01E484030006940084000BA
:104D50001B4940310861FEF759FC054606E0FEF7A5
:104D600055FC401B022801D9032049E61448403075
:104D700000690221084040080028F0D10421206881
:104D80000840042877D100260D48806B890608402A
:104D9000002805D10A48806B084309498863012629
:104DA0000A480068FF210131084000281ED1074849
:104DB0000068084305490860FEF728FC05460EE038
:104DC000001002404E1C010800000020007000404E
:104DD000FEF71CFC401B642801D9032010E6A648FE
:104DE0000068FF21013108400028F1D000BFFF21F9
:104DF0000131A068884205D1A048006908439F4955
:104E0000086130E0A06800280DD19C480069FF21AE
:104E100001318843994908610846006909158843AA
:104E2000964908611FE005210902A06888420DD15A
:104E300092480069012189020843904908610846A7
:104E40000069891508438D4908610CE08B480069A9
:104E5000FF21013188438949086108460069091525
:104E600088438649086100BFA068002815D0FEF776
:104E7000CDFB054608E02FE0FEF7C8FB401B80494C
:104E8000884201D90320BBE57C4800690121490221
:104E90000840400A0028EFD013E0FEF7B7FB0546B4
:104EA00007E0FEF7B3FB401B7549884201D9032098
:104EB000A6E572480069012149020840400A00281D
:104EC000EFD1012E07D16D484038806B3107884300
:104ED0006A494039886300BF2021206808402028A3
:104EE00052D1A06900282BD000BF644840388068A8
:104EF000012108436149403988600846406B01211F
:104F000008435E49403948635E48006A012149030D
:104F100008435C49086200BFFEF778FB054606E0DF
:104F2000FEF774FB401B022801D9032068E55348B3
:104F3000403880680221084040080028F0D023E073
:104F400000BF4E4840388068400840004B49403917
:104F500088604C48006A0121490388434949086236
:104F600000BFFEF753FB054606E0FEF74FFB401B74
:104F7000022801D9032043E54048403880680221D7
:104F8000084040080028F0D1A06A002872D03B48B1
:104F90004038C0680C2108400C2869D0A06A02285B
:104FA00048D1364840380068012109068843334912
:104FB00040390860FEF72AFB054606E0FEF726FBAF
:104FC000401B022801D903201AE52C48403800680C
:104FD000012149060840400E0028EFD1216BE06A0C
:104FE0000843616B084325494039C968FD22120412
:104FF0009143084321494039C860084600680121AF
:10500000090608431D4940390860FEF7FFFA0546C6
:1050100006E0FEF7FBFA401B022801D90320EFE46B
:10502000164840380068012149060840400E002813
:10503000EFD01FE01148403800680121090688437D
:105040000E4940390860FEF7E1FA054606E0FEF732
:10505000DDFA401B022801D90320D1E4074840387B
:105060000068012149060840400E0028EFD101E008
:105070000120C5E40020C3E400700040401002405D
:1050800088130000000001407047000070B505461D
:105090002A484068C007C00F012148404840002806
:1050A00035D027484078002831D072B6FEF7A0FFEF
:1050B0000020234948702349FBF716F901202249B3
:1050C000087000212148417203F0BAF900211F48FD
:1050D0004172FCF7C5FDFF2101311D4800F090F839
:1050E0001CA00AF0F9FAFEF791FA1F4908601F4860
:1050F00009F08AFD1E4948420CF028FC1D4944185D
:1051000021461A4809F02CFD184809F039FD0B48D2
:105110004068C007C00F012148404840002809D01E
:1051200007484078002805D0044800680421084357
:105130000249086009F0B6FC62B670BD007000401C
:10514000A81400202E03002031000020A40300201A
:10515000D0090020776B7570206C6F772D706F779A
:1051600065720D0A000000002C00002004150020CC
:10517000A086010020A1070010B5044620688068C1
:10518000012109030840000B002811D02068C068E5
:1051900009110840000A00280AD02046FFF776FFD0
:1051A0002068C06880210840124908432168C8600F
:1051B00020688068012149030840400B002811D075
:1051C0002068C06809110840400A00280AD020461B
:1051D000FFF75AFF2068C06880210840064908434D
:1051E0002168C86001204004044948610121212050
:1051F000015510BD7FFEFFFF7FFDFFFF0004014052
:1052000070B504460D46002600BF2020005D012831
:1052100001D1022070BD01212020015500BF0221D3
:105220002120015500BFCA2021684862532021680F
:10523000486200BFFF20013085422CD12068806881
:10524000294688432168886020688068290188434E
:1052500021688860FEF7DAF9064615E0FEF7D6F910
:10526000801B7D21C90088420ED900BFFF20216824
:10527000486200BF03212120015500BF00212020EA
:10528000015500BF0320C5E72068C068C007C00FF4
:105290000028E3D02EE0206880680121490288437D
:1052A000216888602068806801214903884321685B
:1052B0008860FEF7ABF9064615E0FEF7A7F9801BFC
:1052C0007D21C90088420ED900BFFF2021684862B5
:1052D00000BF03212120015500BF002120200155DE
:1052E00000BF032096E72068C068022108404008FC
:1052F0000028E2D000BFFF202168486200BF0121E2
:105300002120015500BF00212020015500BF0020B1
:1053100080E70000F0B506460C46174600253068C9
:105320004068124908400546FF2000042840000C50
:10533000E0701F2000022840000A6070A806800E5E
:10534000A070072040032840400B2070002F0BD195
:10535000E07805F015FCE070607805F011FC6070F5
:10536000A07805F00DFCA0700020F0BD3FFFFF000D
:10537000F0B505460C46174600262868806A60602E
:10538000286800694004400CA06028680068124941
:10539000084006463F2000043040000C20707F206B
:1053A00000023040000A60707006400EA0700120BC
:1053B00080053040000CE070002F0BD1207805F004
:1053C000DFFB2070607805F0DBFB6070A07805F0F3
:1053D000D7FBA0700020F0BD7F7F7F0010B5044692
:1053E000002C01D1012010BD2120005D002805D135
:1053F000002120200155204600F054F802212120F0
:10540000015500BFCA2021684862532021684862C4
:1054100000BF204605F0CEFB002809D000BFFF20CA
:105420002168486200BF0421212001550120DAE7EC
:10543000206880681A49084021688860216960688E
:105440000843A16908432168896808432168886086
:105450002168E0680861206800692189090408431F
:10546000216808612068C068802188432168C8607D
:105470002068C06C800880002168C8646169E069A8
:1054800008432168C96C08432168C86400BFFF2035
:105490002168486200BF0121212001550020A2E7B8
:1054A000BFFF8FFF054A0168914206D1044909698F
:1054B000012292041143024A116170470028004002
:1054C00040100240FEB504460D4616460027002057
:1054D0000190009000BF2020005D012801D1022032
:1054E000FEBD01212020015500BF022121200155D0
:1054F000002E2AD12068806840210840002800D072
:1055000002E00020E87000BFE869002800D100E058
:1055100000BF287805F041FB0304687805F03DFBE7
:1055200000020343A87805F038FB0343E878000441
:1055300003432021485D05F030FB00060343E86982
:1055400003436869034301932FE02068806840218A
:105550000840002804D0287805F012FB019002E0F2
:105560000020E87000BFE869002805D12021485DCF
:1055700005F006FB019005E02021485D05F000FBE9
:10558000019000BF28780004697809020843A978CF
:105590000843E978090408432021495D09060843C6
:1055A000E9690843696908430190A9696868084383
:1055B000009000BFCA2021684862532021684862D9
:1055C00000BFFF210131686A884241D120688068AC
:1055D0008843216888602068C068802108404D4960
:1055E00008432168C860FEF711F8074615E0FEF78A
:1055F0000DF8C01B7D21C90088420ED900BFFF20D5
:105600002168486200BF03212120015500BF00210D
:105610002020015500BF032062E72068C068C00752
:10562000C00F0028E3D001982168C8610098216864
:10563000486420688068FF21013108432168886040
:10564000206880680121090308432168886043E0DD
:1056500020688068012149028843216888602068A9
:10566000C068802108402C4908432168C860FDF7C4
:10567000CDFF074615E0FDF7C9FFC01B7D21C9001E
:1056800088420ED900BFFF202168486200BF032175
:105690002120015500BF00212020015500BF03201B
:1056A0001EE72068C0680221084040080028E2D0B8
:1056B00001982168086200982168886420688068E1
:1056C000012149020843216888602068806801211F
:1056D0004903084321688860104800680121490493
:1056E00008430E49086008468068012149040843C0
:1056F0000A49886000BFFF202168486200BF01217D
:105700002120015500BF00212020015500BF0020AD
:10571000E6E600007FFEFFFF7FFDFFFF0004014083
:10572000F8B504460D461646002700BF2020005D50
:10573000012801D10220F8BD01212020015500BF20
:10574000022121200155002E09D16878102108403E
:10575000102804D16878EF2108400A306870002EC4
:1057600011D1E87805F019FA0304687805F015FA04
:1057700000020343A87805F010FA03432878400399
:1057800003431F4612E0687805F0FAF90746A87847
:1057900005F0F6F90746E87800046978090208433D
:1057A000A9780843297849030843074600BFCA205F
:1057B0002168486253202168486200BF204605F0F6
:1057C000F9F900280ED000BFFF202168486200BF11
:1057D00004212120015500BF00212020015500BFD8
:1057E0000120A8E719483840216848602068C0684F
:1057F000802188432168C860206880682021084093
:10580000002813D1204600F0CDF800280ED000BFAC
:10581000FF202168486200BF04212120015500BFFC
:1058200000212020015500BF012084E700BFFF2098
:105830002168486200BF01212120015500BF0021DD
:105840002020015500BF002075E700003FFFFF004A
:10585000F8B504460D461646002700BF2020005D1F
:10586000012801D10220F8BD01212020015500BFEF
:10587000022121200155002E1BD120688068402183
:105880000840002800D002E00020E87000BF28781F
:1058900005F083F90304687805F07FF900020343FB
:1058A000A87805F07AF90343E878000403431F461B
:1058B00018E02068806840210840002804D028783B
:1058C00005F05EF9074602E00020E87000BF287886
:1058D0000004697809020843A9780843E9780904B3
:1058E0000843074600BFCA20216848625320216848
:1058F000486200BF204605F05DF900280ED000BFC9
:10590000FF202168486200BF04212120015500BF0B
:1059100000212020015500BF0120A4E72048384085
:105920002168086020688068012189048843216813
:1059300088602969E8680843216889680843216804
:1059400088602068C068802188432168C86020681A
:10595000806820210840002813D1204600F022F85A
:1059600000280ED000BFFF202168486200BF04213C
:105970002120015500BF00212020015500BF01203A
:1059800071E700BFFF202168486200BF012121208C
:10599000015500BF00212020015500BF002062E713
:1059A0007F7F7F0070B5044600252068C068A02175
:1059B00088432168C860FDF729FE054608E0FDF729
:1059C00025FE401B7D21C900884201D9032070BDFE
:1059D0002068C068202108400028F0D00020F6E7A9
:1059E00010B50446002C01D1012010BD5120005DEE
:1059F000002805D1002150200155204600F038F83C
:105A00000221512001552068006840218843216807
:105A10000860A16860680843E16808432169084399
:105A20006169084301225202A16911400843E169FA
:105A30000843216A0843A16A084321680860A069F5
:105A4000000C04210840616A08432168486021680D
:105A5000E06A08612068C069910088432168C861D4
:105A6000002060650121512001550020BDE70000A4
:105A700010B586B0044614492068884222D100BF80
:105A80001248C06A012108431049C8620846C06A2A
:105A9000C007C00F009000BF00BF0846406B8914CC
:105AA00008430A494863E020019002200290002048
:105AB0000390032004900020059001A90520000711
:105AC000FDF79EFC06B010BD003001400010024002
:105AD000FEB504460E4615461F4600200190512093
