:020000040800F2
:10000000002F0020D5000008911D00086F1C00087B
:1000100000000000000000000000000000000000E0
:1000200000000000000000000000000001210008A6
:1000300000000000000000007D200008CD25000821
:10004000E7000008E7000008E7000008E7000008F4
:10005000E7000008E7000008E7000008E7000008E4
:10006000E7000008E7000008E7000008E7000008D4
:10007000E7000008E7000008E7000008E7000008C4
:10008000E7000008E7000008E700000800000000A3
:10009000E7000008E7000008E7000008E7000008A4
:1000A000E7000008E7000008E7000008E700000894
:1000B000E7000008F120000800000000E700000849
:1000C0000348854600F0CAF800480047713400082C
:1000D000002F00200448804704480047FEE7FEE761
:1000E000FEE7FEE7FEE7FEE76D260008C100000818
:1000F00030B50B46014600202022012409E00D46C0
:10010000D5409D4205D31D469540491B2546954047
:1001100040191546521E002DF1DC30BDF0B51FB45C
:100120000646002082B005464024019100901BE065
:10013000019922460F46304600F07EF8049A059B4E
:10014000801A994110D310461946224600F064F8EF
:10015000361A8F410197224601200021009F00F0AE
:100160005BF838184D4100902046641E0028DFDC03
:10017000019B00982946324607B0F0BD03460B4369
:100180009B0703D009E008C9121F08C0042AFAD24D
:1001900003E00B780370401C491C521EF9D27047D3
:1001A000D2B201E00270401C491EFBD2704700220F
:1001B000F6E710B513460A4604461946FFF7F0FF66
:1001C000204610BD30B505462A460B4610781C78EF
:1001D000521C5B1C002801D0A042F7D0002C03D099
:1001E000002802D06D1CEFE7284630BD421C017884
:1001F000401C0029FBD1801A704730B5054600200D
:10020000034600E05B1C934205D2EC5CC85C201AFC
:1002100001D1002CF6D130BD10B5202A04DB0146F7
:10022000203A9140002010BD914020239C1A0346A3
:10023000E3401943904010BD10B5202A04DB084666
:10024000203AD040002110BD0B46D340D04020249E
:10025000A21A91400843194610BD0000064C012522
:10026000064E05E0E36807CC2B430C3C984710345E
:10027000B442F7D3FFF728FF383500085835000897
:1002800070B5144C034620681A780D183A2A1FD10D
:10029000A122920195421BD8A268012A18D00E4EC5
:1002A0000A4630181946FFF769FF0520C00225608D
:1002B000854207D870190B2208A10D38FFF79DFF62
:1002C000002805D120686060002020600120A06027
:1002D00070BD0000A0000020C40100203A30303082
:1002E0003030303031464600012300B583400348AA
:1002F00000F096FA1840C0B200BD000010FD0108E1
:10030000F0B5C5B0794800F08BFA06460120FFF73A
:10031000EBFF00287ED001220520D103000700F06A
:1003200049FD012000F068F9314671A002F012FE8B
:100330000120024604906D4804A9503800F0FCFAF0
:100340006A48903000F04EFA002E03D1674894308E
:1003500000F048FA642205A96A4800F085FA05A968
:1003600069A002F0F7FD05A8FFF740FF002821D0A3
:1003700001F07EFC00F024FD054602F0B3F80024F5
:10038000012818D063A002F0E5FD02F0D1F8032E99
:100390007ED265A002F0DEFD544800F023FA5348F7
:1003A000983000F01FFA012001F0ACFEFF20F5307C
:1003B00000F0AAFB96E000F003FD411B5EA002F0F6
:1003C000C9FD00F0FDFC054605A802F05BF8012818
:1003D000DBD100F0F5FC411B5FA002F0BBFD00F09B
:1003E00009FC4848103800F009FAFF25634F4135F1
:1003F000312819D04348103800F000FA302803940F
:1004000027D05FA002F0A6FD0197009403A96846DB
:10041000029500E006E000F083FB002820D063A0F6
:1004200002F098FD45B0F0BD63A0039402F092FD88
:1004300003A9684601970295009400F071FB00281B
:10044000EDD160A002F086FD2E48012260A10C389B
:100450000DE060A002F07EFD614800940190D5E7B8
:1004600058A002F077FD2748012259A1083800F072
:100470002BFA00F097FB5BA002F06CFD00F0A0FCF3
:1004800002F088FB054601280ED01848403000E0F5
:1004900022E000F0A7F9681C1BD0032D98D1134867
:1004A000483000F09FF970E70520009401F02AFE23
:1004B000012269460D4800F03FFA0C4801226946C6
:1004C000503800F039FA02F033F84A4800F01CFBCB
:1004D000A8E706484430E4E701226946034800944F
:1004E00000F02AFA062001F00DFE9BE770FD0108DE
:1004F0005374617274205570646174652E2E2E25BC
:10050000640D0A00B0FE010875726C3A25730D0A7D
:100510000000000053696DC4A3BFE9B3F5CABCBBBA
:10052000AFCAA7B0DC0D0A0055706461746520661F
:1005300061696C0D0A000000496E697453696D634E
:100540006F6D20737563636565642074696D653ACA
:1005500025640D0A00000000436F6E6E65637454DD
:100560006370536572766572207375636365656445
:100570002074696D653A25640D0A0000005000087A
:1005800066697273742072756E6E696E67A3BF615F
:100590007265612064617461206C6F7374A3BF50D5
:1005A000726F6772616D20410D0A0000B2C1B3FD28
:1005B000CAA7B0DC0000000050726F6772616D2046
:1005C000410D0A00B2C1B3FDB3C9B9A60D0A0000BE
:1005D0003000000050726F6772616D20420D0A009A
:1005E00000F000085570646174696E672E2E2E0D40
:1005F0000A000000B80B000008B501218140074B3C
:100600000091184600F00CF90099012288430090EF
:100610006946184600F090F908BD000010FD010879
:10062000F0B5012903D0022901D0042940D10023CB
:100630001E46136038E00478156843782D0227467B
:10064000303F801C1560092F03D8240103273F0287
:100650000EE02746613F052F03D8240157273F01AD
:1006600006E02746413F052F22D8240137273F01C6
:10067000E41B25431C46303C1560092C03D82B464F
:10068000234313600EE01C46613C052C02D82C4627
:10069000573B05E01C46413C052C09D82C46373B0E
:1006A0001C431460761CF6B28E42C4D30020F0BD09
:1006B0000020C043F0BD000010B5084900224A6187
:1006C00007494B684C1523434B604B680824234370
:1006D0004B60C009C001026010BD0000E42A002088
:1006E0000020024010B5214A00219069C30520482E
:1006F00004D54169022319434161911593699B0512
:1007000005D5436901242343436163021943936977
:100710005B0505D54369082423434361E30119437D
:1007200093691B0505D54369042423434361630290
:10073000194393699B0405D54369102423434361FE
:100740006302194393699B0304D5446920231C4326
:10075000446119439369DB0305D54369402423436E
:100760004361A0020143916110BD000000200240DE
:10077000E42A002070B5054600F022FB0646184C1E
:100780000AE0681C08D0002D04D000F019FB801B83
:10079000A84201D9032070BDA069C007F1D1A069AA
:1007A000800701D50220A061A069C00511D4A0690D
:1007B00080050ED4A06940050BD4A069000508D4BB
:1007C000A069800405D4A069800302D4A069C00395
:1007D00003D5FFF787FF012070BD002070BD00002A
:1007E0000020024008B5034600F01AF8401C0090B3
:1007F00001226946184600F09FF808BD0121C9068C
:10080000884206D3054A928F1204920951188142F8
:1008100001D2002070470088704700004000F81F98
:100820000121C906884206D3054A928F1204920913
:100830005118814201D200207047006870470000C3
:100840004000F81F0121C906884206D3054A928F4D
:10085000120492095118814201D200207047007899
:10086000704700004000F81F70B516460C4605465C
:10087000002309E02846FFF7E5FF2070002807D095
:100880005B1C641C9BB26D1CB342F3D3002070BD93
:10089000184670BD0122D20690420AD3094B9B8FA5
:1008A0001B049B099B1802468032934201D34306E6
:1008B00003D00020704708C808C19042FBD3012034
:1008C000704700004000F81FF0B50123DB06A1B01F
:1008D0000E4698422BD3174C5500A48F2918240498
:1008E000A409E318994222D8C30720D1402A1ED870
:1008F000040A2402C7B27F2F01D98034803F2046EA
:100900008030814213D869462046FFF7C3FF012893
:100910000DD1B8088000694640182A463146FFF7D5
:100920002DFC6946204600F04BF8012800D000203D
:1009300021B0F0BD4000F81FF7B5A0B0054617463E
:1009400080216846FFF733FC01210024C9068D424F
:100950001DD31A4AB800928F4019120492095118F7
:10096000884214D8A90712D1202F10D82E0A360297
:10097000EDB27F2D01D9803D8036314680318842ED
:1009800005D869463046FFF785FF012802D00020D0
:1009900023B0F0BD6A46A80809E021990319096847
:1009A0009B00D1502199091D641CA4B22191BC4225
:1009B000F3D31146304600F003F8E9E74000F81F92
:1009C000F0B504460027012085B0C0060E46039707
:1009D00084420AD31A492546898F8035090489093A
:1009E0000818A84201D3600602D0002005B0F0BD6F
:1009F00000F000F90120029003A9009701946846D5
:100A000000F08EF8002815D000F0C6F801460DA0C1
:100A100002F0A0FA09E021460220326800F0CCF88A
:100A2000002805D00DA002F095FA00F0BBF8DCE735
:100A3000241D361DAC42EED300F0B4F80120D5E7FA
:100A40004000F81F455241534520464C4153482031
:100A50004552524F523A2025780D0A005772697458
:100A60006520466C617368204572726F720D0A00D2
:100A700070B50024024620325179022903D00421A6
:100A8000C16301243CE001680B680E25AB430B6099
:100A900001680B685B085B000B601A4B01689942A8
:100AA00001D1012121E0174B1433994201D11021CA
:100AB0001BE0144B2833994201D1891515E0114BE5
:100AC0003C33994201D189140FE00E4B50339942C7
:100AD00002D10121090408E00A4B6433994202D192
:100AE0000121090501E001210906064B083B596077
:100AF0000121517100211171816B002900D08847BB
:100B0000204670BD0800024031B500F059F9044696
:100B100000F056F90099001B8842F9D338BD000057
:100B2000F8B51A4E0546307C0F46012807D0012043
:100B300030741748FFF71EFE010002D021E00220AA
:100B4000F8BD0020C04338606C6814E02046FFF711
:100B5000B3FD0F48FFF70EFE01460E48426808231A
:100B60009A434260426843159A434260002901D08B
:100B70003C6006E08034A8686A68C0018018A04222
:100B8000E4D8002030740846F8BD0000E42A0020B4
:100B900050C3000000200240014840697047000037
:100BA000E42A0020034841680222114341600020EA
:100BB0007047000000200240F8B50C4C1646207C1F
:100BC0000F46012808D0012020740948FFF7D2FD04
:100BD0000025002802D006E00220F8BD65613E60D5
:100BE0000348FFF7C7FD2574F8BD0000E42A002084
:100BF00050C300000948416889070CD54168C907FE
:100C000003D00749C1600749C1600749016107492D
:100C10000161002070470120704700000020024061
:100C2000EFCDAB8905040302BFAE9D8C16151413DE
:100C3000F8B500230124A7E027469F403A4070D032
:100C40004D68022D01D0122D14D1DD08AD002D18F4
:100C500000952D6A5E07AC46F50E0F26AE46AE40F7
:100C60006546B543AC460E697546AE4065462E43B3
:100C7000009D2E624D68012D05D0022D03D0112D4F
:100C800001D0122D16D185680326AC465D00AE4614
:100C9000AE406546B543AC46CE687546AE40654647
:100CA0002E43866046680D79BE43ED06ED0F9D40EC
:100CB0003543456006685F000325BD40AE46AE4340
:100CC0000D79B446AE07B60FBE4065462E430660AA
:100CD000C6687546AE438D68BD403543C5604D68F6
:100CE000ED0050D52B4D6E6B26436E639E082A4D4A
:100CF000B6007519AC46AD689E07360F0F27B74092
:100D0000BD4305273F07B84201D100271AE0234F12
:100D1000B84201D1012715E0214FB84202D1022784
:100D200010E030E01F4FB84201D103270AE01E4F08
:100D3000B84201D1042705E01C4FB84201D1052774
:100D400000E00627B7402F436546AF60184D2E6878
:100D50004F689643FF0300D516432E606E684F68B8
:100D60009643BF0300D516436E60AE684F68964346
:100D7000FF0200D51643AE60EE684F689643BF028F
:100D800000D51643EE605B1C0A681546DD4000D0B6
:100D900052E7F8BD0010024000000140000400507E
:100DA00000080050000C005000100050001C0050C3
:100DB00000040140002A01D08161704781627047C0
:100DC0000148006870470000AC000020024801683C
:100DD000491C016070470000AC00002010B50648B7
:100DE0000168402211430160002000F007F800F084
:100DF00019F8002010BD00000020024010B5044684
:100E000007487D21C9000068FFF772F900F040FD36
:100E100000222146501E00F035F8002010BD0000D1
:100E20000000002010B50C48416B012211434163C2
:100E3000816B02041143816300221146501F00F0B0
:100E400021F800221146901E00F01CF800221146E5
:100E5000501E00F017F810BD00100240C106C90E68
:100E600001208840014908607047000080E100E0EF
:100E7000C106C90E01208840014908607047000082
:100E800000E100E010B500F085FF10BDBFF34F8F0B
:100E900004490348C860BFF34F8F00BFFDE700005F
:100EA0000400FA0500ED00E0F8B5664907460125A3
:100EB0000020ED03624B634A4031102F6FD011DCEC
:100EC000012F77D0022F6CD0042F6BD0082F24D1A4
:100ED000C9680324240321407BD0BD026C10A942C1
:100EE0007CD0A0E00326584C3604202F0BD0402F96
:100EF00035D0FF3F012F10D1C968314069D07C0443
:100F0000A1426BD096E00B690969012731403F048B
:100F1000B94203D1990559E02846F8BD01256D0471
:100F2000A94203D19907F8D54848F8BDB142FCD190
:100F300011688903F9D511680320000501400120DB
:100F40000005091A09D0091A05D0814201D140488B
:100F5000F8BD2046F8BD3F48F8BD3F48F8BDC96818
:100F60000125AD06294006D0A942F7D1916889072D
:100F7000F4D53A48F8BD11688901FBD5D068D1682D
:100F80008002374D000F2D5C0802810FD068491C8C
:100F9000C0030AD41068C00605D5204606E045E027
:100FA00008E023E030E0184600E02E486843FFF7F1
:100FB0009FF8F8BDCC68A407A40F0CD0022C0DD06C
:100FC000012C10D0032CF4D1096989050029A3DB79
:100FD000F8BD16E002E000F0D7F9F9E7116849071B
:100FE000F6D51846F4E700F0DFF9F1E7CC680C26F7
:100FF000344006D0082CF1D0042CF4D00C2CE3D0D3
:10100000E6E700F0B1F9E3E7CC680326B602344026
:10101000F7D00127FF02BC42E0D07A109442E2D020
:10102000B442D1D0D4E7A142DDD0D1E7916B4902DF
:10103000E7D4CDE7012212049142D4D0C8E70000E2
:101040000024F4000010024000093D0088900000D8
:1010500020A1070040420F0080841E00006CDC02CB
:101060009A34000800127A00F8B5044600785E4D04
:10107000800672D55C4E0027403EB06BC00004D4A1
:10108000B06BA9050843B063012758480168C9053A
:1010900011D40168821511430160FFF791FE0090A1
:1010A00005E0FFF78DFE0099401A642837D84F48B5
:1010B0000068C005F5D532680321090560680A405B
:1010C0000140914208D08103890F032904D131687E
:1010D000890301D50120F8BD2A69032109040A40CA
:1010E00022D0084090421FD0207880061CD5286965
:1010F0002A6988430121C9040A432A612A698A436B
:101100002A612861C0050FD5FFF75AFE009008E05C
:10111000FFF756FE0099411A3548814201D9032054
:10112000F8BD28698005F3D561688803800F03281E
:1011300005D132680005824301400A4332602869C4
:10114000032261681204114008432861002F04D073
:10115000B06B012109078843B0632078C00705D030
:10116000E868A168800880000843E860207880076C
:1011700005D5E8680C218843E1680843E8602078D9
:10118000400706D5E868032189028843216908439E
:10119000E8602078000706D5E86803210903884342
:1011A00061690843E8602088C00506D5E868032126
:1011B00009048843A1690843E8602078400606D501
:1011C000E868012189068843216A0843E86020789D
:1011D000000606D5E868032189048843E1690843CD
:1011E000E8600020F8BD00004010024000700040A0
:1011F00088130000F8B5054653480E460068C0073E
:10120000C00FB0420AD25048016849084900314332
:1012100001600068C007C00FB0426FD128784B4C06
:10122000800705D5E068F0218843A9680843E0609D
:101230002878C00752D06868022817D0032818D031
:101240002168012818D08905002957DAE168890842
:1012500089000143E160FFF7B3FD69680746022991
:1012600012D003291CD0012926D033E0216889033C
:10127000EAE721688901E7E74907E5E7FFF7A0FD0D
:10128000C11B3348814223D8E0680007800F022841
:10129000F4D123E0FFF794FDC11B2D48814217D8FC
:1012A000E0680007800F0328F4D117E0FFF788FDFE
:1012B000C11B274881420BD8E0680007800F012836
:1012C000F4D10BE0FFF77CFDC11B2148814201D91D
:1012D0000320F8BDE0680007800FF3D11A480168C9
:1012E000C907C90FB1420BD9016849084900314308
:1012F00001600068C007C00FB04201D00120F8BDF6
:101300002878400706D5E068072109028843E96884
:101310000843E0602878000707D5E0680721C90284
:1013200088432969C9000843E06000F03DF8E1689E
:10133000084A0906090F515CC840074908600020A7
:10134000FFF75CFD0020F8BD0020024000100240C5
:10135000881300008A34000800000020014800685B
:101360007047000000000020044805490068C96873
:10137000044A4905490F515CC840704700000020ED
:1013800000100240A3340008044805490068C968F9
:10139000044A8904490F515CC8407047000000208E
:1013A00000100240A334000810B5184AD1680C2080
:1013B000084004280BD0082810D00C2810D0506802
:1013C0000004410F0120C003491C884010BD106873
:1013D000C00601D50E4810BD0E4810BD0E4810BD08
:1013E00088020E4B000F185C0902D368890F491C54
:1013F000DB0301D5084A05E01268D20601D5044A8C
:1014000000E0044A5043FEF773FE10BD0010024096
:1014100000093D000024F40000127A009A3400080C
:10142000F8B504460078FE4DC0074AD0E8680007CA
:10143000800F022807D0E8680007800F032809D131
:10144000E868C00306D5286880033AD5606800289C
:1014500073D036E0012062680004824203D129681B
:101460000143296011E0052301211B0489049A42EC
:101470002A6802D10A432A60F1E782432A602A6877
:1014800002400092286888432860606800280CD0D9
:10149000FFF796FC064604E0FFF792FC801B6428E9
:1014A0007ED828688003F7D50BE0FFF789FC064655
:1014B00004E0FFF785FC801B6428F1D828688003CE
:1014C000F7D42078800741D5E8681F270007800FF0
:1014D0003F02012807D0E8680007800F032809D1E0
:1014E000E868C00306D42868400717D5E0680128DB
:1014F00023D113E0E068002817D02968092291431E
:1015000001432960FFF75CFC064604E0FFF758FC46
:10151000801B0228C4D828684007F7D5686821696D
:10152000B84309020843686010E02868400840009A
:101530002860FFF745FC064605E095E0FFF740FC14
:10154000801B0228ACD828684007F7D42078C00652
:1015500072D5E868B34E0007800F0AD0E069002812
:101560002868B1495AD008432860FFF729FC07468C
:1015700044E02868800502D5E069002874D0606ADC
:1015800069683140884212D900F07AFD0028AFD155
:101590006868616AB043084368606868000200E0F8
:1015A000DCE0218C000A0906084368600FE06968E6
:1015B000B143014369606868218C0002000A090692
:1015C00008436860606A00F05BFD002890D1606AA3
:1015D000410B0120C003491C8840E96809060A0F35
:1015E0009249895CC840924908600020FFF706FCD8
:1015F00022E0FFF7E5FBC01B02288BD82868800596
:10160000F7D56868616AB043084368606868218CF0
:101610000002000A0906084368600DE0884328605C
:10162000FFF7CEFB064604E0FFF7CAFB801B02284B
:1016300088D828688005F7D420787E4E000723D507
:1016400060690028306910D0012108433061FFF73C
:10165000B7FB074604E0FFF7B3FBC01B02287DD8A9
:1016600030698007F7D50FE001E1400840003061A4
:10167000FFF7A6FB074604E0FFF7A2FBC01B02280A
:101680006CD830698007F7D42078400760D5A86B04
:101690000027C00005D4A86B012109070843A863EF
:1016A000012765480168C90511D4016882151143F5
:1016B0000160FFF785FB009005E0FFF781FB0099D3
:1016C000401A64284AD85C480068C005F5D55648D9
:1016D000A268824203D131690143316111E00121E5
:1016E0008902002A07D005231B029A4203D13269DE
:1016F0000A433261EFE732698243326130698843DD
:101700003061A06800280ED0FFF75AFB009006E079
:10171000FFF756FB0099411A484881421ED83069AC
:101720008005F5D50DE0FFF74BFB009006E0FFF7D5
:1017300047FB0099411A414881420FD83069800522
:10174000F5D4002F04D0A96B012000078143A963C1
:101750002078800630D53A48421400E080E0A16944
:10176000002916D0AB6801210B43AB606B6B0B43B8
:101770006B63016A11430162FFF722FB064604E036
:10178000FFF71EFB801B02286AD8A8688007F7D5E0
:1017900012E0A96849084900A960016A9143016201
:1017A000FFF70EFB064604E0FFF70AFB801B02284A
:1017B00056D8A8688007F7D4A06A002855D0E968F1
:1017C0000907890F032952D0012636060228286806
:1017D00005D0B0432860FFF7F3FA044642E0B04377
:1017E0002860FFF7EDFA074604E0FFF7E9FAC01BAF
:1017F000022835D828688001F7D4216BE06AEA68AE
:101800000843616BFD231B049A4311430843E860BE
:10181000286830432860FFF7D3FA044617E0000039
:101820000010024000E00000000100008A340008BF
:1018300000000020401002400070004088130000AB
:1018400000000140FFF7BCFA001B022808D82868F6
:101850008001F7D509E0FFF7B3FA001B022801D990
:101860000320F8BD28688001F5D40020F8BD0120D0
:10187000F8BD0000042204490428086902D09043FE
:10188000086170471043FBE700E000E0704700008C
:10189000094910B5401E884201D9012010BD074CEE
:1018A00060610321081F00F075FA0020A061072085
:1018B0002061002010BD0000FFFFFF0000E000E0FD
:1018C00010B5FFF7E3FF10BD70477047F8B5026829
:1018D0000446D06911680607360F07D1830605D57F
:1018E0008B0603D5204600F09AFFF8BD95682023AB
:1018F000002E65D0EE07F60FFF2721370F40374344
:101900005ED0C70706D0CF0504D501271762E26E67
:101910003A43E266820708D5EA0706D02768022222
:101920003A62E26E04273A43E266420708D5EA07C4
:1019300006D0256804222A62E26E02252A43E26666
:10194000020709D50A461A40324305D02368082207
:101950001A62E36E1343E366E26E002AC5D0800686
:1019600004D5880602D5204600F059FFE06E000736
:1019700003D42068806840061CD5204600F040FF54
:1019800020688168490611D5826840218A438260B7
:10199000606E00280AD01D498163606EFFF768F809
:1019A0000028A2D0606E816B8847F8BD2046FFF703
:1019B0008CFFF8BD2046FFF788FF0020E066F8BDE9
:1019C0002646C7026036002F0ADA6D0208D50120CC
:1019D000000510627372B3722046FFF775FFF8BD01
:1019E000050605D50D0603D5204601F06FF8F8BDB4
:1019F0004006FCD54806FAD52046146840218C43A1
:101A00001460737200F032F9F8BD0000ED27000891
:101A100070B5040005D025466035687A002802D0EC
:101A200006E0012070BD00202872204600F026F854
:101A30002420687220680168490849000160606AD2
:101A4000002802D0204600F03BFE204600F026FF92
:101A50000128E7D0206841680922D2029143416001
:101A6000206881682A2291438160206801680122F0
:101A700011430160204600F089FE70BD70B5184E1C
:101A800005681848022101220323042486B0B542C8
:101A900014D1856B4E043543856398026D461FC58E
:101AA00069461148FFF7C4F8002211461D20FFF7D0
:101AB000E9F91D20FFF7DCF906B070BD0B4EB54209
:101AC000FAD1456B0126B603354345630320400236
:101AD0006D461FC5052069460007FFF7A9F8EBE72B
:101AE000004800400010024000040050003801404F
:101AF000F0B5034660339C7A202C44D100290BD0EA
:101B0000002A09D0012584682D03AC4206D106695C
:101B1000002E03D1CE0701D00120F0BD1E7A012E88
:101B200031D001261E724165014640310A834A8345
:101B3000FF27AC4204D10269002A12D1134A0EE0F9
:101B40007F22002C08D001252D07AC420AD1046960
:101B5000002C04D03F2202E00469002C01D08A83CB
:101B600000E08F830021C16622229A7219720168F7
:101B70008A6832438A6000680168FF22213211437B
:101B800001600020F0BD0220F0BD0000FF01000058
:101B9000034910B5884201D100F0C8FA10BD000019
:101BA000042A0020FFB5064604466036707A83B0EA
:101BB0000D46202858D1002D0CD00598002809D0BA
:101BC0000120A1680003814207D12069002804D1C7
:101BD000E80702D0012007B0F0BD307A012843D0D9
:101BE000012030720020E06621207072FFF7E8F8D3
:101BF000019027464037059838820598788218E08A
:101C0000788A401E78820698009000228021204623
:101C1000019B00F08EFF002818D10120A16800036D
:101C2000814202D12069002812D021682878886278
:101C30006D1C788A0028E3D106980090002240218C
:101C40002046019B00F075FF002808D00320C2E762
:101C500028882168C005C00D8862AD1CE9E72020F6
:101C6000707200203072B6E70220B4E77047FEE7DA
:101C700010B5044800F00AF80348002101608160B3
:101C8000816010BDB4010020A0000020002141604F
:101C900081607047F0B5204887B0C26A04210A43CA
:101CA000C262C26A0A400592C26A80210A43C262C5
:101CB000C26A0A400592C26A02210A43C262C26A2B
:101CC0000A400592C16A01252943C162C06A134CCA
:101CD0002840134F0590002221463846FFF76AF846
:101CE000EE030520002231460007FFF763F8009459
:101CF000002401950294694638460394FEF798FF44
:101D00000520029469460007009601950394FEF7AA
:101D10008FFF07B0F0BD000000100240021000006D
:101D20000004005010B50B48094901604B21C9015E
:101D3000416000218160C160016181610C2201620A
:101D400042614162FFF764FE002800D0FEE710BD4B
:101D500000480040042A002010B50C480A490160E0
:101D6000E1214902416000218160C160016181611E
:101D7000C1610C22016242614162FFF749FE002805
:101D800000D0FEE710BD000000380140742A00209A
:101D9000704700008307FF22DB0E9A408907090E77
:101DA000994000280BDA0007000F0838830808481C
:101DB0009B001818C36993430B43C36170478308A2
:101DC00004489B001B18186890430843186070472C
:101DD00000ED00E000E400E0F0B5044687B00D46F9
:101DE0000878012603E03A280CD068786D1C0A2890
:101DF00001D00028F7D1A07B012811D00220A060DB
:101E000007B0F0BDA07B01280AD009226EA12846A8
:101E1000FEF7F3F90028EED16EA001F09BF8A6734F
:101E200004AA0121E81DFEF7FBFB002829D1049834
:101E3000002700282ED001287ED004287DD16848B4
:101E4000FEF7DCFC6946088028462246022109305C
:101E5000FEF7E6FB00280CD168460088312803D045
:101E60006846008830280DD0208800042060A781B3
:101E7000A7605CA0216801F06DF8A18961A001F064
:101E800069F894E020880521000449034018206087
:101E9000A181EDE72846FEF7A9F92D286AD303AA08
:101EA0000221E81CFEF7BCFB002806D102AA012192
:101EB000681CFEF7B5FB002806D058A001F04AF8D0
:101EC0000020C043A06072E00020009020680399C9
:101ED00040180026069042E07000401905AA04212F
:101EE0000930FEF79DFB00283FD105980202120E33
:101EF000010E12020A430104090E090411430206ED
:101F00000A43100D80280DD1A0890F2321681B03DF
:101F10008018CB18984205D205231B03C9188842A4
:101F200000D902460698811902200191FEF744FE6D
:101F30000090002812D001E020E019E021683BA0C9
:101F4000039A01F007F8FEF727FE03463CA0009A2B
:101F5000019900F0FFFF0020C043A060361D0298E9
:101F6000864202D200980028B6D0029886421ED13E
:101F7000A7601CE037A000F0EDFFF9E739A000F002
:101F8000E9FF174D2846FEF739FC694608800888A6
:101F900030280FD008882F1D012236A12846FEF7D1
:101FA00093FC012234A13846FEF78EFCA660207A0D
:101FB00040B225E7012230A12846FEF785FC0848FB
:101FC00001222DA10830EFE73A3032303030303086
:101FD000340000005374617274204941500D0A00AE
:101FE000A0FE0108705F6865782D3E6C696E6561C2
:101FF000725F626173655F616464723A25780D0A8D
:1020000000000000705F6865782D3E7663745F6F36
:1020100066667365743A25780D0A0000CAFDBEDD58
:10202000D7AABBBBCAA7B0DC0D0A0000C9D5D0B483
:10203000B4EDCEF33A25782C25780D0A0000000087
:10204000C9D5D0B4B4EDCEF33A25782C25782C251B
:10205000780D0A00BAF6C2D4B6CFB2E3CAFDBEDD2F
:102060000D0A0000456E64204F662055706461744F
:10207000650D0A00300000003100000070470000CC
:1020800070B517490023CA681206120F18D18A6B5F
:10209000154CD500134A02D51268224009E08E6B18
:1020A00001252D072E438E6312688E6B2240AE43AE
:1020B0008E63A24204D103218903884200D1012307
:1020C0000A48016849084900194301600068C007CF
:1020D000C00F984201D0012070BD002070BD0000EB
:1020E0000010024000700040001800000020024074
:1020F00010B50248FFF7EAFB10BD0000042A0020DB
:102100007047000008B501218140074B0091184637
:10211000FEF786FB009901220843009069461846A5
:10212000FEF70AFC08BD000010FD0108F8B52F48B5
:10213000FF22418801320026914200D146802B497E
:1021400042880B782A49294D8B54521C94B20A19A3
:102150004480203AD77F01232D1D3E2F05D0042C2B
:1021600014D2917F0D290DD039E008210A015219AE
:10217000546824783E2C00D19373491E49B200293B
:10218000F4DA01E00A2F2AD1468028E0927F0D2A56
:1021900025D10A2F23D10824200147191448796832
:1021A000FEF710F8002801D00120B87311A11048E3
:1021B000FEF708F8002801D00220B873641E64B24C
:1021C000002CE9DA094C6078012807D1084800782A
:1021D0003A2803D161880648FEF752F8668001224A
:1021E00002490648FFF784FCF8BD00000400002007
:1021F000B40000204552524F52000000042A002033
:10220000F8B50646070100211B480D463C18A1738E
:102210001CE0C15919A000F09DFEFEF7D1FD009011
:10222000304600F0A7F9012801D00220F8BDA07BBC
:10223000002806D1FEF7C4FD0099411AA06881422A
:10224000F5D3A07B012808D06D1CEDB2A1890A4806
:10225000A942DED8A07B002805D06420FEF754FCFC
:10226000082E02D005E00320F8BD0348002180308D
:102270000160A07BF8BD000008000020257300006D
:1022800010B50D4807A101600CA141600F498160A4
:10229000012181810820FFF7B3FF012800D0002031
:1022A00010BD000041542B48545450414354494FF1
:1022B0004E3D300D0A000000880000202B48545489
:1022C00050414354494F4E3A0000000060EA00007C
:1022D00070B51C4C13A020607D26F6001AA0A660E5
:1022E00060600125A5810820FFF78AFF012816D12B
:1022F00016A0206014A060601848A060A581082086
:10230000FFF77EFF01280AD115A020600EA0A6606D
:102310006060A5810820FFF773FF012800D000202E
:1023200070BD000041542B53415042523D332C317B
:102330002C22436F6E74797065222C2247505253C1
:10234000220D0A00880000204F4B000041542B53FF
:10235000415042523D312C310D0A000030750000D1
:1023600041542B48545450494E49540D0A00000022
:1023700010B50D4808A101600CA141600E498160B3
:1023800001218181843841700820FFF739FF01283D
:1023900000D0002010BD000041542B48545450522E
:1023A0004541440D0A000000880000202B48545489
:1023B00050524541443A00003075000010B590B0CD
:1023C000044640216846FDF7F2FE22460CA168460D
:1023D00000F0D0FD11486946016011A141607D21E6
:1023E000C9008160012181810C4900208439487035
:1023F0000820FFF705FF012800D0002010B010BD15
:1024000041542B48545450504152413D2242524570
:10241000414B222C25750D0A000000008800002089
:102420004F4B000010B590B0044640216846FDF7C0
:10243000BEFE22460AA1684600F09CFD0F48694690
:1024400001600FA141607D21C9008160012181816E
:102450000820FFF7D5FE012800D0002010B010BDE5
:1024600041542B48545450504152413D2242524510
:10247000414B454E44222C25750D0A008800002052
:102480004F4B000010B5A0B0044680216846FDF710
:102490008EFE22460AA1684600F06CFD0F48694690
:1024A00001600FA141607D21C9008160012181810E
:1024B0000820FFF7A5FE012800D0002020B010BDA5
:1024C00041542B48545450504152413D2255524C96
:1024D000222C222573220D0A000000008800002013
:1024E0004F4B000010B510490020487000F032F842
:1024F000002818D001220C490C48FFF7F9FA0028EF
:1025000010D1FFF77DFE01280CD1FFF779FE0128DD
:1025100008D10720FFF774FE012803D1FFF7D8FE8A
:10252000012800D0002010BD04000020042A002053
:1025300010B5074C002202212046FEF73BFC01218A
:10254000002209032046FEF735FC012010BD0000E3
:102550000004005010B5064C012211032046FEF77E
:1025600029FC012202212046FEF724FC012010BD97
:102570000004005070B504461D20FEF76FFC0D4DA1
:1025800024012859FDF732FE82B229590A4B0B4823
:10259000FFF708FB002807D01D20FEF769FC08A004
:1025A00000F0D8FC002070BD1D20FEF761FC01206A
:1025B00070BD000008000020FFFF0000042A00207A
:1025C000B7A2CBCDCAA7B0DC0D0A000010B5FEF74C
:1025D000FDFBFFF775F910BD10B523489CB00168ED
:1025E0000322D2029143C214891801600120010420
:1025F000009002200A90032080040C908801019131
:102600000D900B916846FEF70BFF002800D0FEE707
:102610000F200E90002403200F901094119401219C
:1026200012940EA8FEF7E6FD002800D0FEE7052074
:1026300013901594179413A8FEF716FD002800D0E8
:10264000FEE7FEF78BFE7D21C900FDF751FDFFF788
:102650001FF90420FFF70EF900221146501EFEF765
:1026600011FC1CB010BD0000007000401048016853
:10267000821511430160C1680E4A1140C1600168B2
:102680000D4A114001608168490849008160016874
:102690000122920491430160C168FD22120491431A
:1026A000C160002101610549C003886070470000D6
:1026B000001002400C40FF88F6FFF6FE00ED00E03F
:1026C00010B5818CC90707D001684A6801235B04F3
:1026D0009A43836A1A434A60818C890707D5016847
:1026E0004A6801231B049A43C36A1A434A60818CD7
:1026F000490707D501684A6801239B049A43036B85
:102700001A434A60818C090707D501684A6801238A
:10271000DB039A43436B1A434A60818CC90607D591
:102720000268916801231B039943836B19439160ED
:10273000818C890607D501688A6801235B039A4367
:10274000C36B1A438A60818C490612D503685A68A4
:1027500001210905046C8A4322435A60026C8A42B3
:1027600007D10268516803235B059943436C194301
:102770005160818C090607D501684A680123DB0492
:10278000806C9A4302434A6010BD0000F8B50026F1
:102790000446C666FEF714FB054620680068124F23
:1027A000000709D501212B46002249052046009744
:1027B00000F0BFF900280DD12068006840070BD554
:1027C00001212B46002289052046009700F0B1F92F
:1027D000002801D00320F8BD202060346072A07270
:1027E00026720020F8BD0000FFFFFF0110B5806ACF
:1027F0000022014640314A834A82FFF766F810BD45
:1028000001680A68FF2321339A430A6001688A68D5
:10281000520852008A60202160308172704770B582
:102820000246403201466031938B8D7A0C46016836
:10283000222D05D08869082210438861022070BDCE
:10284000496A01268568360389B2B54202D1056915
:10285000002D0BD01940436D5D1C45651970518BDF
:10286000491E0904090C518307D015E0456D194034
:102870002980416D891C4165F1E701680A68FF23E1
:1028800021339A430A6001688A68520852008A60BC
:102890002021A172FFF77CF9002070BDFEB504462F
:1028A000016880682269E369104362691027002685
:1028B0001A4310430A683546784B1A4002430A60AF
:1028C00020684168032212039143E268114341608A
:1028D000734A2168A069914201D0226A10438A6834
:1028E0000B231B029A4302438A606E4A20686E499A
:1028F00090420CD1C8688007800F06D0012843D0D1
:1029000002283FD0032826D124E0012723E0674A8C
:1029100090420AD1C8680C21084031D0042833D035
:1029200008282FD00C2816D114E0614A904227D0F5
:10293000604A904224D05A4A90420CD1C968032080
:10294000800201401CD01015091A1DD0091A19D097
:10295000814200D108270220FEF7A6FA0190504BD1
:10296000514922684039D81300929A4235D1002F3C
:102970000CD0022F0DD0042F12D0082F1CD113E041
:102980000027E8E70227E6E70427E4E7FEF7ECFC88
:1029900008E00868C00601D5474805E0474803E05D
:1029A000FEF702FD002873D0626851005118814281
:1029B00002D81103814201D2012569E0010E06020D
:1029C0005008002330185941FDF7A8FB03210902E4
:1029D0003B4A411A914259D9EEE7E26982422DD130
:1029E0003B0000F0DBFA0906080B24192424241FFD
:1029F0002400019812E0FEF7C7FC0FE00868616848
:102A0000C00602D548082F4A01E02F4A480880181E
:102A1000FDF76EFB86B20BE0FEF7C6FC6168400076
:102A20004A08F4E76168012248081204EFE701252B
:102A3000310909013007400F084327E03B0000F04F
:102A4000ADFA09070A0D061D060606290600B3E7BA
:102A5000FEF78AFC14E0FEF797FC11E00868616855
:102A6000C00602D54A08144801E014484A08101864
:102A7000FDF73EFB81B20098C16009E0FEF794FCCF
:102A800061684A088018FDF733FB80B22168C8608E
:102A90002846FEBD61684A08E9E70000F369FFEFD8
:102AA000004800400038014040100240004400400F
:102AB000004C00400050004000093D000024F4009C
:102AC000FFFC0F0000127A000048E8016921095C50
:102AD000212901D00220704702464032518A002944
:102AE00012D0012381681B03994202D10169002998
:102AF00015D0C16C4B1CC364006809788162508A90
:102B0000401E50820020704701680A6880239A4363
:102B10000A6000680168402211430160F2E7C16C5D
:102B200003680988C905C90D9962C16C891CC16413
:102B3000E5E7FFB581B017460E4604460A9D1DE045
:102B4000681C1BD0002D05D0FEF73AF90499401AF5
:102B5000A84213D920680168FF22A1329143016085
:102B600020688168490849008160202060346072D3
:102B7000A07200202072032005B0F0BD2068C1695A
:102B80003046884304D00020B842D9D00020F3E773
:102B90000120F9E7FEB500200090FEF711F9019041
:102BA000FEF728F8334D45E0334E32480027A12187
:102BB000890110303760FDF7FAFA0520009CC00249
:102BC00044432046FFF7FAFB2C482018FFF72AFC65
:102BD000FFF756FBFFF7CCFB002814D0B0680028A5
:102BE000FCD06420FDF790FF224925A0103100F0B1
:102BF000B1F9B76077681F4E009800241036401C6A
:102C000080B2009014E01FA007E031191948FFF7C7
:102C1000E3F8A868401C05D123A000F09BF9002030
:102C2000C043FEBD305D641C0A2801D0BC42F9D30C
:102C3000BC42EAD3A868002806D1FEF7C1F8264AAC
:102C4000019989188842AFD3FDF7ACFF0520FDF745
:102C50005BFFFEF7B5F8214A01998918884204D92B
:102C60001FA000F077F90320FEBD28A000F072F944
:102C7000A868FEBDB4010020A00000202A280000A2
:102C800025730000CAFDBEDDBBF1C8A1CAA7B0DC38
:102C90002CC7EBBCECB2E275726CCAC7B7F1D5FDBC
:102CA000C8B70D0A00000000CAFDBEDDCFC2D4D8EF
:102CB000B4EDCEF32C484558CEC4BCFEB3F6CECA14
:102CC000CCE2BBF2D5DFCFC2D4D8B6AACAA7CAFD20
:102CD000BEDD0D0A0000000080EE3600E093040027
:102CE000C1ACBDD3B3ACCAB12CB8FCD0C2CAA7B07A
:102CF000DC2CB2E9BFB4CFC2D4D8CDF8D6B7CAC79E
:102D0000B7F1D5FDC8B70D0A00000000B8FCD0C26D
:102D1000BDE1CAF80D0A0000F8B5454C2046FDF7A4
:102D20007FFD401C08D10090012269462046FDF736
:102D300003FE0A20FDF7E8FE3E4D2846FDF770FD34
:102D4000312811D02846FDF76BFD30280CD0012228
:102D500039A12846FDF7F0FD012802D037A000F088
:102D6000F9F80A20FDF7D0FE324E361D3046FDF749
:102D700045FD371D312811D03846FDF73FFD31287C
:102D80000CD0012236A13046FDF79EFD012802D06D
:102D900034A000F0DFF80A20FDF7B6FEFDF7B0FA28
:102DA0002846FDF72BFD384C312804D13846FDF775
:102DB00025FD312805D02846FDF720FD302804D018
:102DC00008E0324D32A0294625E03046FDF716FDD9
:102DD00031281DD036A000F0BDF82846FDF70EFDC5
:102DE00001463BA000F0B6F83046FDF707FD01466E
:102DF0003FA000F0AFF83846FDF700FD014644A0C3
:102E000000F0A8F86420FDF77FFEFEF73FF8F8BD5C
:102E1000474D48A0294600F09DF83220FDF774FE8A
:102E2000686860602060296881F308888047F8BD81
:102E300010FD0108A0FE010830000000466C61731F
:102E40006857726974653332284150505F4152456A
:102E5000415F41444429206572726F720D0A00007F
:102E600031000000466C61736857726974653136D1
:102E700028415245415F415F52554E29206572728B
:102E80006F720D0A000000009800002000F000089A
:102E90006A756D7020746F20757365722061707033
:102EA0002061726561A3BA423A25780D0A000000DC
:102EB00043616E206E6F74204A756D7020546F20D0
:102EC0004170706C69636174696F6E0D0A00000077
:102ED000466C617368526561643136284150505FB9
:102EE000415245415F414444293A25780D0A00008A
:102EF000466C6173685265616431362841524541C0
:102F00005F415F52554E293A25780D0A00000000B6
:102F1000466C61736852656164313628415245419F
:102F20005F425F52554E293A25780D0A0000000095
:102F3000005000086A756D7020746F20757365729B
:102F4000206170702061726561A3BA413A25780DE5
:102F50000A0000000FB410B503A9044B044A0298FC
:102F600000F038F810BC08BC04B01847553400080D
:102F7000B00000200FB410B504A9074B02AA0398B3
:102F800000F028F8044602A9002000F05DFA20466F
:102F900010BC08BC04B018474934000830B474466B
:102FA000641E2578641CAB4200D21D46635D5B0045
:102FB000E31830BC184702E008C8121F08C1002AF5
:102FC000FAD170477047002001E001C1121F002AAA
:102FD000FBD17047FFB591B00F460546002606E0CD
:102FE00025280AD0149A139990476D1C761C2878CE
:102FF0000028F5D1304615B0F0BD00240094012121
:10300000F34A029400E004436D1C2B780846203BF1
:1030100098401042F7D128782A280ED0022128782B
:103020000246303A092A15D8009A0A235A43303A00
:1030300080180C436D1C0090F1E701CF0090002830
:1030400005DA01204003044300984042009002202A
:1030500004436D1C28782E2815D104200443687879
:103060006D1C2A280AD101CF6D1C02900BE0029939
:103070000A225143303940186D1C029028780146CD
:1030800030390929F3D928786C2810D006DC4C286F
:103090001AD068280ED06A2817D104E0742813D0FB
:1030A0007A2812D110E00120400504430CE00121F0
:1030B000090501E0032109050C436978814203D128
:1030C0000120000524186D1C6D1C287803906E28C3
:1030D0001ED00CDC632831D004DC00288AD05828AC
:1030E00011D1B2E064287BD069280CD178E0732834
:1030F0002DD004DC6F2870D0702804D1A7E075288B
:103100006CD078286BD0149A13999047761C62E0A3
:103110006002400F022807D003280AD0042838682C
:103120000AD006603F1D56E03868F117066041601E
:10313000F8E738680680F5E70670F3E738786946FF
:1031400008740020487404A80390012003E0386844
:1031500003900020C0433F1D61070FD5002101E00F
:103160000199491C029A0191914213DA8142F7DBDD
:10317000019A0399895C0029F2D10BE0002101E05A
:103180000199491C01918142FADB019A0399895CFA
:103190000029F5D101990098139A401A0090214610
:1031A000149B00F03BF901998019461807E0039839
:1031B00003990078491C0391149A13999047019838
:1031C000401E0190401CF2D12146149B139A009896
:1031D00000F014F986196D1C09E741E033E034E092
:1031E0000A200021049005916002410F022905D0B8
:1031F00001CFC2179446032905D007E0FF1DFF0841
:10320000FF0003CF06E000B2C2179446042902D1A2
:1032100040B2C1178C4600226146944506DA0A4640
:103220000021404291418C462D2102E0210504D528
:103230002B216A461176012103E0E10701D020210C
:10324000F7E7019154E00A200BE0102009E010207C
:10325000049000210420044308200591029003E01B
:1032600008200021059104906002410F022905D039
:1032700001CF00229446032906D006E0FF1DFF0877
:10328000FF0003CF8C4603E080B2042900D1C0B216
:103290000021019121072BD50399702906D0049AAA
:1032A0001021059B4A401A4305D00EE040216A4692
:1032B0001176012108E06146014306D030216A46BB
:1032C00011760399517602210191049A0821059BF8
:1032D0004A401A430CD16146014301D1610707D529
:1032E00030216A461176012101910299491E02910D
:1032F0000399582904D037A103910FA90F910DE02C
:1033000039A1F9E76146059B049AFCF707FF039B87
:103310008C469B5C0F9A521E0F92137061460143BC
:10332000F0D10F9807A9081A20300390600704D540
:10333000012000048443029801E0012002900399D7
:10334000884201DD401A00E00020411802900198F7
:1033500009180098401A0090E00306D42146149BF7
:10336000139A009800F05AF886190020049008E09B
:1033700006A9085C149A139990470498401C761C7F
:10338000049001998842F3DBE0030CD52146149B9D
:10339000139A009800F042F8861904E0149A30203D
:1033A00013999047761C0299481E02900029F5DC7B
:1033B00008E00F980F990078491C0F91149A1399FF
:1033C0009047761C0399481E03900029F1DCFBE628
:1033D00009280100303132333435363738396162EB
:1033E00063646566000000003031323334353637AF
:1033F000383941424344454600000000F8B50446D0
:1034000000251E461746880404D405E039462020CE
:10341000B0476D1C641EF9D52846F8BDFFB50446BB
:10342000002581B01E46C80301D5302700E02027C3
:10343000880404D505E038460399B0476D1C641E26
:10344000F9D5284605B0F0BD0A68531C0B60107012
:103450007047000013B5044B012269460348FEF78C
:10346000A1FB00981CBD0000FFFF0000742A002093
:10347000FDF7B4FCFFF7B0F8FEF70CFCFEF76CFCB0
:10348000FEF750FCFFF748FCFEE7000000000000DC
:1034900000000102030406070809030406080C10D3
:1034A00018203000000000010203040041542B43A7
:1034B00047434C4153533D224343220D0A00000031
:1034C000415445300D0A000041542B4349555243A5
:1034D0003D310D0A0000000041542B434950534533
:1034E0004E440D0A0000000041542B4349505354F0
:1034F000415455530D0A000041542B434950534841
:1035000055540D0A000000003E00000053454E4493
:10351000204F4B00434F4E4E454354204F4B00002D
:1035200053485554204F4B004F4B0000534D5320F0
:1035300052656164790000005835000800000020E1
:10354000B4000000B62F00080C360008B4000020BC
:103550004C2E0000C62F000880841E0000000000D2
:10356000C034000828350008E80300000A00000005
:10357000C83400082C350008C0D401000100000048
:103580000000000014350008204E0000010000007B
:10359000D834000808350008D007000001000000FA
:1035A000000000000C35000830750000010000002C
:1035B000F834000820350008D007000001000000A2
:1035C000E834000814350008D007000001000000AE
:1035D000AC34000828350008D007000001000000C6
:1035E00000000000000000000000000000000000DB
:1035F00000000000000000000000000000000000CB
:0C360000000000000000000000000000BE
:04000005080000C12E
:00000001FF
