:020000040800F2
:10000000E02E0020D5000008A1140008A31300086A
:1000100000000000000000000000000000000000E0
:100020000000000000000000000000006D15000846
:100030000000000000000000E9140008C91A0008D0
:10004000E7000008E7000008E7000008E7000008F4
:10005000E7000008E7000008E7000008E7000008E4
:10006000E7000008E7000008E7000008E7000008D4
:10007000E7000008E7000008E7000008E7000008C4
:10008000E7000008E7000008E700000800000000A3
:10009000E7000008E7000008E7000008E7000008A4
:1000A000E7000008E7000008E7000008E700000894
:1000B000E70000085D15000800000000E7000008E8
:1000C0000348854600F0B0F8004800478125000845
:1000D000E02E00200448804704480047FEE7FEE782
:1000E000FEE7FEE7FEE7FEE7691B0008C100000827
:1000F00030B50B46014600202022012409E00D46C0
:10010000D5409D4205D31D469540491B2546954047
:1001100040191546521E002DF1DC30BDF0B51FB45C
:100120000646002082B005464024019100901BE065
:10013000019922460F46304600F065F8049A059B67
:10014000801A994110D310461946224600F04BF808
:10015000361A8F410197224601200021009F00F0AE
:1001600042F838184D4100902046641E0028DFDC1C
:10017000019B00982946324607B0F0BD03460B4369
:100180009B0703D009E008C9121F08C0042AFAD24D
:1001900003E00B780370401C491C521EF9D27047D3
:1001A00030B505462A460B4610781C78521C5B1C5D
:1001B000002801D0A042F7D0002C03D0002802D0A4
:1001C0006D1CEFE7284630BD30B5054600200346DC
:1001D00000E05B1C934205D2EC5CC85C201A01D1A4
:1001E000002CF6D130BD10B5202A04DB0146203AA0
:1001F0009140002010BD914020239C1A0346E3400B
:100200001943904010BD10B5202A04DB0846203A5F
:10021000D040002110BD0B46D340D0402024A21A6C
:1002200091400843194610BD064C0125064E05E0D5
:10023000E36807CC2B430C3C98471034B442F7D307
:10024000FFF742FF482600086826000870B5144CE6
:10025000034620681A780D183A2A1FD1A12292016C
:1002600095421BD8A268012A18D00E4E0A463018B3
:100270001946FFF783FF0520C0022560854207D895
:1002800070190B2208A10D38FFF79EFF002805D139
:1002900020686060002020600120A06070BD000028
:1002A00098000020BC0100203A303030303030302F
:1002B000314646000121C906884206D3054A928F7D
:1002C000120492095118814201D20020704700881F
:1002D000704700004000F81F0121C906884206D37C
:1002E000054A928F120492095118814201D20020CE
:1002F00070470068704700004000F81F70B5002488
:10030000024620325179022903D00421C16301241D
:100310003CE001680B680E25AB430B6001680B687D
:100320005B085B000B601A4B0168994201D1012107
:1003300021E0174B1433994201D110211BE0144BDB
:100340002833994201D1891515E0114B3C3399426C
:1003500001D189140FE00E4B5033994202D1012193
:10036000090408E00A4B6433994202D101210905CE
:1003700001E001210906064B083B5960012151713A
:1003800000211171816B002900D08847204670BD83
:1003900008000240F8B500230124A7E027469F404B
:1003A0003A4070D04D68022D01D0122D14D1DD08D5
:1003B000AD002D1800952D6A5E07AC46F50E0F2690
:1003C000AE46AE406546B543AC460E697546AE4096
:1003D00065462E43009D2E624D68012D05D0022DED
:1003E00003D0112D01D0122D16D185680326AC46FD
:1003F0005D00AE46AE406546B543AC46CE68754638
:10040000AE4065462E43866046680D79BE43ED06D4
:10041000ED0F9D403543456006685F000325BD40F4
:10042000AE46AE430D79B446AE07B60FBE40654644
:100430002E430660C6687546AE438D68BD403543A1
:10044000C5604D68ED0050D52B4D6E6B26436E6335
:100450009E082A4DB6007519AC46AD689E07360F4A
:100460000F27B740BD4305273F07B84201D10027FA
:100470001AE0234FB84201D1012715E0214FB842BD
:1004800002D1022710E030E01F4FB84201D103270C
:100490000AE01E4FB84201D1042705E01C4FB842C4
:1004A00001D1052700E00627B7402F436546AF601E
:1004B000184D2E684F689643FF0300D516432E60F3
:1004C0006E684F689643BF0300D516436E60AE68F2
:1004D0004F689643FF0200D51643AE60EE684F6842
:1004E0009643BF0200D51643EE605B1C0A681546B2
:1004F000DD4000D052E7F8BD00100240000001408E
:100500000004005000080050000C00500010005083
:10051000001C005000040140002A01D08161704796
:10052000816270470148006870470000A400002005
:1005300002480168491C016070470000A4000020C7
:1005400010B506480168402211430160002000F008
:1005500007F800F019F8002010BD0000002002404C
:1005600010B5044607487D21C9000068FFF7C0FDAB
:1005700000F028FD00222146501E00F02BF800203C
:1005800010BD00000000002010B50C48416B012296
:1005900011434163816B02041143816300221146C0
:1005A000501F00F017F800221146901E00F012F8BC
:1005B00000221146501E00F00DF810BD0010024040
:1005C000C106C90E0120884001490860704700003B
:1005D00000E100E010B500F065FF10BDF8B5664918
:1005E000074601250020ED03624B634A4031102F7E
:1005F0006FD011DC012F77D0022F6CD0042F6BD07D
:10060000082F24D1C9680324240321407BD0BD02D4
:100610006C10A9427CD0A0E00326584C3604202F51
:100620000BD0402F35D0FF3F012F10D1C96831408A
:1006300069D07C04A1426BD096E00B69096901275F
:1006400031403F04B94203D1990559E02846F8BD2D
:1006500001256D04A94203D19907F8D54848F8BD92
:10066000B142FCD111688903F9D511680320000556
:10067000014001200005091A09D0091A05D081425C
:1006800001D14048F8BD2046F8BD3F48F8BD3F487D
:10069000F8BDC9680125AD06294006D0A942F7D1A9
:1006A00091688907F4D53A48F8BD11688901FBD5EE
:1006B000D068D1688002374D000F2D5C0802810F91
:1006C000D068491CC0030AD41068C00605D520466E
:1006D00006E045E008E023E030E0184600E02E4860
:1006E0006843FFF705FDF8BDCC68A407A40F0CD044
:1006F000022C0DD0012C10D0032CF4D109698905EE
:100700000029A3DBF8BD16E002E000F0D7F9F9E715
:1007100011684907F6D51846F4E700F0DFF9F1E76C
:10072000CC680C26344006D0082CF1D0042CF4D030
:100730000C2CE3D0E6E700F0B1F9E3E7CC68032640
:10074000B6023440F7D00127FF02BC42E0D07A1055
:100750009442E2D0B442D1D0D4E7A142DDD0D1E777
:10076000916B4902E7D4CDE7012212049142D4D023
:10077000C8E700000024F4000010024000093D001A
:100780008890000020A1070040420F0080841E00D6
:10079000006CDC02AA25000800127A00F8B50446B5
:1007A00000785E4D800672D55C4E0027403EB06BEF
:1007B000C00004D4B06BA9050843B06301275848B2
:1007C0000168C90511D40168821511430160FFF762
:1007D000A9FE009005E0FFF7A5FE0099401A6428E5
:1007E00037D84F480068C005F5D5326803210905A0
:1007F00060680A400140914208D08103890F0329B3
:1008000004D13168890301D50120F8BD2A6903218B
:1008100009040A4022D0084090421FD02078800668
:100820001CD528692A6988430121C9040A432A6121
:100830002A698A432A612861C0050FD5FFF772FE35
:10084000009008E0FFF76EFE0099411A354881429A
:1008500001D90320F8BD28698005F3D561688803B4
:10086000800F032805D132680005824301400A4306
:10087000326028690322616812041140084328612C
:10088000002F04D0B06B012109078843B0632078A2
:10089000C00705D0E868A168800880000843E860C8
:1008A0002078800705D5E8680C218843E168084373
:1008B000E8602078400706D5E8680321890288436C
:1008C00021690843E8602078000706D5E86803211D
:1008D0000903884361690843E8602088C00506D59C
:1008E000E868032109048843A1690843E860207887
:1008F000400606D5E868012189068843216A084335
:10090000E8602078000606D5E8680321890488435A
:10091000E1690843E8600020F8BD00004010024093
:100920000070004088130000F8B5054653480E4695
:100930000068C007C00FB0420AD250480168490899
:100940004900314301600068C007C00FB0426FD159
:1009500028784B4C800705D5E068F0218843A968CA
:100960000843E0602878C00752D06868022817D092
:10097000032818D02168012818D08905002957DAE2
:10098000E168890889000143E160FFF7CBFD6968F0
:100990000746022912D003291CD0012926D033E0B2
:1009A00021688903EAE721688901E7E74907E5E764
:1009B000FFF7B8FDC11B3348814223D8E068000728
:1009C000800F0228F4D123E0FFF7ACFDC11B2D48B6
:1009D000814217D8E0680007800F0328F4D117E0A0
:1009E000FFF7A0FDC11B274881420BD8E068000734
:1009F000800F0128F4D10BE0FFF794FDC11B2148C3
:100A0000814201D90320F8BDE0680007800FF3D1CF
:100A10001A480168C907C90FB1420BD901684908D2
:100A20004900314301600068C007C00FB04201D0E7
:100A30000120F8BD2878400706D5E06807210902A3
:100A40008843E9680843E0602878000707D5E06834
:100A50000721C90288432969C9000843E06000F002
:100A60003DF8E168084A0906090F515CC84007498A
:100A700008600020FFF774FD0020F8BD0020024050
:100A800000100240881300009A2500080000002092
:100A90000148006870470000000000200448054934
:100AA0000068C968044A4905490F515CC84070474D
:100AB0000000002000100240B3250008044805494A
:100AC0000068C968044A8904490F515CC8407047EE
:100AD0000000002000100240B325000810B5184A9D
:100AE000D1680C20084004280BD0082810D00C280E
:100AF00010D050680004410F0120C003491C8840F9
:100B000010BD1068C00601D50E4810BD0E4810BDBE
:100B10000E4810BD88020E4B000F185C0902D36806
:100B2000890F491CDB0301D5084A05E01268D2068B
:100B300001D5044A00E0044A5043FFF7D9FA10BD3A
:100B40000010024000093D000024F40000127A0069
:100B5000AA250008F8B504460078FE4DC0074AD023
:100B6000E8680007800F022807D0E8680007800FB8
:100B7000032809D1E868C00306D5286880033AD560
:100B80006068002873D036E0012062680004824269
:100B900003D129680143296011E0052301211B04C9
:100BA00089049A422A6802D10A432A60F1E7824303
:100BB0002A602A680240009228688843286060689A
:100BC00000280CD0FFF7AEFC064604E0FFF7AAFCB5
:100BD000801B64287ED828688003F7D50BE0FFF7D8
:100BE000A1FC064604E0FFF79DFC801B6428F1D8B9
:100BF00028688003F7D42078800741D5E8681F274C
:100C00000007800F3F02012807D0E8680007800F27
:100C1000032809D1E868C00306D42868400717D51F
:100C2000E068012823D113E0E068002817D0296884
:100C30000922914301432960FFF774FC064604E052
:100C4000FFF770FC801B0228C4D828684007F7D53E
:100C500068682169B84309020843686010E02868A1
:100C6000400840002860FFF75DFC064605E095E07F
:100C7000FFF758FC801B0228ACD828684007F7D43F
:100C80002078C00672D5E868B34E0007800F0AD0FE
:100C9000E06900282868B1495AD008432860FFF766
:100CA00041FC074644E02868800502D5E069002839
:100CB00074D0606A69683140884212D900F016FC2D
:100CC0000028AFD16868616AB0430843686068680B
:100CD000000200E0DCE0218C000A0906084368609D
:100CE0000FE06968B143014369606868218C0002C4
:100CF000000A090608436860606A00F0F7FB0028F4
:100D000090D1606A410B0120C003491C8840E9680A
:100D100009060A0F9249895CC84092490860002080
:100D2000FFF71EFC22E0FFF7FDFBC01B02288BD85B
:100D300028688005F7D56868616AB0430843686031
:100D40006868218C0002000A0906084368600DE00B
:100D500088432860FFF7E6FB064604E0FFF7E2FB66
:100D6000801B022888D828688005F7D420787E4E1A
:100D7000000723D560690028306910D0012108439D
:100D80003061FFF7CFFB074604E0FFF7CBFBC01B4A
:100D900002287DD830698007F7D50FE001E14008CF
:100DA00040003061FFF7BEFB074604E0FFF7BAFBE7
:100DB000C01B02286CD830698007F7D42078400720
:100DC00060D5A86B0027C00005D4A86B01210907D6
:100DD0000843A863012765480168C90511D4016863
:100DE000821511430160FFF79DFB009005E0FFF7BE
:100DF00099FB0099401A64284AD85C480068C005ED
:100E0000F5D55648A268824203D131690143316168
:100E100011E001218902002A07D005231B029A4212
:100E200003D132690A433261EFE7326982433261AA
:100E3000306988433061A06800280ED0FFF772FB4C
:100E4000009006E0FFF76EFB0099411A4848814286
:100E50001ED830698005F5D50DE0FFF763FB0090E3
:100E600006E0FFF75FFB0099411A414881420FD825
:100E700030698005F5D4002F04D0A96B012000074C
:100E80008143A9632078800630D53A48421400E0B7
:100E900080E0A169002916D0AB6801210B43AB604B
:100EA0006B6B0B436B63016A11430162FFF73AFB03
:100EB000064604E0FFF736FB801B02286AD8A868C4
:100EC0008007F7D512E0A96849084900A960016ABE
:100ED00091430162FFF726FB064604E0FFF722FB81
:100EE000801B022856D8A8688007F7D4A06A00287B
:100EF00055D0E9680907890F032952D00126360623
:100F00000228286805D0B0432860FFF70BFB044691
:100F100042E0B0432860FFF705FB074604E0FFF717
:100F200001FBC01B022835D828688001F7D4216B4B
:100F3000E06AEA680843616BFD231B049A4311438E
:100F40000843E860286830432860FFF7EBFA04465E
:100F500017E000000010024000E000000001000067
:100F60009A25000800000020401002400070004058
:100F70008813000000000140FFF7D4FA001B02288C
:100F800008D828688001F7D509E0FFF7CBFA001BE5
:100F9000022801D90320F8BD28688001F5D400207B
:100FA000F8BD0120F8BD00000422044904280869A6
:100FB00002D09043086170471043FBE700E000E077
:100FC00070470000094910B5401E884201D9012030
:100FD00010BD074C60610321081F00F063FA002078
:100FE000A06107202061002010BD0000FFFFFF006E
:100FF00000E000E010B5FFF7E3FF10BD7047704759
:10100000F8B502680446D06911680607360F07D1A3
:10101000830605D58B0603D5204600F07EFEF8BD7D
:1010200095682023002E65D0EE07F60FFF272137A5
:101030000F4037435ED0C70706D0CF0504D5012740
:101040001762E26E3A43E266820708D5EA0706D0E5
:10105000276802223A62E26E04273A43E2664207B8
:1010600008D5EA0706D0256804222A62E26E022526
:101070002A43E266020709D50A461A40324305D0E0
:10108000236808221A62E36E1343E366E26E002AC5
:10109000C5D0800604D5880602D5204600F03DFE66
:1010A000E06E000703D42068806840061CD5204607
:1010B00000F024FE20688168490611D5826840212D
:1010C0008A438260606E00280AD01D498163606E89
:1010D000FFF714F90028A2D0606E816B8847F8BD35
:1010E0002046FFF78CFFF8BD2046FFF788FF002061
:1010F000E066F8BD2646C7026036002F0ADA6D02A8
:1011000008D50120000510627372B3722046FFF704
:1011100075FFF8BD050605D50D0603D5204600F080
:1011200053FFF8BD4006FCD54806FAD520461468A2
:1011300040218C431460737200F032F9F8BD000056
:10114000E91C000870B5040005D025466035687AB2
:10115000002802D006E0012070BD00202872204641
:1011600000F026F8242068722068016849084900C8
:101170000160606A002802D0204600F01FFD204672
:1011800000F00AFE0128E7D0206841680922D20257
:1011900091434160206881682A22914381602068E0
:1011A0000168012211430160204600F06DFD70BD11
:1011B00070B5184E05681848022101220323042443
:1011C00086B0B54214D1856B4E04354385639802D1
:1011D0006D461FC569461148FFF7DCF8002211462D
:1011E0001D20FFF7F7F91D20FFF7EAF906B070BDE3
:1011F0000B4EB542FAD1456B0126B6033543456324
:10120000032040026D461FC5052069460007FFF711
:10121000C1F8EBE700480040001002400004005015
:1012200000380140F0B5034660339C7A202C44D14D
:1012300000290BD0002A09D0012584682D03AC4277
:1012400006D10669002E03D1CE0701D00120F0BDE2
:101250001E7A012E31D001261E72416501464031B1
:101260000A834A83FF27AC4204D10269002A12D1C3
:10127000134A0EE07F22002C08D001252D07AC4236
:101280000AD10469002C04D03F2202E00469002C3A
:1012900001D08A8300E08F830021C16622229A72E6
:1012A000197201688A6832438A6000680168FF2207
:1012B0002132114301600020F0BD0220F0BD00008A
:1012C000FF010000034910B5884201D100F092FBF4
:1012D00010BD0000FC290020FFB50646044660361C
:1012E000707A83B00D46202858D1002D0CD0059877
:1012F000002809D00120A1680003814207D120699C
:10130000002804D1E80702D0012007B0F0BD307AF0
:10131000012843D0012030720020E0662120707245
:10132000FFF700F901902746403705983882059865
:10133000788218E0788A401E788206980090002211
:1013400080212046019B00F072FE002818D1012068
:10135000A1680003814202D12069002812D02168CF
:10136000287888626D1C788A0028E3D1069800905E
:10137000002240212046019B00F059FE002808D0A1
:101380000320C2E728882168C005C00D8862AD1C13
:10139000E9E72020707200203072B6E70220B4E73F
:1013A0007047FEE7F0B5204887B0C26A04210A43BF
:1013B000C262C26A0A400592C26A80210A43C262BE
:1013C000C26A0A400592C26A02210A43C262C26A24
:1013D0000A400592C16A01252943C162C06A134CC3
:1013E0002840134F0590002221463846FFF794F815
:1013F000EE030520002231460007FFF78DF8009428
:10140000002401950294694638460394FEF7C2FF12
:101410000520029469460007009601950394FEF7A3
:10142000B9FF07B0F0BD000000100240021000003C
:101430000004005010B50B48094901604B21C90157
:10144000416000218160C160016181610C22016203
:1014500042614162FFF776FE002800D0FEE710BD32
:1014600000480040FC29002010B50C480A490160E2
:10147000E1214902416000218160C1600161816117
:10148000C1610C22016242614162FFF75BFE0028EC
:1014900000D0FEE710BD0000003801406C2A00209B
:1014A000704700008307FF22DB0E9A408907090E70
:1014B000994000280BDA0007000F08388308084815
:1014C0009B001818C36993430B43C361704783089B
:1014D00004489B001B181868904308431860704725
:1014E00000ED00E000E400E07047000070B517492F
:1014F0000023CA681206120F18D18A6B154CD5004A
:10150000134A02D51268224009E08E6B01252D078F
:101510002E438E6312688E6B2240AE438E63A242CE
:1015200004D103218903884200D101230A480168BC
:1015300049084900194301600068C007C00F98427C
:1015400001D0012070BD002070BD000000100240DD
:1015500000700040001800000020024010B5024852
:10156000FFF74EFD10BD0000FC2900207047000071
:101570007348FEF79FFE014672A000F08DFD704893
:10158000A038FEF7A9FE01467AA000F085FD6C4860
:101590009C38FEF7A1FE01467AA000F07DFD684868
:1015A0009838FEF799FE01467BA000F075FD64486F
:1015B000B038FEF791FE01467CA000F06DFD60485A
:1015C0008038FEF789FE01467DA000F065FD5C488D
:1015D0009038FEF781FE01467EA000F05DFD584880
:1015E0006038FEF779FE014680A000F055FD5448B2
:1015F0005C38FEF771FE014681A000F04DFD5048B9
:10160000C038FEF769FE014683A000F045FD4C4856
:10161000BC38FEF74FFE014685A000F03DFD48486E
:10162000BA38FEF747FE014687A000F035FD444872
:10163000B838FEF73FFE01468AA000F02DFD404875
:10164000B638FEF737FE01468CA000F025FD3C4879
:10165000D038FEF741FE01468FA000F01DFD38484E
:10166000CC38FEF739FE014691A000F015FD344854
:10167000C838FEF731FE014693A000F00DFD30485A
:10168000C438FEF729FE014696A000F005FD2C485F
:10169000E038FEF721FE014699A000F0FDFC284845
:1016A000DC38FEF719FE01469BA000F0F5FC24484B
:1016B000D838FEF711FE01469CA000F0EDFC204852
:1016C000D438FEF709FE01469EA000F0E5FC1C4858
:1016D000F038FEF701FE0146A1A000F0DDFC18483D
:1016E000EC38FEF7F9FD0146A3A000F0D5FC144844
:1016F000E838FEF7F1FD0146A5A000F0CDFCAA48B0
:10170000FEF7EAFD0146A9A000F0C6FCA648001DB0
:10171000FEF7E2FD0146A9A000F0BEFCA248083099
:10172000FEF7DAFD0146A9A000F0B6FC9E4810388D
:10173000FEF7D2FD0146A9A000F0AEFCFEE70000D6
:10174000A0FE01084170706C69636174696F6E205E
:1017500063757272656E74206172656128413A30FA
:1017600078333020423A30783331293A25780D0ADF
:1017700000000000424F4F545F544F54414C3A25F3
:10178000640D0A00424F4F545F434D445F544F5421
:10179000414C3A25640D0A005245424F4F545F5464
:1017A0004F54414C3A25640D0A000000424F4F54FB
:1017B0005F535543434545443A25640D0A0D0A00DD
:1017C00053454E445F5345515F544F54414C3A2565
:1017D000640D0A0053454E445F5345515F535543D2
:1017E000434545443A25640D0A00000052454349EB
:1017F0004556455F5345513A25640D0A00000000E7
:10180000524543494556455F5345515F41434B3A25
:1018100025640D0A0D0A0000494E49545F53494D95
:10182000434F4D5F4641494C3A25640D0A00000084
:1018300053494D434F4D5F434D445F444F5F4552C5
:10184000523A25640D0A000053494D434F4D5F4302
:101850004D445F444F5F544D454F55543A25640DF8
:101860000A00000053494D434F4D5F434D445F42D2
:101870005553593A25640D0A0000000053494D4361
:101880004F4D5F434D445F53454E445F4552523A7E
:1018900025640D0A0D0A0000434F4E4E4543545F28
:1018A0005443505F4641494C3A25640D0A000000FC
:1018B000434F4E4E4543545F5443505F4E4F4E4549
:1018C0003A25640D0A000000434F4E4E4543545FD5
:1018D0005443505F4641494C5552453A25640D0AE0
:1018E00000000000434F4E4E4543545F5443505F49
:1018F000455849535445443A25640D0A0D0A0000E1
:1019000053454E445F5443505F444154415F464108
:10191000494C3A25640D0A0053454E445F544350E8
:101920005F4E4F4E453A25640D0A000053454E4424
:101930005F5443505F4641494C5552453A25640D2A
:101940000A00000053454E445F5443505F545241D7
:101950004E535F4641494C3A25640D0A0D0A00007A
:101960004750525350524F4752414D5F4641494CA8
:101970003A25640D0A000000444F574E4C4F414435
:10198000444154415F4552523A25640D0A0000001B
:10199000444F574E4C4F41445F54494D454F555469
:1019A0003A25640D0A0D0A00A0FD010855524C5F4E
:1019B0004641494C3A25640D0A00000055524C5FDF
:1019C0004552524F523A25640D0A000055524C5F61
:1019D000454D5054593A25640D0A00004D454D4F70
:1019E00052595F4F564552464C4F573A25640D0A9F
:1019F0000D0A0000F8B52F48FF2241880132002669
:101A0000914200D146802B4942880B782A49294DC2
:101A10008B54521C94B20A194480203AD77F012378
:101A20002D1D3E2F05D0042C14D2917F0D290DD0F1
:101A300039E008210A015219546824783E2C00D15B
:101A40009373491E49B20029F4DA01E00A2F2AD122
:101A5000468028E0927F0D2A25D10A2F23D1082421
:101A60002001471914487968FEF79AFB002801D035
:101A70000120B87311A11048FEF792FB002801D095
:101A80000220B873641E64B2002CE9DA094C607855
:101A9000012807D1084800783A2803D16188064810
:101AA000FEF7D4FB6680012202490648FFF7BAFB25
:101AB000F8BD000004000020AC0000204552524F49
:101AC00052000000FC29002010B5FEF731FDFFF7A1
:101AD00091FA10BD10B523489CB001680322D202D0
:101AE0009143C21489180160012001040090022072
:101AF0000A90032080040C90880101910D900B91B5
:101B00006846FFF727F8002800D0FEE70F200E9068
:101B1000002403200F9010941194012112940EA818
:101B2000FEF702FF002800D0FEE705201390159471
:101B3000179413A8FEF732FE002800D0FEE7FEF748
:101B4000A7FF7D21C900FEF7D3FAFFF73BFA042077
:101B5000FFF72AFA00221146501EFEF73BFD1CB08B
:101B600010BD00000070004010480168821511434C
:101B70000160C1680E4A1140C16001680D4A114000
:101B8000016081684908490081600168012292046E
:101B900091430160C168FD2212049143C16000219C
:101BA00001610549C00388607047000000100240D1
:101BB0000C40FF88F6FFF6FE00ED00E010B5818CCA
:101BC000C90707D001684A6801235B049A43836A06
:101BD0001A434A60818C890707D501684A68012346
:101BE0001B049A43C36A1A434A60818C490707D58C
:101BF00001684A6801239B049A43036B1A434A60B5
:101C0000818C090707D501684A680123DB039A43E1
:101C1000436B1A434A60818CC90607D502689168F4
:101C200001231B039943836B19439160818C8906BF
:101C300007D501688A6801235B039A43C36B1A4383
:101C40008A60818C490612D503685A68012109050A
:101C5000046C8A4322435A60026C8A4207D10268AC
:101C6000516803235B059943436C19435160818C90
:101C7000090607D501684A680123DB04806C9A4392
:101C800002434A6010BD0000F8B500260446C6664F
:101C9000FEF748FC054620680068124F000709D58A
:101CA00001212B46002249052046009700F0BFF98C
:101CB00000280DD12068006840070BD501212B4674
:101CC000002289052046009700F0B1F9002801D0D4
:101CD0000320F8BD202060346072A07226720020BC
:101CE000F8BD0000FFFFFF0110B5806A0022014629
:101CF00040314A834A82FFF782F910BD01680A68C1
:101D0000FF2321339A430A6001688A68520852000F
:101D10008A60202160308172704770B5024640327F
:101D200001466031938B8D7A0C460168222D05D0D7
:101D30008869082210438861022070BD496A012623
:101D40008568360389B2B54202D10569002D0BD0F2
:101D50001940436D5D1C45651970518B491E09047E
:101D6000090C518307D015E0456D19402980416D5C
:101D7000891C4165F1E701680A68FF2321339A4312
:101D80000A6001688A68520852008A602021A172A4
:101D9000FFF798FA002070BDFEB504460168806820
:101DA0002269E36910436269102700261A43104331
:101DB0000A683546784B1A4002430A602068416839
:101DC000032212039143E26811434160734A216880
:101DD000A069914201D0226A10438A680B231B023A
:101DE0009A4302438A606E4A20686E4990420CD141
:101DF000C8688007800F06D0012843D002283FD052
:101E0000032826D124E0012723E0674A90420AD123
:101E1000C8680C21084031D0042833D008282FD0BE
:101E20000C2816D114E0614A904227D0604A9042B3
:101E300024D05A4A90420CD1C96803208002014044
:101E40001CD01015091A1DD0091A19D0814200D1D1
:101E500008270220FEF7C2FB0190504B514922682F
:101E60004039D81300929A4235D1002F0CD0022F5E
:101E70000DD0042F12D0082F1CD113E00027E8E763
:101E80000227E6E70427E4E7FEF708FE08E0086813
:101E9000C00601D5474805E0474803E0FEF71EFEAF
:101EA000002873D0626851005118814202D8110392
:101EB000814201D2012569E0010E0602500800238B
:101EC00030185941FEF72AF9032109023B4A411A09
:101ED000914259D9EEE7E26982422DD13B0000F0F0
:101EE000EBF80906080B24192424241F2400019868
:101EF00012E0FEF7E3FD0FE008686168C00602D556
:101F000048082F4A01E02F4A48088018FEF7F0F8E9
:101F100086B20BE0FEF7E2FD616840004A08F4E794
:101F20006168012248081204EFE70125310909011F
:101F30003007400F084327E03B0000F0BDF80907D9
:101F40000A0D061D060606290600B3E7FEF7A6FDE4
:101F500014E0FEF7B3FD11E008686168C00602D521
:101F60004A08144801E014484A081018FEF7C0F85F
:101F700081B20098C16009E0FEF7B0FD61684A08CF
:101F80008018FEF7B5F880B22168C8602846FEBD0B
:101F900061684A08E9E70000F369FFEF0048004084
:101FA000003801404010024000440040004C004016
:101FB0000050004000093D000024F400FFFC0F0029
:101FC00000127A000048E8016921095C212901D04A
:101FD0000220704702464032518A002912D0012364
:101FE00081681B03994202D10169002915D0C16C97
:101FF0004B1CC364006809788162508A401E50827D
:102000000020704701680A6880239A430A600068CC
:102010000168402211430160F2E7C16C036809883E
:10202000C905C90D9962C16C891CC164E5E7FFB59A
:1020300081B017460E4604460A9D1DE0681C1BD061
:10204000002D05D0FEF76EFA0499401AA84213D964
:1020500020680168FF22A1329143016020688168F5
:10206000490849008160202060346072A07200201D
:102070002072032005B0F0BD2068C1693046884356
:1020800004D00020B842D9D00020F3E70120F9E7BE
:1020900010B5FFF76DFA10BD0FB410B503A9044BCE
:1020A000044A029800F024F810BC08BC04B0184799
:1020B00065250008A800002030B47446641E257809
:1020C000641CAB4200D21D46635D5B00E31830BC6C
:1020D000184702E008C8121F08C1002AFAD1704749
:1020E0007047002001E001C1121F002AFBD1704798
:1020F000FFB591B00F460546002606E025280AD018
:10210000149A139990476D1C761C28780028F5D1F5
:10211000304615B0F0BD002400940121F34A02942A
:1021200000E004436D1C2B780846203B9840104289
:10213000F7D128782A280ED0022128780246303A92
:10214000092A15D8009A0A235A43303A80180C43BA
:102150006D1C0090F1E701CF0090002805DA012006
:1021600040030443009840420090022004436D1C49
:1021700028782E2815D10420044368786D1C2A285D
:102180000AD101CF6D1C02900BE002990A22514343
:10219000303940186D1C02902878014630390929E1
:1021A000F3D928786C2810D006DC4C281AD068287F
:1021B0000ED06A2817D104E0742813D07A2812D1DF
:1021C00010E00120400504430CE00121090501E075
:1021D000032109050C436978814203D101200005E0
:1021E00024186D1C6D1C287803906E281ED00CDC02
:1021F000632831D004DC00288AD0582811D1B2E0FD
:1022000064287BD069280CD178E073282DD004DCB9
:102210006F2870D0702804D1A7E075286CD078287A
:102220006BD0149A13999047761C62E06002400FBD
:10223000022807D003280AD0042838680AD006608C
:102240003F1D56E03868F11706604160F8E73868CE
:102250000680F5E70670F3E73878694608740020D1
:10226000487404A80390012003E03868039000201C
:10227000C0433F1D61070FD5002101E00199491CB2
:10228000029A0191914213DA8142F7DB019A039994
:10229000895C0029F2D10BE0002101E00199491C81
:1022A00001918142FADB019A0399895C0029F5D1F9
:1022B00001990098139A401A00902146149B00F04F
:1022C0003BF901998019461807E0039803990078B3
:1022D000491C0391149A139990470198401E01904C
:1022E000401CF2D12146149B139A009800F014F977
:1022F00086196D1C09E741E033E034E00A20002133
:10230000049005916002410F022905D001CFC21748
:102310009446032905D007E0FF1DFF08FF0003CF07
:1023200006E000B2C2179446042902D140B2C11798
:102330008C4600226146944506DA0A460021404256
:1023400091418C462D2102E0210504D52B216A46BE
:102350001176012103E0E10701D02021F7E7019187
:1023600054E00A200BE0102009E010200490002126
:102370000420044308200591029003E00820002176
:10238000059104906002410F022905D001CF00227F
:102390009446032906D006E0FF1DFF08FF0003CF87
:1023A0008C4603E080B2042900D1C0B20021019123
:1023B00021072BD50399702906D0049A1021059B7B
:1023C0004A401A4305D00EE040216A4611760121A9
:1023D00008E06146014306D030216A461176039930
:1023E000517602210191049A0821059B4A401A4323
:1023F0000CD16146014301D1610707D530216A46FE
:102400001176012101910299491E029103995829DF
:1024100004D037A103910FA90F910DE039A1F9E77D
:102420006146059B049AFDF779FE039B8C469B5CF5
:102430000F9A521E0F92137061460143F0D10F980C
:1024400007A9081A20300390600704D50120000472
:102450008443029801E0012002900399884201DD43
:10246000401A00E0002041180290019809180098D5
:10247000401A0090E00306D42146149B139A00985A
:1024800000F05AF886190020049008E006A9085CBC
:10249000149A139990470498401C761C0490019953
:1024A0008842F3DBE0030CD52146149B139A009875
:1024B00000F042F8861904E0149A302013999047EE
:1024C000761C0299481E02900029F5DC08E00F985E
:1024D0000F990078491C0F91149A13999047761C14
:1024E0000399481E03900029F1DCFBE6092801004E
:1024F000303132333435363738396162636465667A
:10250000000000003031323334353637383941423B
:102510004344454600000000F8B5044600251E4629
:102520001746880404D405E039462020B0476D1CC6
:10253000641EF9D52846F8BDFFB50446002581B0D4
:102540001E46C80301D5302700E02027880404D5A3
:1025500005E038460399B0476D1C641EF9D528463E
:1025600005B0F0BD13B5044B012269460348FEF7E0
:10257000B3FE00981CBD0000FFFF00006C2A002085
:10258000FDF7DEFFFFF7A6FAFEF70CFFFEF76CFF84
:10259000FEF750FFFFF77CFDFEE7000000000000A3
:1025A00000000102030406070809030406080C10D2
:1025B00018203000000000010203040041542B43A6
:1025C00047434C4153533D224343220D0A00000030
:1025D000415445300D0A000041542B4349555243A4
:1025E0003D310D0A0000000041542B434950534532
:1025F0004E440D0A0000000041542B4349505354EF
:10260000415455530D0A000041542B43495053483F
:1026100055540D0A000000003E00000053454E4492
:10262000204F4B00434F4E4E454354204F4B00002C
:1026300053485554204F4B004F4B0000534D5320EF
:1026400052656164790000006826000800000020DF
:10265000AC000000D220000814270008AC000020C5
:10266000342E0000E220000880841E0000000000DC
:10267000D025000838260008E80300000A00000002
:10268000D82500083C260008C0D401000100000045
:102690000000000024260008204E00000100000079
:1026A000E825000818260008D007000001000000F7
:1026B000000000001C26000830750000010000002A
:1026C0000826000830260008D0070000010000009E
:1026D000F825000824260008D007000001000000AB
:1026E000BC25000838260008D007000001000000C3
:1026F00000000000000000000000000000000000DA
:1027000000000000000000000000000000000000C9
:0427100000000000C5
:04000005080000C12E
:00000001FF
