:020000040800F2
:10000000081E0020D5000008278D0008D96D0008C3
:1000100000000000000000000000000000000000E0
:100020000000000000000000000000005DBA0008B1
:100030000000000000000000E5A50008F5E700084A
:10004000E7000008E7000008E1B20008E700000848
:10005000E7000008D7200008E1200008EB20000896
:10006000E7000008E7000008E7000008E7000008D4
:10007000E7000008E700000851F7000809EA000857
:10008000E7000008E7000008E700000800000000A3
:10009000E7000008E7000008E7000008E7000008A4
:1000A000E7000008E7000008E7000008E700000894
:1000B000F9F60008E7000008E7000008E70000087C
:1000C0000348854600F0B2FE004800477D0F010856
:1000D000081E00200448804704480047FEE7FEE76A
:1000E000FEE7FEE7FEE7FEE7A1E90008C100000821
:1000F00030B50B46014600202022012409E00D46C0
:10010000D5409D4205D31D469540491B2546954047
:1001100040191546521E002DF1DC30BD70B500248B
:100120002546002801DA01244042002901DA012590
:100130004942FFF7DDFFAC4200D04042002C00D026
:10014000494270BDF0B51FB40646002082B0054696
:100150004024019100901BE0019922460F46304651
:1001600000F0D0FC049A059B801A994110D31046E8
:100170001946224600F0B6FC361A8F4101972246F6
:1001800001200021009F00F0ADFC38184D41009087
:100190002046641E0028DFDC019B00982946324679
:1001A00007B0F0BDF0B51FB486B0002000900190FC
:1001B00002900698069980B204900798090C0204F0
:1001C0000014114307900027089D099806913E46A8
:1001D0003C4603900398A9B20204000C03900498D3
:1001E0002D0C154348430021224600F07BFCC71923
:1001F000714110340E46402CECDB3846029A00F078
:1002000071FC009A019B801800905941029801915D
:10021000103002904028CCDB00980BB0F0BD0346B4
:100220000B439B0703D009E008C9121F08C0042A2A
:10023000FAD203E00B780370401C491C521EF9D21D
:100240007047D2B201E00270401C491EFBD27047D9
:100250000022F6E710B513460A4604461946FFF792
:10026000F0FF204610BD30B505462A460B461078F3
:100270001C78521C5B1C002801D0A042F7D0002C37
:1002800003D0002802D06D1CEFE7284630BD421C89
:100290000178401C0029FBD1801A704710B500225C
:1002A00000E0521C835C8C5CA34201D1002BF8D18E
:1002B000D8B2E1B2401A10BD0321001D401E0378E0
:1002C00012021A43491EF9D510467047034603220D
:1002D0000870000A491C521EFAD5184670470000E3
:1002E0000FB400B58DB009900B9010A900200091BB
:1002F000C0430A9000200C900648069006480790DC
:100300006A4609A80F9900F037FC0DB008BC04B08C
:1003100018470000990B0008B90B0008FFB500272B
:10032000FF4383B000205C6801909E681D46A96968
:100330007F1C049888470090296A88470028F6D1D6
:100340000098401C0CD0032040028443002E19DD8D
:10035000600614D500982B2809D02D280FD103E072
:100360000020C04307B0F0BD012080020443A9690A
:100370007F1C04988847761E0090002E02DD0098AE
:10038000302803D00598002825D035E00120400210
:100390000443A969761E7F1C049888470090002EAC
:1003A00003DD782805D0582803D00598002810D000
:1003B00022E00598002801D010281DD1012040021C
:1003C0008443A969761E7F1C0498884700901020FA
:1003D00002E0082000E00A2005900DE0012149021A
:1003E0000C43059A0199761E514308180190A9699A
:1003F0007F1C049888470090002E05DD0599009821
:1004000000F0A4FB0028E9DAE96904988847A00510
:1004100002D40120C043A5E7E00722D1600611D530
:100420006005019800D5404229680A1D2A600968C4
:10043000220501D5087014E0220701D5088010E0DC
:1004400008600EE02868011D29600068210502D5BA
:100450000199017005E02107019901D5018000E0B3
:10046000016038467EE7F8B502464A40D40F4200A4
:100470004B0052085B089A4202D2024608461146D7
:100480004A0023D0C30D4A00DDB2120EAD1A202D52
:1004900035DA49020126490AF6058A19002C00D0EE
:1004A000524220214F1B1146B9402A411018C20D5B
:1004B0009A4221D0002C17D0012D08DCDA05801AD1
:1004C000D20F8019D207DBB200F090FBF8BDDA053D
:1004D000801A012340001B06C01880185A42801859
:1004E000CA0F1043490007E04908C2071143DA0563
:1004F000801A80194008801800F070FBF8BD610078
:100500000122511A001BF7E70122D2075140AAE746
:100510000122D2075040A6E7024670B54A40D30FE9
:10052000DB0740002DD04A002AD0010E140E000235
:1005300012020919400A520A8418E501044654437C
:10054000000A120A2E045043A4194219200CC54374
:10055000AA18120C0125AD03521C521912047F393E
:10056000240400D0521C104301D44000491EC2B2E2
:100570000C06C0092018401C4008802A02D003E065
:10058000002070BD40084000002900DA0020184318
:1005900070BD70B502464A40D50F40004A00ED07D5
:1005A00040085208002814D0002A12D0C40DD30DE0
:1005B00041020120C0055202490A520AE41A0918F0
:1005C00012187D34914201D3641C00E04900002CD4
:1005D00001DA002070BD0023914201D3891A034340
:1005E000400849000028F7D100290AD0914202D1E1
:1005F0000121C90705E0914201D2012101E0012159
:10060000C943E005C018401900F0E8FA70BD0000C9
:10061000F0B507460846584087B0C00F0490480020
:100620000E46590040084908BC1A884105D2384690
:1006300031461E4617460B460246580040081043F6
:100640004CD0300D039040055900400D490D0590E8
:10065000401A0290402872DA18030121000B0905A4
:100660000843019004980092002805D00199524255
:100670000020884100920190029840210A1A0199B5
:10068000009800F02FFA05460C466B4607CB00F0A9
:100690004AFAC0197141039A0E0D0023D71756402C
:1006A0001A467A40164344D0049A002A2DD0029A62
:1006B000012A039A15DC1205C01A9141012636055C
:1006C000001C7141D20F059ED20700930192029641
:1006D0002A46234600F0D0FA07B0F0BD384631462E
:1006E000FAE71605224A0F46B218C01AB74101218F
:1006F0000905001C4F4100187F4111461818794127
:10070000E20F10436D19644113E0E2076D081543D1
:100710006408C2071443039A01261205C01A9141C6
:100720003605001C7141CE07400830434908C01807
:1007300051412A46234600F092FACDE7FFE704989C
:1007400001224000C117121A00238B410498314640
:10075000C417381AA141EEE730B40124E40763401E
:1007600030BC55E730B40124E407614030BC4FE7AA
:100770000000E0FFF0B51FB488B00B990998002481
:1007800048400999C00F490049080991C0070B99D1
:100790000090490049080B9109990898A64608431A
:1007A0001CD00B990A98084318D0099801244000DE
:1007B000420D4800410D099824050003000B204319
:1007C00009900B980003000B20430B9050181C4914
:1007D0004018002201901446104605E00020014612
:1007E0000DB0F0BD032801DA034600E003239C4668
:1007F000C11A0AAE0AE05F0008ADED5B4F00F75B7F
:100800007D430027AA187C41491C5B1E6145F2DD2F
:10081000410004AB5A522104120C0A43240C401C20
:100820000828DFDB01980290009970460191009042
:10083000059B049A0799069800F01EFAD0E700007D
:100840000DFCFFFFF0B50C465C4085B0E40FE407FB
:1008500003944C0000266408590094464908024657
:100860000296224321D062460A431ED06200570DF1
:100870004A000E032303550D012402462C4924058A
:10088000781B1B0B360B4018234326436146009010
:100890001C46501AB44103D30098401C009002E05B
:1008A000921800985B41002803DA0020014605B049
:1008B000F0BD0020012109050746864611E0644687
:1008C0001D46141BB54106D36546521BB341744601
:1008D00007430C43A646CD07400849082843921811
:1008E0005B4105460D43EAD11046184313D06046DC
:1008F000194650407140084306D06046101AB34173
:1009000006D20122002306E000220123DB0702E0D9
:100910000122D2435310009874460105381C6141EE
:10092000029C039D0019694100F099F9BFE700009E
:10093000FD030000C217C10F504010B54018CA0790
:100940009623002100F052F910BD10B50022962325
:10095000114600F04BF910BD0EB5C217C10F504043
:10096000CA0740180021054B0293019200910A46E4
:100970000B4600F081F903B000BD00003304000015
:100980000EB505490291002100910A460B460191DE
:1009900000F072F903B000BD3304000041004002D2
:1009A0000122400AD205090E80187F2901DA0020B1
:1009B0007047962903DC9622511AC8407047963931
:1009C0008840704770B5CD0F4A0009030123090B19
:1009D0001B0519430B4BED070024520D9A4201DA17
:1009E000002070BD074B34339A4203DC9A1A00F0A2
:1009F00089F802E00449511888402C43F1D0404264
:100A000070BD0000FF030000CDFBFFFF4A0009039B
:100A10000123090B1B051943094B10B5520D9A42CE
:100A200001DA002010BD064B34339A4203DC9A1AD7
:100A300000F068F810BD03495118884010BD00004F
:100A4000FF030000CDFBFFFFC20FD20740004008AC
:100A50000BD0C10D0723DB01C91840020905400A6C
:100A60001143C208400711437047002001467047F8
:100A700010B5002904DB0124E40740428C412146E3
:100A8000002B04DB1C460123DB075242A3419942A1
:100A900000D1904210BD0000CB0FDB07490010B51C
:100AA000490802460A4307D00A0D07240903E40156
:100AB000090B121B002A01DC002010BDC900440FE5
:100AC0000C43C100E018D205801800F087F810BD73
:100AD0000122D207002800DB101A002900DB511A7E
:100AE0008842704710B5202A04DB0146203A914025
:100AF000002010BD914020239C1A0346E340194377
:100B0000904010BD10B5202A04DB0846203AD040A2
:100B1000002110BD0B46D340D0402024A21A9140A2
:100B20000843194610BD10B5202A06DBCB1708462E
:100B3000203A1041C1170B4306E00B461341D04049
:100B40002024A21A91400843194610BD3A2800D229
:100B50003038202302469A43412A01D310463738C1
:100B6000884201D30020C043704700000268137818
:100B7000511801601846704710B5D16004495161A1
:100B80000449116200211161114600F069F910BD9C
:100B90006D0B0008510E00084268002A08D0016859
:100BA0000B78491C002B03D0521E06C01846704714
:100BB0000121C160881E70474268002A0BD0C368BB
:100BC0000168002B07D183688B4204D0491E521C58
:100BD00006C0002070470020C0437047002904DA97
:100BE000401C490001D140084000704770B4002407
:100BF000050C05D11024000402D1002921D01124B4
:100C0000050E01D100020834050F01D10001241D99
:100C1000850F01D18000A41C002801DB4000641C6A
:100C2000002908D020252E1B0D46F540A14000D0FC
:100C300001212943084301061B1B000ADB1D02D5C5
:100C4000002070BC7047DB05181880180029F8DAFE
:100C5000401C4900F5D170BC40084000704710B5F9
:100C6000002B08DA0024401C614192185B411A43B2
:100C700001D14008400010BDF0B51FB482B0054658
:100C80000C0003D008460EF09FFE02E00EF09CFE22
:100C900020300246009021462846FFF723FF049BA0
:100CA000059A04460F4618431143084314D01846CA
:100CB00010431BD0009840210A1A18460599FFF7E7
:100CC00021FF05460E46009A05990498FFF70AFF92
:100CD000084305D0012004E02046394607B0F0BDA6
:100CE0000020C11705430E432C43374300990E984B
:100CF0006305401A7905E40A00220C43FD0A0A3014
:100D000002D500200146E9E70105101969410C9C54
:100D10000D9D00196941FFF7A2FFDFE770B54B0099
:100D20005B0803430BD04B005C0D00263346654245
:100D3000B341D417AD1AA34102DB0020014670BDB8
:100D400012053018514170BDF8B5054648004008FD
:100D50000C46284304D06000184A400D904201DD43
:100D60002846F8BD15493539884210DC88420BDB2E
:100D7000290D200308432903014305D0E00F104942
:100D8000C00741180020F8BD00200146F8BD161A22
:100D90004020821B28462146FFF7A4FE074600910B
:100DA000284621463246FFF7ADFE3A46009BFFF744
:100DB00056FF3246FFF796FEF8BD000033040000F0
:100DC0000000F03F4A0009030123090B1B051943EA
:100DD0000A4B10B5520D9A4202DA0020014610BDAE
:100DE000064B34339A4203DC9A1AFFF78BFE10BD90
:100DF000034BD218FFF776FE10BD0000FF03000082
:100E0000CDFBFFFF10B5002904DB0124E4074042BD
:100E10008C412146002B04DB1C460123DB07524298
:100E2000A3418B4200D1824210BD0000064C012537
:100E3000064E05E0E36807CC2B430C3C9847103482
:100E4000B442F7D3FFF740F92C3101084C310108C7
:100E500010B50F21C0B2490200F0F0F910BD00003A
:100E6000F3B58DB000200A9001200B9000260846B3
:100E70000C300C4609906269012109989047051EC3
:100E80002ED0252D2DD0216A8847002818D06269E0
:100E9000012109989047216A88470028F7D1411E0F
:100EA00062690998904700E0761CA1690D9888470F
:100EB000216A88470028F7D1E1690D988847DAE769
:100EC000A1690D9888470746A84201D1761CD2E750
:100ED000E1690D9888477F1C02D10A98002877D0D5
:100EE00049E1002762693D463946099890472A281A
:100EF0000CD16269012109989047012506E00A2179
:100F00004F433F18303FEBD4102005436269012165
:100F100009989047014630390A2903D29B498F42EC
:100F2000DEDCECE7E90600D4994F6C280AD04C28A7
:100F300010D0682824D06A282ED074280CD07A28A3
:100F40000AD00DE062690121099890476C2823D0EE
:100F500004211CE020200543626901210998904783
:100F6000A760656065284FD026DC582839D01ADC88
:100F7000452849D012DC252834D04128B0D143E09F
:100F80006269012109989047682802D008210D4321
:100F9000E6E70120C002DEE70220DCE7462833D086
:100FA00047282CD130E05B2870D061282CD06328F2
:100FB0006CD0642823D161E06F284FD009DC66280B
:100FC00022D0672820D0692826D06E2817D12EE09D
:100FD000CDE070284DD073286FD075284ED078287A
:100FE0000DD154E0A1690D9888470546252800D108
:100FF0006CE7E1690D9888476D1C00D16DE7BAE098
:101000000A224CE00A2252E0012023466A46C043ED
:101010000D99C046C046A3E02846402108436060C1
:10102000A807234601D5002239E000223FE0E80767
:1010300000D020E72068011D21600068290501D546
:10104000067018E7290701D5068014E7A90703D51C
:10105000F117066041600EE706600CE72846402164
:1010600008436060A807234601D5082217E008223C
:101070001DE0484928460840606016E028464021A7
:1010800008436060A8072346BCD5B9E715E02846A9
:10109000402108436060A80707D52346102201209D
:1010A000C0430D99C046C0465AE023461022012095
:1010B000C0430D99FFF732F952E000210C910B4625
:1010C0000091632802D05B2807D043E0E80601D4F2
:1010D0000120A060012000903CE062690121099894
:1010E00090475E2805D101200C900146626909985D
:1010F00090472169002906D10B4601AA8F00491C9F
:10110000D3510829FADB002835D0216900290ED1F6
:10111000C117C90E09184A11930001AA9A18490962
:101120004901411A01201368884003431360626932
:101130000121099890475D28E5D10C98002808D036
:10114000002001AB81005A58401CD2435A50082855
:10115000F8DB01AB01202246C0430D99C046C046D2
:1011600000280ADA401C06D10B98002803D0002082
:10117000C0430FB0F0BD0A98FBE7E90702D10A9916
:10118000491C0A91361800200B9074E6CCCCCC0C8C
:10119000FFFFFF7FF1F7FFFFFEB500231A461B1A82
:1011A0008A4103DB0020014603B0F0BD4A000D0375
:1011B00001212D0B0905520D0D43D10702D1001855
:1011C0006D41521E5110FF31FF310131002704469D
:1011D0003E4638460097019102460121002009054C
:1011E000FFF790FCC3197141F818324684468E46C9
:1011F0004A4161462846611A904104D36046241A48
:10120000954176461F46241900986D41401C009078
:101210003428E1DDF91930467041091BA84103D299
:101220000022D243134601E0002213460198010533
:10123000381C7141FFF713FDB6E700007F2801D984
:10124000002207E0054B42089A5CC00700D1120952
:101250001207120F0120904008407047402F0108EC
:1012600070B58C180578401C6B075B0F01D10378B3
:10127000401C2A1106D10278401C03E006780E704B
:10128000401C491C5B1EF9D12B0705D40023521EBC
:101290000DD40B70491CFAE70378401CCB1A921C42
:1012A00003E01D780D70491C5B1C521EF9D5A1424C
:1012B000D8D3002070BD70B5044600252068806832
:1012C000042108408008002829D020688068084050
:1012D00000280BD02068806802210840002805D132
:1012E00020688068102108432168886002F0A0F817
:1012F00005460EE002F09CF8401B0A2809D9A06DB3
:1013000010210843A065E06D01210843E06501203C
:1013100070BD20688068042108400028EAD10020C0
:10132000F6E7000038B50446074908480068FEF7AC
:10133000DFFE6043009002E00098401E009000989D
:101340000028F9D138BD000040420F000000002005
:1013500070B504460025206880688007800F01284A
:1013600007D120680068C007C00F002801D0012005
:1013700000E00020002837D0206880680521084060
:10138000012800D100E0002000280AD000BF20681A
:101390008068022108432168886003202168086072
:1013A00009E0A06D10210843A065E06D012108430C
:1013B000E065012070BD02F03BF805460EE002F04A
:1013C00037F8401B0A2809D9A06D10210843A065F1
:1013D000E06D01210843E0650120EBE720688068AB
:1013E000C007C00F0028EAD10020E3E770B504462B
:1013F0000025206880688007800F012807D12068B9
:101400000068C007C00F002801D0012000E00020C4
:10141000002839D1206880681C490840002801D183
:10142000012000E00020002809D1A06D1021084310
:10143000A065E06D01210843E065012070BD2068D2
:10144000806801210843216888600120FFF76AFF56
:1014500001F0EEFF05460EE001F0EAFF401B0A280E
:1014600009D9A06D10210843A065E06D0121084352
:10147000E0650120E2E720680068C007C00F012195
:10148000484048400028E7D00020D7E717000080F8
:1014900030B589B005460C461022002105A80FF092
:1014A00057FE2246243205A905A80EF0F3FF684630
:1014B000007D8021084000281CD000BF00200AE0E9
:1014C00005A9095C490005AB421C9A5CD211114385
:1014D00005AA1154401C0F28F2DB08A9C978490657
:1014E0000A0E08A9CA7000BFC8788721484008A919
:1014F000C87016E000BF00200AE005A9095C490099
:1015000005AB421C9A5CD211114305AA1154401C30
:101510000F28F2DB08A9C97849060A0E08A9CA7083
:1015200000BF206A10280FD100BF002009E021462B
:101530001031095C05AA125C514022461032115448
:10154000401C1028F3DB59E06846007D80210840EC
:1015500000281CD000BF00200AE005A9095C490052
:1015600005AB421C9A5CD211114305AA1154401CD0
:101570000F28F2DB08A9C97849060A0E08A9CA7023
:1015800000BFC8788721484008A9C87016E000BF8E
:1015900000200AE005A9095C490005AB421C9A5CE1
:1015A000D211114305AA1154401C0F28F2DB08A9DF
:1015B000C97849060A0E08A9CA7000BF80212046D2
:1015C0001030226A815404E0002120461030226A43
:1015D0008154206A401C20621028F5D300BF0020EF
:1015E00009E021461031095C05AA125C51402246EF
:1015F00010321154401C1028F3DB00BF00BF002044
:1016000006E0215C22461032125C51402154401CFD
:101610001028F6DB00BF1022214601A80FF07EFD46
:1016200022462432294601A80EF034FF1022002160
:1016300005A80FF08DFD09B030BD10B5044610228D
:10164000002120460FF084FD00202062F0220021BE
:10165000204624300FF07CFD10BD70B505460C46C9
:101660002A462432102120460EF042FF70BDF0B50C
:1016700085B004460F461546206A002830D0102158
:10168000206A081AA84202D2206A081A00E02846F6
:101690000646B2B223461033216AC81839460FF005
:1016A0003DFD206A80192062206A102801D3B542CE
:1016B00001D105B0F0BD00BF002006E0215C22464C
:1016C0001032125C51402154401C1028F6DB00BF40
:1016D00022462432214620460EF0DCFEBF19AD1B07
:1016E0001CE000BF002004E0215C3A5C5140215422
:1016F000401C1028F8DB00BF1022214668460FF07E
:101700000DFD22462432694668460EF0C3FE1022C3
:10171000694620460FF002FD1037103D102DE0D82D
:10172000AAB23946204610300FF0F8FC256200BFFF
:10173000BFE70000FEB504460D46002600200090DD
:10174000019401200003029001A91B4801F0E8F870
:10175000002801D000F000FD0021174801F074F8C6
:10176000002717E0144801F0B3FB6421124801F090
:101770003BFB00BF104801F0E1F90121490208409C
:101780000028F7D00C4801F0DCF9009000983618DA
:10179000781CC7B2AF42E5DB074801F0D5FB0194E6
:1017A0000648029001A9044801F0BAF829463046DB
:1017B000FEF79EFCFEBD0000200B00200110000083
:1017C00070B504460125A01E03000EF02CF9070594
:1017D0001328364B677C8A00474800780F2808DAC0
:1017E000454803780078401C434E30704348C45449
:1017F000002578E0404800780E280FDA3E4803784C
:101800000078401C3C4E30703C48C454304603784D
:101810000078401C30703948C154002563E03648D8
:1018200000780F2808DA344803780078401C324EDC
:1018300030703248C454002555E02F4800780E28F7
:101840000FDA2D4803780078401C2B4E30702B485F
:10185000C454304603780078401C30702748C15487
:10186000002540E0244800780D2816DA2248037845
:101870000078401C204E30702048C4543046037815
:101880000078401C30701D48C15430460378007801
:10189000401C30701948C254002524E016480078D6
:1018A0000E280FDA144803780078401C124E30706E
:1018B0001248C454304603780078401C30700F48FA
:1018C000C15400250FE00C4800780F2808DA0A48B8
:1018D00003780078401C084E30700848C454002536
:1018E00001E0022070BD00BF002D02D10120044B99
:1018F00018702846F6E70000A7010020911100208B
:10190000A601002070B503460C460020154D29564F
:10191000012B25D1002903D10025134E35601FE08E
:10192000114D2D68402D01D3012000E000200E4D07
:101930002D68602D14D30C4D2D78203DAD06AD0ED5
:10194000002D0DD1002901DD4D1E69B2002907D1FE
:10195000012C05D1054D2D8807263543034E3580D2
:10196000117070BD7E020020A0010020A011002097
:1019700000B587B05A48806B0121090708435849D0
:10198000886300BF0846C06A012108435449C86201
:101990000846C06AC007C00F019000BF00BF00BF6B
:1019A0000846C06A022108434D49C8620846C06A19
:1019B00002210840019000BF00BF00BF4848C06A34
:1019C000042108434649C8620846C06A0421084009
:1019D000019000BF00BF00BF4148C06A802108439A
:1019E0003F49C8620846C06A80210840019000BF94
:1019F00000BF3C4801F038F800203A4988653A4871
:101A000001F08CFD0021384840304170374804F027
:101A100009FE0021354860304172354804F002FE6D
:101A20000021334860304172324804F0FBFD002150
:101A3000304860304172304803F044FF00212E48A6
:101A4000403041742D4804F059FC00212B482030CF
:101A50004175052002F0BCF9062002F0B9F9072013
:101A600002F0B6F926480290032003900220049069
:101A70000020059002A90520000701F0D3FB02A970
:101A8000204801F0CFFB02A91F4801F0CBFB1F4803
:101A9000029003200390022004900020059002A9E8
:101AA0001B4801F0BFFB04F0D1FB0D48C06A4008A1
:101AB00040000B49C8620846C06A022188430849B1
:101AC000C8620846C06A042188430549C8620846BE
:101AD000C06A802188430249C86207B000BD000087
:101AE00000100240200B0020800B00203C0400204E
:101AF000AC0400201C050020EC090020E80A0020AE
:101B0000FFFF000000080050001C0050FFFD000017
:101B10000004005008B541480078002813D102F0B5
:101B200013F90CF0A3FE09F0E7FC0DF06DF80AF0D4
:101B3000EFF906F0C9FC09F08FFE09F05BFE012009
:101B40003649087010E00CF0E3FE0DF05DF80AF085
:101B5000DFF906F0B9FC09F07FFE09F04BFE3048D2
:101B6000016830480068884700BF2F48C06A0421D8
:101B700008432D49C8620846C06A04210840009005
:101B800000BF00BF00BF2848C06A80210843264923
:101B9000C8620846C06A80210840009000BF00BFAC
:101BA00000BF2148C06A022108431F49C862084695
:101BB000C06A02210840009000BF00BF00BF1A4861
:101BC000C06A012108431849C8620846C06AC007B4
:101BD000C00F009000BF00BF06F01EFD06F03EFDE6
:101BE00006F0ECFC06F0BAFC05F04EFC00220321E6
:101BF000022002F005F9022002F0F6F8002202218C
:101C00000E2002F0FDF80E2002F0EEF809F074FB51
:101C10000EF0B2FD05A00DF0C7FE08BD3A00002091
:101C2000282801086801002000100240426F6172FC
:101C300064496E69744D63750D0A000000B587B084
:101C400000BF3848C06A012108433649C8620846C7
:101C5000C06AC007C00F019000BF00BF00BF0846A8
:101C6000C06A022108432F49C8620846C06A02219F
:101C70000840019000BF00BF00BF2A48C06A04218D
:101C800008432849C8620846C06A042108400190F8
:101C900000BF00BF00BF2348C06A8021084321491C
:101CA000C8620846C06A80210840019000BF00BF9A
:101CB0001D4801F07BF800201B4988651B4802F095
:101CC00015F800211948403041701948029003204E
:101CD0000390012004900220059002A9052000072E
:101CE00001F0A0FA13480290032003900020049012
:101CF0000220059002A9104801F094FA20200290D9
:101D000011200390002004900220059002A90A48A7
:101D100001F088FA00222021074801F083FB07B078
:101D200000BD000000100240200B0020800B0020AE
:101D300003F9000078EC00000004005010B5002208
:101D400001214902024801F06DFB012010BD000095
:101D5000000400503EB504460D460A2C01DD00206B
:101D60003EBD7D20C00001210B4622460095019119
:101D70000290D721054801F0DBFD002804D004A023
:101D80000DF012FE0020EBE72878E9E7800B002039
:101D900048414C5F4932435F4D656D5F52656164F8
:101DA000206572726F720D0A000000003EB5044695
:101DB0000D460A2C01DD00203EBD7D20C000012122
:101DC0000B462246009501910290D621054801F06C
:101DD00091FE002804D004A00DF0E6FD0020EBE702
:101DE0000120E9E7800B002048414C5F4932435F06
:101DF0004D656D5F5772697465206572726F720D03
:101E00000A00000030B502460B460C48002112E0E3
:101E1000555C684000240AE0C507ED0F002D03D093
:101E20004010074D684000E04010651CECB2082CE3
:101E3000F2DB4D1CE9B29942EADB30BDFFFF000046
:101E400001A00000F0B58DB000200B900C900A218D
:101E50000120FFF76FFC694688854649098B4A00D7
:101E60008A186946898D4A431046FEF76EFD0A902E
:101E70000A214148FFF75EFC80B26946C8853D49AA
:101E8000098B4A008A186946C98D4A431046FEF7F5
:101E90005CFD09900A213948FFF74CFC6946088629
:101EA000098E0A03501AFEF750FD089008990A9807
:101EB000FEF76FFB07463249FEF72EFB0646FEF79C
:101EC000C3FD04460D4608990998FEF762FB0746D4
:101ED0002C49FEF721FB0646FEF7B6FD069007915A
:101EE00002AA33C26846808D00906846C38D028E78
:101EF0002048018B24480DF057FD08990A98FEF7F9
:101F000048FB05461E49FEF707FB04461F49FEF73E
:101F1000DFFD03D201211E48817202E000211C482E
:101F2000817208990998FEF734FB07461549FEF7B8
:101F3000F3FA06461749FEF7E7FA05461649FEF793
:101F400028FB0446FEF72AFDC1B21148C172C07ACF
:101F5000642803DB64210E48C17206E00C48C07A95
:101F6000052802DC03210A48C1720948C07A0DB075
:101F7000F0BD00006000F81F0200000400000244F1
:101F800000A0BE450000FA44802F010800A08C4547
:101F900004040020000061450000C0401CB5044658
:101FA0000020124908700520487000208870012028
:101FB000C8700020087108464471002088710846E6
:101FC000009009216846017141712821C180019961
:101FD000009800F0CBF8012800D11CBD03484179DE
:101FE00003A00DF0E1FC0020F7E70000B80C002092
:101FF000636F6E74726F6C206661696C3A25640D54
:102000000A000000F0B5044600260027002512E073
:102010002046E117090F091809110901661A394606
:102020007F1C102008F03FFB704345192046E11744
:10203000090F09180C11002CEAD12846F0BD10B583
:10204000044620460EF0E4FB10BD000000B587B04A
:1020500000BF1048C06A012108430E49C862084603
:10206000C06AC007C00F019000BF00BF8815029072
:102070001120039000200490059002A9052000077C
:1020800001F0D0F8012211020520000701F0CAF981
:1020900007B000BD0010024030B5024600231046D4
:1020A000D417240F24182405230E042B01DC182A2E
:1020B00001DB002030BD1046D417240F2418241152
:1020C0002401151B0124AC405D004D5BA5435C0061
:1020D0000D530120EEE710B5022001F093F810BD7A
:1020E00010B5042001F08EF810BD10B5102001F0DD
:1020F00089F8202001F086F8402001F083F8802044
:1021000001F080F8FF20013001F07CF8012040024E
:1021100001F078F80120800201F074F80120C0027B
:1021200001F070F80120000301F06CF80120400379
:1021300001F068F80120800301F064F80120C00379
:1021400001F060F810BD10B5012211020520000752
:1021500001F068F910BD000010B502A00DF024FCDC
:1021600010BD00006572726F720D0A00F3B581B088
:1021700000276A46127A921ED1B20198FFF742FEFA
:1021800006466846007A801E019A16543112684647
:10219000007A401E019A1154002501E0681CC5B266
:1021A0006846007AA842F9DC01222021384801F073
:1021B00039F9642000F04AFF6846027A354B364808
:1021C000019904F08FFD00222021314801F02AF905
:1021D0006A46517A0198FEF73BF8812189002F4821
:1021E000FEF736F800212E480181642000F02EFF12
:1021F00001F01EF9044600BF01F01AF92749091F32
:102200000968401A1428F7D901F012F9001B642854
:10221000F2D301F00DF92149091F0968401A142869
:1022200021D91F48008900281DD00E2001F0D0FDC3
:102230001B490A8919490198FDF7F1FF812189009D
:102240001648FEF705F81648077A002001E0411C01
:10225000C8B2134909898142F9DC00211048018183
:102260000E2001F0C1FD6846407AB84201D000203E
:10227000FEBD6A46517A0198FFF7C4FD002805D0DB
:10228000D12108A00DF090FB0220F1E70120EFE73B
:1022900000040050FFFF00001C050020A0070020E4
:1022A0009C0900206C696E65203D2025640D0A00A4
:1022B000024600210FE0C800094B1858904208D888
:1022C000481CC0001858904203D9C800C0180079B3
:1022D0007047481CC1B21529EDD300BFFEE70000CE
:1022E000AC280108F0B58FB0A948C07800287DD08F
:1022F000A74800780028FAD0A549491DA54806F04E
:1023000079FBA4488630FDF7D7FF0746FEF738FB78
:1023100005460022A04BFEF795FA099108909D48CA
:102320008130FDF7C9FF0746FEF72AFB054600226C
:10233000994BFEF787FA0791069096488030807A8D
:10234000049009990898039102909248803040794E
:10235000009092A0079B069A0DF026FB4A21964812
:10236000406C954A128881548A488130FDF7A4FF59
:102370000A908848803040790B9086488630FDF777
:102380009BFF0C9083488030807A0D9000240120C0
:10239000894908804AE02046E10F091849104900A0
:1023A000611A01290CD1A0000AA9095C824802889F
:1023B0000088401C804B18801846406C815433E0E4
:1023C000A0000AA90858000E7B490A880988491C00
:1023D000794B19801946496C8854A0000AA90858FD
:1023E0000002010E18460288008800E04EE0401C02
:1023F00018801846406C8154A0000AA9085A0004AD
:10240000010E184602880088401C18801846406C4F
:102410008154A0000AA9095C184602880088401C63
:1024200018801846406C8154601CC4B26248008811
:102430000A28B0DD61480078002826D000BF604936
:10244000086B80475C4802880223416C01200DF034
:1024500025FA7D20800100F0F9FD5A48C078002857
:10246000EDD072B600205749C87062B600204849C6
:10247000C870087010215048403001730120444951
:102480000871012143488030C1724EE000F0D0FF56
:102490003F49C96B401A4C49884242D93C480078B0
:1024A00000283ED03A48C07800283AD100F0B4F86D
:1024B00046480CF019FD00204249C8703F4800789A
:1024C000002832D042A00DF06FFA00BF0223042290
:1024D00043A101200DF0E2F97D20800100F0B6FD5E
:1024E0003848C0780028F1D072B600203549C8704D
:1024F00062B6002026490870481DFDF7C8FE044654
:1025000021462348401DFDF7A3FE20212A484030E4
:10251000017301201E49087100211E488030C172DC
:1025200003E0402124484030017319480079002815
:102530002CD117480078002828D100F06DF81448F5
:10254000401DFDF7A4FE044621461148401DFDF73D
:102550007FFE1C488078002807D030211648403084
:10256000017321A00DF020FA03E000211248403051
:10257000017301200649087114480CF0B5FC0022D3
:102580000121C9030520000700F04CFF0FB0F0BD8A
:10259000AC090020E00B0020006AF84032322D2DFB
:1025A0002D252E3566202531632C20252E356620DD
:1025B0002531630D0A000000C40300207D030020C4
:1025C000282801086C17002010270000CC0B0020E1
:1025D0004770735F53656E645F537461650D0A00E5
:1025E0006F76657200000000486172647761726501
:1025F0005F45786973745F475053204552524F527C
:102600000D0A000070B504460D46164632462946AE
:10261000204600F007FF70BD00B587B000BF10482E
:10262000C06A022108430E49C8620846C06A0221F6
:102630000840019000BF00BF80200290112003904D
:10264000002004900320059002A9064800F0EAFD4E
:1026500001228021034800F0E5FE07B000BD000024
:10266000001002400004005010B5012280210248F1
:1026700000F0D8FE10BD00000004005000B587B087
:1026800000BF0D48C06A022108430B49C8620846D2
:10269000C06A02210840019000BF00BF8020029064
:1026A0000120039004900320059002A9034800F044
:1026B000B9FD07B000BD000000100240000400504A
:1026C00010B50121C9030520000700F0A7FE10BDC9
:1026D00010B5FFF7C9FF002400BF1C2001F078FBF4
:1026E000334B0E2233A1374804F0FCFA1C2001F0D2
:1026F0007BFB7D20C00000F0A9FC641C552132A0AA
:102700000DF052F933480078002801D1032CE4D9A8
:102710003048007800280DD1032C0BD32E48807848
:10272000002805D030212D4801732DA00DF03CF973
:10273000002010BD27480078002836D000BF1C209C
:1027400001F046FB1A4B34222CA11E4804F0CAFAB1
:102750001C2001F049FBC82000F078FC1D4840789F
:102760000028ECD000BF1C2001F032FB104B1322DC
:102770002FA1144804F0B6FA1C2001F035FBC82044
:1027800000F064FC134880780028ECD007F07AFF52
:102790002C480CF0A9FBFF21F5312A480CF050FB26
:1027A00028480CF05DFB0120C3E70020C1E70000D2
:1027B000FFFF000024504D544B3130332A33300D8D
:1027C0000A000000AC0400206C696E65203D2025E5
:1027D000640D0A00AC0900206C17002004040020DE
:1027E00048617264776172655F45786973745F47A9
:1027F0005053204552524F520D0A000024504D5460
:102800004B3331342C312C302C302C302C302C30BC
:102810002C302C302C302C302C302C302C302C30D8
:102820002C302C302C312C302C302A32380D0A0030
:1028300024504D544B3232302C313030302A314616
:102840000D0A0000CC0B0020F8B504460025002638
:10285000002700BF5420005D012801D10220F8BDEF
:1028600001215420015500BF206880688007800F37
:10287000012806D1206800680840002801D0012006
:1028800000E0002000283FD1A06DFF2101318843E6
:1028900002210843A0652068C0688707BF0F206831
:1028A000C068800880002168C860206880680121B5
:1028B000C90708432168886000F0BAFD064611E0A8
:1028C00000F0B6FD801B0A280CD9A06D02218843B8
:1028D00010210843A06500BF00215420015500BF0E
:1028E0000120BCE720688068C00FC0070028E7D13E
:1028F0002068C06838432168C860A06D0221884301
:1029000001210843A06504E0A06D20210843A065D3
:10291000012500BF00215420015500BF28469EE735
:1029200070B504460D4600BF5420005D012801D15A
:10293000022070BD01215420015500BF206880682D
:1029400004210840800800280AD0A06D20210843F7
:10295000A06500BF00215420015500BF0120E8E719
:102960003C496868884238D02068806A29684903F1
:10297000490B08432168886228684003400B3649A8
:10298000084001218904884208D1344880684901FF
:102990000843324988600A20FEF7C4FC28684003D7
:1029A000400B2F49084001214904884205D12B489A
:1029B0008068490108432949886028684003400B22
:1029C000284908400121090488423BD123488068F6
:1029D000090208432149886034E02068806A296838
:1029E0004903490B88432168886228684003400BEB
:1029F0001949084001218904884205D11748806897
:102A0000490188431549886028684003400B1449F0
:102A1000084001214904884205D1104880684901D5
:102A200088430E49886028684003400B0D490840E0
:102A300001210904884205D10848806809028843B9
:102A40000649886000BF00215420015500BF0020C6
:102A50006FE700000110000000000448002701405B
:102A6000000002440000014070B504460025002C1F
:102A700001D1012070BDA06D02210843A065204650
:102A8000FEF719FC0546002D07D12046FEF760FC35
:102A90000546012D01D00120A065012D3ED0206802
:102AA000406822490840216848602048C0432168A6
:102AB00008602068806801210907884321688860D0
:102AC0002068C0681A4908402168C8602068006909
:102AD000184908402168086120684069C008C000A2
:102AE000216848612068006A13490840216808622B
:102AF00020688030406BC109C90120688030416383
:102B000020688030406BC109C90120688030416372
:102B1000204600F035F90020E065A06500BF0021E7
:102B20005420015500BF2846A4E7000060F7FFFFCE
:102B300000023E8302FCFF3F00F000F00146886D7A
:102B4000704701460868006C7047000010B50446E5
:102B5000002C01D1012010BDA06D002806D1E06538
:102B6000002154200155204600F020F9A06D1021CD
:102B70000840002806D120688068042108408008A9
:102B800000280AD0A06D10210843A06500BF0021D5
:102B90005420015500BF0120DDE7A06DFF21013168
:102BA000884302210843A065206880688007800F61
:102BB000012807D120680068C007C00F002801D095
:102BC000012000E0002000283AD100BF032189073E
:102BD0006068884207D049426068884203D0490053
:102BE000606888420CD120680069800080082168F4
:102BF000086120680069616808432168086112E083
:102C00002068006980008008216808615A4880684F
:102C10000F218904884358498860084680686168A4
:102C200008435549886000BF2068C0681821884360
:102C30002168C8602068C068A16808432168C8602E
:102C40004D4880680121490688434B498860084601
:102C50008068218F4906084347498860206880685A
:102C6000012109070840002804D120688068084332
:102C7000216888602068C068404908402168C860B1
:102C80002169E068022901D1042100E00021084304
:102C9000216A49030843216B49000843616B0843DB
:102CA000A16989030843E169C90308432168C96828
:102CB00008432168C860FF21C231A06A884207D05A
:102CC000E16AA06A08432168C96808432168C860AE
:102CD000606A012812D1206A002807D12068C068E4
:102CE0000121090408432168C86007E0A06D202184
:102CF0000843A065E06D01210843E065206C0128D0
:102D000017D120680069FF21890088432168086184
:102D1000616CA06C0843E16C0843216809690843B1
:102D20002168086120680069012108432168086161
:102D30000BE020680069C007C00F002805D020689C
:102D40000069400840002168086120684069C008A7
:102D5000C0002168486120684069E16B0843216830
:102D600048610020E065A06D0221884301210843ED
:102D7000A0650020EFE60000002701401902FEFFD9
:102D800010B504460749206888420AD10648406BBE
:102D9000491588430449486301210520000700F0D4
:102DA00063F910BD002401400010024010B586B048
:102DB00004460B492068884210D10A48406B4915E7
:102DC0000843084948630120019003200290002035
:102DD000039001A90520000700F024FA06B010BDF9
:102DE0000024014000100240F8B504460D460026BC
:102DF00000276069082801D1082711E02068C06811
:102E0000C007C00F00280AD0A06D20210843A0658C
:102E100000BF00215420015500BF0120F8BD0C2740
:102E200000F006FB064614E0681C002811D0002DB7
:102E300004D000F0FDFA801BA8420AD9A06D04213D
:102E40000843A06500BF00215420015500BF0320A6
:102E5000E4E72068006838400028E5D0A06D012133
:102E600049020843A0652068C06803218902084020
:102E7000002825D1206A002822D120680068082176
:102E8000084008281CD12068806804210840800878
:102E900000280DD1206840680C21884321684860D3
:102EA000A06DFF210131884301210843A06507E09F
:102EB000A06D20210843A065E06D01210843E06575
:102EC000A069002802D10C20216808600020A5E735
:102ED00070B50446002520688068042108408008F9
:102EE00000282BD100BF5420005D012801D1022011
:102EF00070BD01215420015500BFE069012803D0B5
:102F00002046FEF773FA0546002D18D1A06D0D4935
:102F10000840FF2101310843A0650020E06500BFA3
:102F200000215420015500BF1C2021680860206842
:102F30008068042108432168886000E00225284653
:102F4000D6E70000FEF1FFFF70B50446002500BF84
:102F50005420005D012801D1022070BD01215420C0
:102F6000015500BF2046FEF7A6F90546002D0CD1FD
:102F70002046FEF7EDF90546002D06D1A06DFF2194
:102F80000131884301210843A06500BF002154207E
:102F9000015500BF2846E0E770B50446002525200E
:102FA000005D022803D00420E063012549E0206889
:102FB00000680E2188432168086020680068400886
:102FC00040002168086020492068884201D1012022
:102FD00026E01D4914312068884201D110201FE0ED
:102FE000194928312068884201D1801518E0164916
:102FF0003C312068884201D1801411E012495031DF
:103000002068884202D10120000409E00E496431A1
:103010002068884202D10120000501E0012000065D
:1030200009490839486001212520015500BF0021C8
:103030002420015500BFA06B002802D02046A16BC0
:103040008847284670BD00000800024031B50024C2
:1030500000F0EEF9044600BF00F0EAF9001B009909
:103060008842F9D338BD0000F0B50B46002100229C
:10307000002479E001258D401D402A46002A72D0A7
:1030800005684F000326BE4035430560CD08AE00FD
:1030900005462035AD594E07F70E0F26BE40B54305
:1030A000CE08B60007462037BD5185684F0003267D
:1030B000BE40B5438560456801268E40B5434560F6
:1030C000C5684F000326BE40B543C560294D8E0834
:1030D000B600AC598D072E0F0F25B5402C400525A5
:1030E0002D07A84201D1002519E0234DA84201D1A6
:1030F000012514E0214DA84201D102250FE0204D09
:10310000A84201D103250AE01E4DA84201D10425A1
:1031100005E01D4DA84201D1052500E006258E07DA
:10312000360FB540A5421ED18D072E0F0F25B54095
:103130002C46104D8E08B600AD59A5430D4E8F0894
:10314000BF00F551114D2D689543104E3560354641
:103150006D68954375603546AD689543B5603546F5
:10316000ED689543F560491C1D46CD40002D81D189
:10317000F0BD0000080001400004005000080050AD
:10318000000C005000100050001C005000040140D2
:1031900010B50446022C05D108F0DEFE0AA00CF0A2
:1031A00003FC10E0042C05D109F0E2F80BA00CF0B0
:1031B000FBFB08E001208002844204D109F09EF963
:1031C0000BA00CF0F1FB10BD5358313237364F6E67
:1031D00044696F304972710D0A0000005358313252
:1031E00037364F6E44696F314972710D0A00000025
:1031F0005358313237364F6E44696F324972710D10
:103200000A00000010B50446054840692040002827
:1032100004D02046FFF7BCFF0148446110BD000008
:103220000004014070B50346002200240020DFE0C6
:10323000012696400D6835402C46002C77D04D680D
:10324000022D02D04D68122D15D1D508AE001D46B5
:103250002035A8595507EE0E0F25B5400646AE435A
:1032600030465607F60E0D69B5402843D508AD0027
:103270001E46203670514D68012D08D04D68022D34
:1032800005D04D68112D02D04D68122D18D19868C7
:1032900056000325B5400646AE4330465600CD687D
:1032A000B540284398605868012595400646AE43CE
:1032B000304610264D6835402D099540284358600A
:1032C000186856000325B5400646AE4330460D79D2
:1032D000AD07AD0F5600B54028431860D8685600BA
:1032E0000325B5400646AE43304656008D68B540CE
:1032F0002843D860012636074D683540B54276D15F
:103300003E4D6D6B012635433C4E75633C4D960832
:10331000B600A85995072E0F0F25B5400646AE43B7
:10332000304605252D07AB4202D100251AE05EE0AC
:10333000344DAB4201D1012514E0334DAB4201D1F4
:1033400002250FE0314DAB4201D103250AE0304D9B
:10335000AB4201D1042505E02E4DAB4201D105253C
:1033600000E006259607360FB5402843244D960801
:10337000B600A851284D28680546A54328460126D1
:1033800036044D683540B54202D1054625432846EE
:10339000214D286068680546A54328460126760425
:1033A0004D683540B54202D10546254328461A4DA1
:1033B0006860A8680546A5432846012636054D687D
:1033C0003540B54202D1054625432846124DA86036
:1033D000E8680546A5432846012676054D68354030
:1033E000B54202D10546254328460B4DE860521CE4
:1033F0000D68D540002D00D01AE770BD00100240C6
:10340000080001400004005000080050000C00506B
:1034100000100050001C00500004014042694A4066
:1034200042617047002A01D0816100E081627047EB
:103430000148006870470000040000200246412057
:10344000805C20282FD100BF4020805C012801D162
:103450000220704701234020835400BF24234120D1
:1034600083541068006840084000136818601068B2
:10347000006801231B0398431368186010680068F4
:103480000843136818601068006801231843136824
:10349000186020234120835400BF00234020835420
:1034A00000BF0020D5E70220D3E710B502460B4647
:1034B00000214120805C20282ED100BF4020805C6C
:1034C000012801D1022010BD01244020845400BFF6
:1034D0002424412084541068006840084000146887
:1034E0002060106801680F2424020846A0430146AA
:1034F000180201431068016010680068012420432D
:103500001468206020244120845400BF00244020FF
:10351000845400BF0020D6E70220D4E710B504464B
:10352000002C01D1012010BD24214120015520682B
:1035300000684008400021680860204600F0BCFB9D
:1035400000206064002141200155002020634220BA
:10355000015500BF4020015500BF0020E3E70000F7
:1035600010B50446002C01D1012010BD4120005DA2
:10357000002805D1002140200155204600F0B6FB6F
:10358000242141200155206800684008400021683E
:1035900008600F2109066068884321680861206877
:1035A00080680121C903884321688860E068012898
:1035B00006D10121C903A06808432168886005E09D
:1035C00021218902A068084321688860E0680228F8
:1035D00002D180022168486020684068144908438D
:1035E000216848602068C0680121C90388432168B8
:1035F000C860616920690843A1690902084321681C
:10360000C860216AE0690843216808602068006892
:1036100001210843216808600020606420214120C6
:1036200001550020206300214220015500209CE725
:1036300000800002FFB581B0044616461F460025F3
:103640004120005D20286ED100BF4020005D012890
:1036500002D1022005B0F0BD01214020015500BF7C
:10366000FFF7E6FE054619230122D1032046009507
:1036700003F0F2FD002801D00320EBE722214120D6
:103680000155102142200155002060646662678563
:103690006063608DFF280CD9FF20208509208002FF
:1036A0000090208DC2B20B052046029903F0BCFDAC
:1036B0000CE0608D2085092080020090208DC2B230
:1036C00001235B062046029903F0AEFD48E02A463E
:1036D00020460A9903F0EAFD002806D0606C042811
:1036E00001D10120B6E70320B4E72068406AC1B2E7
:1036F000626A501C60621170208D401E2085608DB2
:10370000401E6085208D00282AD1608D002827D09A
:1037100000950022802120460A9B03F09DFD002891
:1037200002D0032096E741E0608DFF280CD9FF20EE
:10373000208500200090208DC2B201231B06204668
:10374000029903F071FD0BE0608D20850020009050
:10375000208DC2B201235B062046029903F064FD6E
:10376000608D0028B3D12A4620460A9903F0EAFD6D
:10377000002806D0606C042801D101206AE70320EC
:1037800068E720202168C86120684068084908402F
:103790002168486020214120015500214220015527
:1037A00000BF4020015500BF002053E7022051E731
:1037B00000E800FEFFB581B0044616461F4600250E
:1037C0004120005D20287CD100BF4020005D012801
:1037D00002D1022005B0F0BD01214020015500BFFB
:1037E000FFF726FE054619230122D1032046009546
:1037F00003F032FD002801D00320EBE72121412016
:1038000001551021422001550020606466626785E1
:103810006063608DFF280BD9FF202085480200904F
:10382000208DC2B20B052046029903F0FDFC0CE08E
:10383000608D2085012040030090208DC2B20123BD
:103840005B062046029903F0EFFC47E02A4620463B
:103850000A9903F0A4FD002806D0606C042801D169
:103860000120B7E70320B5E7616A481C6062087869
:1038700021688862608D401E6085208D401E2085F5
:10388000208D00282AD1608D002827D000950022A5
:10389000802120460A9B03F0DFFC002801D0032092
:1038A00098E7608DFF280DD9FF202085002000902B
:1038B000208DC2B201231B062046029903F0B4FCFE
:1038C0000CE031E0608D208500200090208DC2B298
:1038D00001235B062046029903F0A6FC608D0028B8
:1038E000B4D12A4620460A9903F02CFD002806D0C0
:1038F000606C042801D101206CE703206AE72020D6
:103900002168C8612068406808490840216848600B
:1039100020214120015500214220015500BF4020B7
:10392000015500BF002055E7022053E700E800FEE4
:10393000FFB583B004460C9F0E9E00254120005D1C
:10394000202871D1002F02D00D98002802D101202B
:1039500007B0F0BD00BF4020005D012801D102206A
:10396000F6E701214020015500BFFFF761FD054644
:1039700019230122D1032046009503F06DFC002895
:1039800001D00320E4E722214120015540214220BB
:1039900001550020606467620D98608500206063B7
:1039A00000960195204604A90EC903F0ABFB002840
:1039B00010D0606C042806D100BF002140200155C2
:1039C00000BF0120C4E700BF00214020015500BF17
:1039D0000320BDE7608DFF280DD9FF202085092039
:1039E00080020090208DC2B201231B06204604995C
:1039F00003F01AFC0CE0608D208509208002009005
:103A0000208DC2B201235B062046049903F00CFC12
:103A100000BF3346002204212046009503F01CFC21
:103A2000002802D0032093E75FE02068406AC1B21B
:103A3000626A501C60621170208D401E2085608D6E
:103A4000401E6085208D002829D1608D002826D059
:103A50003346002280212046009503F0FDFB00281C
:103A600001D0032074E7608DFF280CD9FF2020854A
:103A700000200090208DC2B201231B06204604992D
:103A800003F0D2FB0BE0608D208500200090208D9C
:103A9000C2B201235B062046049903F0C5FB608D8A
:103AA0000028B6D12A463146204603F04BFC0028B8
:103AB00006D0606C042801D1012049E7032047E7C4
:103AC00020202168C86120684068094908402168B1
:103AD000486020214120015500214220015500BFAE
:103AE0004020015500BF002032E7022030E70000EF
:103AF00000E800FEFFB583B004460C9F0E9E002533
:103B00004120005D202870D1002F02D00D980028A0
:103B100002D1012007B0F0BD00BF4020005D0128A8
:103B200001D10220F6E701214020015500BFFFF737
:103B30007FFC054619230122D1032046009503F09E
:103B40008BFB002801D00320E4E72121412001550F
:103B50004021422001550020606467620D98608515
:103B60000020606300960195204604A90EC903F069
:103B700012FB002810D0606C042806D100BF002181
:103B80004020015500BF0120C4E700BF00214020B4
:103B9000015500BF0320BDE7608DFF280CD9FF2031
:103BA000208500200090208DC2B201231B062046F4
:103BB000049903F039FB0BE0608D20850020009014
:103BC000208DC2B201235B062046049903F02CFB32
:103BD00000BF2A463146204603F0E1FB002807D00B
:103BE000606C042802D1012094E760E0032091E793
:103BF000616A481C6062087821688862608D401E96
:103C00006085208D401E2085208D002829D1608D63
:103C1000002826D03346002280212046009503F05C
:103C20001BFB002801D0032074E7608DFF280CD90E
:103C3000FF20208500200090208DC2B201231B06AA
:103C40002046049903F0F0FA0BE0608D20850020F7
:103C50000090208DC2B201235B062046049903F038
:103C6000E3FA608D0028B4D12A463146204603F09D
:103C700069FB002806D0606C042801D1012049E7C7
:103C8000032047E720202168C8612068406809496F
:103C90000840216848602021412001550021422030
:103CA000015500BF4020015500BF002032E702202F
:103CB00030E7000000E800FE10B50446084920681F
:103CC00088420BD10748806B01218905884305494B
:103CD0008863032149030448FFF7C6F910BD0000BB
:103CE00000580040001002400004005010B586B09B
:103CF00004460E492068884215D1032040030190F4
:103D000012200290012003900320049005200590CA
:103D100001A90748FFF786FA0648806B012189054B
:103D200008430449886306B010BD000000580040F5
:103D3000000400500010024002480068401C014985
:103D4000086070470400002010B506480068402154
:103D5000084304490860002000F006F800F018F855
:103D6000002010BD0020024070B504467D21C9002E
:103D700006480068FCF7BCF9054602F047FA002245
:103D80002146501E00F03CF8002070BD00000020CD
:103D900010B50E48406B012108430C4948630846A2
:103DA000806B090408430949886300221146501FAB
:103DB00000F026F800221146901E00F021F80022A3
:103DC0001146501E00F01CF810BD0000001002400B
:103DD00000BFC206D20E01219140024A116000BF0D
:103DE0007047000080E100E000BFC206D20E012152
:103DF0009140024A116000BF7047000000E100E0FE
:103E000070B504460D4616462946204604F08CFF40
:103E100070BD000003480068012189020843014980
:103E200008607047007000400348006801214902A3
:103E3000084301490860704700700040034800686B
:103E4000102188430149086070470000007000405D
:103E500010B5024600200B4B18688008800003460E
:103E600013431846074B1860074B1B690424A343F0
:103E7000054C2361012901D130BF02E040BF20BFC2
:103E800020BF10BD0070004000ED00E010B50246FC
:103E900000200E4B18688008800003461343184624
:103EA0000A4B18600A4B1B6904242343084C236106
:103EB000012901D130BF02E040BF20BF20BF044B29
:103EC0001B690424A343024C236110BD0070004011
:103ED00000ED00E0F0B585B0054600260020039017
:103EE00002900024002701900090102D7ED008DC65
:103EF000012D7CD0022D7BD0042D7AD0082D79D1D4
:103F00003BE1202D0AD0402D51D0E81FF938002880
:103F100071D007210902401AF1D100E000BFC64864
:103F200006690069032109040840044601200004D1
:103F3000844206D1C0113040002802D060100290A7
:103F400034E001204004844206D1022030400028A1
:103F500002D0BA48029029E003200004844223D111
:103F6000B5484038006801214904084000281BD0AA
:103F7000B14840380068210108400390012109053B
:103F80000398401A09D0401A04D0401A08D1AC480E
:103F9000029008E0AB48029005E0AB48029002E0D6
:103FA000AA48029000BF01E0002002903FE1A24831
:103FB000C0680121890608400446002C42D19E4871
:103FC000403800684910084000283BD09A484038E3
:103FD000C0680F2189040840074697484038C068E8
:103FE0000321890508400190B80C05E0EAE03AE0B9
:103FF00064E08FE01AE1F4E095490F5C0198800DD0
:10400000401C01908C484038C068012109040840D8
:1040100000280CD18848403800681021084000284A
:1040200002D08A48009004E08A48009001E08A4863
:10403000009000987843009001990098FCF758F898
:1040400002900FE001208006844209D17A4840386E
:10405000806802210840002802D08048029001E0D8
:1040600000200290E3E07448C0688407A40F002C8D
:1040700003D100F05FFB02901FE0022C09D16E48D3
:104080004038006804210840002802D0714802909E
:1040900013E0012C03D100F05FFB02900DE0032C34
:1040A00009D165480069012149020840002802D071
:1040B0008801029001E000200290B8E05E48C068EC
:1040C0000C2108400446002C03D100F021FB029093
:1040D0001FE0082C09D158484038006804210840E6
:1040E000002802D05B48029013E0042C03D100F0BA
:1040F00033FB02900DE00C2C09D14F4800690121DF
:1041000049020840002802D08801029001E0002006
:1041100002908CE04848C0680321890208400446A8
:10412000002C03D100F0F4FA029025E00120C00237
:10413000844209D1404840380068042108400028E2
:1041400002D04448029017E001208002844203D14B
:1041500000F002FB02900FE003208002844209D1AC
:1041600035480069012149020840002802D0880131
:10417000029001E00020029059E02F48C06803211E
:10418000090308400446002C03D100F0C1FA029054
:1041900017E001204003844209D1274840380068D5
:1041A00004210840002802D02A48029009E001209A
:1041B0000003844203D100F0CFFA029001E0002016
:1041C000029034E01C484038806B0121890508408A
:1041D000884203D100F09CFA029001E00020029096
:1041E00025E01548C0680321090408400446002C56
:1041F00003D100F08DFA029017E0012040048442C0
:1042000009D10D484038006804210840002802D038
:104210001048029009E001200004844203D100F01C
:104220009BFA029001E00020029000E000BF00BF76
:10423000029805B0F0BD00004010024088900000D8
:1042400020A1070040420F0080841E0000093D00AD
:104250001E2801080024F40000127A00006CDC0221
:10426000F8B50446002600252021206808402028B3
:1042700004D089012068084088427DD1202120682F
:104280000840202800D100BF0121C9022068084051
:10429000884200D100BF00279948806B012109079F
:1042A0000840002805D19648806B084394498863EC
:1042B000012794480068FF2101310840002816D1E9
:1042C0009048006808438F490860FFF7B1F8064638
:1042D00006E0FFF7ADF8801B642801D90320F8BD84
:1042E00088480068FF21013108400028F1D0844847
:1042F0000068032109050840054660680840A84297
:1043000003D1A0680840A8420ED0032109046068C8
:104310000840884208D17A480068012149040840D1
:10432000002801D00120DAE77548403000690321F8
:10433000090408400546002D49D060680840A8429D
:1043400004D020212068084020280BD00321090434
:10435000A0680840A8423AD00121C902206808405C
:10436000884234D1664840300069032109048843FB
:1043700005466348403000E052E000690121C9046D
:1043800008435F4940310861084600690121C904BA
:1043900088435B4940310861084605618015284023
:1043A000002814D0FFF744F8064607E0FFF740F86E
:1043B000801B5549884201D9032090E7504840307E
:1043C0000069012149020840400A0028EED000BFE0
:1043D00000BF032109046068084088420AD14848A8
:1043E00000680901884303221205616811400843EF
:1043F0004349086000BF424840300069032212046C
:104400006168114008433E494031086100BF012FF7
:1044100005D13B48806B890588433949886300BFD3
:104420002078C007C00F002809D035484030C06848
:1044300080088000E168084331494031C8600221AA
:1044400020680840022809D12D484030C0680C215E
:104450008843216908432A494031C8600421206803
:10446000084004280AD126484030C0680321890248
:1044700088436169084322494031C86008212068A7
:10448000084008280AD11E484030C06803210903AB
:104490008843A16908431A494031C860FF210131AE
:1044A0002068084088420AD115484030C06803217E
:1044B00009048843E169084311494031C86040213B
:1044C00020680840402809D10D484030C0680905DF
:1044D0008843616A08430A494031C86080212068E6
:1044E000084080280AD106484030C068032189046A
:1044F0008843216A084302494031C8600020EEE643
:1045000000100240007000408813000070B504469F
:104510000D46002676480068C007C00FA8420ED29C
:104520007348006840084000284371490860084605
:104530000068C007C00FA84201D0012070BD022151
:1045400020680840022807D16A48C068F0218843E3
:10455000A16808436749C8602078C007C00F0028D9
:104560004CD06068022809D16248006801214904E2
:104570000840400C002824D10120DFE760680328B0
:1045800009D15C480068012149060840400E002816
:1045900017D10120D2E76068012808D1554800688A
:1045A00004210840800800280BD10120C6E75148AB
:1045B0000068012149020840400A002801D1012079
:1045C000BCE74C48C06880088000616808434949DE
:1045D000C860FEF72DFF0646606802280FD107E08D
:1045E000FEF726FF801B4449884201D90320A5E736
:1045F0004048C0680C2108400828F1D134E06068C8
:1046000003280FD107E0FEF713FF801B3A498842C9
:1046100001D9032092E73748C0680C2108400C28D4
:10462000F1D121E0606801280FD107E0FEF700FF1B
:10463000801B3149884201D903207FE72D48C0689B
:104640000C2108400428F1D10EE007E0FEF7F0FE4F
:10465000801B2949884201D903206FE72548C0689B
:104660000C2108400028F1D121480068C007C00F84
:10467000A8420ED91E4800684008400028431C4943
:10468000086008460068C007C00FA84201D001209A
:1046900054E7042120680840042808D11548C06860
:1046A000072109028843E16808431249C8600821CC
:1046B00020680840082809D10E48C0680721C902AF
:1046C00088432169C90008430A49C86000F044F8DA
:1046D0000849C968F02211400909084A515CC840DC
:1046E000074908600020FFF73FFB002026E7000095
:1046F0000020024000100240881300000628010834
:104700000000002001480068704700000000002001
:1047100000B5FFF7F7FF0549C968072212021140EB
:10472000090A034A515CC84000BD00000010024065
:104730001628010800B5FFF7E5FF0549C9680722FB
:10474000D2021140C90A034A515CC84000BD0000B2
:104750000010024016280108FEB50025002600279B
:1047600000240020019000902F48C5680C202840AC
:10477000002847D0042804D008280ED00C2840D1A7
:104780000EE02948006810210840002802D0274880
:10479000009001E02648009042E0264800903FE06B
:1047A0000F2080042840800C23490E5C03208005E4
:1047B0002840800D471C1C48C0680121090408409E
:1047C000002807D01B49714308463946FBF790FC87
:1047D000044614E01448006810210840002807D05F
:1047E0001249714308463946FBF782FC044606E04D
:1047F0000F49714308463946FBF77AFC044600949A
:104800000EE000BF08484068072149030840400BFC
:1048100001900198401C01218140C803009000BF15
:1048200000BF0098FEBD00000010024000093D00DE
:104830000024F40000127A001E280108F8B504468E
:1048400000252078C007C00F00287DD0FE48C06832
:104850000C21084008280BD0FB48C06808400C28F1
:1048600013D1F948C06801210904084088420CD1DD
:10487000F5480068012149040840400C002863D035
:104880006068002860D10120F8BD00BF0121090443
:104890006068884205D1EC4800680843EA4908602E
:1048A00027E005210904606888420ED1E6480068C7
:1048B000012189040843E449086008460068012191
:1048C00009040843E049086013E0DF48006801215B
:1048D00009048843DC49086008460068012109048E
:1048E0000840009000BFD848006889008843D64936
:1048F000086000BF6068002813D0FEF799FD0546E8
:1049000006E0FEF795FD401B642801D90320BBE7B4
:10491000CD480068012149040840400C0028F0D02F
:1049200012E0FEF785FD054606E0FEF781FD401B1F
:10493000642801D90320A7E7C3480068012149047E
:104940000840400C0028F0D10221206808400228CD
:1049500068D1BD48C0680C21084004280BD0BA4873
:10496000C06808400C281DD1B748C068012109045F
:104970000840002816D1B448006804210840800887
:10498000002804D0E068012801D001207CE7AE486F
:1049900040681F2109028843216909020843AA4986
:1049A00048603FE0E068002824D0A748006809215B
:1049B0008843E1680843A4490860FEF739FD0546CD
:1049C00006E0FEF735FD401B022801D903205BE716
:1049D0009D4800680421084080080028F1D09A48CA
:1049E00040681F210902884321690902084396494A
:1049F000486017E094480068400840009249086009
:104A0000FEF716FD054606E0FEF712FD401B0228E4
:104A100001D9032038E78C48006804210840800849
:104A20000028F1D1102120680840102860D1864864
:104A3000C0680C21084000285BD183480068012130
:104A400049020840400A002804D0E069002801D14A
:104A5000012019E77C48616A406807225203104030
:104A6000814219D9606A06F0ABFB002801D0012011
:104A70000AE775484068072149038843616A08438B
:104A800071494860084640680002000A218C090606
:104A900008436D49486018E06B48406807214903A6
:104AA0008843616A084368494860084640680002D4
:104AB000000A218C0906084363494860606A06F0D1
:104AC0007FFB002801D00120DEE6606A400B401C1D
:104AD00001218140C8035C49C968F02211400909DD
:104AE0005A4A515CC8405A4908600020FFF73CF917
:104AF00049E0E06900282CD053480068FF210131CB
:104B0000084351490860FEF793FC054606E0FEF7AE
:104B10008FFC401B022801D90320B5E64A480068F3
:104B2000012149020840400A0028F0D04648406868
:104B3000072149038843616A08434349486008469E
:104B400040680002000A218C090608433E4948607B
:104B500019E03D480068FF21013188433A49086067
:104B6000FEF766FC054606E0FEF762FC401B0228E5
:104B700001D9032088E63448006801214902084031
:104B8000400A0028F0D1082120680840082839D1BF
:104B9000606900281BD02C4840300069012108437F
:104BA000294940310861FEF743FC054606E0FEF75F
:104BB0003FFC401B022801D9032065E62248403013
:104BC00000690221084040080028F0D01AE01E4881
:104BD00040300069400840001B4940310861FEF741
:104BE00027FC054606E0FEF723FC401B022801D9FE
:104BF000032049E61448403000690221084040087B
:104C00000028F0D1042120680840042877D100262C
:104C10000D48806B89060840002805D10A48806B42
:104C200008430949886301260A480068FF210131C9
:104C3000084000281ED1074800680843054908605D
:104C4000FEF7F6FB05460EE00010024006280108BC
:104C50000000002000700040FEF7EAFB401B6428C3
:104C600001D9032010E6A6480068FF210131084061
:104C70000028F1D000BFFF210131A068884205D192
:104C8000A048006908439F49086130E0A0680028F7
:104C90000DD19C480069FF21013188439949086181
:104CA0000846006909158843964908611FE00521F7
:104CB0000902A06888420DD1924800690121890249
:104CC00008439049086108460069891508438D49E1
:104CD00008610CE08B480069FF2101318843894954
:104CE000086108460069091588438649086100BFC4
:104CF000A068002815D0FEF79BFB054608E02FE0D2
:104D0000FEF796FB401B8049884201D90320BBE592
:104D10007C480069012149020840400A0028EFD080
:104D200013E0FEF785FB054607E0FEF781FB401B1D
:104D30007549884201D90320A6E57248006901211E
:104D400049020840400A0028EFD1012E07D16D48E2
:104D50004038806B310788436A494039886300BF17
:104D6000202120680840202852D1A06900282BD09B
:104D700000BF6448403880680121084361494039D8
:104D800088600846406B012108435E49403948630A
:104D90005E48006A0121490308435C49086200BF7C
:104DA000FEF746FB054606E0FEF742FB401B0228E5
:104DB00001D9032068E55348403880680221084043
:104DC00040080028F0D023E000BF4E4840388068FB
:104DD000400840004B49403988604C48006A012136
:104DE000490388434949086200BFFEF721FB054695
:104DF00006E0FEF71DFB401B022801D9032043E516
:104E00004048403880680221084040080028F0D11E
:104E1000A06A002872D03B484038C0680C21084086
:104E20000C2869D0A06A022848D13648403800686A
:104E3000012109068843334940390860FEF7F8FA32
:104E4000054606E0FEF7F4FA401B022801D90320CC
:104E50001AE52C4840380068012149060840400EF8
:104E60000028EFD1216BE06A0843616B08432549B4
:104E70004039C968FD221204914308432149403951
:104E8000C860084600680121090608431D494039E9
:104E90000860FEF7CDFA054606E0FEF7C9FA401BAA
:104EA000022801D90320EFE41648403800680121A8
:104EB00049060840400E0028EFD01FE01148403856
:104EC00000680121090688430E4940390860FEF751
:104ED000AFFA054606E0FEF7ABFA401B022801D9FF
:104EE0000320D1E407484038006801214906084002
:104EF000400E0028EFD101E00120C5E40020C3E40A
:104F00000070004040100240881300000000014083
:104F1000704770B50446002500BF2020005D0128C1
:104F200001D1022070BD01212020015500BF0221C6
:104F30002120015500BFCA20216848625320216802
:104F4000486200BF20688068012189028843216887
:104F5000886020688068012189038843216888600F
:104F6000FEF766FA054615E0FEF762FA401B7D2162
:104F7000C90088420ED900BFFF202168486200BFE7
:104F800003212120015500BF00212020015500BF31
:104F90000320C7E72068C068042108408008002873
:104FA000E2D000BFFF202168486200BF012121201C
:104FB000015500BF00212020015500BF0020B1E7AE
:104FC00010B5044612484068C007C00F0121484090
:104FD0004840002805D00E480068042108430C49C9
:104FE00008600C48C0680C210840042804D0094817
:104FF000C0680840002809D1FCF78CFD06A00AF023
:10500000D3FC0DF0C5FA00200949487010BD00001E
:105010000070004000100240776B7570206C6F7755
:105020002D706F776572206E6F770D0A000000009B
:105030006C17002010B50446206880680121090320
:105040000840000B002811D02068C06809110840F2
:10505000000A00280AD02046FFF7B2FF2068C06887
:1050600080210840124908432168C8602068806890
:10507000012149030840400B002811D02068C06876
:1050800009110840400A00280AD02046FFF740FFD7
:105090002068C06880210840064908432168C8602C
:1050A000012040040449486101212120015510BD1F
:1050B0007FFEFFFF7FFDFFFF0004014070B5044647
:1050C0000D46002600BF2020005D012801D10220EE
:1050D00070BD01212020015500BF02212120015572
:1050E00000BFCA202168486253202168486200BF7F
:1050F000FF20013085422CD12068806829468843F2
:105100002168886020688068290188432168886058
:10511000FEF78EF9064615E0FEF78AF9801B7D2121
:10512000C90088420ED900BFFF202168486200BF35
:1051300003212120015500BF00212020015500BF7F
:105140000320C5E72068C068C007C00F0028E3D06F
:105150002EE0206880680121490288432168886028
:105160002068806801214903884321688860FEF730
:105170005FF9064615E0FEF75BF9801B7D21C9004B
:1051800088420ED900BFFF202168486200BF03217A
:105190002120015500BF00212020015500BF032020
:1051A00096E72068C0680221084040080028E2D045
:1051B00000BFFF202168486200BF01212120015566
:1051C00000BF00212020015500BF002080E7000023
:1051D000F0B506460C46174600253068406812496F
:1051E00008400546FF2000042840000CE0701F2006
:1051F00000022840000A6070A806800EA0700720F8
:1052000040032840400B2070002F0BD1E07806F0BF
:105210002BF8E070607806F027F86070A07806F050
:1052200023F8A0700020F0BD3FFFFF00F0B5054659
:105230000C46174600262868806A60602868006966
:105240004004400CA06028680068124908400646E7
:105250003F2000043040000C20707F2000023040CE
:10526000000A60707006400EA0700120800530407A
:10527000000CE070002F0BD1207805F0F5FF2070B6
:10528000607805F0F1FF6070A07805F0EDFFA07088
:105290000020F0BD7F7F7F0010B50446002C01D1B7
:1052A000012010BD2120005D002808D10021202010
:1052B0000155204600F05EF82AA00AF075FB022195
:1052C0002120015500BFCA2021684862532021686F
:1052D000486200BF204605F0E1FF002809D000BF6A
:1052E000FF202168486200BF0421212001550120D0
:1052F000D7E7206880681E490840216888602169D6
:1053000060680843A16908432168896808432168E7
:1053100088602168E06808612068006921890904C3
:105320000843216808612068C0688021884321689B
:10533000C8602068C06C800880002168C86461690A
:10534000E06908432168C96C08432168C86400BF4C
:10535000FF202168486200BF012121200155002063
:105360009FE700005254435F494E49540D0A000024
:10537000BFFF8FFF054A0168914206D104490969C0
:10538000012292041143024A116170470028004033
:1053900040100240FEB504460D4616460027002088
:1053A0000190009000BF2020005D012801D1022063
:1053B000FEBD01212020015500BF02212120015501
:1053C000002E2AD12068806840210840002800D0A3
:1053D00002E00020E87000BFE869002800D100E08A
:1053E00000BF287805F04DFF0304687805F049FFF9
:1053F00000020343A87805F044FF0343E878000463
:1054000003432021485D05F03CFF00060343E869A3
:1054100003436869034301932FE0206880684021BB
:105420000840002804D0287805F01EFF019002E013
:105430000020E87000BFE869002805D12021485D00
:1054400005F012FF019005E02021485D05F00CFFFA
:10545000019000BF28780004697809020843A97800
:105460000843E978090408432021495D09060843F7
:10547000E9690843696908430190A96968680843B4
:10548000009000BFCA20216848625320216848620A
:1054900000BFFF210131686A884241D120688068DD
:1054A0008843216888602068C068802108404D4991
:1054B00008432168C860FDF7BBFF074615E0FDF70C
:1054C000B7FFC01B7D21C90088420ED900BFFF2055
:1054D0002168486200BF03212120015500BF00213F
:1054E0002020015500BF032062E72068C068C00784
:1054F000C00F0028E3D001982168C8610098216896
:10550000486420688068FF21013108432168886071
:10551000206880680121090308432168886043E00E
:1055200020688068012149028843216888602068DA
:10553000C068802108402C4908432168C860FDF7F5
:1055400077FF074615E0FDF773FFC01B7D21C900FB
:1055500088420ED900BFFF202168486200BF0321A6
:105560002120015500BF00212020015500BF03204C
:105570001EE72068C0680221084040080028E2D0E9
:105580000198216808620098216888642068806812
:105590000121490208432168886020688068012150
:1055A00049030843216888601048006801214904C4
:1055B00008430E49086008468068012149040843F1
:1055C0000A49886000BFFF202168486200BF0121AE
:1055D0002120015500BF00212020015500BF0020DF
:1055E000E6E600007FFEFFFF7FFDFFFF00040140B5
:1055F000F8B504460D461646002700BF2020005D82
:10560000012801D10220F8BD01212020015500BF51
:10561000022121200155002E09D16878102108406F
:10562000102804D16878EF2108400A306870002EF5
:1056300011D1E87805F025FE0304687805F021FE15
:1056400000020343A87805F01CFE034328784003BA
:1056500003431F4612E0687805F006FE0746A87867
:1056600005F002FE0746E87800046978090208435D
:10567000A9780843297849030843074600BFCA2090
:105680002168486253202168486200BF204605F027
:1056900005FE00280ED000BFFF202168486200BF31
:1056A00004212120015500BF00212020015500BF09
:1056B0000120A8E719483840216848602068C06880
:1056C000802188432168C8602068806820210840C4
:1056D000002813D1204600F0CDF800280ED000BFDE
:1056E000FF202168486200BF04212120015500BF2E
:1056F00000212020015500BF012084E700BFFF20CA
:105700002168486200BF01212120015500BF00210E
:105710002020015500BF002075E700003FFFFF007B
:10572000F8B504460D461646002700BF2020005D50
:10573000012801D10220F8BD01212020015500BF20
:10574000022121200155002E1BD1206880684021B4
:105750000840002800D002E00020E87000BF287850
:1057600005F08FFD0304687805F08BFD000203430C
:10577000A87805F086FD0343E878000403431F463C
:1057800018E02068806840210840002804D028786C
:1057900005F06AFD074602E00020E87000BF2878A7
:1057A0000004697809020843A9780843E9780904E4
:1057B0000843074600BFCA20216848625320216879
:1057C000486200BF204605F069FD00280ED000BFEA
:1057D000FF202168486200BF04212120015500BF3D
:1057E00000212020015500BF0120A4E720483840B7
:1057F0002168086020688068012189048843216845
:1058000088602969E8680843216889680843216835
:1058100088602068C068802188432168C86020684B
:10582000806820210840002813D1204600F022F88B
:1058300000280ED000BFFF202168486200BF04216D
:105840002120015500BF00212020015500BF01206B
:1058500071E700BFFF202168486200BF01212120BD
:10586000015500BF00212020015500BF002062E744
:105870007F7F7F0070B5044600252068C068A021A6
:1058800088432168C860FDF7D3FD054608E0FDF7B1
:10589000CFFD401B7D21C900884201D9032070BD86
:1058A0002068C068202108400028F0D00020F6E7DA
:1058B000034800690221084301490861704700005C
:1058C00000E000E010B50446002C01D1012010BD1D
:1058D0000221512001552068006840218843216839
:1058E0000860204600F052F8002060650021512039
:1058F000015500BF5020015500BF0020E7E710B55B
:105900000446002C01D1012010BD5120005D00286B
:1059100005D1002150200155204600F057F8022102
:1059200051200155206800684021884321680860A3
:10593000A16860680843E168084321690843616918
:10594000084301225202A16911400843E16908435A
:10595000216A0843A16A084321680860A069000C15
:1059600004210840616A0843216848602168E06AB0
:1059700008612068C069910088432168C8610020DF
:1059800060650121512001550020BDE710B586B0AA
:1059900004460C492068884212D10B48406B891498
:1059A000884309494863F0200190032002900220B7
:1059B0000390049001A905200007FDF733FC00BF08
:1059C00006B010BD003001400010024010B586B096
:1059D000044614492068884222D100BF1248C06A98
:1059E000012108431049C8620846C06AC007C00FB9
:1059F000009000BF00BF0846406B891408430A4965
:105A00004863E020019002200290002003900320D0
:105A100004900020059001A905200007FDF702FC75
:105A200006B010BD0030014000100240FEB5044633
:105A30000E4615461F46002001905120005D0128AA
:105A40007ED1002E01D0002D01D10120FEBD00BF6E
:105A50005020005D012801D10220F7E701215020EC
:105A6000015500BF22215120015500206065A66329
:105A7000A587E587A064E0642063A086E086012115
:105A8000C903A068884205D120680068491088438E
:105A90002168086001214903A06A88420DD100BF36
:105AA0002068006888432168086020680068012138
:105AB000490308432168086000BFFF210531606881
:105AC00088420FD1A06800280CD100BF00215020CF
:105AD000015500BF2B46324631462046009700F064
