:020000040800F2
:10000000E0170020D50000083F7C0008255E0008AE
:1000100000000000000000000000000000000000E0
:1000200000000000000000000000000047AA0008D7
:10003000000000000000000001930008C1D4000887
:10004000E7000008E7000008219D0008E70000081D
:10005000E7000008011E0008111E0008211E00080C
:10006000E7000008E7000008E7000008E7000008D4
:10007000E7000008E700000855E00008E700000876
:10008000E7000008E7000008E700000800000000A3
:10009000E7000008E7000008E7000008E7000008A4
:1000A000E7000008E7000008E7000008E700000894
:1000B000E7000008E7000008E7000008E700000884
:1000C0000348854600F0ACFE004800479DF200085A
:1000D000E01700200448804704480047FEE7FEE799
:1000E000FEE7FEE7FEE7FEE795D50008C100000841
:1000F00030B50B46014600202022012409E00D46C0
:10010000D5409D4205D31D469540491B2546954047
:1001100040191546521E002DF1DC30BD70B500248B
:100120002546002801DA01244042002901DA012590
:100130004942FFF7DDFFAC4200D04042002C00D026
:10014000494270BDF0B51FB40646002082B0054696
:100150004024019100901BE0019922460F46304651
:1001600000F0FEFC049A059B801A994110D31046BA
:100170001946224600F0E4FC361A8F4101972246C8
:1001800001200021009F00F0DBFC38184D41009059
:100190002046641E0028DFDC019B00982946324679
:1001A00007B0F0BDF0B51FB486B0002000900190FC
:1001B00002900698069980B204900798090C0204F0
:1001C0000014114307900027089D099806913E46A8
:1001D0003C4603900398A9B20204000C03900498D3
:1001E0002D0C154348430021224600F0A9FCC719F5
:1001F000714110340E46402CECDB3846029A00F078
:100200009FFC009A019B801800905941029801912F
:10021000103002904028CCDB00980BB0F0BD0346B4
:100220000B439B0703D009E008C9121F08C0042A2A
:10023000FAD203E00B780370401C491C521EF9D21D
:100240007047D2B201E00270401C491EFBD27047D9
:100250000022F6E710B513460A4604461946FFF792
:10026000F0FF204610BD30B505462A460B461078F3
:100270001C78521C5B1C002801D0A042F7D0002C37
:1002800003D0002802D06D1CEFE7284630BD421C89
:100290000178401C0029FBD1801A704710B500225C
:1002A00000E0521C835C8C5CA34201D1002BF8D18E
:1002B000D8B2E1B2401A10BD0321001D401E0378E0
:1002C00012021A43491EF9D510467047034603220D
:1002D0000870000A491C521EFAD5184670470000E3
:1002E0000FB400B58DB009900B9010A900200091BB
:1002F000C0430A9000200C900648069006480790DC
:100300006A4609A80F9900F065FC0DB008BC04B05E
:1003100018470000F50B0008150C0008FFB5002772
:10032000FF4383B000205C6801909E681D46A96968
:100330007F1C049888470090296A88470028F6D1D6
:100340000098401C0CD0032040028443002E19DD8D
:10035000600614D500982B2809D02D280FD103E072
:100360000020C04307B0F0BD012080020443A9690A
:100370007F1C04988847761E0090002E02DD0098AE
:10038000302803D00598002825D035E00120400210
:100390000443A969761E7F1C049888470090002EAC
:1003A00003DD782805D0582803D00598002810D000
:1003B00022E00598002801D010281DD1012040021C
:1003C0008443A969761E7F1C0498884700901020FA
:1003D00002E0082000E00A2005900DE0012149021A
:1003E0000C43059A0199761E514308180190A9699A
:1003F0007F1C049888470090002E05DD0599009821
:1004000000F0D2FB0028E9DAE96904988847A005E2
:1004100002D40120C043A5E7E00722D1600611D530
:100420006005019800D5404229680A1D2A600968C4
:10043000220501D5087014E0220701D5088010E0DC
:1004400008600EE02868011D29600068210502D5BA
:100450000199017005E02107019901D5018000E0B3
:10046000016038467EE7F8B502464A40D40F4200A4
:100470004B0052085B089A4202D2024608461146D7
:100480004A0023D0C30D4A00DDB2120EAD1A202D52
:1004900035DA49020126490AF6058A19002C00D0EE
:1004A000524220214F1B1146B9402A411018C20D5B
:1004B0009A4221D0002C17D0012D08DCDA05801AD1
:1004C000D20F8019D207DBB200F0BEFBF8BDDA050F
:1004D000801A012340001B06C01880185A42801859
:1004E000CA0F1043490007E04908C2071143DA0563
:1004F000801A80194008801800F09EFBF8BD61004A
:100500000122511A001BF7E70122D2075140AAE746
:100510000122D2075040A6E7024670B54A40D30FE9
:10052000DB0740002DD04A002AD0010E140E000235
:1005300012020919400A520A8418E501044654437C
:10054000000A120A2E045043A4194219200CC54374
:10055000AA18120C0125AD03521C521912047F393E
:10056000240400D0521C104301D44000491EC2B2E2
:100570000C06C0092018401C4008802A02D003E065
:10058000002070BD40084000002900DA0020184318
:1005900070BD70B502464A40D50F40004A00ED07D5
:1005A00040085208002814D0002A12D0C40DD30DE0
:1005B00041020120C0055202490A520AE41A0918F0
:1005C00012187D34914201D3641C00E04900002CD4
:1005D00001DA002070BD0023914201D3891A034340
:1005E000400849000028F7D100290AD0914202D1E1
:1005F0000121C90705E0914201D2012101E0012159
:10060000C943E005C018401900F016FB70BD00009A
:10061000F0B507460846584087B0C00F0490480020
:100620000E46590040084908BC1A884105D2384690
:1006300031461E4617460B460246580040081043F6
:100640004CD0300D039040055900400D490D0590E8
:10065000401A0290402872DA18030121000B0905A4
:100660000843019004980092002805D00199524255
:100670000020884100920190029840210A1A0199B5
:10068000009800F05DFA05460C466B4607CB00F07B
:1006900078FAC0197141039A0E0D0023D7175640FE
:1006A0001A467A40164344D0049A002A2DD0029A62
:1006B000012A039A15DC1205C01A9141012636055C
:1006C000001C7141D20F059ED20700930192029641
:1006D0002A46234600F0FEFA07B0F0BD3846314600
:1006E000FAE71605224A0F46B218C01AB74101218F
:1006F0000905001C4F4100187F4111461818794127
:10070000E20F10436D19644113E0E2076D081543D1
:100710006408C2071443039A01261205C01A9141C6
:100720003605001C7141CE07400830434908C01807
:1007300051412A46234600F0C0FACDE7FFE704986E
:1007400001224000C117121A00238B410498314640
:10075000C417381AA141EEE730B40124E40763401E
:1007600030BC55E730B40124E407614030BC4FE7AA
:100770000000E0FFF0B51FB488B00B990998002481
:1007800048400999C00F490049080991C0070B99D1
:100790000090490049080B9109990898A64608431A
:1007A0001CD00B990A98084318D0099801244000DE
:1007B000420D4800410D099824050003000B204319
:1007C00009900B980003000B20430B9050181C4914
:1007D0004018002201901446104605E00020014612
:1007E0000DB0F0BD032801DA034600E003239C4668
:1007F000C11A0AAE0AE05F0008ADED5B4F00F75B7F
:100800007D430027AA187C41491C5B1E6145F2DD2F
:10081000410004AB5A522104120C0A43240C401C20
:100820000828DFDB01980290009970460191009042
:10083000059B049A0799069800F04CFAD0E700004F
:100840000DFCFFFFF0B50C465C4085B0E40FE407FB
:1008500003944C0000266408590094464908024657
:100860000296224321D062460A431ED06200570DF1
:100870004A000E032303550D012402462C4924058A
:10088000781B1B0B360B4018234326436146009010
:100890001C46501AB44103D30098401C009002E05B
:1008A000921800985B41002803DA0020014605B049
:1008B000F0BD0020012109050746864611E0644687
:1008C0001D46141BB54106D36546521BB341744601
:1008D00007430C43A646CD07400849082843921811
:1008E0005B4105460D43EAD11046184313D06046DC
:1008F000194650407140084306D06046101AB34173
:1009000006D20122002306E000220123DB0702E0D9
:100910000122D2435310009874460105381C6141EE
:10092000029C039D0019694100F0C7F9BFE7000070
:10093000FD03000010B500229623114600F084F953
:1009400010BD00000EB5C217C10F5040CA074018B5
:100950000021054B0293019200910A460B4600F0DC
:10096000B9F903B000BD0000330400000EB505491D
:100970000291002100910A460B46019100F0AAF96C
:1009800003B000BD330400000EB5054A02920022F8
:1009900000921346019200F09DF903B000BD0000E3
:1009A00033040000410040020122400AD205090E32
:1009B00080187F2901DA00207047962903DC9622EF
:1009C000511AC840704796398840704770B5CD0FAE
:1009D0004A0009030123090B1B0519430B4BED07C3
:1009E0000024520D9A4201DA002070BD074B3433C7
:1009F0009A4203DC9A1A00F0B3F802E00449511855
:100A000088402C43F1D0404270BD0000FF0300003D
:100A1000CDFBFFFF4A0009030123090B1B05194306
:100A2000094B10B5520D9A4201DA002010BD064B59
:100A300034339A4203DC9A1A00F092F810BD03494D
:100A40005118884010BD0000FF030000CDFBFFFFE0
:100A50004A0009030123090B1B0519430A4B10B572
:100A6000520D9A4202DA0020014610BD064B343383
:100A70009A4203DC9A1A00F073F810BD034BD218A7
:100A800000F05EF810BD0000FF030000CDFBFFFF8B
:100A9000C20FD207400040080BD0C10D0723DB0175
:100AA000C91840020905400A1143C2084007114312
:100AB000704700200146704710B5002904DB01246F
:100AC000E40740428C412146002B04DB1C460123F5
:100AD000DB075242A3418B4200D1824210BD00008D
:100AE00010B5002904DB0124E40740428C41214673
:100AF000002B04DB1C460123DB075242A341994231
:100B000000D1904210BD0000CB0FDB07490010B5AB
:100B1000490802460A4307D00A0D07240903E401E5
:100B2000090B121B002A01DC002010BDC900440F74
:100B30000C43C100E018D205801800F07DF810BD0C
:100B400010B5202A04DB0146203A9140002010BD58
:100B5000914020239C1A0346E3401943904010BD66
:100B600010B5202A04DB0846203AD040002110BDF1
:100B70000B46D340D0402024A21A91400843194686
:100B800010BD10B5202A06DBCB170846203A1041CD
:100B9000C1170B4306E00B461341D0402024A21A94
:100BA00091400843194610BD3A2800D2303820231E
:100BB00002469A43412A01D310463738884201D36E
:100BC0000020C0437047000002681378511801608C
:100BD0001846704710B5D16004495161044911624B
:100BE00000211161114600F035F910BDC90B000854
:100BF000450E00084268002A08D001680B78491C9D
:100C0000002B03D0521E06C0184670470121C16058
:100C1000881E70474268002A0BD0C3680168002B09
:100C200007D183688B4204D0491E521C06C00020A5
:100C300070470020C0437047002904DA401C490077
:100C400001D140084000704770B40024050C05D164
:100C50001024000402D1002921D01124050E01D155
:100C600000020834050F01D10001241D850F01D1B8
:100C70008000A41C002801DB4000641C002908D06F
:100C800020252E1B0D46F540A14000D0012129430F
:100C9000084301061B1B000ADB1D02D5002070BCA7
:100CA0007047DB05181880180029F8DA401C490045
:100CB000F5D170BC40084000704710B5002B08DA31
:100CC0000024401C614192185B411A4301D1400845
:100CD000400010BDF0B51FB482B005460C0003D033
:100CE00008460DF085FB02E00DF082FB2030024645
:100CF000009021462846FFF723FF049B059A0446EF
:100D00000F4618431143084314D0184610431BD014
:100D1000009840210A1A18460599FFF721FF054659
:100D20000E46009A05990498FFF70AFF084305D07C
:100D3000012004E02046394607B0F0BD0020C1176D
:100D400005430E432C43374300990E986305401A20
:100D50007905E40A00220C43FD0A0A3002D500207E
:100D60000146E9E70105101969410C9C0D9D001928
:100D70006941FFF7A2FFDFE770B54B005B08034353
:100D80000BD04B005C0D002633466542B341D417AF
:100D9000AD1AA34102DB0020014670BD12053018D8
:100DA000514170BDF8B50546480040080C4628433F
:100DB00004D06000184A400D904201DD2846F8BD7D
:100DC00015493539884210DC88420BDB290D200398
:100DD00008432903014305D0E00F1049C00741181B
:100DE0000020F8BD00200146F8BD161A4020821BE5
:100DF00028462146FFF7A4FE0746009128462146D3
:100E00003246FFF7ADFE3A46009BFFF756FF3246EB
:100E1000FFF796FEF8BD0000330400000000F03F2D
:100E2000064C0125064E05E0E36807CC2B430C3C3D
:100E300098471034B442F7D3FFF746F9CC0C0108B9
:100E4000EC0C010810B50F21C0B2490200F0F0F916
:100E500010BD0000F3B58DB000200A9001200B906A
:100E6000002608460C300C46099062690121099859
:100E70009047051E2ED0252D2DD0216A88470028A9
:100E800018D06269012109989047216A8847002893
:100E9000F7D1411E62690998904700E0761CA1696C
:100EA0000D988847216A88470028F7D1E1690D9895
:100EB0008847DAE7A1690D9888470746A84201D11B
:100EC000761CD2E7E1690D9888477F1C02D10A9809
:100ED000002877D049E1002762693D4639460998E4
:100EE00090472A280CD16269012109989047012571
:100EF00006E00A214F433F18303FEBD41020054352
:100F00006269012109989047014630390A2903D2C4
:100F10009B498F42DEDCECE7E90600D4994F6C2850
:100F20000AD04C2810D0682824D06A282ED07428E3
:100F30000CD07A280AD00DE0626901210998904707
:100F40006C2823D004211CE0202005436269012184
:100F500009989047A760656065284FD026DC58281F
:100F600039D01ADC452849D012DC252834D0412854
:100F7000B0D143E06269012109989047682802D006
:100F800008210D43E6E70120C002DEE70220DCE78E
:100F9000462833D047282CD130E05B2870D0612818
:100FA0002CD063286CD0642823D161E06F284FD007
:100FB00009DC662822D0672820D0692826D06E2830
:100FC00017D12EE0CDE070284DD073286FD0752852
:100FD0004ED078280DD154E0A1690D988847054678
:100FE000252800D16CE7E1690D9888476D1C00D178
:100FF0006DE7BAE00A224CE00A2252E001202346C3
:101000006A46C0430D99C046C046A3E02846402129
:1010100008436060A807234601D5002239E000227A
:101020003FE0E80700D020E72068011D216000684C
:10103000290501D5067018E7290701D5068014E7B0
:10104000A90703D5F117066041600EE706600CE7BB
:101050002846402108436060A807234601D508229E
:1010600017E008221DE0484928460840606016E065
:101070002846402108436060A8072346BCD5B9E74D
:1010800015E02846402108436060A80707D523469D
:1010900010220120C0430D99C046C0465AE02346A5
:1010A00010220120C0430D99FFF738F952E00021CA
:1010B0000C910B460091632802D05B2807D043E0D7
:1010C000E80601D40120A060012000903CE06269A4
:1010D0000121099890475E2805D101200C90014616
:1010E0006269099890472169002906D10B4601AA37
:1010F0008F00491CD3510829FADB002835D021691B
:1011000000290ED1C117C90E09184A11930001AA6E
:101110009A1849094901411A01201368884003437C
:10112000136062690121099890475D28E5D10C9808
:10113000002808D0002001AB81005A58401CD2433F
:101140005A500828F8DB01AB01202246C0430D9914
:10115000C046C04600280ADA401C06D10B98002879
:1011600003D00020C0430FB0F0BD0A98FBE7E907A9
:1011700002D10A99491C0A91361800200B9074E696
:10118000CCCCCC0CFFFFFF7FF1F7FFFFFEB50023B7
:101190001A461B1A8A4103DB0020014603B0F0BD4A
:1011A0004A000D0301212D0B0905520D0D43D107F6
:1011B00002D100186D41521E5110FF31FF31013133
:1011C000002704463E463846009701910246012119
:1011D00000200905FFF7C4FCC3197141F818324615
:1011E00084468E464A4161462846611A904104D39E
:1011F0006046241A954176461F46241900986D4191
:10120000401C00903428E1DDF91930467041091B7B
:10121000A84103D20022D243134601E00022134624
:1012200001980105381C7141FFF747FDB6E7000042
:101230007F2801D9002207E0054B42089A5CC007CD
:1012400000D112091207120F012090400840704788
:10125000C00B010870B58C180578401C6B075B0F3C
:1012600001D10378401C2A1106D10278401C03E00A
:1012700006780E70401C491C5B1EF9D12B0705D463
:101280000023521E0DD40B70491CFAE70378401C52
:10129000CB1A921C03E01D780D70491C5B1C521E7A
:1012A000F9D5A142D8D3002070BD70B50446002501
:1012B00020688068042108408008002829D0206820
:1012C0008068084000280BD0206880680221084010
:1012D000002805D1206880681021084321688860B3
:1012E00001F02AFE05460EE001F026FE401B0A280A
:1012F00009D9A06D10210843A065E06D01210843C4
:10130000E065012070BD2068806804210840002845
:10131000EAD10020F6E7000038B50446074908483E
:101320000068FEF7E5FE6043009002E00098401E72
:10133000009000980028F9D138BD000040420F000D
:101340000000002070B504460025206880688007F2
:10135000800F012807D120680068C007C00F00284F
:1013600001D0012000E00020002837D020688068EC
:1013700005210840012800D100E0002000280AD003
:1013800000BF20688068022108432168886003202C
:101390002168086009E0A06D10210843A065E06D98
:1013A00001210843E065012070BD01F0C5FD05463F
:1013B0000EE001F0C1FD401B0A2809D9A06D1021E3
:1013C0000843A065E06D01210843E0650120EBE7DB
:1013D00020688068C007C00F0028EAD10020E3E73A
:1013E00070B504460025206880688007800F0128BA
:1013F00007D120680068C007C00F002801D0012075
:1014000000E00020002839D1206880681C4908408D
:10141000002801D1012000E00020002809D1A06DA2
:1014200010210843A065E06D01210843E06501201B
:1014300070BD206880680121084321688860012010
:10144000FFF76AFF01F078FD05460EE001F074FD3C
:10145000401B0A2809D9A06D10210843A065E06D42
:1014600001210843E0650120E2E720680068C00729
:10147000C00F0121484048400028E7D00020D7E7AE
:101480001700008030B589B005460C4610220021B7
:1014900005A80DF0D9FF2246243205A905A80DF0B4
:1014A000EFFC6846007D8021084000281CD000BF6A
:1014B00000200AE005A9095C490005AB421C9A5CC2
:1014C000D211114305AA1154401C0F28F2DB08A9C0
:1014D000C97849060A0E08A9CA7000BFC8788721D2
:1014E000484008A9C87016E000BF00200AE005A91E
:1014F000095C490005AB421C9A5CD211114305AA54
:101500001154401C0F28F2DB08A9C97849060A0EBD
:1015100008A9CA7000BF206A10280FD100BF0020A0
:1015200009E021461031095C05AA125C51402246AF
:1015300010321154401C1028F3DB59E06846007D3E
:101540008021084000281CD000BF00200AE005A927
:10155000095C490005AB421C9A5CD211114305AAF3
:101560001154401C0F28F2DB08A9C97849060A0E5D
:1015700008A9CA7000BFC8788721484008A9C87068
:1015800016E000BF00200AE005A9095C490005AB90
:10159000421C9A5CD211114305AA1154401C0F2819
:1015A000F2DB08A9C97849060A0E08A9CA7000BF6B
:1015B000802120461030226A815404E00021204618
:1015C0001030226A8154206A401C20621028F5D312
:1015D00000BF002009E021461031095C05AA125C19
:1015E0005140224610321154401C1028F3DB00BF3A
:1015F00000BF002006E0215C22461032125C514000
:101600002154401C1028F6DB00BF1022214601A8FF
:101610000DF000FF22462432294601A80DF030FCCF
:101620001022002105A80DF00FFF09B030BD10B544
:1016300004461022002120460DF006FF0020206203
:10164000F0220021204624300DF0FEFE10BD70B5C2
:1016500005460C462A462432102120460DF03EFC59
:1016600070BDF0B585B004460F461546206A0028C7
:1016700030D01021206A081AA84202D2206A081A23
:1016800000E028460646B2B223461033216AC81845
:1016900039460DF0BFFE206A80192062206A1028AA
:1016A00001D3B54201D105B0F0BD00BF002006E076
:1016B000215C22461032125C51402154401C1028FB
:1016C000F6DB00BF22462432214620460DF0D8FB2F
:1016D000BF19AD1B1CE000BF002004E0215C3A5C98
:1016E00051402154401C1028F8DB00BF1022214635
:1016F00068460DF08FFE22462432694668460DF09A
:10170000BFFB1022694620460DF084FE1037103DC5
:10171000102DE0D8AAB23946204610300DF07AFEDE
:10172000256200BFBFE70000FEB504460D46002657
:1017300000200090019401200003029001A91B48A1
:1017400000F044FE002801D000F098FB002117486B
:1017500000F0D0FD002717E0144801F08FF8642155
:10176000124801F017F800BF104800F0D3FE012125
:10177000490208400028F7D00C4800F0CEFE009047
:1017800000983618781CC7B2AF42E5DB074801F075
:10179000B1F801940648029001A9044800F016FE31
:1017A00029463046FEF7A4FCFEBD0000A00800203C
:1017B0000110000070B504460125A01E03000CF0C6
:1017C00046FE07051328364B677C8A004748007899
:1017D0000F2808DA454803780078401C434E3070E3
:1017E0004348C454002578E0404800780E280FDABA
:1017F0003E4803780078401C3C4E30703C48C4544E
:10180000304603780078401C30703948C1540025B8
:1018100063E0364800780F2808DA34480378007807
:10182000401C324E30703248C454002555E02F48D9
:1018300000780E280FDA2D4803780078401C2B4ED4
:1018400030702B48C454304603780078401C307008
:101850002748C154002540E0244800780D2816DAB6
:10186000224803780078401C204E30702048C45431
:10187000304603780078401C30701D48C154304613
:1018800003780078401C30701948C254002524E0C9
:10189000164800780E280FDA144803780078401CA8
:1018A000124E30701248C454304603780078401C01
:1018B00030700F48C15400250FE00C4800780F2805
:1018C00008DA0A4803780078401C084E307008484F
:1018D000C454002501E0022070BD00BF002D02D1DC
:1018E0000120044B18702846F6E70000770000201E
:1018F000AD0E00207600002070B503460C46002097
:10190000154D2956012B25D1002903D10025134E51
:1019100035601FE0114D2D68402D01D3012000E0FE
:1019200000200E4D2D68602D14D30C4D2D78203DD8
:10193000AD06AD0E002D0DD1002901DD4D1E69B2A1
:10194000002907D1012C05D1054D2D8807263543E7
:10195000034E3580117070BDDA0000207000002049
:10196000BC0E002000B587B0274800684008400042
:101970002549086008460068012109068843224974
:1019800008600846806B090488431F49886300BFCC
:101990000846C06A012108431B49C8620846C06A5C
:1019A000C007C00F019000BF00BF00BF0846C06A5B
:1019B000022108431449C8620846C06A022108404F
:1019C000019000BF00BF002110484172603803F051
:1019D000E1FF0F48029003200390002004900220B2
:1019E000059002A90520000701F096F90948029028
:1019F00003200390002004900220059002A90648CD
:101A000001F08AF907B000BD001002402C0300204D
:101A10000818000018E000000004005010B5002471
:101A200000F0E6F80446204610BD000008B53C482A
:101A30000078002872D101F051FD3A48406B012135
:101A40000843384948630846806B09040843354910
:101A500088630BF049FD00BF3248C06A802108430B
:101A60003049C8620846C06A80210840009000BF23
:101A700000BF00BF2B48C06A022108432949C86241
:101A80000846C06A02210840009000BF00BF00BFA6
:101A90002448C06A012108432249C8620846C06A36
:101AA000C007C00F009000BF00BF00BF0846C06A5B
:101AB000042108431B49C8620846C06A0421084043
:101AC000009000BF00BF05F0E9FD05F0B9FD05F08D
:101AD00087FD04F097FB08F02FF900220221084649
:101AE00001F058FD022001F049FD09F0DFF908F08E
:101AF0009BFE08F067FE04F083FC04F0ABFC0BF0E7
:101B00000FFC00F0CFF900F0C3F90EF0B7FB00F0C6
:101B100021F90CF03BFB01200149087008BD0000D1
:101B2000340000200010024010B5002201214902BB
:101B3000024801F0FAF9012010BD00000004005035
:101B40003EB504460D460A2C01DD00203EBD7D2039
:101B5000C00001210B462246009501910290D72139
:101B6000054801F0C9FA002804D004A00CF030FCAC
:101B70000020EBE72878E9E70009002048414C5FA6
:101B80004932435F4D656D5F5265616420657272D5
:101B90006F720D0A000000003EB504460D460A2C87
:101BA00001DD00203EBD7D20C00001210B46224604
:101BB000009501910290D621054801F07FFB002895
:101BC00004D004A00CF004FC0020EBE70120E9E7BE
:101BD0000009002048414C5F4932435F4D656D5F0D
:101BE0005772697465206572726F720D0A00000089
:101BF000F0B58BB000200A900A213248FFF794FD1F
:101C0000694608853049098B4A008A186946098D5A
:101C10004A431046FEF78EFE09900A212B48FFF733
:101C200083FD80B269464885498D0A03501AFEF744
:101C300081FE089008990998FEF7ABFC07462449F5
:101C4000FEF76AFC06462349FEF75EFC054622497C
:101C5000FEF79FFC0446FEF71BFF079106900899CC
:101C60000998FEF796FC05461949FEF755FC04460F
:101C7000FEF70EFF059104900799069803910290D4
:101C800005990498019100906846038D428D0E4895
:101C9000018B12A00CF09CFB08990998FEF779FCC7
:101CA00007460B49FEF738FC06460A49FEF72CFCAE
:101CB00005460949FEF76DFC0446FEF773FEC0B207
:101CC0000BB0F0BD020000046000F81F00000244E9
:101CD0000000FA44000061450000C0404241542029
:101CE0003D202564206164633137203D2025642038
:101CF00061646331203D2025642C205642415420EC
:101D00003D20252E32666D56206265203D20252E11
:101D100032666D560D0A0000F0B504460026002715
:101D2000002512E02046E117090F091809110901E1
:101D3000661A39467F1C102007F0E3FA70434519F4
:101D40002046E117090F09180C11002CEAD128468A
:101D5000F0BD000000B587B000BF0D48C06A01218A
:101D600008430B49C8620846C06AC007C00F01900B
:101D700000BF00BF8815029001200390049003204B
:101D8000059002A90520000700F0C6FF07B000BDBE
:101D90000010024010B50022FF210131052000078C
:101DA00001F0C3F810BD10B5012211020520000793
:101DB00001F0BBF810BD10B50446204608F096F9B6
:101DC00010BD30B5024600231046D417240F241846
:101DD0002405230E042B01DC082A01DB002030BD82
:101DE0001046D417240F241824112401151B012494
:101DF000AC405D004D5BA5435C000D530120EEE758
:101E000010B5012000F078FF022000F075FF10BD32
:101E100010B5042000F070FF082000F06DFF10BD29
:101E200010B5102000F068FF202000F065FF402072
:101E300000F062FF802000F05FFFFF20013000F023
:101E40005BFF0120400200F057FF0120800200F0FC
:101E500053FF0120C00200F04FFF0120000300F0FB
:101E60004BFF0120400300F047FF0120800300F0FA
:101E700043FF0120C00300F03FFF10BD10B502A0DA
:101E80000CF0A6FA10BD00006572726F720D0A00A8
:101E900010B500222021024801F047F810BD0000D3
:101EA0000004005000B587B000BF1248C06A02218C
:101EB00008431049C8620846C06A022108400190E0
:101EC00000BF00BF20200290012003900490032057
:101ED000059002A9084800F01FFF05F007FC00224A
:101EE00002210E2001F056FB0E2001F047FB07B047
:101EF00000BD000000100240000400500246002116
:101F00000FE0C800094B1858904208D8481CC00080
:101F10001858904203D9C800C01800797047481C6F
:101F2000C1B21529EDD300BFFEE70000F40501089A
:101F3000F0B58FB09D48C078002874D09B480078D9
:101F40000028FAD000F0F8FF984908640020C87013
:101F5000891D974805F0DAFC95488630FEF7ACF904
:101F60000746FEF703FD05460022924BFEF76AFC8A
:101F7000099108908E488130FEF79EF90746FEF7DA
:101F8000F5FC054600228B4BFEF75CFC07910690A2
:101F900087488030807A04900999089803910290CC
:101FA000834880304079009083A0079B069A0CF00C
:101FB0000FFA00F0C1FF7D49496C451A294685A0FA
:101FC0000CF006FA4A21884802881B308154784870
:101FD0008130FEF771F90A907548803040790B9096
:101FE00073488630FEF768F90C9071488030807A2B
:101FF0000D90002401207C49088049E02046E10F33
:10200000091849104900611A01290DD1A0000AA937
:10201000095C754802880088401C734B188018467C
:102020001B30815432E03BE0A0000AA90858000EA2
:102030006D490A880988491C6B4B198019461B3168
:102040008854A0000AA908580002010E1846028808
:102050000088401C188018461B308154A0000AA933
:10206000085A0004010E184602880088401C188097
:1020700018461B308154A0000AA9095C1846028842
:102080000088401C188018461B308154601CC4B264
:10209000554800880A28B1DD01204449487162E0B2
:1020A00000F04AFF4149496C401A504988422CD9F6
:1020B0003E480078002828D03C48C078002824D129
:1020C00000F03AFF3949496C441A214648A00CF007
:1020D0007FF9FFF7DDFE002034490870042249A192
:1020E00041481B30FEF79BF804203F4908802F48E9
:1020F000801DFEF7CCF8044621462C48801DFEF7D3
:10210000A7F80120294948712DE0284800790028C6
:1021100029D126480078002825D1FFF7B9FE00F024
:102120000BFF2249496C441A214638A00CF050F9A3
:1021300004223BA12C481B30FEF771F804202A49E9
:1021400008800846018838A00CF042F91748801D25
:10215000FEF79DF8044621461448801DFEF778F8E6
:102160000120124948711148407900281BD00020F5
:102170000E49487101203349087000BF1A491B31CC
:1021800001200BF0A7FF304880780028F6D072B607
:1021900000202D49887062B601200449087100F0C2
:1021A000CBFE294948600FB0F0BD00005C0700205D
:1021B0004C090020006AF84032322D2D2D252E3595
:1021C00066202531632C20252E3566202531630DB0
:1021D0000A0000004750535F54494D453131203AC1
:1021E0002025640D0A000000C801002030750000A1
:1021F0004750535F54494D453232203A2025640DF3
:102200000A0000004641494C000000004750535F5F
:1022100054494D453333203A2025640D0A0000000F
:102220004E554C4C0000000052465F53656E645F93
:10223000446174612E52585F4C454E203D20256408
:102240000D0A00000E020020B8010020F0B587B092
:1022500006460C4600200590069003900490002549
:10226000205E07460290012010E04100615EB94205
:1022700002DD4100675E07E04100625E02998A422A
:1022800002DA4100615E0291411C48B2B042ECDBCF
:1022900000200FE04100615EB94209D105AA505506
:1022A00005A94A5D0C49895C03AA5155691C4DB2C8
:1022B000411C48B2B042EDDB691E00200DF024FF46
:1022C000C0B2019003A90198085C0449087008464F
:1022D000007807B0F0BD000042020020F9000020A5
:1022E00070B504460D46164632462946204600F093
:1022F0001CFE70BDF8B5044600250026002700BF6F
:102300005420005D012801D10220F8BD0121542094
:10231000015500BF206880688007800F012806D122
:10232000206800680840002801D0012000E000205B
:1023300000283FD1A06DFF210131884302210843CD
:10234000A0652068C0688707BF0F2068C068800844
:1023500080002168C860206880680121C90708439F
:102360002168886000F0E8FD064611E000F0E4FD19
:10237000801B0A280CD9A06D022188431021084334
:10238000A06500BF00215420015500BF0120BCE71B
:1023900020688068C00FC0070028E7D12068C068A7
:1023A00038432168C860A06D022188430121084399
:1023B000A06504E0A06D20210843A065012500BFB1
:1023C00000215420015500BF28469EE770B5044601
:1023D0000D4600BF5420005D012801D1022070BDD0
:1023E00001215420015500BF206880680421084065
:1023F000800800280AD0A06D20210843A06500BFF6
:1024000000215420015500BF0120E8E73C496868DD
:10241000884238D02068806A29684903490B0843FC
:102420002168886228684003400B36490840012132
:102430008904884208D134488068490108433249F8
:1024400088600A20FEF768FF28684003400B2F4988
:10245000084001214904884205D12B488068490180
:1024600008432949886028684003400B28490840F0
:102470000121090488423BD12348806809020843AE
:102480002149886034E02068806A29684903490B43
:1024900088432168886228684003400B1949084036
:1024A00001218904884205D1174880684901884381
:1024B0001549886028684003400B144908400121F1
:1024C0004904884205D110488068490188430E4973
:1024D000886028684003400B0D4908400121090429
:1024E000884205D108488068090288430649886007
:1024F00000BF00215420015500BF00206FE70000FD
:1025000001100000000004480027014000000244C0
:10251000000001400146886D704701460868006C64
:102520007047000010B50446002C01D1012010BDF9
:10253000A06D002806D1E0650021542001552046F9
:1025400000F00AF9A06D10210840002806D120688B
:10255000806804210840800800280AD0A06D10215E
:102560000843A06500BF00215420015500BF012091
:10257000DDE7A06DFF210131884302210843A065FA
:10258000206880688007800F012807D120680068D4
:10259000C007C00F002801D0012000E00020002863
:1025A0003AD100BF032189076068884207D04942B9
:1025B0006068884203D04900606888420CD1206876
:1025C00000698000800821680861206800696168EE
:1025D00008432168086112E02068006980008008D3
:1025E000216808615A4880680F2189048843584946
:1025F000886008468068616808435549886000BF64
:102600002068C068182188432168C8602068C068B5
:10261000A16808432168C8604D48806801214906C7
:1026200088434B49886008468068218F49060843E3
:102630004749886020688068012109070840002810
:1026400004D1206880680843216888602068C068D9
:10265000404908402168C8602169E068022901D129
:10266000042100E000210843216A49030843216B4B
:1026700049000843616B0843A16989030843E16984
:10268000C90308432168C96808432168C860FF215D
:10269000C231A06A884207D0E16AA06A0843216873
:1026A000C96808432168C860606A012812D1206A9D
:1026B000002807D12068C068012109040843216867
:1026C000C86007E0A06D20210843A065E06D0121EE
:1026D0000843E065206C012817D120680069FF21BC
:1026E0008900884321680861616CA06C0843E16C33
:1026F0000843216809690843216808612068006966
:1027000001210843216808610BE020680069C007C7
:10271000C00F002805D020680069400840002168EB
:10272000086120684069C008C000216848612068CD
:102730004069E16B0843216848610020E065A06DB5
:102740000221884301210843A0650020EFE6000034
:10275000002701401902FEFF10B586B004460B4960
:102760002068884210D10A48406B4915084308493F
:10277000486305200190032002900020039001A9E6
:102780000520000700F0C8FA06B010BD0024014083
:1027900000100240F8B504460D4600260027606987
:1027A000082801D1082711E02068C068C007C00FC1
:1027B00000280AD0A06D20210843A06500BF002199
:1027C0005420015500BF0120F8BD0C2700F0B4FBD8
:1027D000064614E0681C002811D0002D04D000F03B
:1027E000ABFB801BA8420AD9A06D04210843A06559
:1027F00000BF00215420015500BF0320E4E72068FA
:10280000006838400028E5D0A06D01214902084346
:10281000A0652068C068032189020840002825D1EE
:10282000206A002822D12068006808210840082872
:102830001CD12068806804210840800800280DD140
:10284000206840680C21884321684860A06DFF2102
:102850000131884301210843A06507E0A06D2021D4
:102860000843A065E06D01210843E065A0690028E8
:1028700002D10C20216808600020A5E770B504464D
:1028800000252068806804210840800800282BD19A
:1028900000BF5420005D012801D1022070BD01213C
:1028A0005420015500BFE069012803D02046FEF7FF
:1028B00097FD0546002D18D1A06D0D490840FF2158
:1028C00001310843A0650020E06500BF00215420CD
:1028D000015500BF1C202168086020688068042121
:1028E00008432168886000E002252846D6E70000FA
:1028F000FEF1FFFF70B50446002500BF5420005DC7
:10290000012801D1022070BD01215420015500BFD2
:102910002046FEF7CAFC0546002D0CD12046FEF7E6
:1029200011FD0546002D06D1A06DFF210131884320
:1029300001210843A06500BF00215420015500BFBC
:102940002846E0E770B5044600252520005D0228F2
:1029500003D00420E063012549E0206800680E21CF
:1029600088432168086020680068400840002168AA
:10297000086020492068884201D1012026E01D49D5
:1029800014312068884201D110201FE019492831F4
:102990002068884201D1801518E016493C31206832
:1029A000884201D1801411E01249503120688842D8
:1029B00002D10120000409E00E49643120688842F8
:1029C00002D10120000501E0012000060949083973
:1029D000486001212520015500BF00212420015518
:1029E00000BFA06B002802D02046A16B8847284674
:1029F00070BD00000800024031B5002400F09CFAD0
:102A0000044600BF00F098FA001B00998842F9D3F1
:102A100038BD0000F0B50B4600210022002479E00B
:102A200001258D401D402A46002A72D005684F00BE
:102A30000326BE4035430560CD08AE00054620356F
:102A4000AD594E07F70E0F26BE40B543CE08B6006F
:102A500007462037BD5185684F000326BE40B54369
:102A60008560456801268E40B5434560C5684F00C6
:102A70000326BE40B543C560294D8E08B600AC594B
:102A80008D072E0F0F25B5402C4005252D07A84298
:102A900001D1002519E0234DA84201D1012514E000
:102AA000214DA84201D102250FE0204DA84201D1BD
:102AB00003250AE01E4DA84201D1042505E01D4D65
:102AC000A84201D1052500E006258E07360FB54046
:102AD000A5421ED18D072E0F0F25B5402C46104D57
:102AE0008E08B600AD59A5430D4E8F08BF00F551B5
:102AF000114D2D689543104E356035466D689543F0
:102B000075603546AD689543B5603546ED689543CB
:102B1000F560491C1D46CD40002D81D1F0BD00005F
:102B2000080001400004005000080050000C005054
:102B300000100050001C00500004014010B5044675
:102B4000802C50D008DC012C13D0022C17D0042C80
:102B500018D0402C74D11FE0E01FF938002817D09E
:102B600003210902401A65D007218902401A7DD14C
:102B700067E040484068401C3E49486077E008F004
:102B8000BDF974E008F0A2FB3BA00BF021FC6EE065
:102B90003EA00BF01DFC6AE04021414800F0B8F96E
:102BA00001281FD114200CF0D7FA40213C4800F036
:102BB000AFF9012816D13BA00BF00AFC00BF402161
:102BC000374800F0A5F90128F9D00DF057FBFFF7C1
:102BD000EAF80DF02DFB3648C068401C3449C86047
:102BE0000720C87043E080212D4800F091F90128AA
:102BF0001FD114200CF0B0FA8021294800F088F988
:102C0000012816D100BF8021254800F081F9012854
:102C1000F9D028A00BF0DCFB0DF030FBFFF7C3F878
:102C20000DF07CFB22488068401C2149886006200A
:102C3000C8701CE008F004FC21A00BF0C9FB16E0F2
:102C400014E00120400384420FD122A00BF0C0FB0E
:102C50000AF090FA002805D022A00BF0B9FB0AF088
:102C6000CDFA02E021A00BF0B3FB00E000BF00BFF3
:102C700010BD00002C0000205358313237364F6E03
:102C800044696F314972710D0A0000004348415296
:102C9000474520494E5445525255500D0A000000F8
:102CA000000400504B45595F425F494F0D0A000038
:102CB000B80100204B45595F415F494F0D0A0000A4
:102CC0005358313237364F6E44696F324972710D45
:102CD0000A0000000A20455854493133D6D0B6CFF7
:102CE000200A0000B9D8BBFA200D0A00D2E2CDE2DA
:102CF000D6D0B6CF0D0A000010B50446054840698D
:102D00002040002804D0034844612046FFF716FF06
:102D100010BD00000004014070B5034600220024ED
:102D20000020DFE0012696400D6835402C46002C3F
:102D300077D04D68022D02D04D68122D15D1D508DF
:102D4000AE001D462035A8595507EE0E0F25B5409B
:102D50000646AE4330465607F60E0D69B540284389
:102D6000D508AD001E46203670514D68012D08D0A3
:102D70004D68022D05D04D68112D02D04D68122DE1
:102D800018D1986856000325B5400646AE43304634
:102D90005600CD68B5402843986058680125954095
:102DA0000646AE43304610264D6835402D09954005
:102DB00028435860186856000325B5400646AE43C0
:102DC00030460D79AD07AD0F5600B5402843186069
:102DD000D86856000325B5400646AE433046560037
:102DE0008D68B5402843D860012636074D683540C8
:102DF000B54276D13E4D6D6B012635433C4E756331
:102E00003C4D9608B600A85995072E0F0F25B540E2
:102E10000646AE43304605252D07AB4202D10025BC
:102E20001AE05EE0344DAB4201D1012514E0334D90
:102E3000AB4201D102250FE0314DAB4201D1032558
:102E40000AE0304DAB4201D1042505E02E4DAB42E6
:102E500001D1052500E006259607360FB540284329
:102E6000244D9608B600A851284D28680546A5436C
:102E70002846012636044D683540B54202D1054644
:102E800025432846214D286068680546A543284605
:102E9000012676044D683540B54202D105462543EA
:102EA00028461A4D6860A8680546A54328460126AD
:102EB00036054D683540B54202D1054625432846C2
:102EC000124DA860E8680546A54328460126760508
:102ED0004D683540B54202D10546254328460B4D85
:102EE000E860521C0D68D540002D00D01AE770BD77
:102EF000001002400800014000040050000800508B
:102F0000000C005000100050001C00500004014054
:102F1000024613690B40002B01D0012000E0002085
:102F2000704742694A4042617047002A01D081617E
:102F300000E08162704700000148006870470000AF
:102F40000400002002464120805C20282FD100BFD1
:102F50004020805C012801D10220704701234020DD
:102F6000835400BF24234120835410680068400824
:102F70004000136818601068006801231B03984321
:102F800013681860106800680843136818601068B8
:102F900000680123184313681860202341208354DC
:102FA00000BF00234020835400BF0020D5E702204B
:102FB000D3E710B502460B4600214120805C202853
:102FC0002ED100BF4020805C012801D1022010BD1D
:102FD00001244020845400BF2424412084541068DC
:102FE00000684008400014682060106801680F24E1
:102FF00024020846A04301461802014310680160FC
:1030000010680068012420431468206020244120B7
:10301000845400BF00244020845400BF0020D6E721
:103020000220D4E710B50446002C01D1012010BDC8
:103030004120005D002805D1002140200155204697
:1030400000F01EFA24214120015520680068400844
:103050004000216808600F210906606888432168E4
:103060000861206880680121C9038843216888605D
:10307000E068012806D10121C903A068084321683E
:10308000886005E021218902A068084321688860E2
:10309000E068022802D18002216848602068406808
:1030A00014490843216848602068C0680121C903A9
:1030B00088432168C860616920690843A1690902E1
:1030C00008432168C860216AE069084321680860F4
:1030D00020680068012108432168086000206064BE
:1030E000202141200155002020630021422001556C
:1030F00000209CE700800002FFB583B004460C9FCF
:103100000E9E00254120005D202871D1002F02D0A5
:103110000D98002802D1012007B0F0BD00BF40206B
:10312000005D012801D10220F6E701214020015570
:1031300000BFFFF701FF054619230122D1032046F6
:10314000009502F089FF002801D00320E4E7222146
:1031500041200155402142200155002060646762F2
:103160000D9860850020606300960195204604A9B3
:103170000EC902F0C7FE002810D0606C042806D1EA
:1031800000BF00214020015500BF0120C4E700BF5F
:1031900000214020015500BF0320BDE7608DFF28BE
:1031A0000DD9FF202085092080020090208DC2B219
:1031B00001231B062046049902F036FF0CE0608DC7
:1031C0002085092080020090208DC2B201235B0679
:1031D0002046049902F028FF00BF33460022042154
:1031E0002046009502F038FF002802D0032093E724
:1031F0005FE02068406AC1B2626A501C6062117070
:10320000208D401E2085608D401E6085208D002809
:1032100029D1608D002826D0334600228021204607
:10322000009502F019FF002801D0032074E7608D9B
:10323000FF280CD9FF20208500200090208DC2B2ED
:1032400001231B062046049902F0EEFE0BE0608D80
:10325000208500200090208DC2B201235B0620460D
:10326000049902F0E1FE608D0028B6D12A4631466D
:10327000204602F01AFF002806D0606C042801D115
:10328000012049E7032047E720202168C861206822
:1032900040680949084021684860202141200155C3
:1032A00000214220015500BF4020015500BF0020F1
:1032B00032E7022030E7000000E800FEFFB583B0EF
:1032C00004460C9F0E9E00254120005D202870D1F1
:1032D000002F02D00D98002802D1012007B0F0BDC8
:1032E00000BF4020005D012801D10220F6E7012146
:1032F0004020015500BFFFF71FFE0546192301229C
:10330000D1032046009502F0A7FE002801D003203B
:10331000E4E72121412001554021422001550020B0
:10332000606467620D986085002060630096019577
:10333000204604A90EC902F02EFE002810D0606CB1
:10334000042806D100BF00214020015500BF012004
:10335000C4E700BF00214020015500BF0320BDE7A6
:10336000608DFF280CD9FF20208500200090208D43
:10337000C2B201231B062046049902F055FE0BE061
:10338000608D208500200090208DC2B201235B0655
:103390002046049902F048FE00BF2A4631462046E6
:1033A00002F0B0FE002807D0606C042802D1012092
:1033B00094E760E0032091E7616A481C6062087846
:1033C00021688862608D401E6085208D401E2085AA
:1033D000208D002829D1608D002826D03346002278
:1033E00080212046009502F037FE002801D00320FE
:1033F00074E7608DFF280CD9FF2020850020009005
:10340000208DC2B201231B062046049902F00CFE57
:103410000BE0608D208500200090208DC2B201233A
:103420005B062046049902F0FFFD608D0028B4D1B0
:103430002A463146204602F038FE002806D0606C4D
:10344000042801D1012049E7032047E72020216813
:10345000C861206840680949084021684860202107
:103460004120015500214220015500BF4020015557
:1034700000BF002032E7022030E7000000E800FE35
:1034800010B586B004460E492068884215D1032045
:103490004003019012200290012003900320049029
:1034A0000520059001A90748FFF736FC0648806B08
:1034B0000121890508430449886306B010BD000056
:1034C000005800400004005000100240024800680C
:1034D000401C0149086070470400002010B50648F0
:1034E00000684021084304490860002000F006F805
:1034F00000F018F8002010BD0020024070B504460E
:103500007D21C90006480068FCF7F2FD054602F07F
:10351000F3F800222146501E00F03CF8002070BD58
:103520000000002010B50E48406B012108430C49F3
:1035300048630846806B09040843094988630022F0
:103540001146501F00F026F800221146901E00F090
:1035500021F800221146501E00F01CF810BD00009A
:103560000010024000BFC206D20E01219140024A63
:10357000116000BF7047000080E100E000BFC2069C
:10358000D20E01219140024A116000BF7047000035
:1035900000E100E070B504460D4616462946204677
:1035A00004F04EFB70BD0000034800680121890251
:1035B0008843014908607047007000400348006874
:1035C000012149020843014908607047007000402A
:1035D00003480068102188430149086070470000D3
:1035E00000700040024949688143014A51607047B8
:1035F0000070004003480068FF2101310843014981
:103600000860704700700040024949680143014A60
:10361000516070470070004007480068022108436D
:103620000549086005480069042108430349086109
:1036300000BF00BF30BF70470070004000ED00E0E9
:1036400010B5024600200E4B186880088000034623
:10365000134318460A4B18600A4B1B690424234382
:10366000084C2361012901D130BF02E040BF20BFD7
:1036700020BF044B1B690424A343024C236110BDEB
:103680000070004000ED00E0F0B585B00546002672
:103690000020039002900024002701900090102D3C
:1036A0007ED008DC012D7CD0022D7BD0042D7AD079
:1036B000082D79D13BE1202D0AD0402D51D0E81FB3
:1036C000F938002871D007210902401AF1D100E031
:1036D00000BFC64806690069032109040840044682
:1036E00001200004844206D1C0113040002802D0DD
:1036F0006010029034E001204004844206D1022090
:103700003040002802D0BA48029029E0032000048B
:10371000844223D1B548403800680121490408405B
:1037200000281BD0B14840380068210108400390B0
:10373000012109050398401A09D0401A04D0401A03
:1037400008D1AC48029008E0AB48029005E0AB48D5
:10375000029002E0AA48029000BF01E0002002901F
:103760003FE1A248C0680121890608400446002CB8
:1037700042D19E48403800684910084000283BD09C
:103780009A484038C0680F21890408400746974886
:103790004038C0680321890508400190B80C05E055
:1037A000EAE03AE064E08FE01AE1F4E095490F5C6A
:1037B0000198800D401C01908C484038C068012160
:1037C0000904084000280CD18848403800681021BE
:1037D0000840002802D08A48009004E08A480090FF
:1037E00001E08A4800900098784300900199009881
:1037F000FCF77EFC02900FE001208006844209D194
:103800007A484038806802210840002802D0804869
:10381000029001E000200290E3E07448C068840751
:10382000A40F002C03D100F05FFB02901FE0022CDC
:1038300009D16E484038006804210840002802D0B1
:103840007148029013E0012C03D100F05FFB02905D
:103850000DE0032C09D165480069012149020840A7
:10386000002802D08801029001E000200290B8E018
:103870005E48C0680C2108400446002C03D100F0CB
:1038800021FB02901FE0082C09D1584840380068FD
:1038900004210840002802D05B48029013E0042C69
:1038A00003D100F033FB02900DE00C2C09D14F48FE
:1038B0000069012149020840002802D088010290D5
:1038C00001E0002002908CE04848C0680321890292
:1038D00008400446002C03D100F0F4FA029025E0E1
:1038E0000120C002844209D14048403800680421C8
:1038F0000840002802D04448029017E001208002CE
:10390000844203D100F002FB02900FE0032080020A
:10391000844209D135480069012149020840002844
:1039200002D08801029001E00020029059E02F4867
:10393000C0680321090308400446002C03D100F0AD
:10394000C1FA029017E001204003844209D12748C0
:103950004038006804210840002802D02A4802901C
:1039600009E001200003844203D100F0CFFA029065
:1039700001E00020029034E01C484038806B0121B7
:1039800089050840884203D100F09CFA029001E0CA
:103990000020029025E01548C06803210904084072
:1039A0000446002C03D100F08DFA029017E00120AC
:1039B0004004844209D10D48403800680421084081
:1039C000002802D01048029009E00120000484423F
:1039D00003D100F09BFA029001E00020029000E089
:1039E00000BF00BF029805B0F0BD000040100240CB
:1039F0008890000020A1070040420F0080841E0034
:103A000000093D004E0501080024F40000127A0070
:103A1000006CDC02F8B50446002600252021206851
:103A20000840202804D089012068084088427DD1C0
:103A3000202120680840202800D100BF0121C902B0
:103A400020680840884200D100BF00279948806B59
:103A5000012109070840002805D19648806B0843DA
:103A600094498863012794480068FF210131084088
:103A7000002816D19048006808438F490860FFF776
:103A80005BFA064606E0FFF757FA801B642801D967
:103A90000320F8BD88480068FF2101310840002854
:103AA000F1D0844800680321090508400546606894
:103AB0000840A84203D1A0680840A8420ED00321C4
:103AC000090460680840884208D17A4800680121EA
:103AD00049040840002801D00120DAE77548403049
:103AE00000690321090408400546002D49D060689B
:103AF0000840A84204D020212068084020280BD08C
:103B000003210904A0680840A8423AD00121C90253
:103B100020680840884234D166484030006903215B
:103B20000904884305466348403000E052E00069DC
:103B30000121C90408435F49403108610846006912
:103B40000121C90488435B49403108610846056189
:103B500080152840002814D0FFF7EEF9064607E04C
:103B6000FFF7EAF9801B5549884201D9032090E705
:103B7000504840300069012149020840400A0028AD
:103B8000EED000BF00BF03210904606808408842EE
:103B90000AD1484800680901884303221205616878
:103BA000114008434349086000BF42484030006963
:103BB000032212046168114008433E494031086104
:103BC00000BF012F05D13B48806B890588433949E7
:103BD000886300BF2078C007C00F002809D035488F
:103BE0004030C06880088000E168084331494031B6
:103BF000C860022120680840022809D12D484030C1
:103C0000C0680C218843216908432A494031C860B3
:103C100004212068084004280AD126484030C068A2
:103C20000321890288436169084322494031C86001
:103C300008212068084008280AD11E484030C06882
:103C4000032109038843A16908431A494031C86028
:103C5000FF2101312068084088420AD115484030D0
:103C6000C068032109048843E169084311494031D0
:103C7000C860402120680840402809D10D484030E4
:103C8000C06809058843616A08430A494031C86031
:103C900080212068084080280AD106484030C0684A
:103CA000032189048843216A084302494031C860DE
:103CB0000020EEE600100240007000408813000073
:103CC00070B504460D46002676480068C007C00F50
:103CD000A8420ED27348006840084000284371494A
:103CE000086008460068C007C00FA84201D0012044
:103CF00070BD022120680840022807D16A48C068C8
:103D0000F0218843A16808436749C8602078C0074C
:103D1000C00F00284CD06068022809D162480068B2
:103D2000012149040840400C002824D10120DFE78C
:103D30006068032809D15C480068012149060840F1
:103D4000400E002817D10120D2E76068012808D171
:103D50005548006804210840800800280BD1012044
:103D6000C6E751480068012149020840400A00287E
:103D700001D10120BCE74C48C06880088000616820
:103D800008434949C860FFF7D7F80646606802282B
:103D90000FD107E0FFF7D0F8801B4449884201D9D2
:103DA0000320A5E74048C0680C2108400828F1D14D
:103DB00034E0606803280FD107E0FFF7BDF8801BEF
:103DC0003A49884201D9032092E73748C0680C215C
:103DD00008400C28F1D121E0606801280FD107E0EC
:103DE000FFF7AAF8801B3149884201D903207FE7F9
:103DF0002D48C0680C2108400428F1D10EE007E0EE
:103E0000FFF79AF8801B2949884201D903206FE700
:103E10002548C0680C2108400028F1D121480068DD
:103E2000C007C00FA8420ED91E48006840084000D5
:103E300028431C49086008460068C007C00FA84214
:103E400001D0012054E7042120680840042808D14B
:103E50001548C068072109028843E16808431249F0
:103E6000C860082120680840082809D10E48C068A9
:103E70000721C90288432169C90008430A49C8606B
:103E800000F044F80849C968F02211400909084ABD
:103E9000515CC840074908600020FFF72FFB002055
:103EA00026E70000002002400010024088130000B6
:103EB0003605010800000020014800687047000036
:103EC0000000002000B5FFF7F7FF0549C968072289
:103ED00012021140090A034A515CC84000BD0000AB
:103EE000001002404605010800B5FFF7E5FF05494F
:103EF000C9680722D2021140C90A034A515CC8406E
:103F000000BD00000010024046050108FEB5002576
:103F10000026002700240020019000902F48C5684B
:103F20000C202840002847D0042804D008280ED0B0
:103F30000C2840D10EE029480068102108400028D4
:103F400002D02748009001E02648009042E0264831
:103F500000903FE00F2080042840800C23490E5C35
:103F6000032080052840800D471C1C48C0680121A3
:103F700009040840002807D01B4971430846394608
:103F8000FCF7B6F8044614E0144800681021084015
:103F9000002807D01249714308463946FCF7A8F8B3
:103FA000044606E00F49714308463946FCF7A0F87D
:103FB000044600940EE000BF08484068072149030A
:103FC0000840400B01900198401C01218140C8032A
:103FD000009000BF00BF0098FEBD0000001002402E
:103FE00000093D000024F40000127A004E0501088B
:103FF000F8B5044600252078C007C00F00287DD002
:10400000FE48C0680C21084008280BD0FB48C06857
:1040100008400C2813D1F948C06801210904084060
:1040200088420CD1F5480068012149040840400C41
:10403000002863D06068002860D10120F8BD00BF6F
:10404000012109046068884205D1EC4800680843F2
:10405000EA49086027E005210904606888420ED11A
:10406000E6480068012189040843E44908600846DD
:104070000068012109040843E049086013E0DF48B3
:104080000068012109048843DC490860084600688B
:10409000012109040840009000BFD8480068890049
:1040A0008843D649086000BF6068002813D0FEF737
:1040B00043FF054606E0FEF73FFF401B642801D999
:1040C0000320BBE7CD480068012149040840400CAB
:1040D0000028F0D012E0FEF72FFF054606E0FEF7BD
:1040E0002BFF401B642801D90320A7E7C3480068C1
:1040F000012149040840400C0028F0D10221206829
:104100000840022868D1BD48C0680C210840042836
:104110000BD0BA48C06808400C281DD1B748C06809
:10412000012109040840002816D1B4480068042180
:1041300008408008002804D0E068012801D0012050
:104140007CE7AE4840681F210902884321690902C3
:104150000843AA4948603FE0E068002824D0A74807
:10416000006809218843E1680843A4490860FEF714
:10417000E3FE054606E0FEF7DFFE401B022801D9FC
:1041800003205BE79D480068042108408008002860
:10419000F1D09A4840681F21090288432169090229
:1041A00008439649486017E094480068400840007A
:1041B00092490860FEF7C0FE054606E0FEF7BCFE29
:1041C000401B022801D9032038E78C4800680421ED
:1041D000084080080028F1D11021206808401028EC
:1041E00060D18648C0680C21084000285BD1834814
:1041F0000068012149020840400A002804D0E06913
:10420000002801D1012019E77C48616A4068072233
:1042100052031040814219D9606A05F0F9FC002868
:1042200001D001200AE77548406807214903884307
:10423000616A084371494860084640680002000A04
:10424000218C090608436D49486018E06B484068B6
:10425000072149038843616A084368494860084662
:1042600040680002000A218C09060843634948603F
:10427000606A05F0CDFC002801D00120DEE6606A0E
:10428000400B401C01218140C8035C49C968F022F1
:10429000114009095A4A515CC8405A490860002037
:1042A000FFF72CF949E0E06900282CD0534800685A
:1042B000FF210131084351490860FEF73DFE0546E4
:1042C00006E0FEF739FE401B022801D90320B5E6BF
:1042D0004A480068012149020840400A0028F0D0FD
:1042E00046484068072149038843616A08434349B7
:1042F0004860084640680002000A218C090608430D
:104300003E49486019E03D480068FF21013188437B
:104310003A490860FEF710FE054606E0FEF70CFE7F
:10432000401B022801D9032088E634480068012197
:1043300049020840400A0028F0D1082120680840BE
:10434000082839D1606900281BD02C48403000690A
:1043500001210843294940310861FEF7EDFD05467A
:1043600006E0FEF7E9FD401B022801D9032065E6BF
:104370002248403000690221084040080028F0D05F
:104380001AE01E4840300069400840001B49403197
:104390000861FEF7D1FD054606E0FEF7CDFD401BA6
:1043A000022801D9032049E614484030006902215F
:1043B000084040080028F0D1042120680840042863
:1043C00077D100260D48806B89060840002805D16A
:1043D0000A48806B08430949886301260A48006837
:1043E000FF210131084000281ED10748006808431A
:1043F00005490860FEF7A0FD05460EE000100240EA
:10440000360501080000002000700040FEF794FD12
:10441000401B642801D9032010E6A6480068FF214C
:10442000013108400028F1D000BFFF210131A06810
:10443000884205D1A048006908439F49086130E0DF
:10444000A06800280DD19C480069FF2101318843F4
:104450009949086108460069091588439649086129
:104460001FE005210902A06888420DD19248006929
:1044700001218902084390490861084600698915AD
:1044800008438D4908610CE08B480069FF21013128
:1044900088438949086108460069091588438649A7
:1044A000086100BFA068002815D0FEF745FD05464D
:1044B00008E02FE0FEF740FD401B8049884201D90B
:1044C0000320BBE57C480069012149020840400AFD
:1044D0000028EFD013E0FEF72FFD054607E0FEF7BA
:1044E0002BFD401B7549884201D90320A6E572487F
:1044F0000069012149020840400A0028EFD1012E3D
:1045000007D16D484038806B310788436A4940398C
:10451000886300BF202120680840202852D1A0696C
:1045200000282BD000BF6448403880680121084330
:104530006149403988600846406B012108435E4963
:10454000403948635E48006A0121490308435C49D9
:10455000086200BFFEF7F0FC054606E0FEF7ECFC43
:10456000401B022801D9032068E553484038806881
:104570000221084040080028F0D023E000BF4E4848
:1045800040388068400840004B49403988604C48BA
:10459000006A0121490388434949086200BFFEF7C8
:1045A000CBFC054606E0FEF7C7FC401B022801D9FC
:1045B000032043E540484038806802210840400815
:1045C0000028F0D1A06A002872D03B484038C0686B
:1045D0000C2108400C2869D0A06A022848D136482E
:1045E0004038006801210906884333494039086092
:1045F000FEF7A2FC054606E0FEF79EFC401B0228E3
:1046000001D903201AE52C484038006801214906E9
:104610000840400E0028EFD1216BE06A0843616B2F
:10462000084325494039C968FD22120491430843D3
:1046300021494039C860084600680121090608433D
:104640001D4940390860FEF777FC054606E0FEF795
:1046500073FC401B022801D90320EFE416484038C0
:104660000068012149060840400E0028EFD01FE0F5
:104670001148403800680121090688430E49403935
:104680000860FEF759FC054606E0FEF755FC401BA6
:10469000022801D90320D1E40748403800680121ED
:1046A00049060840400E0028EFD101E00120C5E492
:1046B0000020C3E400700040401002408813000056
:1046C00000000140704710B5044672B609F008F8C2
:1046D00062B610BD10B50446206880680121090348
:1046E0000840000B002811D02068C068091108405C
:1046F000000A00280AD02046FFF7E5FF2068C068BE
:1047000080210840124908432168C86020688068F9
:10471000012149030840400B002811D02068C068DF
:1047200009110840400A00280AD02046FFF7CAFFB6
:104730002068C06880210840064908432168C86095
:10474000012040040449486101212120015510BD88
:104750007FFEFFFF7FFDFFFF00040140F0B506462E
:104760000C46174600253068406812490840054647
:10477000FF2000042840000CE0701F2000022840A9
:10478000000A6070A806800EA07007204003284031
:10479000400B2070002F0BD1E07805F085FAE07017
:1047A000607805F081FA6070A07805F07DFAA0705D
:1047B0000020F0BD3FFFFF00F0B505460C46174650
:1047C00000262868806A6060286800694004400C00
:1047D000A060286800681249084006463F2000048F
:1047E0003040000C20707F2000023040000A6070D2
:1047F0007006400EA070012080053040000CE07073
:10480000002F0BD1207805F04FFA2070607805F06A
:104810004BFA6070A07805F047FAA0700020F0BD58
:104820007F7F7F0010B50446002C01D1012010BD10
:104830002120005D002805D10021202001552046BF
:1048400000F054F802212120015500BFCA20216840
:10485000486253202168486200BF204605F03EFAB6
:10486000002809D000BFFF202168486200BF042152
:10487000212001550120DAE7206880681A490840A4
:1048800021688860216960680843A169084321683C
:1048900089680843216888602168E06808612068A9
:1048A0000069218909040843216808612068C068FB
:1048B000802188432168C8602068C06C800880001F
:1048C0002168C8646169E06908432168C96C0843CC
:1048D0002168C86400BFFF202168486200BF012131
:1048E000212001550020A2E7BFFF8FFF054A016884
:1048F000914206D104490969012292041143024AF6
:10490000116170470028004040100240FEB5044687
:104910000D461646002700200190009000BF202081
:10492000005D012801D10220FEBD0121202001559A
:1049300000BF022121200155002E2AD12068806865
:1049400040210840002800D002E00020E87000BFAD
:10495000E869002800D100E000BF287805F0B1F92F
:104960000304687805F0ADF900020343A87805F068
:10497000A8F90343E878000403432021485D05F0CB
:10498000A0F900060343E869034368690343019300
:104990002FE02068806840210840002804D0287853
:1049A00005F082F9019002E00020E87000BFE8699C
:1049B000002805D12021485D05F076F9019005E039
:1049C0002021485D05F070F9019000BF28780004AF
:1049D000697809020843A9780843E978090408437B
:1049E0002021495D09060843E969084369690843CC
:1049F0000190A96968680843009000BFCA20216837
:104A0000486253202168486200BFFF210131686A73
:104A1000884241D120688068884321688860206886
:104A2000C068802108404D4908432168C860FEF7EE
:104A300083FA074615E0FEF77FFAC01B7D21C90007
:104A400088420ED900BFFF202168486200BF0321C1
:104A50002120015500BF00212020015500BF032067
:104A600062E72068C068C007C00F0028E3D0019843
:104A70002168C86100982168486420688068FF2127
:104A8000013108432168886020688068012109039A
:104A900008432168886043E020688068012149025A
:104AA0008843216888602068C068802108402C49BC
:104AB00008432168C860FEF73FFA074615E0FEF795
:104AC0003BFAC01B7D21C90088420ED900BFFF20E0
:104AD0002168486200BF03212120015500BF002149
:104AE0002020015500BF03201EE72068C068022176
:104AF000084040080028E2D0019821680862009828
:104B0000216888642068806801214902084321687F
:104B10008860206880680121490308432168886013
:104B2000104800680121490408430E4908600846FE
:104B300080680121490408430A49886000BFFF20BA
:104B40002168486200BF01212120015500BF0021DA
:104B50002020015500BF0020E6E600007FFEFFFF99
:104B60007FFDFFFF00040140F8B504460D461646E0
:104B7000002700BF2020005D012801D10220F8BDE0
:104B800001212020015500BF022121200155002EC6
:104B900009D1687810210840102804D16878EF21E5
:104BA00008400A306870002E11D1E87805F089F8C5
:104BB0000304687805F085F800020343A87805F03F
:104BC00080F803432878400303431F4612E06878C7
:104BD00005F06AF80746A87805F066F80746E87811
:104BE0000004697809020843A97808432978490331
:104BF0000843074600BFCA20216848625320216845
:104C0000486200BF204605F069F800280ED000BFBA
:104C1000FF202168486200BF04212120015500BF08
:104C200000212020015500BF0120A8E71948384085
:104C3000216848602068C068802188432168C86076
:104C40002068806820210840002813D1204600F009
:104C5000CDF800280ED000BFFF202168486200BFB9
:104C600004212120015500BF00212020015500BF53
:104C7000012084E700BFFF202168486200BF0121B6
:104C80002120015500BF00212020015500BF002038
:104C900075E700003FFFFF00F8B504460D461646D5
:104CA000002700BF2020005D012801D10220F8BDAF
:104CB00001212020015500BF022121200155002E95
:104CC0001BD12068806840210840002800D002E005
:104CD0000020E87000BF287804F0F3FF0304687830
:104CE00004F0EFFF00020343A87804F0EAFF034357
:104CF000E878000403431F4618E0206880684021DC
:104D00000840002804D0287804F0CEFF074602E0CF
:104D10000020E87000BF2878000469780902084381
:104D2000A9780843E97809040843074600BFCA2068
:104D30002168486253202168486200BF204604F081
:104D4000CDFF00280ED000BFFF202168486200BFC1
:104D500004212120015500BF00212020015500BF62
:104D60000120A4E720483840216808602068806856
:104D7000012189048843216888602969E86808431B
:104D8000216889680843216888602068C06880219C
:104D900088432168C8602068806820210840002876
:104DA00013D1204600F022F800280ED000BFFF20CB
:104DB0002168486200BF04212120015500BF002165
:104DC0002020015500BF012071E700BFFF202168AE
:104DD000486200BF01212120015500BF0021202091
:104DE000015500BF002062E77F7F7F0070B5044659
:104DF00000252068C068A02188432168C860FEF7AC
:104E00009BF8054608E0FEF797F8401B7D21C90096
:104E1000884201D9032070BD2068C0682021084065
:104E20000028F0D00020F6E710B50446002C01D190
:104E3000012010BD5120005D002805D10021502027
:104E40000155204600F038F8022151200155206814
:104E500000684021884321680860A16860680843B1
:104E6000E16808432169084361690843012252024D
:104E7000A16911400843E1690843216A0843A16A16
:104E8000084321680860A069000C04210840616A99
:104E90000843216848602168E06A08612068C069A9
:104EA000910088432168C86100206065012151207C
:104EB00001550020BDE7000010B586B00446144936
:104EC0002068884222D100BF1248C06A01210843ED
:104ED0001049C8620846C06AC007C00F009000BFF2
:104EE00000BF0846406B891408430A494863E02024
:104EF00001900220029000200390032004900020E3
:104F0000059001A905200007FDF706FF06B010BDBA
:104F10000030014000100240FEB504460E46154622
:104F20001F46002001905120005D01287ED1002EF7
:104F300001D0002D01D10120FEBD00BF5020005D39
:104F4000012801D10220F7E701215020015500BFBF
:104F500022215120015500206065A663A587E587C1
:104F6000A064E0642063A086E0860121C903A068F4
:104F7000884205D12068006849108843216808608C
:104F800001214903A06A88420DD100BF2068006852
:104F900088432168086020680068012149030843AC
:104FA0002168086000BFFF210531606888420FD189
:104FB000A06800280CD100BF00215020015500BF7F
:104FC0002B46324631462046009700F0C2F9B3E73F
:104FD0002068006840210840402804D0206800680C
:104FE000084321680860E068002825D113E03B46AB
:104FF00000220121204605F08DFC002801D003206D
:105000009AE72068C068C1B2A26B501CA0631170FF
:10501000E08F401EE087E08F0128E8D80121490396
:10502000A06A88422BD12068006800E0A2E0491005
:1050300008432168086022E013E03B46002201217A
:10504000204605F067FC002801D0032074E72068A3
:10505000C068A16B0880A06B801CA063E08F401E1D
:10506000E087E08F0128E8D801214903A06A88423F
:1050700005D12068006849100843216808603B4654
:1050800000220121204605F045FC002801D0032024
:1050900052E7E068002807D12068C068C1B2A26B5F
:1050A000501CA063117006E02068C068A16B0880E6
:1050B000A06B801CA063E08F401EE08701214903A4
:1050C000A06A884213D13B4600220121204605F008
:1050D00021FC002805D0606D022108436065032093
:1050E0002AE72068C06881B2019168468088FF2164
:1050F0000531606888420ED10121C903A068884249
:1051000003D04911A068884205D120680068402179
:105110008843216808600121512001554903A06A94
:10512000884220D1206880681021084000090028AA
:1051300019D0606D02210843606500BF20680068D7
:105140000903884321680860206800680121490339
:1051500008432168086000BF00BF002150200155AE
:1051600000BF0120E8E600BF00215020015500BF2C
:105170000020E1E60220DFE6F8B504460E461546BB
:105180001F465120005D01287BD1002E01D0002D4B
:1051900001D10120F8BD00BF5020005D012801D1E0
:1051A0000220F7E701215020015500BF12215120B4
:1051B0000155002060652663A586E586E064A0644D
:1051C000A063A087E08701214903A06A88420DD12E
:1051D00000BF206800688843216808602068006874
:1051E0000121490308432168086000BF0121C90368
:1051F000A068884205D120680068491008432168EA
:1052000008602068006840210840402804D02068D9
:105210000068084321680860E068002832D16068AF
:10522000002802D0E08E012808D1216B481C2063A1
:1052300008782168C860E08E401EE08612E03B4698
:1052400000220221204605F065FB002801D0032042
:10525000A0E7216B481C206308782168C860E08EB5
:10526000401EE086E08E0028E9D101214903A06AB2
:1052700088423AD1206800684910084321680860D4
:1052800033E064E06068002802D0E08E012809D194
:10529000206B00882168C860206B801C2063E08E32
:1052A000401EE08613E03B4600220221204605F026
:1052B00031FB002801D003206CE7206B00882168B7
:1052C000C860206B801C2063E08E401EE086E08E6C
:1052D0000028E8D101214903A06A884205D120684D
:1052E000006849100843216808603B4600220221FB
:1052F000204605F00FFB002805D0606D20210843F3
:105300006065032046E73B4601228021204605F0E8
:1053100001FB002805D0606D202108436065032053
:1053200038E7A068002808D100BF2068C068009056
:1053300020688068009000BF00BF01215120015506
:1053400000BF00215020015500BF002022E70220AD
:1053500020E7F8B504460E4617461D46002000908B
:105360005120005D012803D05120005D222873D117
:10537000002E03D0002F01D0002D01D10120F8BD57
:1053800000BF5020005D012801D10220F7E7012174
:105390005020015500BF5120005D012802D132216B
:1053A0005120015500206065A763A587E587266326
:1053B000A586E586A064E06401214903A06A8842CD
:1053C0000DD100BF2068006888432168086020680C
:1053D00000680121490308432168086000BF206874
:1053E000006840210840402804D020680068084335
:1053F000216808600121C902E06888427DD16068A7
:10540000002807D0FF210531606888420CD1E08E6A
:10541000012809D1206B00882168C860206B801C9E
:105420002063E08E401EE086E08E002820D101211E
:105430004903A06A884205D12068006849100843E2
:1054400021680860002201212046069B05F062FACF
:10545000002802D0032092E738E12068C068A16BE1
:105460000880A06B801CA063E08F401EE087D7E01F
:1054700035E0002202212046069B05F04BFA002869
:1054800001D003207BE7206B00882168C860206B77
:10549000801C2063E08E401EE086E08E00280AD14A
:1054A00001214903A06A884205D12068006849109B
:1054B000084321680860002201212046069B05F070
:1054C00029FA002801D0032059E72068C068A16BA1
:1054D0000880A06B801CA063E08F401EE087E08EF8
:1054E0000028C6D160680028C1D1002201212046D1
:1054F000069B05F00FFA002800E00DE001D0032024
:105500003DE72068C068A16B0880A06B801CA06389
:10551000E08F401EE08783E06068002807D0FF210D
:105520000531606888420BD1E08E012808D1216BDB
:10553000481C206308782168C860E08E401EE08621
:10554000E08E00281CD101214903A06A884205D1C0
:105550002068006849100843216808600022012182
:105560002046069B05F0D6F9002801D0032006E767
:105570002068C068A16B0870E08F401EE0874FE094
:1055800034E0002202212046069B05F0C3F90028E2
:1055900001D00320F3E6216B481C206308782168C2
:1055A000C860E08E401EE086E08E00280AD101210E
:1055B0004903A06A884205D1206800684910084361
:1055C00021680860002201212046069B05F0A2F90F
:1055D000002801D00320D2E62068C068C1B2A26BC7
:1055E000501CA0631170E08F401EE087E08E002801
:1055F000C7D16068002813D1002201212046069BF4
:1056000005F088F9002801D00320B8E62068C068BA
:10561000C1B2A26B501CA0631170E08F401EE087E6
:1056200001214903A06A884213D1002201212046AA
:10563000069B05F06FF9002805D0606D0221084334
:10564000606503209BE62068C06881B200916846CF
:105650000088012280212046069B05F05BF9002886
:1056600005D0606D202108436065032087E6012195
:10567000512001554903A06A884220D120688068E2
:10568000102108400009002819D0606D022108434C
:10569000606500BF206800680903884321680860CE
:1056A000206800680121490308432168086000BFA1
:1056B00000BF00215020015500BF01205FE600BF60
:1056C00000215020015500BF002058E6022056E678
:1056D000042806D10649096904221143044A1161CC
:1056E00005E00349096904229143014A11617047A9
:1056F00000E000E07047000070B504462546681ED3
:105700000949884201D901200CE0681E0749486117
:105710000321081F02F094FA002004498861072041
:105720000861002070BD0000FFFFFF0000E000E006
:1057300010B5FFF7DFFF10BD70477047014600222C
:1057400000236920425C6A20435C1046184370477E
:10575000F8B504462068C569206806682807000F68
:105760000090009800280BD120202840002807D066
:1057700020203040002803D0204608F0B8F9F8BDBA
:1057800020688768009800287ED0F807C00F00289E
:1057900004D1FF20213030400028F5D0E807C00FA9
:1057A00000280BD0FF2001303040002806D0012017
:1057B00021680862E06E01210843E066022028406B
:1057C00000280AD0F807C00F002806D00220216860
:1057D0000862E06E04210843E066042028400028A7
:1057E0000AD0F807C00F002806D0042021680862FC
:1057F000E06E02210843E0660820284000280ED011
:1058000020203040002803D1F807C00F002806D020
:10581000082021680862E06E08210843E066E06E17
:10582000002841D020202840002806D020203040E9
:10583000002802D0204608F05AF9E06E08210840FE
:10584000002805D12068806840210840002826D023
:10585000204608F02BF92068806840210840002885
:1058600019D020688068884321688860606E0028AD
:105870000DD02648616E8863606EFDF763F80028DE
:1058800012D0606E816B00E00FE088470CE020468C
:10589000FFF753FF08E02046FFF74FFF04E02046E4
:1058A000FFF74BFF0020E06669E701200005284074
:1058B000002811D001208005384000280CD001209C
:1058C0000005216808622021692001556A200155E0
:1058D0002046FFF731FF52E780202840002807D0FC
:1058E00080203040002803D0204608F041FB46E7E6
:1058F00040202840002807D040203040002803D016
:10590000204608F0E4F83AE700BF38E795DA0008E7
:1059100010B50446002C01D1012010BDA06900285B
:1059200000D000E000BF6920005D002805D1002103
:1059300068200155204600F05FF8242169200155B8
:10594000206800684008400021680860606A0028FC
:1059500002D0204607F0ECFF204608F011F901289C
:1059600000D1DAE7206840680921C902884321682C
:105970004860206880682A21884321688860206800
:1059800000680121084321680860204608F048F8B3
:10599000C3E7000010B5044613492068884210D1BF
:1059A0001248406B01218903884310494863032151
:1059B000490205200007FDF72DF81B20FDF7D2FD59
:1059C00011E00B49206888420DD10848806B012105
:1059D000090588430549886318210648FDF71AF828
:1059E0000E20FDF7BFFD10BD003801400010024041
:1059F000005000400004005010B586B004461B491A
:105A00002068884217D11A48406B01218903084356
:105A100017494863032040020190022002900020B1
:105A20000390032004900420059001A9052000079D
:105A3000FDF772F918E00F492068884214D10C482C
:105A4000806B0121090508430949886318200190EA
:105A5000022002900120039003200490062005906C
:105A600001A90548FDF758F906B010BD00380140FE
:105A700000100240005000400004005010B50346E2
:105A80006A20C05C20286AD1002901D0002A01D1F7
:105A9000012010BD012424039868A04208D1186990
:105AA000002805D1C807C00F002801D00120F0E769
:105AB00000BF6820C05C012801D10220E9E7012471
:105AC0006820C45400BF59655820C2525A20C2529F
:105AD00000BF24039868A0420AD11869002803D1A6
