:020000040800F2
:10000000301D0020D50000086F790008AD6200089F
:1000100000000000000000000000000000000000E0
:1000200000000000000000000000000041A50008E2
:1000300000000000000000002D92000879C90008AF
:10004000E7000008E7000008E99C0008E700000856
:10005000E7000008D91E0008E31E0008ED1E000896
:10006000E7000008E7000008E7000008E7000008D4
:10007000E7000008E7000008D5D800088DCB00088D
:10008000E7000008E7000008E700000800000000A3
:10009000E7000008E7000008E7000008E7000008A4
:1000A000E7000008E7000008E7000008E700000894
:1000B0007DD80008E7000008E7000008E700000816
:1000C0000348854600F084FE00480047ADEB000879
:1000D000301D00200448804704480047FEE7FEE743
:1000E000FEE7FEE7FEE7FEE725CB0008C1000008BB
:1000F00030B50B46014600202022012409E00D46C0
:10010000D5409D4205D31D469540491B2546954047
:1001100040191546521E002DF1DC30BD70B500248B
:100120002546002801DA01244042002901DA012590
:100130004942FFF7DDFFAC4200D04042002C00D026
:10014000494270BDF0B51FB40646002082B0054696
:100150004024019100901BE0019922460F46304651
:1001600000F0B8FC049A059B801A994110D3104600
:100170001946224600F09EFC361A8F41019722460E
:1001800001200021009F00F095FC38184D4100909F
:100190002046641E0028DFDC019B00982946324679
:1001A00007B0F0BDF0B51FB486B0002000900190FC
:1001B00002900698069980B204900798090C0204F0
:1001C0000014114307900027089D099806913E46A8
:1001D0003C4603900398A9B20204000C03900498D3
:1001E0002D0C154348430021224600F063FCC7193B
:1001F000714110340E46402CECDB3846029A00F078
:1002000059FC009A019B8018009059410298019175
:10021000103002904028CCDB00980BB0F0BD0000FD
:100220000048704758FE000810B50446FFF7F8FF75
:100230000068005DC007C00F10BD03460B439B075D
:1002400003D009E008C9121F08C0042AFAD203E04B
:100250000B780370401C491C521EF9D27047D2B271
:1002600001E00270401C491EFBD270470022F6E7F5
:1002700010B513460A4604461946FFF7F0FF20461C
:1002800010BD30B505462A460B4610781C78521C26
:100290005B1C002801D0A042F7D0002C03D000281E
:1002A00002D06D1CEFE7284630BD421C0178401C8F
:1002B0000029FBD1801A704710B5002200E0521CC3
:1002C000835C8C5CA34201D1002BF8D1D8B2E1B29F
:1002D000401A10BD0321001D401E037812021A436C
:1002E000491EF9D510467047034603220870000ADC
:1002F000491C521EFAD51846704700000FB400B5CD
:100300008DB009900B9010A900200091C0430A9075
:1003100000200C9006480690064807906A4609A8F7
:100320000F9900F011FC0DB008BC04B01847000094
:10033000690B0008890B0008FFB50027FF4383B055
:1003400000205C6801909E681D46A9697F1C049886
:1003500088470090296A88470028F6D10098401CF9
:100360000CD0032040028443002E19DD600614D512
:1003700000982B2809D02D280FD103E00020C0437E
:1003800007B0F0BD012080020443A9697F1C0498D6
:100390008847761E0090002E02DD0098302803D09A
:1003A0000598002825D035E0012040020443A969C2
:1003B000761E7F1C049888470090002E03DD782865
:1003C00005D0582803D00598002810D022E00598C1
:1003D000002801D010281DD1012040028443A969C2
:1003E000761E7F1C049888470090102002E00820A9
:1003F00000E00A2005900DE0012149020C43059A16
:100400000199761E514308180190A9697F1C049830
:1004100088470090002E05DD0599009800F07EFBCE
:100420000028E9DAE96904988847A00502D4012088
:10043000C043A5E7E00722D1600611D56005019809
:1004400000D5404229680A1D2A600968220501D5A5
:10045000087014E0220701D5088010E008600EE063
:100460002868011D29600068210502D501990170E5
:1004700005E02107019901D5018000E001603846BF
:100480007EE7F8B502464A40D40F42004B005208BE
:100490005B089A4202D20246084611464A0023D01F
:1004A000C30D4A00DDB2120EAD1A202D35DA490215
:1004B0000126490AF6058A19002C00D05242202153
:1004C0004F1B1146B9402A411018C20D9A4221D043
:1004D000002C17D0012D08DCDA05801AD20F801904
:1004E000D207DBB200F06AFBF8BDDA05801A0123FF
:1004F00040001B06C01880185A428018CA0F1043CB
:10050000490007E04908C2071143DA05801A80193B
:100510004008801800F04AFBF8BD61000122511A22
:10052000001BF7E70122D2075140AAE70122D207B8
:100530005040A6E7024670B54A40D30FDB074000A3
:100540002DD04A002AD0010E140E00021202091901
:10055000400A520A8418E50104465443000A120A6C
:100560002E045043A4194219200CC543AA18120C9A
:100570000125AD03521C521912047F39240400D006
:10058000521C104301D44000491EC2B20C06C009DF
:100590002018401C4008802A02D003E0002070BDD3
:1005A00040084000002900DA0020184370BD70B5F3
:1005B00002464A40D50F40004A00ED074008520865
:1005C000002814D0002A12D0C40DD30D41020120FE
:1005D000C0055202490A520AE41A091812187D3459
:1005E000914201D3641C00E04900002C01DA002094
:1005F00070BD0023914201D3891A0343400849008A
:100600000028F7D100290AD0914202D10121C9075F
:1006100005E0914201D2012101E00121C943E00539
:10062000C018401900F0C2FA70BD0000F0B50746CE
:100630000846584087B0C00F049048000E46590045
:1006400040084908BC1A884105D2384631461E4642
:1006500017460B4602465800400810434CD0300D58
:10066000039040055900400D490D0590401A029035
:10067000402872DA18030121000B09050843019094
:1006800004980092002805D0019952420020884128
:1006900000920190029840210A1A0199009800F0F6
:1006A00009FA05460C466B4607CB00F024FAC01940
:1006B0007141039A0E0D0023D71756401A467A400F
:1006C000164344D0049A002A2DD0029A012A039A94
:1006D00015DC1205C01A914101263605001C714136
:1006E000D20F059ED2070093019202962A46234616
:1006F00000F0AAFA07B0F0BD38463146FAE7160511
:10070000224A0F46B218C01AB74101210905001C40
:100710004F4100187F41114618187941E20F1043EC
:100720006D19644113E0E2076D0815436408C207C0
:100730001443039A01261205C01A91413605001C84
:100740007141CE07400830434908C01851412A463C
:10075000234600F06CFACDE7FFE704980122400041
:10076000C117121A00238B4104983146C417381A56
:10077000A141EEE730B40124E407634030BC55E703
:1007800030B40124E407614030BC4FE70000E0FFD3
:10079000F0B51FB488B00B99099800244840099916
:1007A000C00F490049080991C0070B990090490002
:1007B00049080B9109990898A64608431CD00B9943
:1007C0000A98084318D0099801244000420D4800B7
:1007D000410D099824050003000B204309900B9854
:1007E0000003000B20430B9050181C4940180022B6
:1007F00001901446104605E0002001460DB0F0BD02
:10080000032801DA034600E003239C46C11A0AAE1E
:100810000AE05F0008ADED5B4F00F75B7D4300270A
:10082000AA187C41491C5B1E6145F2DD410004AB06
:100830005A522104120C0A43240C401C0828DFDB06
:10084000019802900099704601910090059B049ACE
:100850000799069800F0F8F9D0E700000DFCFFFFBB
:10086000F0B50C465C4085B0E40FE40703944C00FF
:10087000002664085900944649080246029622431D
:1008800021D062460A431ED06200570D4A000E0373
:100890002303550D012402462C492405781B1B0B0C
:1008A000360B401823432643614600901C46501ADD
:1008B000B44103D30098401C009002E092180098C5
:1008C0005B41002803DA0020014605B0F0BD00209E
:1008D000012109050746864611E064461D46141BA2
:1008E000B54106D36546521BB341744607430C43DA
:1008F000A646CD0740084908284392185B410546A3
:100900000D43EAD11046184313D0604619465040B3
:100910007140084306D06046101AB34106D2012246
:10092000002306E000220123DB0702E00122D2437C
:100930005310009874460105381C6141029C039DC8
:100940000019694100F073F9BFE70000FD030000E2
:1009500010B500229623114600F030F910BD0000BA
:100960000EB5C217C10F5040CA0740180021054BF1
:100970000293019200910A460B4600F065F903B01C
:1009800000BD0000330400000EB5054902910021AE
:1009900000910A460B46019100F056F903B000BDE4
:1009A00033040000410040020122400AD205090E32
:1009B00080187F2901DA00207047962903DC9622EF
:1009C000511AC840704796398840704770B5CD0FAE
:1009D0004A0009030123090B1B0519430B4BED07C3
:1009E0000024520D9A4201DA002070BD074B3433C7
:1009F0009A4203DC9A1A00F06DF802E0044951189B
:100A000088402C43F1D0404270BD0000FF0300003D
:100A1000CDFBFFFF4A0009030123090B1B05194306
:100A2000094B10B5520D9A4201DA002010BD064B59
:100A300034339A4203DC9A1A00F04CF810BD034993
:100A40005118884010BD0000FF030000CDFBFFFFE0
:100A5000C20FD207400040080BD0C10D0723DB01B5
:100A6000C91840020905400A1143C2084007114352
:100A7000704700200146704710B5002904DB0124AF
:100A8000E40740428C412146002B04DB1C46012335
:100A9000DB075242A341994200D1904210BD0000B1
:100AA0000122D207002800DB101A002900DB511AAE
:100AB0008842704710B5202A04DB0146203A914055
:100AC000002010BD914020239C1A0346E3401943A7
:100AD000904010BD10B5202A04DB0846203AD040D3
:100AE000002110BD0B46D340D0402024A21A9140D3
:100AF0000843194610BD10B5202A06DBCB1708465F
:100B0000203A1041C1170B4306E00B461341D04079
:100B10002024A21A91400843194610BD3A2800D259
:100B20003038202302469A43412A01D310463738F1
:100B3000884201D30020C043704700000268137848
:100B4000511801601846704710B5D16004495161D1
:100B50000449116200211161114600F04BF910BDEA
:100B60003D0B0008290200084268002A08D00168ED
:100B70000B78491C002B03D0521E06C01846704744
:100B80000121C160881E70474268002A0BD0C368EB
:100B90000168002B07D183688B4204D0491E521C88
:100BA00006C0002070470020C0437047002904DAC7
:100BB000401C490001D140084000704770B4002437
:100BC000050C05D11024000402D1002921D01124E4
:100BD000050E01D100020834050F01D10001241DCA
:100BE000850F01D18000A41C002801DB4000641C9B
:100BF000002908D020252E1B0D46F540A14000D02D
:100C000001212943084301061B1B000ADB1D02D5F5
:100C1000002070BC7047DB05181880180029F8DA2E
:100C2000401C4900F5D170BC40084000704710B529
:100C3000002B08DA0024401C614192185B411A43E2
:100C400001D14008400010BDF0B51FB482B0054688
:100C50000C0003D008460CF05DFF02E00CF05AFFD8
:100C600020300246009021462846FFF723FF049BD0
:100C7000059A04460F4618431143084314D01846FA
:100C800010431BD0009840210A1A18460599FFF717
:100C900021FF05460E46009A05990498FFF70AFFC2
:100CA000084305D0012004E02046394607B0F0BDD6
:100CB0000020C11705430E432C43374300990E987B
:100CC0006305401A7905E40A00220C43FD0A0A3044
:100CD00002D500200146E9E70105101969410C9C85
:100CE0000D9D00196941FFF7A2FFDFE7F8B5054642
:100CF000480040080C46284304D06000184A400DC4
:100D0000904201DD2846F8BD15493539884210DC8E
:100D100088420BDB290D200308432903014305D03A
:100D2000E00F1049C00741180020F8BD002001461F
:100D3000F8BD161A4020821B28462146FFF7BAFE4E
:100D400007460091284621463246FFF7C3FE3A4641
:100D5000009BFFF76CFF3246FFF7ACFEF8BD0000CA
:100D6000330400000000F03F4A0009030123090B8F
:100D70001B0519430A4B10B5520D9A4202DA0020A6
:100D8000014610BD064B34339A4203DC9A1AFFF732
:100D9000A1FE10BD034BD218FFF78CFE10BD000062
:100DA000FF030000CDFBFFFF10B5002904DB012489
:100DB000E40740428C412146002B04DB1C46012302
:100DC000DB075242A3418B4200D1824210BD00009A
:100DD000064C0125064E05E0E36807CC2B430C3C8E
:100DE00098471034B442F7D3FFF76EF928FF000894
:100DF00048FF0008F3B58DB000200A9001200B9049
:100E0000002608460C300C460990626901210998B9
:100E10009047051E2ED0252D2DD0216A8847002809
:100E200018D06269012109989047216A88470028F3
:100E3000F7D1411E62690998904700E0761CA169CC
:100E40000D988847216A88470028F7D1E1690D98F5
:100E50008847DAE7A1690D9888470746A84201D17B
:100E6000761CD2E7E1690D9888477F1C02D10A9869
:100E7000002877D049E1002762693D463946099844
:100E800090472A280CD162690121099890470125D1
:100E900006E00A214F433F18303FEBD410200543B2
:100EA0006269012109989047014630390A2903D225
:100EB0009B498F42DEDCECE7E90600D4994F6C28B1
:100EC0000AD04C2810D0682824D06A282ED0742844
:100ED0000CD07A280AD00DE0626901210998904768
:100EE0006C2823D004211CE02020054362690121E5
:100EF00009989047A760656065284FD026DC582880
:100F000039D01ADC452849D012DC252834D04128B4
:100F1000B0D143E06269012109989047682802D066
:100F200008210D43E6E70120C002DEE70220DCE7EE
:100F3000462833D047282CD130E05B2870D0612878
:100F40002CD063286CD0642823D161E06F284FD067
:100F500009DC662822D0672820D0692826D06E2890
:100F600017D12EE0CDE070284DD073286FD07528B2
:100F70004ED078280DD154E0A1690D9888470546D8
:100F8000252800D16CE7E1690D9888476D1C00D1D8
:100F90006DE7BAE00A224CE00A2252E00120234623
:100FA0006A46C0430D99C046C046A3E0284640218A
:100FB00008436060A807234601D5002239E00022DB
:100FC0003FE0E80700D020E72068011D21600068AD
:100FD000290501D5067018E7290701D5068014E711
:100FE000A90703D5F117066041600EE706600CE71C
:100FF0002846402108436060A807234601D50822FF
:1010000017E008221DE0484928460840606016E0C5
:101010002846402108436060A8072346BCD5B9E7AD
:1010200015E02846402108436060A80707D52346FD
:1010300010220120C0430D99C046C0465AE0234605
:1010400010220120C0430D99FFF776F952E00021EC
:101050000C910B460091632802D05B2807D043E037
:10106000E80601D40120A060012000903CE0626904
:101070000121099890475E2805D101200C90014676
:101080006269099890472169002906D10B4601AA97
:101090008F00491CD3510829FADB002835D021697B
:1010A00000290ED1C117C90E09184A11930001AACF
:1010B0009A1849094901411A0120136888400343DD
:1010C000136062690121099890475D28E5D10C9869
:1010D000002808D0002001AB81005A58401CD243A0
:1010E0005A500828F8DB01AB01202246C0430D9975
:1010F000C046C04600280ADA401C06D10B980028DA
:1011000003D00020C0430FB0F0BD0A98FBE7E90709
:1011100002D10A99491C0A91361800200B9074E6F6
:10112000CCCCCC0CFFFFFF7FF1F7FFFF70B58C1824
:101130000578401C6B075B0F01D10378401C2A1116
:1011400006D10278401C03E006780E70401C491C52
:101150005B1EF9D12B0705D40023521E0DD40B7052
:10116000491CFAE70378401CCB1A921C03E01D7857
:101170000D70491C5B1C521EF9D5A142D8D300202A
:1011800070BD70B5044600252068806804210840C1
:101190008008002829D020688068084000280BD0EB
:1011A0002068806802210840002805D120688068F6
:1011B000102108432168886002F020F805460EE0FF
:1011C00002F01CF8401B0A2809D9A06D1021084321
:1011D000A065E06D01210843E065012070BD206835
:1011E0008068042108400028EAD10020F6E70000CA
:1011F00038B50446074908480068FEF779FF6043A0
:10120000009002E00098401E009000980028F9D15C
:1012100038BD000040420F000000002070B50446B9
:101220000025206880688007800F012807D120688A
:101230000068C007C00F002801D0012000E0002096
:10124000002837D02068806805210840012800D197
:1012500000E0002000280AD000BF2068806802213A
:1012600008432168886003202168086009E0A06DB8
:1012700010210843A065E06D01210843E0650120CD
:1012800070BD01F0BBFF05460EE001F0B7FF401B4B
:101290000A2809D9A06D10210843A065E06D01213D
:1012A0000843E0650120EBE720688068C007C00FB5
:1012B0000028EAD10020E3E770B504460025206845
:1012C00080688007800F012807D120680068C00768
:1012D000C00F002801D0012000E00020002839D1F3
:1012E000206880681C490840002801D1012000E0E6
:1012F0000020002809D1A06D10210843A065E06DF1
:1013000001210843E065012070BD2068806801214B
:101310000843216888600120FFF76AFF01F06EFF33
:1013200005460EE001F06AFF401B0A2809D9A06DAE
:1013300010210843A065E06D01210843E06501200C
:10134000E2E720680068C007C00F0121484048401C
:101350000028E7D00020D7E71700008030B589B01B
:1013600005460C461022002105A80DF0FBFC224684
:10137000243205A905A80DF08FF86846007D80216C
:10138000084000281CD000BF00200AE005A9095C25
:10139000490005AB421C9A5CD211114305AA1154B5
:1013A000401C0F28F2DB08A9C97849060A0E08A9D3
:1013B000CA7000BFC8788721484008A9C87016E0E5
:1013C00000BF00200AE005A9095C490005AB421CEA
:1013D0009A5CD211114305AA1154401C0F28F2DB6C
:1013E00008A9C97849060A0E08A9CA7000BF206A70
:1013F00010280FD100BF002009E021461031095C00
:1014000005AA125C5140224610321154401C10288B
:10141000F3DB59E06846007D8021084000281CD09D
:1014200000BF00200AE005A9095C490005AB421C89
:101430009A5CD211114305AA1154401C0F28F2DB0B
:1014400008A9C97849060A0E08A9CA7000BFC87859
:101450008721484008A9C87016E000BF00200AE0B4
:1014600005A9095C490005AB421C9A5CD2111143E5
:1014700005AA1154401C0F28F2DB08A9C9784906B7
:101480000A0E08A9CA7000BF802120461030226AC7
:10149000815404E0002120461030226A8154206AE1
:1014A000401C20621028F5D300BF002009E021462F
:1014B0001031095C05AA125C5140224610321154C9
:1014C000401C1028F3DB00BF00BF002006E0215CB9
:1014D00022461032125C51402154401C1028F6DB89
:1014E00000BF1022214601A80DF022FC2246243222
:1014F000294601A80CF0D0FF1022002105A80DF00C
:1015000031FC09B030BD10B5044610220021204640
:101510000DF028FC00202062F0220021204624301B
:101520000DF020FC10BD70B505460C462A4624324D
:10153000102120460CF0DEFF70BDF0B585B00446EA
:101540000F461546206A002830D01021206A081A5C
:10155000A84202D2206A081A00E028460646B2B223
:1015600023461033216AC81839460DF0E1FB206A82
:1015700080192062206A102801D3B54201D105B03C
:10158000F0BD00BF002006E0215C22461032125C54
:1015900051402154401C1028F6DB00BF2246243263
:1015A000214620460CF078FFBF19AD1B1CE000BFA0
:1015B000002004E0215C3A5C51402154401C10287A
:1015C000F8DB00BF1022214668460DF0B1FB224631
:1015D0002432694668460CF05FFF102269462046B7
:1015E0000DF0A6FB1037103D102DE0D8AAB23946F9
:1015F000204610300DF09CFB256200BFBFE70000C5
:10160000FEB504460D4600260020009001940120FE
:101610000003029001A91B4801F068F8002801D0DE
:1016200000F092FC0021174800F0F4FF002717E0BB
:10163000144801F033FB6421124801F0BBFA00BFEB
:10164000104801F061F90121490208400028F7D053
:101650000C4801F05CF9009000983618781CC7B26D
:10166000AF42E5DB074801F055FB019406480290C4
:1016700001A9044801F03AF829463046FEF738FD42
:10168000FEBD0000E40A00200110000070B5044611
:101690000125A01E03000CF06CFA07051328364B39
:1016A000677C8A00474800780F2808DA45480378A5
:1016B0000078401C434E30704348C454002578E005
:1016C000404800780E280FDA3E4803780078401C26
:1016D0003C4E30703C48C454304603780078401C7F
:1016E00030703948C154002563E0364800780F282F
:1016F00008DA344803780078401C324E30703248A3
:10170000C454002555E02F4800780E280FDA2D48E4
:1017100003780078401C2B4E30702B48C454304660
:1017200003780078401C30702748C154002540E001
:10173000244800780D2816DA224803780078401CE7
:10174000204E30702048C454304603780078401C46
:1017500030701D48C154304603780078401C30700A
:101760001948C254002524E0164800780E280FDAE4
:10177000144803780078401C124E30701248C4544C
:10178000304603780078401C30700F48C154002563
:101790000FE00C4800780F2808DA0A480378007830
:1017A000401C084E30700848C454002501E0022057
:1017B00070BD00BF002D02D10120044B18702846D7
:1017C000F6E700007B000020B91000207A0000201E
:1017D00070B503460C460020154D2956012B25D126
:1017E000002903D10025134E35601FE0114D2D68EF
:1017F000402D01D3012000E000200E4D2D68602D0A
:1018000014D30C4D2D78203DAD06AD0E002D0DD11D
:10181000002901DD4D1E69B2002907D1012C05D137
:10182000054D2D8807263543034E3580117070BD58
:101830005201002074000020C810002010B50022C2
:101840004021024801F0D4FC10BD00000008005007
:1018500000B587B05648806B0121090708435449F9
:10186000886300BF0846C06A012108435049C86226
:101870000846C06AC007C00F019000BF00BF00BF8C
:101880000846C06A022108434949C8620846C06A3E
:1018900002210840019000BF00BF00BF4448C06A59
:1018A000042108434249C8620846C06A042108402E
:1018B000019000BF00BF00BF3D48C06A80210843BF
:1018C0003B49C8620846C06A80210840019000BFB9
:1018D00000BF384800F0AEFF002036498865364822
:1018E00004F008F90021344860304172334804F0B4
:1018F00001F90021314860304172314804F0FAF8B2
:1019000000212F48603041722E4803F043FA002135
:101910002C48403041742C4803F058FF00212A48DD
:1019200020304175052001F0BBFC062001F0B8FC19
:10193000072001F0B5FC2548029003200390022007
:1019400004900020059002A90520000701F050FB3B
:1019500002A91F4801F04CFB02A91E4801F048FBF8
:101960001D4802900320039002200490002005905F
:1019700002A91A4801F03CFB03F0D0FE0C48C06AF3
:10198000400840000A49C8620846C06A02218843EC
:101990000749C8620846C06A042188430449C862EE
:1019A0000846C06A802188430149C86207B000BD6B
:1019B00000100240E40A00200C0300207C030020F9
:1019C000EC030020B0090020AC0A0020FFFF00005B
:1019D00000080050001C0050FFFD000000040050F3
:1019E00008B54D480078002813D101F015FC0AF025
:1019F000FFFF08F0C3FA0BF0C9F908F0FBFF05F090
:101A000047FC08F07BFC08F037FC012042490870D5
:101A100010E00BF03FF80BF0B9F908F0EBFF05F020
:101A200037FC08F06BFC08F027FC3C4801683C4898
:101A30000068884700BF3B48C06A04210843394911
:101A4000C8620846C06A04210840009000BF00BF79
:101A500000BF3448C06A802108433249C862084642
:101A6000C06A80210840009000BF00BF00BF2D4821
:101A7000C06A022108432B49C8620846C06A022195
:101A80000840009000BF00BF00BF2648C06A012187
:101A900008432449C8620846C06AC007C00F0090C6
:101AA00000BF00BF05F06EFC05F08EFC05F0BCFC2D
:101AB00008F026FAFFF7C2FE0DF05CF805F032FCE4
:101AC0006B2119A00CF016F800F0D6F800F01AF906
:101AD00003280BDC2148C07A06225043E122120180
:101AE00081181FA00CF006F804F0ECFB0022032183
:101AF000022001F0EDFB022001F0DEFB00220221BA
:101B00000E2001F0E5FB0E2001F0D6FB08F0F8F8FE
:101B10000CF034FE08BD000039000020A8F70008D2
:101B20003C000020001002404E4F524D414C3A2ED6
:101B30002E5C48414C5C73797374656D5C626F61B7
:101B400072642E632C2025643A20426F61726449CE
:101B50006E69744D63750D0A00000000D802002004
:101B6000626174746572792065787472656D656CF4
:101B700079206C6F772025646D563B656E746572B5
:101B8000207374616E6462790D0A000000B587B03D
:101B900000BF3448C06A012108433249C862084680
:101BA000C06AC007C00F019000BF00BF00BF084659
:101BB000C06A022108432B49C8620846C06A022154
:101BC0000840019000BF00BF00BF2648C06A042142
:101BD00008432449C8620846C06A042108400190AD
:101BE00000BF00BF00BF1F48C06A802108431D49D5
:101BF000C8620846C06A80210840019000BF00BF4B
:101C0000194800F0B9FF002017498865174802906D
:101C100003200390012004900220059002A90520D2
:101C2000000701F0E5F9124802900320039000201C
:101C300004900220059002A90E4801F0D9F9202055
:101C4000029011200390002004900220059002A928
:101C5000084801F0CDF900222021064801F0C8FA19
:101C600007B000BD00100240E40A002003F90000A4
:101C700078DC00000004005000B587B000BF1F48AA
:101C8000C06A012108431D49C8620846C06AC007EE
:101C9000C00F019000BF00BF00BF0846C06A02210C
:101CA00008431649C8620846C06A022108400190EC
:101CB00000BF00BF4020029001200390002004904C
:101CC000059002A90E4801F093F90120029000202E
:101CD00003900490059002A90520000701F088F9FF
:101CE0000720C0010290002003900490059002A9F3
:101CF000034801F07DF907B000BD0000001002406C
:101D000000080050F0B58DB000200B900C900A2117
:101D10000120FFF775FC694688854449098B4A0014
:101D20008A186946898D4A431046FEF711FE0A90CB
:101D30000A213F48FFF764FC80B26946C8853B49E9
:101D4000098B4A008A186946C98D4A431046FEF736
:101D5000FFFD09900A213748FFF752FC69460886C3
:101D6000098E0A03501AFEF7F3FD089008990A98A5
:101D7000FEF71DFC0646FEF76BFE04460D4608996D
:101D80000998FEF714FC07462B49FEF7D3FB0646DD
:101D9000FEF75EFE0690079102AA33C26846808D68
:101DA00000906846C38D028E2048018B23480BF0BB
:101DB000A1FE08990A98FEF7FAFB05462049FEF7AE
:101DC000B9FB04461F49FEF76BFE03D201211E48F2
:101DD000817202E000211C48817208990998FEF77F
:101DE000E6FB07461449FEF7A5FB06461749FEF732
:101DF00099FB05461649FEF7DAFB0446FEF7D2FDCD
:101E0000C1B21148C172C07A642803DB64210E4854
:101E1000C17206E00C48C07A052802DC03210A489A
:101E2000C1720948C07A0DB0F0BD00006000F81F13
:101E300002000004000002440000FA445CFE0008B6
:101E400000A0BE4500A08C45D802002000006145DE
:101E50000000C040F0B5044600260027002512E02F
:101E60002046E117090F091809110901661A3946B8
:101E70007F1C102007F0F0F9704345192046E11748
:101E8000090F09180C11002CEAD12846F0BD10B535
:101E9000044620460CF0BEFC10BD30B502460023BF
:101EA0001046D417240F24182405230E042B01DC1C
:101EB000182A01DB002030BD1046D417240F241847
:101EC00024112401151B0124AC405D004D5BA5438A
:101ED0005C000D530120EEE710B5022001F078F808
:101EE00010BD10B5042001F073F810BD10B510201E
:101EF00001F06EF8202001F06BF8402001F068F846
:101F0000802001F065F8FF20013001F061F8012028
:101F1000400201F05DF80120800201F059F8012033
:101F2000C00201F055F80120000301F051F8012032
:101F3000400301F04DF80120800301F049F8012031
:101F4000C00301F045F810BD10B502A00BF0D2FDA2
:101F500010BD00006572726F720D0A008168002961
:101F600007D00168096809682022114302681268D5
:101F70001160704738B50446002C5ED02820005D03
:101F800000285AD0206800680068202108400028F6
:101F900028D0694620680BF0A5FC002821D1A06854
:101FA00000281ED068460078E28AA1688854E08A3A
:101FB000401C80B2E082E189884201DB0020E0829F
:101FC000608BE189884203DA608B401C608301E00A
:101FD000E08A2083606A002803D068460078616A3E
:101FE000884700BF206800680068802108400028FA
:101FF00023D0A08A00280CD120680068006888439C
:10200000216809680860206A002816D0206A804785
:1020100013E0638A6268D15C20680BF071FC0028D1
:102020000BD1608A401C80B26082A189884201DBAA
:1020300000206082A08A401EA08238BDF0B5069DB7
:10204000059C0160426083608481C5810026068210
:102050004682C682068346838682079EC661089EA4
:102060000662099E4662012628273E54F0BD000004
:10207000024600210FE0C800094B1858904208D8CA
:10208000481CC0001858904203D9C800C0180079F5
:102090007047481CC1B21529EDD300BFFEE7000010
:1020A0002CF80008F0B58FB0A948C07800287DD082
:1020B000A74800780028FAD0A549491DA54805F091
:1020C000BDFAA4488630FEF705F90746FEF75CFC2A
:1020D00005460022A04BFEF7C3FB099108909D48DE
:1020E0008130FEF7F7F80746FEF74EFC0546002262
:1020F000994BFEF7B5FB0791069096488030807AA1
:102100000490099908980391029092488030407990
:10211000009092A0079B069A0BF0ECFC4A2196488F
:10212000406C954A128881548A488130FEF7D2F873
:102130000A908848803040790B9086488630FEF7B8
:10214000C9F80C9083488030807A0D9000240120DB
:10215000894908804AE02046E10F091849104900E2
:10216000611A01290CD1A0000AA9095C82480288E1
:102170000088401C804B18801846406C815433E026
:10218000A0000AA90858000E7B490A880988491C42
:10219000794B19801946496C8854A0000AA908583F
:1021A0000002010E18460288008800E04EE0401C44
:1021B00018801846406C8154A0000AA9085A0004EF
:1021C000010E184602880088401C18801846406C92
:1021D0008154A0000AA9095C184602880088401CA6
:1021E00018801846406C8154601CC4B26248008854
:1021F0000A28B0DD61480078002826D000BF604979
:10220000086B80475C4802880223416C01200BF078
:10221000EBFB7D20800100F0FFFD5A48C0780028CC
:10222000EDD072B600205749C87062B60020484908
:10223000C870087010215048403001730120444993
:102240000871012143488030C1724EE000F0D6FF92
:102250003F49C96B401A4C49884242D93C480078F2
:1022600000283ED03A48C07800283AD100F0B6F8AD
:1022700046480AF0FBFE00204249C8703F480078FB
:10228000002832D042A00BF035FC00BF022304220C
:1022900043A101200BF0A8FB7D20800100F0BCFDD4
:1022A0003848C0780028F1D072B600203549C8708F
:1022B00062B6002026490870481DFDF7F6FF044667
:1022C00021462348401DFDF7D1FF20212A484030F8
:1022D000017301201E49087100211E488030C1721F
:1022E00003E0402124484030017319480079002858
:1022F0002BD117480078002827D100F06FF8144838
:10230000401DFDF7D2FF044621461148401DFDF750
:10231000ADFF1C488078002807D030211648403097
:10232000017321A00BF0E6FB03E0002112484030CE
:10233000017301200649087114480AF097FE002233
:102340000121C9031F4800F053FF0FB0F0BD00008A
:10235000A8080020580B0020006AF84032322D2DCA
:102360002D252E3566202531632C20252E3566201F
:102370002531630D0A000000980200205102002060
:10238000A8F700089416002010270000440B002036
:102390004770735F53656E645F537461650D0A0027
:1023A0006F76657200000000486172647761726543
:1023B0005F45786973745F475053204552524F52BE
:1023C0000D0A00000004005070B504460D46164684
:1023D00032462946204600F00BFF70BD00B587B09D
:1023E00000BF1048C06A022108430E49C86208466F
:1023F000C06A02210840019000BF00BFC8020290DD
:1024000011200390002004900320059002A90648A3
:1024100000F0EEFD01221103034800F0E9FE07B0D1
:1024200000BD0000001002400004005010B5012261
:102430001103024800F0DCFE10BD00000004005053
:1024400000B587B000BF0D48C06A022108430B49A0
:10245000C8620846C06A02210840019000BF00BF60
:10246000C80202900120039004900320059002A965
:10247000034800F0BDFD07B000BD000000100240A1
:102480000004005010B50121C903024800F0ACFE61
:1024900010BD00000004005010B5FFF7C7FF002476
:1024A00000BF1C2000F0FCFE334B0E2233A1374846
:1024B00003F082FE1C2000F0FFFE7D20C00000F033
:1024C000ABFC641C552132A00BF014FB344800789F
:1024D000002801D1032CE4D93148007800280DD11F
:1024E000032C0BD32F488078002805D030212E48AC
:1024F00001732EA00BF0FEFA002010BD28480078D2
:10250000002836D000BF1C2000F0CAFE1A4B34222F
:102510002DA11E4803F050FE1C2000F0CDFEC82067
:1025200000F07AFC1E4840780028ECD000BF1C2048
:1025300000F0B6FE104B132230A1144803F03CFE0D
:102540001C2000F0B9FEC82000F066FC144880781A
:102550000028ECD006F06CFE2D480AF087FDFF2124
:10256000F5312B480AF02EFD29480AF03BFD0120E9
:10257000C3E70020C1E70000FFFF000024504D54D6
:102580004B3130332A33300D0A0000007C03002029
:10259000475053206C696E65203D2025640D0A006C
:1025A000A808002094160020D80200204861726418
:1025B000776172655F45786973745F475053204552
:1025C00052524F520D0A000024504D544B333134B7
:1025D0002C312C302C302C302C302C302C302C301A
:1025E0002C302C302C302C302C302C302C302C300B
:1025F0002C312C302C302A32380D0A0024504D5406
:102600004B3232302C313030302A31460D0A000046
:10261000440B0020F8B5044600250026002700BF23
:102620005420005D012801D10220F8BD0121542071
:10263000015500BF206880688007800F012806D1FF
:10264000206800680840002801D0012000E0002038
:1026500000283FD1A06DFF210131884302210843AA
:10266000A0652068C0688707BF0F2068C068800821
:1026700080002168C860206880680121C90708437C
:102680002168886000F0BAFD064611E000F0B6FD52
:10269000801B0A280CD9A06D022188431021084311
:1026A000A06500BF00215420015500BF0120BCE7F8
:1026B00020688068C00FC0070028E7D12068C06884
:1026C00038432168C860A06D022188430121084376
:1026D000A06504E0A06D20210843A065012500BF8E
:1026E00000215420015500BF28469EE770B50446DE
:1026F0000D4600BF5420005D012801D1022070BDAD
:1027000001215420015500BF206880680421084041
:10271000800800280AD0A06D20210843A06500BFD2
:1027200000215420015500BF0120E8E73C496868BA
:10273000884238D02068806A29684903490B0843D9
:102740002168886228684003400B3649084001210F
:102750008904884208D134488068490108433249D5
:1027600088600A20FEF744FD28684003400B2F498B
:10277000084001214904884205D12B48806849015D
:1027800008432949886028684003400B28490840CD
:102790000121090488423BD123488068090208438B
:1027A0002149886034E02068806A29684903490B20
:1027B00088432168886228684003400B1949084013
:1027C00001218904884205D117488068490188435E
:1027D0001549886028684003400B144908400121CE
:1027E0004904884205D110488068490188430E4950
:1027F000886028684003400B0D4908400121090406
:10280000884205D1084880680902884306498860E3
:1028100000BF00215420015500BF00206FE70000D9
:10282000011000000000044800270140000002449D
:102830000000014070B504460025002C01D10120A4
:1028400070BDA06D02210843A0652046FEF799FCEB
:102850000546002D07D12046FEF7E0FC0546012D78
:1028600001D00120A065012D3ED02068406822499A
:102870000840216848602048C043216808602068FB
:102880008068012109078843216888602068C06842
:102890001A4908402168C860206800691849084042
:1028A0002168086120684069C008C000216848614B
:1028B0002068006A13490840216808622068803057
:1028C000406BC109C90120688030416320688030B5
:1028D000406BC109C901206880304163204600F087
:1028E00035F90020E065A06500BF002154200155A6
:1028F00000BF2846A4E7000060F7FFFF00023E8308
:1029000002FCFF3F00F000F00146886D7047014671
:102910000868006C7047000010B50446002C01D117
:10292000012010BDA06D002806D1E06500215420D3
:102930000155204600F020F9A06D10210840002824
:1029400006D12068806804210840800800280AD049
:10295000A06D10210843A06500BF0021542001553F
:1029600000BF0120DDE7A06DFF2101318843022176
:102970000843A065206880688007800F012807D180
:1029800020680068C007C00F002801D0012000E0C7
:10299000002000283AD100BF0321890760688842DF
:1029A00007D049426068884203D049006068884285
:1029B0000CD12068006980008008216808612068C7
:1029C0000069616808432168086112E020680069B5
:1029D00080008008216808615A4880680F218904B6
:1029E00088435849886008468068616808435549AB
:1029F000886000BF2068C068182188432168C860CB
:102A00002068C068A16808432168C8604D48806894
:102A10000121490688434B49886008468068218F18
:102A200049060843474988602068806801210907F2
:102A30000840002804D12068806808432168886025
:102A40002068C068404908402168C8602169E06882
:102A5000022901D1042100E000210843216A490331
:102A60000843216B49000843616B0843A16989034E
:102A70000843E169C90308432168C968084321681C
:102A8000C860FF21C231A06A884207D0E16AA06A0B
:102A900008432168C96808432168C860606A012842
:102AA00012D1206A002807D12068C06801210904DA
:102AB00008432168C86007E0A06D20210843A06595
:102AC000E06D01210843E065206C012817D12068E2
:102AD0000069FF218900884321680861616CA06C4E
:102AE0000843E16C084321680969084321680861CB
:102AF0002068006901210843216808610BE0206813
:102B00000069C007C00F002805D020680069400890
:102B100040002168086120684069C008C000216841
:102B2000486120684069E16B0843216848610020E2
:102B3000E065A06D0221884301210843A0650020C3
:102B4000EFE60000002701401902FEFF10B5044621
:102B50000749206888420AD10648406B49158843D6
:102B60000449486301210520000700F063F910BD06
:102B7000002401400010024010B586B004460B4905
:102B80002068884210D10A48406B4915084308491B
:102B9000486301200190032002900020039001A9C6
:102BA0000520000700F024FA06B010BD0024014003
:102BB00000100240F8B504460D4600260027606963
:102BC000082801D1082711E02068C068C007C00F9D
:102BD00000280AD0A06D20210843A06500BF002175
:102BE0005420015500BF0120F8BD0C2700F006FB62
:102BF000064614E0681C002811D0002D04D000F017
:102C0000FDFA801BA8420AD9A06D04210843A065E3
:102C100000BF00215420015500BF0320E4E72068D5
:102C2000006838400028E5D0A06D01214902084322
:102C3000A0652068C068032189020840002825D1CA
:102C4000206A002822D1206800680821084008284E
:102C50001CD12068806804210840800800280DD11C
:102C6000206840680C21884321684860A06DFF21DE
:102C70000131884301210843A06507E0A06D2021B0
:102C80000843A065E06D01210843E065A0690028C4
:102C900002D10C20216808600020A5E770B5044629
:102CA00000252068806804210840800800282BD176
:102CB00000BF5420005D012801D1022070BD012118
:102CC0005420015500BFE069012803D02046FEF7DB
:102CD000F3FA0546002D18D1A06D0D490840FF21DB
:102CE00001310843A0650020E06500BF00215420A9
:102CF000015500BF1C2021680860206880680421FD
:102D000008432168886000E002252846D6E70000D5
:102D1000FEF1FFFF70B50446002500BF5420005DA2
:102D2000012801D1022070BD01215420015500BFAE
:102D30002046FEF726FA0546002D0CD12046FEF768
:102D40006DFA0546002D06D1A06DFF2101318843A3
:102D500001210843A06500BF00215420015500BF98
:102D60002846E0E770B5044600252520005D0228CE
:102D700003D00420E063012549E0206800680E21AB
:102D80008843216808602068006840084000216886
:102D9000086020492068884201D1012026E01D49B1
:102DA00014312068884201D110201FE019492831D0
:102DB0002068884201D1801518E016493C3120680E
:102DC000884201D1801411E01249503120688842B4
:102DD00002D10120000409E00E49643120688842D4
:102DE00002D10120000501E001200006094908394F
:102DF000486001212520015500BF002124200155F4
:102E000000BFA06B002802D02046A16B884728464F
:102E100070BD00000800024031B5002400F0EEF95A
:102E2000044600BF00F0EAF9001B00998842F9D37C
:102E300038BD0000F0B50B4600210022002479E0E7
:102E400001258D401D402A46002A72D005684F009A
:102E50000326BE4035430560CD08AE00054620354B
:102E6000AD594E07F70E0F26BE40B543CE08B6004B
:102E700007462037BD5185684F000326BE40B54345
:102E80008560456801268E40B5434560C5684F00A2
:102E90000326BE40B543C560294D8E08B600AC5927
:102EA0008D072E0F0F25B5402C4005252D07A84274
:102EB00001D1002519E0234DA84201D1012514E0DC
:102EC000214DA84201D102250FE0204DA84201D199
:102ED00003250AE01E4DA84201D1042505E01D4D41
:102EE000A84201D1052500E006258E07360FB54022
:102EF000A5421ED18D072E0F0F25B5402C46104D33
:102F00008E08B600AD59A5430D4E8F08BF00F55190
:102F1000114D2D689543104E356035466D689543CB
:102F200075603546AD689543B5603546ED689543A7
:102F3000F560491C1D46CD40002D81D1F0BD00003B
:102F4000080001400004005000080050000C005030
:102F500000100050001C00500004014010B5044651
:102F6000022C05D107F06AFD0AA00AF0C3FD10E0AB
:102F7000042C05D107F06EFF0BA00AF0BBFD08E0A2
:102F800001208002844204D108F02AF80BA00AF044
:102F9000B1FD10BD5358313237364F6E44696F3032
:102FA0004972710D0A0000005358313237364F6EA6
:102FB00044696F314972710D0A0000005358313273
:102FC00037364F6E44696F324972710D0A00000046
:102FD00010B50446054840692040002804D020462A
:102FE000FFF7BCFF0148446110BD00000004014030
:102FF00070B50346002200240020DFE00126964041
:103000000D6835402C46002C77D04D68022D02D03B
:103010004D68122D15D1D508AE001D462035A85992
:103020005507EE0E0F25B5400646AE43304656070F
:10303000F60E0D69B5402843D508AD001E46203672
:1030400070514D68012D08D04D68022D05D04D6896
:10305000112D02D04D68122D18D198685600032505
:10306000B5400646AE4330465600CD68B5402843CD
:1030700098605868012595400646AE4330461026B4
:103080004D6835402D099540284358601868560012
:103090000325B5400646AE4330460D79AD07AD0F6A
:1030A0005600B54028431860D86856000325B5403F
:1030B0000646AE43304656008D68B5402843D8607A
:1030C000012636074D683540B54276D13E4D6D6BD1
:1030D000012635433C4E75633C4D9608B600A85911
:1030E00095072E0F0F25B5400646AE433046052501
:1030F0002D07AB4202D100251AE05EE0344DAB4211
:1031000001D1012514E0334DAB4201D102250FE07E
:10311000314DAB4201D103250AE0304DAB4201D124
:10312000042505E02E4DAB4201D1052500E0062522
:103130009607360FB5402843244D9608B600A8518F
:10314000284D28680546A5432846012636044D68C3
:103150003540B54202D1054625432846214D286019
:1031600068680546A5432846012676044D68354023
:10317000B54202D10546254328461A4D6860A86825
:103180000546A5432846012636054D683540B5421B
:1031900002D1054625432846124DA860E868054639
:1031A000A5432846012676054D683540B54202D133
:1031B0000546254328460B4DE860521C0D68D54056
:1031C000002D00D01AE770BD001002400800014039
:1031D0000004005000080050000C00500010005087
:1031E000001C00500004014042694A40426170479F
:1031F000002A01D0816100E08162704701480068C7
:10320000704700000400002002480068401C01498B
:10321000086070470400002010B50648006840218F
:10322000084304490860002000F006F800F018F890
:10323000002010BD0020024070B504467D21C90069
:1032400006480068FCF754FF054602F047FA0022E2
:103250002146501E00F03CF8002070BD0000002008
:1032600010B50E48406B012108430C4948630846DD
:10327000806B090408430949886300221146501FE6
:1032800000F026F800221146901E00F021F80022DE
:103290001146501E00F01CF810BD00000010024046
:1032A00000BFC206D20E01219140024A116000BF48
:1032B0007047000080E100E000BFC206D20E01218D
:1032C0009140024A116000BF7047000000E100E039
:1032D00070B504460D4616462946204604F048FBC4
:1032E00070BD0000034800680121890208430149BC
:1032F00008607047007000400348006801214902DF
:1033000008430149086070470070004003480068A6
:103310001021884301490860704700000070004098
:1033200010B5024600200B4B186880088000034649
:1033300013431846074B1860074B1B690424A3432B
:10334000054C2361012901D130BF02E040BF20BFFD
:1033500020BF10BD0070004000ED00E010B5024637
:1033600000200E4B1868800880000346134318465F
:103370000A4B18600A4B1B6904242343084C236141
:10338000012901D130BF02E040BF20BF20BF044B64
:103390001B690424A343024C236110BD007000404C
:1033A00000ED00E0F0B585B0054600260020039052
:1033B00002900024002701900090102D7ED008DCA0
:1033C000012D7CD0022D7BD0042D7AD0082D79D10F
:1033D0003BE1202D0AD0402D51D0E81FF9380028BC
:1033E00071D007210902401AF1D100E000BFC648A0
:1033F000066900690321090408400446012000040D
:10340000844206D1C0113040002802D060100290E2
:1034100034E001204004844206D1022030400028DC
:1034200002D0BA48029029E003200004844223D14C
:10343000B5484038006801214904084000281BD0E5
:10344000B148403800682101084003900121090576
:103450000398401A09D0401A04D0401A08D1AC4849
:10346000029008E0AB48029005E0AB48029002E011
:10347000AA48029000BF01E0002002903FE1A2486C
:10348000C0680121890608400446002C42D19E48AC
:10349000403800684910084000283BD09A4840381E
:1034A000C0680F2189040840074697484038C06823
:1034B0000321890508400190B80C05E0EAE03AE0F4
:1034C00064E08FE01AE1F4E095490F5C0198800D0B
:1034D000401C01908C484038C06801210904084014
:1034E00000280CD188484038006810210840002886
:1034F00002D08A48009004E08A48009001E08A489F
:10350000009000987843009001990098FCF7F0FD36
:1035100002900FE001208006844209D17A484038A9
:10352000806802210840002802D08048029001E013
:1035300000200290E3E07448C0688407A40F002CC8
:1035400003D100F05FFB02901FE0022C09D16E480E
:103550004038006804210840002802D071480290D9
:1035600013E0012C03D100F05FFB02900DE0032C6F
:1035700009D165480069012149020840002802D0AC
:103580008801029001E000200290B8E05E48C06827
:103590000C2108400446002C03D100F021FB0290CE
:1035A0001FE0082C09D15848403800680421084021
:1035B000002802D05B48029013E0042C03D100F0F5
:1035C00033FB02900DE00C2C09D14F48006901211A
:1035D00049020840002802D08801029001E0002042
:1035E00002908CE04848C0680321890208400446E4
:1035F000002C03D100F0F4FA029025E00120C00273
:10360000844209D14048403800680421084000281D
:1036100002D04448029017E001208002844203D186
:1036200000F002FB02900FE003208002844209D1E7
:1036300035480069012149020840002802D088016C
:10364000029001E00020029059E02F48C068032159
:10365000090308400446002C03D100F0C1FA02908F
:1036600017E001204003844209D127484038006810
:1036700004210840002802D02A48029009E00120D5
:103680000003844203D100F0CFFA029001E0002051
:10369000029034E01C484038806B012189050840C5
:1036A000884203D100F09CFA029001E000200290D1
:1036B00025E01548C0680321090408400446002C91
:1036C00003D100F08DFA029017E0012040048442FB
:1036D00009D10D484038006804210840002802D074
:1036E0001048029009E001200004844203D100F058
:1036F0009BFA029001E00020029000E000BF00BFB2
:10370000029805B0F0BD0000401002408890000013
:1037100020A1070040420F0080841E0000093D00E8
:103720009EF700080024F40000127A00006CDC020E
:10373000F8B50446002600252021206808402028EE
:1037400004D089012068084088427DD1202120686A
:103750000840202800D100BF0121C902206808408C
:10376000884200D100BF00279948806B01210907DA
:103770000840002805D19648806B08439449886327
:10378000012794480068FF2101310840002816D124
:103790009048006808438F490860FFF72FFD0646F0
:1037A00006E0FFF72BFD801B642801D90320F8BD3C
:1037B00088480068FF21013108400028F1D0844882
:1037C0000068032109050840054660680840A842D2
:1037D00003D1A0680840A8420ED003210904606804
:1037E0000840884208D17A4800680121490408400D
:1037F000002801D00120DAE7754840300069032134
:10380000090408400546002D49D060680840A842D8
:1038100004D020212068084020280BD0032109046F
:10382000A0680840A8423AD00121C9022068084097
:10383000884234D166484030006903210904884336
:1038400005466348403000E052E000690121C904A8
:1038500008435F4940310861084600690121C904F5
:1038600088435B494031086108460561801528405E
:10387000002814D0FFF7C2FC064607E0FFF7BEFCA5
:10388000801B5549884201D9032090E750484030B9
:103890000069012149020840400A0028EED000BF1B
:1038A00000BF032109046068084088420AD14848E3
:1038B000006809018843032212056168114008432A
:1038C0004349086000BF42484030006903221204A7
:1038D0006168114008433E494031086100BF012F33
:1038E00005D13B48806B890588433949886300BF0F
:1038F0002078C007C00F002809D035484030C06884
:1039000080088000E168084331494031C8600221E5
:1039100020680840022809D12D484030C0680C2199
:103920008843216908432A494031C860042120683E
:10393000084004280AD126484030C0680321890283
:1039400088436169084322494031C86008212068E2
:10395000084008280AD11E484030C06803210903E6
:103960008843A16908431A494031C860FF210131E9
:103970002068084088420AD115484030C0680321B9
:1039800009048843E169084311494031C860402176
:1039900020680840402809D10D484030C06809051A
:1039A0008843616A08430A494031C8608021206821
:1039B000084080280AD106484030C06803218904A5
:1039C0008843216A084302494031C8600020EEE67E
:1039D00000100240007000408813000070B50446DB
:1039E0000D46002676480068C007C00FA8420ED2D8
:1039F0007348006840084000284371490860084641
:103A00000068C007C00FA84201D0012070BD02218C
:103A100020680840022807D16A48C068F02188431E
:103A2000A16808436749C8602078C007C00F002814
:103A30004CD06068022809D162480068012149041D
:103A40000840400C002824D10120DFE760680328EB
:103A500009D15C480068012149060840400E002851
:103A600017D10120D2E76068012808D155480068C5
:103A700004210840800800280BD10120C6E75148E6
:103A80000068012149020840400A002801D10120B4
:103A9000BCE74C48C0688008800061680843494919
:103AA000C860FFF7ABFB0646606802280FD107E04D
:103AB000FFF7A4FB801B4449884201D90320A5E7F6
:103AC0004048C0680C2108400828F1D134E0606803
:103AD00003280FD107E0FFF791FB801B3A4988428A
:103AE00001D9032092E73748C0680C2108400C2810
:103AF000F1D121E0606801280FD107E0FFF77EFBDC
:103B0000801B3149884201D903207FE72D48C068D6
:103B10000C2108400428F1D10EE007E0FFF76EFB0E
:103B2000801B2949884201D903206FE72548C068D6
:103B30000C2108400028F1D121480068C007C00FBF
:103B4000A8420ED91E4800684008400028431C497E
:103B5000086008460068C007C00FA84201D00120D5
:103B600054E7042120680840042808D11548C0689B
:103B7000072109028843E16808431249C860082107
:103B800020680840082809D10E48C0680721C902EA
:103B900088432169C90008430A49C86000F044F815
:103BA0000849C968F02211400909084A515CC84017
:103BB000074908600020FFF73FFB002026E70000D0
:103BC00000200240001002408813000086F7000821
:103BD000000000200148006870470000000000203D
:103BE00000B5FFF7F7FF0549C96807221202114027
:103BF000090A034A515CC84000BD000000100240A1
:103C000096F7000800B5FFF7E5FF0549C9680722E8
:103C1000D2021140C90A034A515CC84000BD0000ED
:103C20000010024096F70008FEB500250026002788
:103C300000240020019000902F48C5680C202840E7
:103C4000002847D0042804D008280ED00C2840D1E2
:103C50000EE02948006810210840002802D02748BB
:103C6000009001E02648009042E0264800903FE0A6
:103C70000F2080042840800C23490E5C032080051F
:103C80002840800D471C1C48C068012109040840D9
:103C9000002807D01B49714308463946FCF728FA2B
:103CA000044614E01448006810210840002807D09A
:103CB0001249714308463946FCF71AFA044606E0F1
:103CC0000F49714308463946FCF712FA044600943E
:103CD0000EE000BF08484068072149030840400B38
:103CE00001900198401C01218140C803009000BF51
:103CF00000BF0098FEBD00000010024000093D001A
:103D00000024F40000127A009EF70008F8B504467B
:103D100000252078C007C00F00287DD0FE48C0686D
:103D20000C21084008280BD0FB48C06808400C282C
:103D300013D1F948C06801210904084088420CD118
:103D4000F5480068012149040840400C002863D070
:103D50006068002860D10120F8BD00BF012109047E
:103D60006068884205D1EC4800680843EA49086069
:103D700027E005210904606888420ED1E648006802
:103D8000012189040843E4490860084600680121CC
:103D900009040843E049086013E0DF480068012196
:103DA00009048843DC4908600846006801210904C9
:103DB0000840009000BFD848006889008843D64971
:103DC000086000BF6068002813D0FFF717FA0546A7
:103DD00006E0FFF713FA401B642801D90320BBE774
:103DE000CD480068012149040840400C0028F0D06B
:103DF00012E0FFF703FA054606E0FFF7FFF9401B64
:103E0000642801D90320A7E7C348006801214904B9
:103E10000840400C0028F0D1022120680840022808
:103E200068D1BD48C0680C21084004280BD0BA48AE
:103E3000C06808400C281DD1B748C068012109049A
:103E40000840002816D1B4480068042108408008C2
:103E5000002804D0E068012801D001207CE7AE48AA
:103E600040681F2109028843216909020843AA49C1
:103E700048603FE0E068002824D0A7480068092196
:103E80008843E1680843A4490860FFF7B7F905468D
:103E900006E0FFF7B3F9401B022801D903205BE7D6
:103EA0009D4800680421084080080028F1D09A4805
:103EB00040681F2109028843216909020843964985
:103EC000486017E094480068400840009249086044
:103ED000FFF794F9054606E0FFF790F9401B02282A
:103EE00001D9032038E78C48006804210840800885
:103EF0000028F1D1102120680840102860D18648A0
:103F0000C0680C21084000285BD18348006801216B
:103F100049020840400A002804D0E069002801D185
:103F2000012019E77C48616A40680722520310406B
:103F3000814219D9606A05F047FE002801D00120AE
:103F40000AE775484068072149038843616A0843C6
:103F500071494860084640680002000A218C090641
:103F600008436D49486018E06B48406807214903E1
:103F70008843616A0843684948600846406800020F
:103F8000000A218C0906084363494860606A05F00D
:103F90001BFE002801D00120DEE6606A400B401CB9
:103FA00001218140C8035C49C968F0221140090918
:103FB0005A4A515CC8405A4908600020FFF73CF952
:103FC00049E0E06900282CD053480068FF21013106
:103FD000084351490860FFF711F9054606E0FFF76D
:103FE0000DF9401B022801D90320B5E64A480068B4
:103FF000012149020840400A0028F0D046484068A4
:10400000072149038843616A0843434948600846D9
:1040100040680002000A218C090608433E494860B6
:1040200019E03D480068FF21013188433A490860A2
:10403000FFF7E4F8054606E0FFF7E0F8401B02282A
:1040400001D9032088E6344800680121490208406C
:10405000400A0028F0D1082120680840082839D1FA
:10406000606900281BD02C484030006901210843BA
:10407000294940310861FFF7C1F8054606E0FFF71E
:10408000BDF8401B022801D9032065E622484030D4
:1040900000690221084040080028F0D01AE01E48BC
:1040A00040300069400840001B4940310861FFF77B
:1040B000A5F8054606E0FFF7A1F8401B022801D944
:1040C000032049E6144840300069022108404008B6
:1040D0000028F0D1042120680840042877D1002668
:1040E0000D48806B89060840002805D10A48806B7E
:1040F00008430949886301260A480068FF21013105
:10410000084000281ED10748006808430549086098
:10411000FFF774F805460EE00010024086F700082D
:104120000000002000700040FFF768F8401B642882
:1041300001D9032010E6A6480068FF21013108409C
:104140000028F1D000BFFF210131A068884205D1CD
:10415000A048006908439F49086130E0A068002832
:104160000DD19C480069FF210131884399490861BC
:104170000846006909158843964908611FE0052132
:104180000902A06888420DD1924800690121890284
:1041900008439049086108460069891508438D491C
:1041A00008610CE08B480069FF210131884389498F
:1041B000086108460069091588438649086100BFFF
:1041C000A068002815D0FFF719F8054608E02FE091
:1041D000FFF714F8401B8049884201D90320BBE552
:1041E0007C480069012149020840400A0028EFD0BC
:1041F00013E0FFF703F8054607E0FEF7FFFF401B5B
:104200007549884201D90320A6E572480069012159
:1042100049020840400A0028EFD1012E07D16D481D
:104220004038806B310788436A494039886300BF52
:10423000202120680840202852D1A06900282BD0D6
:1042400000BF644840388068012108436149403913
:1042500088600846406B012108435E494039486345
:104260005E48006A0121490308435C49086200BFB7
:10427000FEF7C4FF054606E0FEF7C0FF401B02281C
:1042800001D9032068E5534840388068022108407E
:1042900040080028F0D023E000BF4E484038806836
:1042A000400840004B49403988604C48006A012171
:1042B000490388434949086200BFFEF79FFF05464E
:1042C00006E0FEF79BFF401B022801D9032043E5CF
:1042D0004048403880680221084040080028F0D15A
:1042E000A06A002872D03B484038C0680C210840C2
:1042F0000C2869D0A06A022848D1364840380068A6
:10430000012109068843334940390860FEF776FFEA
:10431000054606E0FEF772FF401B022801D9032084
:104320001AE52C4840380068012149060840400E33
:104330000028EFD1216BE06A0843616B08432549EF
:104340004039C968FD22120491430843214940398C
:10435000C860084600680121090608431D49403924
:104360000860FEF74BFF054606E0FEF747FF401BDF
:10437000022801D90320EFE41648403800680121E3
:1043800049060840400E0028EFD01FE01148403891
:1043900000680121090688430E4940390860FEF78C
:1043A0002DFF054606E0FEF729FF401B022801D934
:1043B0000320D1E40748403800680121490608403D
:1043C000400E0028EFD101E00120C5E40020C3E445
:1043D00000700040401002408813000000000140BF
:1043E000704770B50446002500BF2020005D0128FD
:1043F00001D1022070BD01212020015500BF022102
:104400002120015500BFCA2021684862532021683D
:10441000486200BF206880680121890288432168C2
:10442000886020688068012189038843216888604A
:10443000FEF7E4FE054615E0FEF7E0FE401B7D2199
:10444000C90088420ED900BFFF202168486200BF22
:1044500003212120015500BF00212020015500BF6C
:104460000320C7E72068C0680421084080080028AE
:10447000E2D000BFFF202168486200BF0121212057
:10448000015500BF00212020015500BF0020B1E7E9
:1044900010B5044612484068C007C00F01214840CB
:1044A0004840002805D00E480068042108430C4904
:1044B00008600C48C0680C210840042804D0094852
:1044C000C0680840002809D1FDF78AFA06A009F063
:1044D00011FB0BF041F800200949487010BD0000A5
:1044E0000070004000100240776B7570206C6F7791
:1044F0002D706F776572206E6F770D0A00000000D7
:104500009416002010B50446206880680121090334
:104510000840000B002811D02068C068091108402D
:10452000000A00280AD02046FFF7B2FF2068C068C2
:1045300080210840124908432168C86020688068CB
:10454000012149030840400B002811D02068C068B1
:1045500009110840400A00280AD02046FFF740FF12
:104560002068C06880210840064908432168C86067
:10457000012040040449486101212120015510BD5A
:104580007FFEFFFF7FFDFFFF0004014070B5044682
:104590000D46002600BF2020005D012801D1022029
:1045A00070BD01212020015500BF022121200155AD
:1045B00000BFCA202168486253202168486200BFBA
:1045C000FF20013085422CD120688068294688432D
:1045D0002168886020688068290188432168886094
:1045E000FEF70CFE064615E0FEF708FE801B7D2157
:1045F000C90088420ED900BFFF202168486200BF71
:1046000003212120015500BF00212020015500BFBA
:104610000320C5E72068C068C007C00F0028E3D0AA
:104620002EE0206880680121490288432168886063
:104630002068806801214903884321688860FEF76B
:10464000DDFD064615E0FEF7D9FD801B7D21C90082
:1046500088420ED900BFFF202168486200BF0321B5
:104660002120015500BF00212020015500BF03205B
:1046700096E72068C0680221084040080028E2D080
:1046800000BFFF202168486200BF012121200155A1
:1046900000BF00212020015500BF002080E700005E
:1046A000F0B506460C4617460025306840681249AA
:1046B00008400546FF2000042840000CE0701F2041
:1046C00000022840000A6070A806800EA070072033
:1046D00040032840400B2070002F0BD1E07805F0FC
:1046E000C7FAE070607805F0C3FA6070A07805F052
:1046F000BFFAA0700020F0BD3FFFFF00F0B50546F7
:104700000C46174600262868806A606028680069A1
:104710004004400CA0602868006812490840064622
:104720003F2000043040000C20707F200002304009
:10473000000A60707006400EA070012080053040B5
:10474000000CE070002F0BD1207805F091FA20705A
:10475000607805F08DFA6070A07805F089FAA07095
:104760000020F0BD7F7F7F0010B50446002C01D1F2
:10477000012010BD2120005D002808D1002120204B
:104780000155204600F05EF82AA009F0B3F9022195
:104790002120015500BFCA202168486253202168AA
:1047A000486200BF204605F07DFA002809D000BF0E
:1047B000FF202168486200BF04212120015501200B
:1047C000D7E7206880681E49084021688860216911
:1047D00060680843A1690843216889680843216823
:1047E00088602168E06808612068006921890904FF
:1047F0000843216808612068C068802188432168D7
:10480000C8602068C06C800880002168C864616945
:10481000E06908432168C96C08432168C86400BF87
:10482000FF202168486200BF01212120015500209E
:104830009FE700005254435F494E49540D0A00005F
:10484000BFFF8FFF054A0168914206D104490969FB
:10485000012292041143024A11617047002800406E
:1048600040100240FEB504460D46164600270020C3
:104870000190009000BF2020005D012801D102209E
:10488000FEBD01212020015500BF0221212001553C
:10489000002E2AD12068806840210840002800D0DE
:1048A00002E00020E87000BFE869002800D100E0C5
:1048B00000BF287805F0E9F90304687805F0E5F908
:1048C00000020343A87805F0E0F90343E878000408
:1048D00003432021485D05F0D8F900060343E86949
:1048E00003436869034301932FE0206880684021F7
:1048F0000840002804D0287805F0BAF9019002E0B9
:104900000020E87000BFE869002805D12021485D3B
:1049100005F0AEF9019005E02021485D05F0A8F909
:10492000019000BF28780004697809020843A9783B
:104930000843E978090408432021495D0906084332
:10494000E9690843696908430190A96968680843EF
:10495000009000BFCA202168486253202168486245
:1049600000BFFF210131686A884241D12068806818
:104970008843216888602068C068802108404D49CC
:1049800008432168C860FEF739FC074615E0FEF7CA
:1049900035FCC01B7D21C90088420ED900BFFF2015
:1049A0002168486200BF03212120015500BF00217A
:1049B0002020015500BF032062E72068C068C007BF
:1049C000C00F0028E3D001982168C86100982168D1
:1049D000486420688068FF210131084321688860AD
:1049E000206880680121090308432168886043E04A
:1049F0002068806801214902884321688860206816
:104A0000C068802108402C4908432168C860FEF72F
:104A1000F5FB074615E0FEF7F1FBC01B7D21C90041
:104A200088420ED900BFFF202168486200BF0321E1
:104A30002120015500BF00212020015500BF032087
:104A40001EE72068C0680221084040080028E2D024
:104A5000019821680862009821688864206880684D
:104A6000012149020843216888602068806801218B
:104A700049030843216888601048006801214904FF
:104A800008430E490860084680680121490408432C
:104A90000A49886000BFFF202168486200BF0121E9
:104AA0002120015500BF00212020015500BF00201A
:104AB000E6E600007FFEFFFF7FFDFFFF00040140F0
:104AC000F8B504460D461646002700BF2020005DBD
:104AD000012801D10220F8BD01212020015500BF8D
:104AE000022121200155002E09D1687810210840AB
:104AF000102804D16878EF2108400A306870002E31
:104B000011D1E87805F0C1F80304687805F0BDF824
:104B100000020343A87805F0B8F80343287840035F
:104B200003431F4612E0687805F0A2F80746A8780C
:104B300005F09EF80746E878000469780902084302
:104B4000A9780843297849030843074600BFCA20CB
:104B50002168486253202168486200BF204605F062
:104B6000A1F800280ED000BFFF202168486200BFD6
:104B700004212120015500BF00212020015500BF44
:104B80000120A8E719483840216848602068C068BB
:104B9000802188432168C8602068806820210840FF
:104BA000002813D1204600F0CDF800280ED000BF19
:104BB000FF202168486200BF04212120015500BF69
:104BC00000212020015500BF012084E700BFFF2005
:104BD0002168486200BF01212120015500BF00214A
:104BE0002020015500BF002075E700003FFFFF00B7
:104BF000F8B504460D461646002700BF2020005D8C
:104C0000012801D10220F8BD01212020015500BF5B
:104C1000022121200155002E1BD1206880684021EF
:104C20000840002800D002E00020E87000BF28788B
:104C300005F02BF80304687805F027F80002034319
:104C4000A87805F022F80343E878000403431F46E0
:104C500018E02068806840210840002804D02878A7
:104C600005F006F8074602E00020E87000BF28784B
:104C70000004697809020843A9780843E97809041F
:104C80000843074600BFCA202168486253202168B4
:104C9000486200BF204605F005F800280ED000BF8E
:104CA000FF202168486200BF04212120015500BF78
:104CB00000212020015500BF0120A4E720483840F2
:104CC0002168086020688068012189048843216880
:104CD00088602969E8680843216889680843216871
:104CE00088602068C068802188432168C860206887
:104CF000806820210840002813D1204600F022F8C7
:104D000000280ED000BFFF202168486200BF0421A8
:104D10002120015500BF00212020015500BF0120A6
:104D200071E700BFFF202168486200BF01212120F8
:104D3000015500BF00212020015500BF002062E77F
:104D40007F7F7F0070B5044600252068C068A021E1
:104D500088432168C860FEF751FA054608E0FEF76F
:104D60004DFA401B7D21C900884201D9032070BD46
:104D70002068C068202108400028F0D00020F6E715
:104D80000348006902210843014908617047000097
:104D900000E000E010B50446002C01D1012010BD58
:104DA0000221512001552068006840218843216874
:104DB0000860204600F052F8002060650021512074
:104DC000015500BF5020015500BF0020E7E710B596
:104DD0000446002C01D1012010BD5120005D0028A7
:104DE00005D1002150200155204600F057F802213E
:104DF00051200155206800684021884321680860DF
:104E0000A16860680843E168084321690843616953
:104E1000084301225202A16911400843E169084395
:104E2000216A0843A16A084321680860A069000C50
:104E300004210840616A0843216848602168E06AEB
:104E400008612068C069910088432168C86100201A
:104E500060650121512001550020BDE710B586B0E5
:104E600004460C492068884212D10B48406B8914D3
:104E7000884309494863F0200190032002900220F2
:104E80000390049001A905200007FEF7B1F800BFC8
:104E900006B010BD003001400010024010B586B0D1
:104EA000044614492068884222D100BF1248C06AD3
:104EB000012108431049C8620846C06AC007C00FF4
:104EC000009000BF00BF0846406B891408430A49A0
:104ED0004863E0200190022002900020039003200C
:104EE00004900020059001A905200007FEF780F836
:104EF00006B010BD0030014000100240FEB504466F
:104F00000E4615461F46002001905120005D0128E5
:104F10007ED1002E01D0002D01D10120FEBD00BFA9
:104F20005020005D012801D10220F7E70121502027
:104F3000015500BF22215120015500206065A66364
:104F4000A587E587A064E0642063A086E086012150
:104F5000C903A068884205D12068006849108843C9
:104F60002168086001214903A06A88420DD100BF71
:104F70002068006888432168086020680068012173
:104F8000490308432168086000BFFF2105316068BC
:104F900088420FD1A06800280CD100BF002150200A
:104FA000015500BF2B46324631462046009700F09F
:104FB000C2F9B3E72068006840210840402804D0C7
:104FC00020680068084321680860E068002825D14F
:104FD00013E03B4600220121204605F025FA002877
:104FE00001D003209AE72068C068C1B2A26B501CB0
:104FF000A0631170E08F401EE087E08F0128E8D8A1
:1050000001214903A06A88422BD12068006800E092
:10501000A2E0491008432168086022E013E03B4603
:1050200000220121204605F0FFF9002801D00320CD
:1050300074E72068C068A16B0880A06B801CA06327
:10504000E08F401EE087E08F0128E8D80121490366
:10505000A06A884205D12068006849100843216889
:1050600008603B4600220121204605F0DDF90028BA
:1050700001D0032052E7E068002807D12068C0680B
:10508000C1B2A26B501CA063117006E02068C0681A
:10509000A16B0880A06B801CA063E08F401EE0879E
:1050A00001214903A06A884213D13B460022012115
:1050B000204605F0B9F9002805D0606D02210843AB
:1050C000606503202AE72068C06881B201916846C4
:1050D0008088FF210531606888420ED10121C90313
:1050E000A068884203D04911A068884205D1206891
:1050F0000068402188432168086001215120015542
:105100004903A06A884220D12068806810210840A5
:105110000009002819D0606D02210843606500BFB6
:1051200020680068090388432168086020680068D7
:105130000121490308432168086000BF00BF002126
:105140005020015500BF0120E8E600BF002150209B
:10515000015500BF0020E1E60220DFE6F8B5044675
:105160000E4615461F465120005D01287BD1002EBA
:1051700001D0002D01D10120F8BD00BF5020005DFD
:10518000012801D10220F7E701215020015500BF7D
:10519000122151200155002060652663A586E58611
:1051A000E064A064A063A087E08701214903A06AAE
:1051B00088420DD100BF20680068884321680860DC
:1051C000206800680121490308432168086000BF86
:1051D0000121C903A068884205D1206800684910F0
:1051E0000843216808602068006840210840402882
:1051F00004D020680068084321680860E06800283F
:1052000032D16068002802D0E08E012808D1216BDD
:10521000481C206308782168C860E08E401EE08644
:1052200012E03B4600220221204605F0FDF800284E
:1052300001D00320A0E7216B481C20630878216877
:10524000C860E08E401EE086E08E0028E9D1012192
:105250004903A06A88423AD120680068491008438F
:105260002168086033E064E06068002802D0E08EC6
:10527000012809D1206B00882168C860206B801C40
:105280002063E08E401EE08613E03B4600220221B0
:10529000204605F0C9F8002801D003206CE7206BF8
:1052A00000882168C860206B801C2063E08E401E4F
:1052B000E086E08E0028E8D101214903A06A8842F7
:1052C00005D12068006849100843216808603B4602
:1052D00000220221204605F0A7F8002805D0606DC5
:1052E000202108436065032046E73B4601228021D8
:1052F000204605F099F8002805D0606D202108436C
:105300006065032038E7A068002808D100BF206846
:10531000C068009020688068009000BF00BF012135
:105320005120015500BF00215020015500BF002031
:1053300022E7022020E7F8B504460E4617461D4630
:10534000002000905120005D012803D05120005D15
:10535000222873D1002E03D0002F01D0002D01D1BF
:105360000120F8BD00BF5020005D012801D10220BE
:10537000F7E701215020015500BF5120005D0128B1
:1053800002D132215120015500206065A763A58715
:10539000E5872663A586E586A064E06401214903CC
:1053A000A06A88420DD100BF206800688843216848
:1053B00008602068006801214903084321680860EB
:1053C00000BF2068006840210840402804D02068C1
:1053D00000680843216808600121C902E06888422A
:1053E0007DD16068002807D0FF21053160688842C0
:1053F0000CD1E08E012809D1206B00882168C8609B
:10540000206B801C2063E08E401EE086E08E00282A
:1054100020D101214903A06A884205D12068006893
:105420004910084321680860002201212046069B9C
:1054300004F0FAFF002802D0032092E738E1206848
:10544000C068A16B0880A06B801CA063E08F401E29
:10545000E087D7E035E0002202212046069B04F0D9
:10546000E3FF002801D003207BE7206B0088216840
:10547000C860206B801C2063E08E401EE086E08EBA
:1054800000280AD101214903A06A884205D1206879
:105490000068491008432168086000220121204665
:1054A000069B04F0C1FF002801D0032059E72068C3
:1054B000C068A16B0880A06B801CA063E08F401EB9
:1054C000E087E08E0028C6D160680028C1D10022A4
:1054D00001212046069B04F0A7FF002800E00DE014
:1054E00001D003203DE72068C068A16B0880A06B55
:1054F000801CA063E08F401EE08783E06068002886
:1055000007D0FF210531606888420BD1E08E012869
:1055100008D1216B481C206308782168C860E08EA0
:10552000401EE086E08E00281CD101214903A06ABC
:10553000884205D120680068491008432168086046
:10554000002201212046069B04F06EFF002801D0B6
:10555000032006E72068C068A16B0870E08F401E3A
:10556000E0874FE034E0002202212046069B04F051
:105570005BFF002801D00320F3E6216B481C206369
:1055800008782168C860E08E401EE086E08E002822
:105590000AD101214903A06A884205D12068006828
:1055A0004910084321680860002201212046069B1B
:1055B00004F03AFF002801D00320D2E62068C0683A
:1055C000C1B2A26B501CA0631170E08F401EE08737
:1055D000E08E0028C7D16068002813D10022012185
:1055E0002046069B04F020FF002801D00320B8E6E7
:1055F0002068C068C1B2A26B501CA0631170E08F1C
:10560000401EE08701214903A06A884213D100228D
:1056100001212046069B04F007FF002805D0606D9D
:1056200002210843606503209BE62068C06881B2C0
:10563000009168460088012280212046069B04F0E4
:10564000F3FE002805D0606D20210843606503202B
:1056500087E60121512001554903A06A884220D1E3
:1056600020688068102108400009002819D0606D6A
:1056700002210843606500BF206800680903884371
:1056800021680860206800680121490308432168F7
:10569000086000BF00BF00215020015500BF01205D
:1056A0005FE600BF00215020015500BF002058E6F2
:1056B000022056E6042806D106490969042211434E
:1056C000044A116105E00349096904229143014A32
:1056D0001161704700E000E07047000070B50446BB
:1056E0002546681E0949884201D901200CE0681E40
:1056F000074948610321081F02F03AF900200449D4
:10570000886107200861002070BD0000FFFFFF00D6
:1057100000E000E010B5FFF7DFFF10BD03480069AF
:1057200002218843014908617047000000E000E061
:10573000024600BF3420805C012801D1022070475E
:1057400001233420835400BF022335208354106882
:1057500040687023984313685860106840680B686D
:105760001843136858601068806880239843136852
:105770009860106880684B6818431368986001232C
:105780003520835400BF00233420835400BF002001
:10579000D5E710B50446002C01D1012010BD3520FD
:1057A000005D002805D1002134200155204600F07D
:1057B00021F8022135200155211D206807F000FA4B
:1057C0000121352001550020E8E7000010B504460E
:1057D000012189072068884208D10548806B40086C
:1057E0004000034988630F20FDF75AFD10BD0000FB
:1057F00000100240012292070168914205D103493D
:10580000896B01221143014A9163704700100240E5
:1058100001460868C068012210430A68D060086821
:105820000068012210430A68106000207047F8B534
:1058300004460D46002600BF3420005D012801D13A
:105840000220F8BD01213420015500BF022135207E
:105850000155206886687721304688430646FF2137
:10586000090230468843064620688660286850282A
:105870003ED00CDC202863D004DC002856D0102851
:1058800068D158E0302860D0402863D144E06028D7
:1058900038D070280DD001210903401A02D0401AD7
:1058A00058D117E020688068C008C000216888606F
:1058B00051E0EB686A68A968206807F0C3F92068BE
:1058C000866877213046884306467720064320685D
:1058D000866040E0EB686A68A968206807F0B2F962
:1058E000206880680121890308432168886032E0CC
:1058F000EA686968206807F0C1F95021206807F05C
:10590000B0F928E0EA686968206807F0D2F96021F8
:10591000206807F0A6F91EE0EA686968206807F0C9
:10592000ADF94021206807F09CF914E000212068BF
:1059300007F097F90FE01021206807F092F90AE0CC
:105940002021206807F08DF905E03021206807F05C
:1059500088F900E000BF00BF01213520015500BFDC
:1059600000213420015500BF00206AE7704710B5C0
:1059700004462068006902210840400800281CD025
:105980002068C06808404008002816D0481F2168D9
:10599000086101202075206880698007800F002839
:1059A00003D02046FFF7E2FF05E0204600F09DF817
:1059B000204600F09BF80020207520680069042133
:1059C0000840800800281DD02068C0680840800872
:1059D000002817D0C843216808610220207520687C
:1059E0008069032109020840002803D02046FFF700
:1059F000BDFF05E0204600F078F8204600F076F87C
:105A0000002020752068006908210840C00800288F
:105A10001CD02068C0680840C008002816D0C843C1
:105A200021680861042020752068C0698007800F04
:105A3000002803D02046FFF799FF05E0204600F03C
:105A400054F8204600F052F80020207520680069C4
:105A500010210840000900281DD02068C0680840B7
:105A60000009002817D0C843216808610820207564
:105A70002068C069032109020840002803D020469D
:105A8000FFF774FF05E0204600F02FF8204600F0F5
:105A90002DF80020207520680069C007C00F012183
:105AA0004840484000280CD02068C0680840484062
:105AB0004840002805D0C81E21680861204600F033
:105AC00016F82068006940210840800900280BD0A2
:105AD0002068C06808408009002805D0C8432168B4
