:020000040800F2
:10000000281B0020D5000008254F0008F93F0008F4
:1000100000000000000000000000000000000000E0
:10002000000000000000000000000000CF72000887
:10003000000000000000000051620008099500085F
:10004000E7000008E7000008E7000008E7000008F4
:10005000E7000008351400083F14000849140008A0
:10006000E7000008E7000008E7000008E7000008D4
:10007000E7000008E7000008E1A3000899960008DF
:10008000E7000008E7000008E700000800000000A3
:10009000E7000008E7000008E7000008E7000008A4
:1000A000E7000008E7000008E7000008E700000894
:1000B00089A30008E7000008E7000008E70000083F
:1000C0000348854600F0E0FC0048004741B10008C5
:1000D000281B00200448804704480047FEE7FEE74D
:1000E000FEE7FEE7FEE7FEE731960008C1000008E4
:1000F00030B50B46014600202022012409E00D46C0
:10010000D5409D4205D31D469540491B2546954047
:1001100040191546521E002DF1DC30BD70B500248B
:100120002546002801DA01244042002901DA012590
:100130004942FFF7DDFFAC4200D04042002C00D026
:10014000494270BDF0B51FB40646002082B0054696
:100150004024019100901BE0019922460F46304651
:1001600000F088FB049A059B801A994110D3104631
:100170001946224600F06EFB361A8F41019722463F
:1001800001200021009F00F065FB38184D410090D0
:100190002046641E0028DFDC019B00982946324679
:1001A00007B0F0BDF0B51FB486B0002000900190FC
:1001B00002900698069980B204900798090C0204F0
:1001C0000014114307900027089D099806913E46A8
:1001D0003C4603900398A9B20204000C03900498D3
:1001E0002D0C154348430021224600F033FBC7196C
:1001F000714110340E46402CECDB3846029A00F078
:1002000029FB009A019B80180090594102980191A6
:10021000103002904028CCDB00980BB0F0BD0346B4
:100220000B439B0703D009E008C9121F08C0042A2A
:10023000FAD203E00B780370401C491C521EF9D21D
:100240007047D2B201E00270401C491EFBD27047D9
:100250000022F6E710B513460A4604461946FFF792
:10026000F0FF204610BD421C0178401C0029FBD144
:10027000801A704710B5002200E0521C835C8C5C31
:10028000A34201D1002BF8D1D8B2E1B2401A10BD7F
:100290000FB400B58DB009900B9010A9002000910B
:1002A000C0430A9000200C9006480690064807902C
:1002B0006A4609A80F9900F017FB0DB008BC04B0FE
:1002C000184700000909000829090008FFB50027A0
:1002D000FF4383B000205C6801909E681D46A969B9
:1002E0007F1C049888470090296A88470028F6D127
:1002F0000098401C0CD0032040028443002E19DDDE
:10030000600614D500982B2809D02D280FD103E0C2
:100310000020C04307B0F0BD012080020443A9695A
:100320007F1C04988847761E0090002E02DD0098FE
:10033000302803D00598002825D035E00120400260
:100340000443A969761E7F1C049888470090002EFC
:1003500003DD782805D0582803D00598002810D050
:1003600022E00598002801D010281DD1012040026C
:100370008443A969761E7F1C04988847009010204A
:1003800002E0082000E00A2005900DE0012149026A
:100390000C43059A0199761E514308180190A969EA
:1003A0007F1C049888470090002E05DD0599009871
:1003B00000F084FA0028E9DAE96904988847A00582
:1003C00002D40120C043A5E7E00722D1600611D581
:1003D0006005019800D5404229680A1D2A60096815
:1003E000220501D5087014E0220701D5088010E02D
:1003F00008600EE02868011D29600068210502D50B
:100400000199017005E02107019901D5018000E003
:10041000016038467EE70000F0B5074608465840C0
:1004200087B0C00F049048000E46590040084908A4
:10043000BC1A884105D2384631461E4617460B463F
:1004400002465800400810434CD0300D0390400540
:100450005900400D490D0590401A0290402872DA6B
:1004600018030121000B090508430190049800922C
:10047000002805D001995242002088410092019045
:10048000029840210A1A0199009800F0E3F9054604
:100490000C466B4607CB00F0FEF9C0197141039A78
:1004A0000E0D0023D71756401A467A40164344D003
:1004B000049A002A2DD0029A012A039A15DC12050B
:1004C000C01A914101263605001C7141D20F059ECC
:1004D000D2070093019202962A46234600F043FA7F
:1004E00007B0F0BD38463146FAE71605224A0F46F6
:1004F000B218C01AB74101210905001C4F4100186C
:100500007F41114618187941E20F10436D1964417B
:1005100013E0E2076D0815436408C2071443039A09
:1005200001261205C01A91413605001C7141CE0703
:10053000400830434908C01851412A46234600F07C
:1005400005FACDE7FFE7049801224000C117121A0F
:1005500000238B4104983146C417381AA141EEE7B5
:1005600030B40124E407634030BC55E730B40124C3
:10057000E407614030BC4FE70000E0FFF0B51FB476
:1005800088B00B990998002448400999C00F490088
:1005900049080991C0070B990090490049080B913F
:1005A00009990898A64608431CD00B990A98084355
:1005B00018D0099801244000420D4800410D0998C7
:1005C00024050003000B204309900B980003000B47
:1005D00020430B9050181C494018002201901446EB
:1005E000104605E0002001460DB0F0BD032801DAF9
:1005F000034600E003239C46C11A0AAE0AE05F00EE
:1006000008ADED5B4F00F75B7D430027AA187C41E6
:10061000491C5B1E6145F2DD410004AB5A522104C6
:10062000120C0A43240C401C0828DFDB01980290BE
:100630000099704601910090059B049A07990698CD
:1006400000F091F9D0E700000DFCFFFFF0B50C467B
:100650005C4085B0E40FE40703944C000026640876
:1006600059009446490802460296224321D0624628
:100670000A431ED06200570D4A000E032303550D96
:10068000012402462C492405781B1B0B360B40180D
:1006900023432643614600901C46501AB44103D3BD
:1006A0000098401C009002E0921800985B410028DE
:1006B00003DA0020014605B0F0BD00200121090544
:1006C0000746864611E064461D46141BB54106D315
:1006D0006546521BB341744607430C43A646CD07FB
:1006E00040084908284392185B4105460D43EAD16A
:1006F0001046184313D060461946504071400843D5
:1007000006D06046101AB34106D20122002306E04B
:1007100000220123DB0702E00122D243531000989C
:1007200074460105381C6141029C039D0019694112
:1007300000F00CF9BFE70000FD0300000EB5C21782
:10074000C10F5040CA0740180021054B0293019287
:1007500000910A460B4600F006F903B000BD000008
:10076000330400000EB505490291002100910A46AC
:100770000B46019100F0F7F803B000BD3304000010
:1007800070B5CD0F4A0009030123090B1B0519435E
:100790000B4BED070024520D9A4201DA002070BD88
:1007A000074B34339A4203DC9A1A00F063F802E0F4
:1007B0000449511888402C43F1D0404270BD0000DC
:1007C000FF030000CDFBFFFF4A0009030123090BD3
:1007D0001B051943094B10B5520D9A4201DA00204E
:1007E00010BD064B34339A4203DC9A1A00F042F8EB
:1007F00010BD03495118884010BD0000FF030000E0
:10080000CDFBFFFF10B5002904DB0124E4074042C3
:100810008C412146002B04DB1C460123DB0752429E
:10082000A3418B4200D1824210BD000010B50029C7
:1008300004DB0124E40740428C412146002B04DB09
:100840001C460123DB075242A341994200D190424A
:1008500010BD000010B5202A04DB0146203A91406B
:10086000002010BD914020239C1A0346E340194309
:10087000904010BD10B5202A04DB0846203AD04035
:10088000002110BD0B46D340D0402024A21A914035
:100890000843194610BD10B5202A06DBCB170846C1
:1008A000203A1041C1170B4306E00B461341D040DC
:1008B0002024A21A91400843194610BD3A2800D2BC
:1008C0003038202302469A43412A01D31046373854
:1008D000884201D30020C0437047000002681378AB
:1008E000511801601846704710B5D1600449516134
:1008F0000449116200211161114600F0DFF810BDBA
:10090000DD080008AD0A00084268002A08D0016826
:100910000B78491C002B03D0521E06C018467047A6
:100920000121C160881E70474268002A0BD0C3684D
:100930000168002B07D183688B4204D0491E521CEA
:1009400006C0002070470020C043704710B5002B40
:1009500008DA0024401C614192185B411A4301D11E
:100960004008400010BDF0B51FB482B005460C0031
:1009700003D0084609F0B0FD02E009F0ADFD2030DB
:100980000246009021462846FFF764FF049B059A23
:1009900004460F4618431143084314D01846104329
:1009A0001BD0009840210A1A18460599FFF762FFEC
:1009B00005460E46009A05990498FFF74BFF084339
:1009C00005D0012004E02046394607B0F0BD0020E4
:1009D000C11705430E432C43374300990E98630516
:1009E000401A7905E40A00220C43FD0A0A3002D5B8
:1009F00000200146E9E70105101969410C9C0D9D95
:100A000000196941FFF7A2FFDFE70000F8B50546CE
:100A1000480040080C46284304D06000184A400DA6
:100A2000904201DD2846F8BD15493539884210DC71
:100A300088420BDB290D200308432903014305D01D
:100A4000E00F1049C00741180020F8BD0020014602
:100A5000F8BD161A4020821B28462146FFF7FAFEF1
:100A600007460091284621463246FFF703FF3A46E3
:100A7000009BFFF76BFF3246FFF7ECFEF8BD00006E
:100A8000330400000000F03F064C0125064E05E04F
:100A9000E36807CC2B430C3C98471034B442F7D39F
:100AA000FFF712FB78C3000898C3000810B50F21A8
:100AB000C0B2490200F09EF910BD0000F3B58DB040
:100AC00000200A9001200B90002608460C300C46AE
:100AD00009906269012109989047051E2ED0252DA5
:100AE0002DD0216A8847002818D062690121099811
:100AF0009047216A88470028F7D1411E626909980A
:100B0000904700E0761CA1690D988847216A8847C4
:100B10000028F7D1E1690D988847DAE7A1690D98B7
:100B200088470746A84201D1761CD2E7E1690D98B3
:100B300088477F1C02D10A98002877D049E1002716
:100B400062693D463946099890472A280CD1626966
:100B5000012109989047012506E00A214F433F18DB
:100B6000303FEBD41020054362690121099890477A
:100B7000014630390A2903D29B498F42DEDCECE77B
:100B8000E90600D4994F6C280AD04C2810D0682868
:100B900024D06A282ED074280CD07A280AD00DE0F0
:100BA00062690121099890476C2823D004211CE038
:100BB000202005436269012109989047A76065607C
:100BC00065284FD026DC582839D01ADC452849D072
:100BD00012DC252834D04128B0D143E062690121DC
:100BE00009989047682802D008210D43E6E70120C4
:100BF000C002DEE70220DCE7462833D047282CD1AC
:100C000030E05B2870D061282CD063286CD0642839
:100C100023D161E06F284FD009DC662822D06728F5
:100C200020D0692826D06E2817D12EE0CDE070287C
:100C30004DD073286FD075284ED078280DD154E050
:100C4000A1690D9888470546252800D16CE7E16920
:100C50000D9888476D1C00D16DE7BAE00A224CE080
:100C60000A2252E0012023466A46C0430D99C0463D
:100C7000C046A3E02846402108436060A8072346F9
:100C800001D5002239E000223FE0E80700D020E74C
:100C90002068011D21600068290501D5067018E74C
:100CA000290701D5068014E7A90703D5F1170660C7
:100CB00041600EE706600CE728464021084360606B
:100CC000A807234601D5082217E008221DE048495D
:100CD00028460840606016E02846402108436060CE
:100CE000A8072346BCD5B9E715E0284640210843AC
:100CF0006060A80707D5234610220120C0430D9944
:100D0000C046C0465AE0234610220120C0430D9938
:100D1000FFF7DCFA52E000210C910B4600916328AA
:100D200002D05B2807D043E0E80601D40120A06090
:100D3000012000903CE062690121099890475E28FB
:100D400005D101200C9001466269099890472169FC
:100D5000002906D10B4601AA8F00491CD35108294E
:100D6000FADB002835D0216900290ED1C117C90E40
:100D700009184A11930001AA9A1849094901411A10
:100D800001201368884003431360626901210998B8
:100D900090475D28E5D10C98002808D0002001ABD1
:100DA00081005A58401CD2435A500828F8DB01AB46
:100DB00001202246C0430D99C046C04600280ADAE9
:100DC000401C06D10B98002803D00020C0430FB070
:100DD000F0BD0A98FBE7E90702D10A99491C0A917C
:100DE000361800200B9074E6CCCCCC0CFFFFFF7FB4
:100DF000F1F7FFFF7F2801D9002207E0054B4208E9
:100E00009A5CC00700D112091207120F012090400E
:100E100008407047EEC2000870B58C180578401C79
:100E20006B075B0F01D10378401C2A1106D10278B1
:100E3000401C03E006780E70401C491C5B1EF9D173
:100E40002B0705D40023521E0DD40B70491CFAE762
:100E50000378401CCB1A921C03E01D780D70491CCE
:100E60005B1C521EF9D5A142D8D3002070BD30B50D
:100E700089B005460C461022002105A80AF054FA54
:100E80002246243205A905A809F0DAFD6846007D4E
:100E90008021084000281CD000BF00200AE005A9DE
:100EA000095C490005AB421C9A5CD211114305AAAA
:100EB0001154401C0F28F2DB08A9C97849060A0E14
:100EC00008A9CA7000BFC8788721484008A9C8701F
:100ED00016E000BF00200AE005A9095C490005AB47
:100EE000421C9A5CD211114305AA1154401C0F28D0
:100EF000F2DB08A9C97849060A0E08A9CA7000BF22
:100F0000206A10280FD100BF002009E021461031CF
:100F1000095C05AA125C5140224610321154401C53
:100F20001028F3DB59E06846007D80210840002846
:100F30001CD000BF00200AE005A9095C490005ABF0
:100F4000421C9A5CD211114305AA1154401C0F286F
:100F5000F2DB08A9C97849060A0E08A9CA7000BFC1
:100F6000C8788721484008A9C87016E000BF002053
:100F70000AE005A9095C490005AB421C9A5CD21144
:100F8000114305AA1154401C0F28F2DB08A9C978A7
:100F900049060A0E08A9CA7000BF802120461030F9
:100FA000226A815404E0002120461030226A8154D4
:100FB000206A401C20621028F5D300BF002009E001
:100FC00021461031095C05AA125C514022461032BC
:100FD0001154401C1028F3DB00BF00BF002006E0C6
:100FE000215C22461032125C51402154401C1028D2
:100FF000F6DB00BF1022214601A80AF07BF9224649
:101000002432294601A809F01BFD1022002105A861
:101010000AF08AF909B030BD10B50446102200214B
:1010200020460AF081F900202062F02200212046AB
:1010300024300AF079F910BD70B505460C462A46F1
:1010400024321021204609F029FD70BDF0B585B08D
:1010500004460F461546206A002830D01021206A29
:10106000081AA84202D2206A081A00E0284606465A
:10107000B2B223461033216AC81839460AF03AF949
:10108000206A80192062206A102801D3B54201D15C
:1010900005B0F0BD00BF002006E0215C2246103202
:1010A000125C51402154401C1028F6DB00BF224640
:1010B00024322146204609F0C3FCBF19AD1B1CE0B9
:1010C00000BF002004E0215C3A5C51402154401CE8
:1010D0001028F8DB00BF1022214668460AF00AF902
:1010E000224624326946684609F0AAFC1022694665
:1010F00020460AF0FFF81037103D102DE0D8AAB2B4
:101100003946204610300AF0F5F8256200BFBFE7E7
:1011100070B504460125A01E030009F00CFA07056E
:101120001328364B677C8A00474800780F2808DA76
:10113000454803780078401C434E30704348C454FF
:10114000002578E0404800780E280FDA3E48037802
:101150000078401C3C4E30703C48C4543046037804
:101160000078401C30703948C154002563E036488F
:1011700000780F2808DA344803780078401C324E93
:1011800030703248C454002555E02F4800780E28AE
:101190000FDA2D4803780078401C2B4E30702B4816
:1011A000C454304603780078401C30702748C1543E
:1011B000002540E0244800780D2816DA22480378FC
:1011C0000078401C204E30702048C45430460378CC
:1011D0000078401C30701D48C154304603780078B8
:1011E000401C30701948C254002524E0164800788D
:1011F0000E280FDA144803780078401C124E307025
:101200001248C454304603780078401C30700F48B0
:10121000C15400250FE00C4800780F2808DA0A486E
:1012200003780078401C084E30700848C4540025EC
:1012300001E0022070BD00BF002D02D10120044B4F
:1012400018702846F6E700008B000020990E002059
:101250008A00002070B503460C460020154D295623
:10126000012B25D1002903D10025134E35601FE045
:10127000114D2D68402D01D3012000E000200E4DBE
:101280002D68602D14D30C4D2D78203DAD06AD0E8C
:10129000002D0DD1002901DD4D1E69B2002907D1B5
:1012A000012C05D1054D2D8807263543034E358089
:1012B000117070BDE200002084000020A80E002004
:1012C00008B53848007800286BD100F0ABFA3648F2
:1012D000406B01210843344948630846806B090488
:1012E00008433149886308F049F900BF2E48C06AB5
:1012F000042108432C49C8620846C06A04210840FA
:10130000009000BF00BF00BF2748C06A802108438B
:101310002549C8620846C06A80210840009000BF85
:1013200000BF00BF2048C06A022108431E49C862AE
:101330000846C06A02210840009000BF00BF00BFFD
:101340001948C06A012108431749C8620846C06AA3
:10135000C007C00F009000BF00BF03F0C3FC03F044
:10136000E3FC00201149487005F082FC00220321B3
:10137000022000F089FA022000F07AFA002202210D
:101380000E2000F081FA0E2000F072FA06F00CFA3E
:1013900003F060FC05F08CFE05F058FE01200149C9
:1013A000087008BD4800002000100240741400209E
:1013B000F0B5044600260027002512E02046E1177C
:1013C000090F091809110901661A39467F1C1020F6
:1013D00004F03FFF704345192046E117090F091833
:1013E0000C11002CEAD12846F0BD10B50446204669
:1013F00009F0F6FC10BD30B5024600231046D417A4
:10140000240F24182405230E042B01DC082A01DBF9
:10141000002030BD1046D417240F241824112401B5
:10142000151B0124AC405D004D5BA5435C000D53D2
:101430000120EEE710B5022000F0D0F810BD10B585
:10144000042000F0CBF810BD10B5102000F0C6F855
:10145000202000F0C3F8402000F0C0F8802000F009
:10146000BDF8FF20013000F0B9F80120400200F083
:10147000B5F80120800200F0B1F80120C00200F0B0
:10148000ADF80120000300F0A9F80120400300F0AE
:10149000A5F80120800300F0A1F80120C00300F0AE
:1014A0009DF810BD10B502A009F006F810BD0000AF
:1014B0006572726F720D0A00024600210FE0C800CB
:1014C000094B1858904208D8481CC0001858904240
:1014D00003D9C800C01800797047481CC1B215294B
:1014E000EDD300BFFEE70000CCBD000870B5044698
:1014F0000D46164632462946204600F07FF970BD5B
:1015000070B5044600252520005D022803D0042084
:10151000E063012549E0206800680E2188432168C6
:101520000860206800684008400021680860204981
:101530002068884201D1012026E01D49143120682D
:10154000884201D110201FE01949283120688842C3
:1015500001D1801518E016493C312068884201D13C
:10156000801411E0124950312068884202D10120D4
:10157000000409E00E4964312068884202D101204C
:10158000000501E0012000060949083948600121F1
:101590002520015500BF00212420015500BFA06B6C
:1015A000002802D02046A16B8847284670BD000065
:1015B0000800024010B50446022C02D106F018F9CA
:1015C0000AE0042C02D106F011FB05E001208002A4
:1015D000844201D106F0C4FB10BD000010B50446E2
:1015E000054840692040002804D02046FFF7E2FF6C
:1015F0000148446110BD00000004014070B503467D
:10160000002200240020DFE0012696400D683540CE
:101610002C46002C77D04D68022D02D04D68122D3B
:1016200015D1D508AE001D462035A8595507EE0E38
:101630000F25B5400646AE4330465607F60E0D69F7
:10164000B5402843D508AD001E46203670514D6880
:10165000012D08D04D68022D05D04D68112D02D006
:101660004D68122D18D1986856000325B5400646DE
:10167000AE4330465600CD68B54028439860586860
:10168000012595400646AE43304610264D6835404C
:101690002D09954028435860186856000325B54029
:1016A0000646AE4330460D79AD07AD0F5600B54046
:1016B00028431860D86856000325B5400646AE4357
:1016C000304656008D68B5402843D860012636075D
:1016D0004D683540B54276D13E4D6D6B01263543A0
:1016E0003C4E75633C4D9608B600A85995072E0FE1
:1016F0000F25B5400646AE43304605252D07AB42C3
:1017000002D100251AE05EE0344DAB4201D1012543
:1017100014E0334DAB4201D102250FE0314DAB4215
:1017200001D103250AE0304DAB4201D1042505E08B
:101730002E4DAB4201D1052500E006259607360F58
:10174000B5402843244D9608B600A851284D286876
:101750000546A5432846012636044D683540B54266
:1017600002D1054625432846214D28606868054674
:10177000A5432846012676044D683540B54202D17E
:101780000546254328461A4D6860A8680546A543C6
:101790002846012636054D683540B54202D105463A
:1017A00025432846124DA860E8680546A54328460B
:1017B000012676054D683540B54202D105462543E0
:1017C00028460B4DE860521C0D68D540002D00D016
:1017D0001AE770BD001002400800014000040050EC
:1017E00000080050000C005000100050001C005079
:1017F0000004014042694A4042617047002A01D01A
:10180000816100E081627047014800687047000014
:101810000400002002480068401C0149086070472D
:101820000400002010B50648006840210843044920
:101830000860002000F006F800F018F8002010BD45
:101840000020024070B504467D21C90006480068AA
:10185000FEF74EFC054601F079FE00222146501E9F
:1018600000F012F8002070BD00000020704700005A
:1018700000BFC206D20E01219140024A116000BF92
:101880007047000000E100E070B504460D461646C2
:101890002946204603F048FB70BD0000F0B585B036
:1018A00005460026002003900290002400270190A6
:1018B0000090102D7ED008DC012D7CD0022D7BD035
:1018C000042D7AD0082D79D13BE1202D0AD0402D6E
:1018D00051D0E81FF938002871D007210902401AB9
:1018E000F1D100E000BFC648066900690321090480
:1018F0000840044601200004844206D1C011304053
:10190000002802D06010029034E00120400484429C
:1019100006D102203040002802D0BA48029029E0C7
:1019200003200004844223D1B548403800680121D7
:101930004904084000281BD0B14840380068210104
:1019400008400390012109050398401A09D0401A64
:1019500004D0401A08D1AC48029008E0AB4802908D
:1019600005E0AB48029002E0AA48029000BF01E007
:10197000002002903FE1A248C0680121890608408A
:101980000446002C42D19E48403800684910084067
:1019900000283BD09A484038C0680F21890408408D
:1019A000074697484038C0680321890508400190E0
:1019B000B80C05E0EAE03AE064E08FE01AE1F4E018
:1019C00095490F5C0198800D401C01908C4840386F
:1019D000C06801210904084000280CD1884840381B
:1019E000006810210840002802D08A48009004E0D6
:1019F0008A48009001E08A4800900098784300905F
:101A000001990098FEF774FB02900FE00120800618
:101A1000844209D17A484038806802210840002871
:101A200002D08048029001E000200290E3E0744878
:101A3000C0688407A40F002C03D100F05FFB029064
:101A40001FE0022C09D16E4840380068042108408C
:101A5000002802D07148029013E0012C03D100F05D
:101A60005FFB02900DE0032C09D16548006901215C
:101A700049020840002802D08801029001E00020BD
:101A80000290B8E05E48C0680C2108400446002C73
:101A900003D100F021FB02901FE0082C09D1584827
:101AA0004038006804210840002802D05B480290BA
:101AB00013E0042C03D100F033FB02900DE00C2C5A
:101AC00009D14F480069012149020840002802D08D
:101AD0008801029001E0002002908CE04848C06834
:101AE0000321890208400446002C03D100F0F4FAD7
:101AF000029025E00120C002844209D140484038CC
:101B0000006804210840002802D04448029017E0F1
:101B100001208002844203D100F002FB02900FE01A
:101B200003208002844209D135480069012149021D
:101B30000840002802D08801029001E000200290B5
:101B400059E02F48C0680321090308400446002CCF
:101B500003D100F0C1FA029017E001204003844253
:101B600009D127484038006804210840002802D0E5
:101B70002A48029009E001200003844203D100F0CA
:101B8000CFFA029001E00020029034E01C48403877
:101B9000806B012189050840884203D100F09CFA3E
:101BA000029001E00020029025E01548C068032162
:101BB000090408400446002C03D100F08DFA02907D
:101BC00017E001204004844209D10D4840380068E4
:101BD00004210840002802D01048029009E00120AA
:101BE0000004844203D100F09BFA029001E000203F
:101BF000029000E000BF00BF029805B0F0BD0000F9
:101C0000401002408890000020A1070040420F00D1
:101C100080841E0000093D003EBD00080024F40041
:101C200000127A00006CDC02F8B50446002600259C
:101C3000202120680840202804D08901206808401D
:101C400088427DD1202120680840202800D100BF93
:101C50000121C90220680840884200D100BF002746
:101C60009948806B012109070840002805D1964852
:101C7000806B084394498863012794480068FF21DA
:101C800001310840002816D19048006808438F4968
:101C90000860FFF7B9FD064606E0FFF7B5FD801BBB
:101CA000642801D90320F8BD88480068FF2101316C
:101CB00008400028F1D08448006803210905084045
:101CC000054660680840A84203D1A0680840A842C1
:101CD0000ED00321090460680840884208D17A4880
:101CE0000068012149040840002801D00120DAE7FA
:101CF0007548403000690321090408400546002D5D
:101D000049D060680840A84204D0202120680840DB
:101D100020280BD003210904A0680840A8423AD02B
:101D20000121C90220680840884234D16648403009
:101D3000006903210904884305466348403000E0F8
:101D400052E000690121C90408435F49403108613C
:101D5000084600690121C90488435B494031086194
:101D60000846056180152840002814D0FFF74CFD77
:101D7000064607E0FFF748FD801B5549884201D918
:101D8000032090E750484030006901214902084093
:101D9000400A0028EED000BF00BF0321090460689C
:101DA000084088420AD14848006809018843032254
:101DB00012056168114008434349086000BF42486A
:101DC00040300069032212046168114008433E4913
:101DD0004031086100BF012F05D13B48806B890568
:101DE00088433949886300BF2078C007C00F0028A6
:101DF00009D035484030C06880088000E168084359
:101E000031494031C860022120680840022809D1C8
:101E10002D484030C0680C218843216908432A4975
:101E20004031C86004212068084004280AD12648AF
:101E30004030C06803218902884361690843224910
:101E40004031C86008212068084008280AD11E488F
:101E50004030C068032109038843A16908431A4937
:101E60004031C860FF2101312068084088420AD112
:101E700015484030C068032109048843E1690843DC
:101E800011494031C860402120680840402809D1EC
:101E90000D484030C06809058843616A08430A4913
:101EA0004031C86080212068084080280AD1064857
:101EB0004030C068032189048843216A08430249ED
:101EC0004031C8600020EEE6001002400070004083
:101ED0008813000070B504460D4600267648006859
:101EE000C007C00FA8420ED27348006840084000E7
:101EF00028437149086008460068C007C00FA8421F
:101F000001D0012070BD022120680840022807D1BD
:101F10006A48C068F0218843A16808436749C860DF
:101F20002078C007C00F00284CD06068022809D173
:101F300062480068012149040840400C002824D16F
:101F40000120DFE76068032809D15C4800680121AF
:101F500049060840400E002817D10120D2E76068EA
:101F6000012808D15548006804210840800800284D
:101F70000BD10120C6E75148006801214902084001
:101F8000400A002801D10120BCE74C48C068800805
:101F90008000616808434949C860FFF735FC064680
:101FA000606802280FD107E0FFF72EFC801B444930
:101FB000884201D90320A5E74048C0680C210840A9
:101FC0000828F1D134E0606803280FD107E0FFF75B
:101FD0001BFC801B3A49884201D9032092E737480D
:101FE000C0680C2108400C28F1D121E0606801286C
:101FF0000FD107E0FFF708FC801B3149884201D967
:1020000003207FE72D48C0680C2108400428F1D147
:102010000EE007E0FFF7F8FB801B2949884201D951
:1020200003206FE72548C0680C2108400028F1D143
:1020300021480068C007C00FA8420ED91E4800689A
:102040004008400028431C49086008460068C00753
:10205000C00FA84201D0012054E7042120680840A5
:10206000042808D11548C068072109028843E1689F
:1020700008431249C860082120680840082809D18F
:102080000E48C0680721C90288432169C900084376
:102090000A49C86000F044F80849C968F0221140B4
:1020A0000909084A515CC840074908600020FFF749
:1020B000C9FB002026E7000000200240001002407B
:1020C0008813000026BD00080000002001480068B9
:1020D000704700000000002000B5FFF7F7FF05493A
:1020E000C968072212021140090A034A515CC8401C
:1020F00000BD00000010024036BD000800B5FFF72B
:10210000E5FF0549C9680722D2021140C90A034AFE
:10211000515CC84000BD00000010024036BD000800
:10212000FEB5002500260027002400200190009025
:102130002F48C5680C202840002847D0042804D028
:1021400008280ED00C2840D10EE029480068102144
:102150000840002802D02748009001E0264800905F
:1021600042E0264800903FE00F2080042840800C89
:1021700023490E5C032080052840800D471C1C4825
:10218000C068012109040840002807D01B49714399
:1021900008463946FDF7ACFF044614E014480068D1
:1021A00010210840002807D01249714308463946DB
:1021B000FDF79EFF044606E00F4971430846394685
:1021C000FDF796FF044600940EE000BF0848406803
:1021D000072149030840400B01900198401C012150
:1021E0008140C803009000BF00BF0098FEBD000002
:1021F0000010024000093D000024F40000127A00A3
:102200003EBD0008F8B5044600252078C007C00F81
:1022100000287DD0FE48C0680C21084008280BD05B
:10222000FB48C06808400C2813D1F948C068012158
:102230000904084088420CD1F5480068012149048E
:102240000840400C002863D06068002860D101205D
:10225000F8BD00BF012109046068884205D1EC483F
:1022600000680843EA49086027E00521090460681E
:1022700088420ED1E6480068012189040843E449F8
:10228000086008460068012109040843E049086025
:1022900013E0DF480068012109048843DC49086035
:1022A00008460068012109040840009000BFD84892
:1022B000006889008843D649086000BF606800282C
:1022C00013D0FFF7A1FA054606E0FFF79DFA401B81
:1022D000642801D90320BBE7CD48006801214904E7
:1022E0000840400C0028F0D012E0FFF78DFA0546B8
:1022F00006E0FFF789FA401B642801D90320A7E70D
:10230000C3480068012149040840400C0028F0D16E
:10231000022120680840022868D1BD48C0680C210D
:10232000084004280BD0BA48C06808400C281DD1CA
:10233000B748C068012109040840002816D1B448F4
:102340000068042108408008002804D0E0680128C3
:1023500001D001207CE7AE4840681F210902884374
:10236000216909020843AA4948603FE0E068002863
:1023700024D0A748006809218843E1680843A4499C
:102380000860FFF741FA054606E0FFF73DFA401BFB
:10239000022801D903205BE79D480068042108401A
:1023A00080080028F1D09A4840681F21090288431C
:1023B0002169090208439649486017E0944800687B
:1023C0004008400092490860FFF71EFA054606E003
:1023D000FFF71AFA401B022801D9032038E78C487E
:1023E00000680421084080080028F1D110212068ED
:1023F0000840102860D18648C0680C210840002899
:102400005BD183480068012149020840400A002846
:1024100004D0E069002801D1012019E77C48616AF5
:102420004068072252031040814219D9606A04F0C3
:102430008FFB002801D001200AE77548406807217A
:1024400049038843616A0843714948600846406807
:102450000002000A218C090608436D49486018E013
:102460006B484068072149038843616A084368490B
:102470004860084640680002000A218C09060843AB
:1024800063494860606A04F063FB002801D00120C2
:10249000DEE6606A400B401C01218140C8035C49B4
:1024A000C968F022114009095A4A515CC8405A498A
:1024B00008600020FFF7C6F949E0E06900282CD049
:1024C00053480068FF210131084351490860FFF774
:1024D0009BF9054606E0FFF797F9401B022801D952
:1024E0000320B5E64A480068012149020840400A35
:1024F0000028F0D046484068072149038843616AB4
:10250000084343494860084640680002000A218C9D
:10251000090608433E49486019E03D480068FF212C
:10252000013188433A490860FFF76EF9054606E035
:10253000FFF76AF9401B022801D9032088E63448D6
:102540000068012149020840400A0028F0D1082112
:1025500020680840082839D1606900281BD02C4821
:102560004030006901210843294940310861FFF7E3
:102570004BF9054606E0FFF747F9401B022801D951
:10258000032065E6224840300069022108404008E7
:102590000028F0D01AE01E48403000694008400092
:1025A0001B4940310861FFF72FF9054606E0FFF7A8
:1025B0002BF9401B022801D9032049E6144840307A
:1025C00000690221084040080028F0D10421206859
:1025D0000840042877D100260D48806B8906084002
:1025E000002805D10A48806B084309498863012601
:1025F0000A480068FF210131084000281ED1074821
:102600000068084305490860FFF7FEF805460EE03C
:102610000010024026BD00080000002000700040AD
:10262000FFF7F2F8401B642801D9032010E6A64802
:102630000068FF21013108400028F1D000BFFF21D0
:102640000131A068884205D1A048006908439F492C
:10265000086130E0A06800280DD19C480069FF2186
:102660000131884399490861084600690915884382
:10267000964908611FE005210902A06888420DD132
:10268000924800690121890208439049086108467F
:102690000069891508438D4908610CE08B48006981
:1026A000FF210131884389490861084600690915FD
:1026B00088438649086100BFA068002815D0FFF74D
:1026C000A3F8054608E02FE0FFF79EF8401B80497D
:1026D000884201D90320BBE57C48006901214902F9
:1026E0000840400A0028EFD013E0FFF78DF80546B8
:1026F00007E0FFF789F8401B7549884201D903209C
:10270000A6E572480069012149020840400A0028F4
:10271000EFD1012E07D16D484038806B31078843D7
:102720006A494039886300BF20212068084020287A
:1027300052D1A06900282BD000BF6448403880687F
:10274000012108436149403988600846406B0121F6
:1027500008435E49403948635E48006A01214903E5
:1027600008435C49086200BFFFF74EF8054606E0E3
:10277000FFF74AF8401B022801D9032068E55348B7
:10278000403880680221084040080028F0D023E04B
:1027900000BF4E4840388068400840004B494039EF
:1027A00088604C48006A012149038843494908620E
:1027B00000BFFFF729F8054606E0FFF725F8401BA4
:1027C000022801D9032043E54048403880680221AF
:1027D000084040080028F0D1A06A002872D03B4889
:1027E0004038C0680C2108400C2869D0A06A022833
:1027F00048D13648403800680121090688433349EA
:1028000040390860FFF700F8054606E0FEF7FCFFD8
:10281000401B022801D903201AE52C4840380068E3
:10282000012149060840400E0028EFD1216BE06AE3
:102830000843616B084325494039C968FD221204E9
:102840009143084321494039C86008460068012186
:10285000090608431D4940390860FEF7D5FF0546C3
:1028600006E0FEF7D1FF401B022801D90320EFE468
:10287000164840380068012149060840400E0028EB
:10288000EFD01FE011484038006801210906884355
:102890000E4940390860FEF7B7FF054606E0FEF72F
:1028A000B3FF401B022801D90320D1E40748403878
:1028B0000068012149060840400E0028EFD101E0E0
:1028C0000120C5E40020C3E4007000404010024035
:1028D000881300000000014010B50446002C01D10F
:1028E000012010BD2120005D002805D100212020FD
:1028F0000155204600F054F802212120015500BF67
:10290000CA202168486253202168486200BF2046DF
:1029100004F08CF9002809D000BFFF20216848622C
:1029200000BF0421212001550120DAE720688068DA
:102930001A49084021688860216960680843A169D4
:102940000843216889680843216888602168E06835
:102950000861206800692189090408432168086129
:102960002068C068802188432168C8602068C06CE6
:10297000800880002168C8646169E06908432168B3
:10298000C96C08432168C86400BFFF202168486201
:1029900000BF0121212001550020A2E7BFFF8FFFCA
:1029A000054A0168914206D104490969012292044D
:1029B0001143024A11617047002800404010024054
:1029C000F8B504460D461646002700BF2020005DDE
:1029D000012801D10220F8BD01212020015500BFAE
:1029E000022121200155002E09D1687810210840CC
:1029F000102804D16878EF2108400A306870002E52
:102A000011D1E87804F005F90304687804F001F9BD
:102A100000020343A87804F0FCF80343287840033D
:102A200003431F4612E0687804F0E6F80746A878EA
:102A300004F0E2F80746E8780004697809020843E0
:102A4000A9780843297849030843074600BFCA20EC
:102A50002168486253202168486200BF204604F084
:102A6000E5F800280ED000BFFF202168486200BFB3
:102A700004212120015500BF00212020015500BF65
:102A80000120A8E719483840216848602068C068DC
:102A9000802188432168C860206880682021084020
:102AA000002813D1204600F0CDF800280ED000BF3A
:102AB000FF202168486200BF04212120015500BF8A
:102AC00000212020015500BF012084E700BFFF2026
:102AD0002168486200BF01212120015500BF00216B
:102AE0002020015500BF002075E700003FFFFF00D8
:102AF000F8B504460D461646002700BF2020005DAD
:102B0000012801D10220F8BD01212020015500BF7C
:102B1000022121200155002E1BD120688068402110
:102B20000840002800D002E00020E87000BF2878AC
:102B300004F06FF80304687804F06BF800020343B4
:102B4000A87804F066F80343E878000403431F46BE
:102B500018E02068806840210840002804D02878C8
:102B600004F04AF8074602E00020E87000BF287829
:102B70000004697809020843A9780843E978090440
:102B80000843074600BFCA202168486253202168D5
:102B9000486200BF204604F049F800280ED000BF6C
:102BA000FF202168486200BF04212120015500BF99
:102BB00000212020015500BF0120A4E72048384013
:102BC00021680860206880680121890488432168A1
:102BD00088602969E8680843216889680843216892
:102BE00088602068C068802188432168C8602068A8
:102BF000806820210840002813D1204600F022F8E8
:102C000000280ED000BFFF202168486200BF0421C9
:102C10002120015500BF00212020015500BF0120C7
:102C200071E700BFFF202168486200BF0121212019
:102C3000015500BF00212020015500BF002062E7A0
:102C40007F7F7F0070B5044600252068C068A02102
:102C500088432168C860FEF7D7FD054608E0FEF707
:102C6000D3FD401B7D21C900884201D9032070BDDE
:102C70002068C068202108400028F0D00020F6E736
:102C800010B50446002C01D1012010BD5120005D7B
:102C9000002805D1002150200155204600F038F8C9
:102CA0000221512001552068006840218843216895
:102CB0000860A16860680843E16808432169084327
:102CC0006169084301225202A16911400843E16988
:102CD0000843216A0843A16A084321680860A06983
:102CE000000C04210840616A08432168486021689B
:102CF000E06A08612068C069910088432168C86162
:102D0000002060650121512001550020BDE7000031
:102D100010B586B0044614492068884222D100BF0D
:102D20001248C06A012108431049C8620846C06AB7
:102D3000C007C00F009000BF00BF0846406B891459
:102D400008430A494863E0200190022002900020D5
:102D50000390032004900020059001A9052000079E
:102D6000FEF74CFC06B010BD0030014000100240E0
:102D7000FEB504460E4615461F4600200190512020
:102D8000005D01287ED1002E01D0002D01D101204F
:102D9000FEBD00BF5020005D012801D10220F7E7F1
:102DA00001215020015500BF222151200155002052
:102DB0006065A663A587E587A064E0642063A086BC
:102DC000E0860121C903A068884205D12068006817
:102DD000491088432168086001214903A06A88429C
:102DE0000DD100BF20680068884321680860206812
:102DF00000680121490308432168086000BFFF21E2
:102E00000531606888420FD1A06800280CD100BF4E
:102E100000215020015500BF2B4632463146204646
:102E2000009700F0C2F9B3E720680068402108402D
:102E3000402804D020680068084321680860E068E2
:102E4000002825D113E03B4600220121204604F052
:102E5000A5F9002801D003209AE72068C068C1B214
:102E6000A26B501CA0631170E08F401EE087E08FC2
:102E70000128E8D801214903A06A88422BD12068A3
:102E8000006800E0A2E0491008432168086022E0E1
:102E900013E03B4600220121204604F07FF9002880
:102EA00001D0032074E72068C068A16B0880A06B84
:102EB000801CA063E08F401EE087E08F0128E8D8E7
:102EC00001214903A06A884205D1206800684910A1
:102ED0000843216808603B4600220121204604F097
:102EE0005DF9002801D0032052E7E068002807D1EF
:102EF0002068C068C1B2A26B501CA063117006E0CC
:102F00002068C068A16B0880A06B801CA063E08F64
:102F1000401EE08701214903A06A884213D13B4645
:102F200000220121204604F039F9002805D0606D07
:102F300002210843606503202AE72068C06881B247
:102F4000019168468088FF210531606888420ED172
:102F50000121C903A068884203D04911A0688842B2
:102F600005D120680068402188432168086001215C
:102F7000512001554903A06A884220D12068806809
:102F8000102108400009002819D0606D0221084373
:102F9000606500BF206800680903884321680860F5
:102FA000206800680121490308432168086000BFC8
:102FB00000BF00215020015500BF0120E8E600BFFE
:102FC00000215020015500BF0020E1E60220DFE68D
:102FD000F8B504460E4615461F465120005D0128EF
:102FE0007BD1002E01D0002D01D10120F8BD00BF02
:102FF0005020005D012801D10220F7E70121502077
:10300000015500BF12215120015500206065266343
:10301000A586E586E064A064A063A087E08701211F
:103020004903A06A88420DD100BF20680068884328
:10303000216808602068006801214903084321686D
:10304000086000BF0121C903A068884205D120683B
:103050000068491008432168086020680068402122
:103060000840402804D020680068084321680860B0
:10307000E068002832D16068002802D0E08E012884
:1030800008D1216B481C206308782168C860E08E55
:10309000401EE08612E03B4600220221204604F05A
:1030A0007DF8002801D00320A0E7216B481C206395
:1030B00008782168C860E08E401EE086E08E002817
:1030C000E9D101214903A06A88423AD12068006809
:1030D000491008432168086033E064E06068002814
:1030E00002D0E08E012809D1206B00882168C860D9
:1030F000206B801C2063E08E401EE08613E03B4680
:1031000000220221204604F049F8002801D00320C3
:103110006CE7206B00882168C860206B801C2063EE
:10312000E08E401EE086E08E0028E8D101214903B0
:10313000A06A884205D120680068491008432168C8
:1031400008603B4600220221204604F027F80028B0
:1031500005D0606D202108436065032046E73B46AB
:1031600001228021204604F019F8002805D0606D66
:10317000202108436065032038E7A068002808D1B3
:1031800000BF2068C068009020688068009000BF81
:1031900000BF01215120015500BF002150200155E1
:1031A00000BF002022E7022020E7F8B504460E46C3
:1031B00017461D46002000905120005D012803D0D5
:1031C0005120005D222873D1002E03D0002F01D0A2
:1031D000002D01D10120F8BD00BF5020005D012865
:1031E00001D10220F7E701215020015500BF5120F5
:1031F000005D012802D13221512001550020606577
:10320000A763A587E5872663A586E586A064E064B5
:1032100001214903A06A88420DD100BF20680068DF
:103220008843216808602068006801214903084339
:103230002168086000BF20680068402108404028DD
:1032400004D0206800680843216808600121C90291
:10325000E06888427DD16068002807D0FF210531F1
:10326000606888420CD1E08E012809D1206B00886B
:103270002168C860206B801C2063E08E401EE086C1
:10328000E08E002820D101214903A06A884205D19F
:103290002068006849100843216808600022012165
:1032A0002046069B03F07AFF002802D0032092E715
:1032B00038E12068C068A16B0880A06B801CA06307
:1032C000E08F401EE087D7E035E000220221204653
:1032D000069B03F063FF002801D003207BE7206BEF
:1032E00000882168C860206B801C2063E08E401E2F
:1032F000E086E08E00280AD101214903A06A8842B5
:1033000005D1206800684910084321680860002240
:1033100001212046069B03F041FF002801D0032035
:1033200059E72068C068A16B0880A06B801CA0636F
:10333000E08F401EE087E08E0028C6D1606800283C
:10334000C1D1002201212046069B03F027FF00285F
:1033500000E00DE001D003203DE72068C068A16BCC
:103360000880A06B801CA063E08F401EE08783E094
:103370006068002807D0FF210531606888420BD1C2
:10338000E08E012808D1216B481C20630878216851
:10339000C860E08E401EE086E08E00281CD101212E
:1033A0004903A06A884205D1206800684910084393
:1033B00021680860002201212046069B03F0EEFEF2
:1033C000002801D0032006E72068C068A16B0870C0
:1033D000E08F401EE0874FE034E0002202212046CB
:1033E000069B03F0DBFE002801D00320F3E6216BEF
:1033F000481C206308782168C860E08E401EE08683
:10340000E08E00280AD101214903A06A884205D133
:1034100020680068491008432168086000220121E3
:103420002046069B03F0BAFE002801D00320D2E616
:103430002068C068C1B2A26B501CA0631170E08FFD
:10344000401EE087E08E0028C7D16068002813D1B5
:10345000002201212046069B03F0A0FE002801D097
:103460000320B8E62068C068C1B2A26B501CA063FC
:103470001170E08F401EE08701214903A06A884255
:1034800013D1002201212046069B03F087FE00286D
:1034900005D0606D02210843606503209BE620682B
:1034A000C06881B2009168460088012280212046D0
:1034B000069B03F073FE002805D0606D20210843B1
:1034C0006065032087E60121512001554903A06A68
:1034D000884220D120688068102108400009002817
:1034E00019D0606D02210843606500BF2068006844
:1034F00009038843216808602068006801214903A6
:1035000008432168086000BF00BF0021502001551A
:1035100000BF01205FE600BF00215020015500BF21
:10352000002058E6022056E6042806D1064909691B
:1035300004221143044A116105E003490969042288
:103540009143014A1161704700E000E070B5044604
:103550002546681E0949884201D901200CE0681EF1
:10356000074948610321081F01F0DEFC00200449DF
:10357000886107200861002070BD0000FFFFFF0088
:1035800000E000E0024600BF3420805C012801D149
:103590000220704701233420835400BF02233520CA
:1035A000835410684068702398431368586010680B
:1035B00040680B681843136858601068806880235F
:1035C000984313689860106880684B6818431368C4
:1035D000986001233520835400BF00233420835496
:1035E00000BF0020D5E710B50446002C01D1012012
:1035F00010BD3520005D002805D100213420015583
:10360000204600F00DF8022135200155211D2068CB
:1036100006F05CF80121352001550020E8E70000A4
:10362000012292070168914205D10349896B012269
:103630001143014A91637047001002400146086837
:10364000C068012210430A68D0600868006801223F
:1036500010430A68106000207047F8B504460D4614
:10366000002600BF3420005D012801D10220F8BDF2
:1036700001213420015500BF022135200155206869
:1036800086687721304688430646FF210902304686
:103690008843064620688660286850283ED00CDCA7
:1036A000202863D004DC002856D0102868D158E0C8
:1036B000302860D0402863D144E0602838D070289A
:1036C0000DD001210903401A02D0401A58D117E049
:1036D00020688068C008C0002168886051E0EB68FD
:1036E0006A68A968206806F033F820688668772140
:1036F000304688430646772006432068866040E0CF
:10370000EB686A68A968206806F022F8206880687B
:103710000121890308432168886032E0EA6869680A
:10372000206806F031F85021206806F020F828E0E3
:10373000EA686968206806F042F86021206806F0AF
:1037400016F81EE0EA686968206806F01DF8402156
:10375000206806F00CF814E00021206806F007F855
:103760000FE01021206806F002F80AE0202120680E
:1037700005F0FDFF05E03021206805F0F8FF00E0CE
:1037800000BF00BF01213520015500BF00213420BA
:10379000015500BF00206AE7704710B50446206855
:1037A000006902210840400800281CD02068C06839
:1037B00008404008002816D0481F216808610120F1
:1037C0002075206880698007800F002803D020467C
:1037D000FFF7E2FF05E0204600F09DF8204600F0EC
:1037E0009BF80020207520680069042108408008AB
:1037F00000281DD02068C06808408008002817D025
:10380000C84321680861022020752068806903216F
:1038100009020840002803D02046FFF7BDFF05E05D
:10382000204600F078F8204600F076F80020207559
:103830002068006908210840C00800281CD02068C2
:10384000C0680840C008002816D0C8432168086135
:10385000042020752068C0698007800F002803D0ED
:103860002046FFF799FF05E0204600F054F8204677
:1038700000F052F8002020752068006910210840EF
:10388000000900281DD02068C068084000090028F1
:1038900017D0C84321680861082020752068C069D6
:1038A000032109020840002803D02046FFF774FFD7
:1038B00005E0204600F02FF8204600F02DF800200B
:1038C000207520680069C007C00F012148404840AA
:1038D00000280CD02068C0680840484048400028B4
:1038E00005D0C81E21680861204600F016F820683F
:1038F000006940210840800900280BD02068C0687A
:1039000008408009002805D0C84321680861204686
:1039100000F004F810BD704770477047704770475B
:1039200070470146002200236920425C6A20435C04
:103930001046184370470000F8B504462068C56972
:10394000206806682807000F0090009800280BD117
:1039500020202840002807D020203040002803D015
:10396000204606F05EFAF8BD2068876800980028B7
:103970007ED0F807C00F002804D1FF20213030404E
:103980000028F5D0E807C00F00280BD0FF20013039
:103990003040002806D0012021680862E06E012135
:1039A0000843E0660220284000280AD0F807C00F2C
:1039B000002806D0022021680862E06E0421084336
:1039C000E0660420284000280AD0F807C00F00282D
:1039D00006D0042021680862E06E02210843E066F8
:1039E0000820284000280ED020203040002803D195
:1039F000F807C00F002806D0082021680862E06E92
:103A000008210843E066E06E002841D020202840CD
:103A1000002806D020203040002802D0204606F0A2
:103A200000FAE06E08210840002805D1206880686F
:103A300040210840002826D0204606F0D1F9206811
:103A4000806840210840002819D020688068884399
:103A500021688860606E00280DD02648616E8863FA
:103A6000606EFDF74DFD002812D0606E816B00E0A6
:103A70000FE088470CE02046FFF752FF08E02046A1
:103A8000FFF74EFF04E02046FFF74AFF0020E06604
:103A900069E7012000052840002811D00120800599
:103AA000384000280CD00120000521680862202140
:103AB000692001556A2001552046FFF730FF52E783
:103AC00080202840002807D080203040002803D0E4
:103AD000204606F0E7FB46E740202840002807D0B4
:103AE00040203040002803D0204606F08AF93AE70B
:103AF00000BF38E7C99D000810B50446002C01D16D
:103B0000012010BDA069002800D000E000BF69209E
:103B1000005D002805D1002168200155204600F0F5
:103B20002DF82421692001552068006840084000D4
:103B300021680860606A002802D0204606F092F8EA
:103B4000204606F0B7F9012800D1DAE7206840687E
:103B50000921C902884321684860206880682A21B9
:103B60008843216888602068006801210843216833
:103B70000860204606F0EEF8C3E7000010B586B0F6
:103B8000044629492068884217D12848406B012102
:103B9000890308432549486303204002019002201D
:103BA000029001200390032004900420059001A9B5
:103BB00005200007FDF722FD33E01D4920688842FB
:103BC00016D11A48806B01214904084317498863BC
:103BD0000C20019002200290012003900320049009
:103BE0000420059001A905200007FDF707FD18E056
:103BF00010492068884214D10C48806B01210905C6
:103C000008430A498863182001900220029001208D
:103C10000390032004900620059001A90648FDF7B3
:103C2000EDFC06B010BD000000380140001002405D
:103C300000440040005000400004005010B503460E
:103C40006A20C05C20286AD1002901D0002A01D155
:103C5000012010BD012424039868A04208D11869EE
:103C6000002805D1C807C00F002801D00120F0E7C7
:103C700000BF6820C05C012801D10220E9E70124CF
:103C80006820C45400BF59655820C2525A20C252FD
:103C900000BF24039868A0420AD11869002803D104
:103CA000204C5C20C45220E0FF245C20C4521CE065
:103CB000986800280AD11869002803D1FF245C20E5
:103CC000C45212E07F245C20C4520EE00124240779
:103CD0009868A04209D11869002803D17F245C208C
:103CE000C45202E03F245C20C45200BF0020D866CA
:103CF00022246A20C45400BF00246820C45400BF9A
:103D000018688068012420431C68A0601868006857
:103D1000FF24213420431C682060002099E7022002
:103D200097E70000FF01000070B504465C49206879
:103D300088427DD15B48807A0D2803D10121594802
:103D4000017386E05748807A0A2877D15548007B6E
:103D5000002863D0002153480173002552A1FF3889
:103D6000FD38FCF787FAA84203D1012052490870B8
:103D700016E052A15648FCF77DFAA84203D1012073
:103D80004D4948700CE053A15148FCF773FAA84222
:103D900006D1012048498870FDF736FD4649086480
:103DA00040480089801F4A49085C412824D10120ED
:103DB0004149C8703B48028945493F48401DFCF7CE
:103DC0002EFA0D21374802890089401C83B23548FC
:103DD00003813948401D81540A21324802890089F3
:103DE000401C83B22F4803813348401D8154014653
:103DF0003DA006F061FB10E02A480089801F34498D
:103E0000085C562809D100202B49C8702548028932
:103E10002F492948401DFCF702FA00BF2C4934A065
:103E200006F04AFB1F4801892948FCF711FA01E016
:103E300018E003E000211B4801810AE01948817A5B
:103E400002892348815417480089401C81B21548D3
:103E500001811448008981218900884202DB002108
:103E60001048018124492068884218D12348817A6A
:103E70000289FF38FD38815420480089401C81B2F6
:103E80001E480181FDF7C0FC1D4908601B480089E0
:103E900081218900884202DB00211848018170BD20
:103EA000004400402C06002024504D544B3031304B
:103EB0002C3030322A3244004C08002024504D541B
:103EC0004B3030312C3331342C332A333600000060
:103ED0003004002024504D544B3030312C323230DD
:103EE0002C332A3330000000474C4C2D2D25730015
:103EF00025730D0A00000000005000403C0800201F
:103F00003C060020FEB504460D4616461F4600201E
:103F100001906920005D20286AD1002D01D0002E7B
:103F200001D10120FEBD01210903A068884208D10A
:103F30002069002805D1E807C00F002801D0012022
:103F4000F0E700BF6820005D012801D10220E9E709
:103F500001216820015500BF0020E0662121692071
:103F60000155FDF751FC0190502006535220065395
:103F700025E05220005B401E81B252200153009781
:103F8000002280212046019B06F0C5F9002801D0BF
:103F90000320C7E701210903A06888420BD12069EB
:103FA000002808D10295029D2888C005C00D21680F
:103FB0008862AD1C03E028786D1C2168886252205D
:103FC000005B0028D5D10097002240212046019BAC
:103FD00006F0A1F9002801D00320A3E720216920E1
:103FE000015500BF00216820015500BF002099E75E
:103FF000022097E77047000003E0024902A006F0A4
:104000005BFAFAE798C2000825730D0A0000000069
:104010000146084670470000F7B504460026002513
:104020000027082C01DB0320FEBD3B480078C007B9
:10403000C00F002807D038480068202108402028F9
:1040400001D00120F0E76846007A000701176846B2
:10405000082282561011814213DC6946097A090749
:1040600008170522002106F01DFA002809D06A462B
:104070000821515608110522002106F013FA0028E4
:1040800000D10126032C19DAE100244A5158019885
:10409000884200D001256846007A000700172049B1
:1040A000884200DD01266A46082151560811052282
:1040B000114606F0F7F9002800D10126194A0198A7
:1040C000116A8847012804D10198002801D0002DE9
:1040D00000D00125012E03D1012D01D10620A3E737
:1040E000012E01D105209FE7012D01D104209BE77E
:1040F000E0000A494018029A019906C0E000074909
:1041000040184771084800880121A140084306492A
:104110000880002088E70000F800002098000020B8
:10412000D8F3010848BD0008A80E00201CB50446BD
:1041300012480078C007C00F002807D00F48006859
:1041400020210840202801D001201CBD032C01DAC9
:104150000320FAE7002000900190E0000849401891
:10416000019A009906C007492046FDF744F9002846
:1041700001D10320E9E700BF0020E6E7F8000020B6
:1041800098000020A80E0020FFB581B007460E461B
:104190001C460B9D1E490A9848718C712004000E24
:1041A000C8712002000E0872200E48728D72280419
:1041B000000EC8722802000E0873280E4873CE73D2
:1041C0001448FCF729FF13480399FCF735FF102228
:1041D0000F491048FCF73AFFF2B239460D48FCF798
:1041E00035FF0C490C48FCF742FE0B48C07800062E
:1041F00009498978090408430749497809020843AD
:104200000549097808430C99086005B0F0BD000025
:104210003C010020A01000208C0F00200EB51420BF
:1042200069460870684600F077FA01980EBD0000F4
:1042300010B5044609480A4908600A4848600A4817
:1042400088600A49206808606068486008496068BA
:104250000860034800F032F810BD0000894D0008E6
:10426000800F0020E94D0008754E00083401002041
:1042700030010020FEB504460D4616461F460321B8
:1042800068460170019400F0EDFA0421684601705F
:10429000019500F0E7FA052168460170019600F0EB
:1042A000E1FA062168460170019700F0DBFA01216E
:1042B00068460170017100F0D5FAFEBD70B5044684
:1042C0000D46002C01D1032070BD2068002805D0C8
:1042D0006068002802D0A068002801D10320F3E71D
:1042E000434804604348056000204349087043493F
:1042F0000870012042490860002042490860424994
:104300000860424908700120414908700020414975
:104310000870414908600720404908800020404952
:1043200008704048807B40B23F4908703F490870A0
:1043300001203F49087000203E4908703E4908703E
:1043400001203E49088000203D4908603D49086041
:104350003D4908703D483E4908607D20C0003D4908
:10436000086040003C4908603C483D4908603D48C1
:104370003D4908603D493E4805F0F2FA7D21C900FB
:104380003B4805F0A5FB3B493B4805F0E9FA3B49B2
:104390003B4805F0E5FA3B493B4805F0E1FA3B496B
:1043A0003B4805F0DDFA3B483B4908603B488860E4
:1043B0003B4808613B4848603B48C8603B4801684F
:1043C00035488847394948698047064607F0C4FBA5
:1043D00008203749087001203649087008460078DF
:1043E00005F058F83149C86A804700206CE70000A2
:1043F000FC000020000100202901002070000020A6
:10440000780000207C000020840000207200002042
:104410008100002082000020F8000020A80E00206B
:10442000E10000206C020020E2000020E3000020F8
:10443000E4000020E5000020E6000020E800002065
:10444000EC000020F0000020F4000020B80B000079
:104450001C01002004010020080100208813000036
:104460000C010020701700001001002065520008A8
:10447000B40E0020D5610008E40E0020B5600008ED
:10448000F80E0020316100080C0F002019500008C0
:10449000200F0020255E0008C80E0020C15500082E
:1044A000355D00081D600008AD5D000848BD0008CE
:1044B000F500002071000020F8B504460D461646B0
:1044C0001F461048FCF7A8FD31460E48FCF7B4FD26
:1044D000EAB221460B48FCF7B9FD0A490A48FCF745
:1044E000C6FC0948C07800060749897809040843D2
:1044F00005494978090208430349097808433860A7
:10450000F8BD0000A01000208C0F0020FFB585B082
:1045100005460E461C460E9F07A80090F02200217B
:104520001C4806F001FF1B4A1021284606F0B6FA87
:104530001022002101A806F0F7FE01216846017152
:1045400006223146401D06F0D5FE022202A80330A5
:10455000009906F0CFFE0F4A214601A806F070FA36
:104560001022002101A806F0DFFE02216846017139
:1045700006223146401D06F0BDFE022202A803308D
:10458000009906F0B7FE034A394601A806F058FA2A
:1045900009B0F0BDAC0F0020F8B505460E46174631
:1045A0001C46F02200210B4806F0BEFE094A1021ED
:1045B000384606F073FA074A2146284606F040FAC4
:1045C000102E06DB034A214610312846103006F033
:1045D00037FAF8BDAC0F0020F0B585B004460220D4
:1045E0000390002001900090002C02D1032005B020
:1045F000F0BD41480078C007C00F002805D13E48F3
:10460000006810210840102801D10120EFE70020A8
:10461000029010220021394806F086FE0120374919
:1046200048702078002804D0012813D0032834D102
:1046300024E001200090324908706946087AE021A0
:1046400088434030029020790190A668A7890E2502
:10465000655723E0012000902A490870E07B284933
:1046600008706946087AE0218843803002902079FA
:104670000190A668A7890E2565570FE001200090DC
:104680001F4908706946087AE0218843E0300290AB
:10469000666827890A25655700E000BF00BF0098BB
:1046A000012827D11848007800280BD105220021C5
:1046B000284605F0F7FE002802D01448057001E0F6
:1046C000032094E73B46324602A8019904F060FCBF
:1046D0000390039800280AD12078084908700C48F4
:1046E000007840084000401C0949087002E00020A2
:1046F0000849087003987AE7F80000204C0F002062
:10470000200100202101002083000020E200002081
:10471000290100208800002000B501460022002960
:1047200001D1032000BD0878030005F004FF170D38
:104730001115191D2124272B2F32373A3E42464AA4
:104740004E52575C606468002F480078087158E04A
:104750002E480078087154E02D480078087150E028
:104760002C48006848604CE02B480068486048E0EE
:104770002A48486045E02A48486042E029480078D5
:1047800008713EE02848007808713AE02748486000
:1047900037E0274B09CB8B60486032E02548486002
:1047A0002FE02548007808712BE024480068486015
:1047B00027E023480068486023E0224800684860FA
:1047C0001FE02148006848601BE0204800684860FE
:1047D00017E01F4B00201856087112E01D4B0020F7
:1047E000185608710DE01C480068486009E01B4835
:1047F0000068486005E01A480068486001E002224D
:1048000000BF00BF10468DE770000020820000202E
:104810008300002064000020680000207C0B002042
:104820008C0B0020710000207200002098000020F6
:10483000D8000020A80E0020E40000201C01002069
:1048400004010020080100200C01002010010020BC
:10485000E2000020E1000020780000207C00002021
:104860006C00002070B504460025002C01D1032007
:1048700070BD57480078C007C00F002801D0012044
:10488000F6E72078030005F056FE140B24282C30A0
:10489000343F4A4E9E5257626E72767A7E82909E66
:1048A00020794C49087008460078002804D0012877
:1048B00006D002280BD104E04749C86A804706E0C9
:1048C00005E000204549087001F032FC00BF00BF40
:1048D0007BE020794249087077E0207941490870EF
:1048E00073E04149606808606FE0404960680860B3
:1048F0006BE06068002805D010223D48616806F032
:10490000F9FC00E0032560E06068002805D0102273
:104910003848616806F0EEFC00E0032555E0207998
:1049200004F0B8FD51E02079334908704DE0334878
:10493000A268616806C048E06068002805D00222CD
:104940002F48616806F0D6FC00E003253DE02079A1
:10495000012806DB20790F2803DC2079294908701B
:1049600000E0032531E02849606808602DE0274910
:104970006068086029E026496068086025E02549EC
:104980006068086021E02449606808601DE0042038
:1049900020560522002105F085FD002803D020794E
:1049A0001E49087000E003250FE004202056052270
:1049B000002105F077FD002803D020791849087000
:1049C00000E0032501E0022500BF00BF28464FE7B5
:1049D000F80000207000002048BD0008880000207A
:1049E0008200002083000020640000206800002076
:1049F0007C0B00208C0B002072000020D8000020CF
:104A0000A80E0020E40000201C010020040100206A
:104A1000080100200C01002010010020E20000200D
:104A2000E1000020FFB583B004460D460E9F0C9EAA
:104A30000D9802970096019029462046069B059AFC
:104A400000F002F807B0F0BDFFB581B00D461E467C
:104A5000002701200090F0220021304806F064FC7D
:104A60002E4A1021039806F019F82D490A9848712A
:104A70008E713004000EC8713002000E0872300EC4
:104A800048720B9888720B980004000EC8720B983D
:104A90000002000E08730B98000E487320E02049B6
:104AA0000098C8730098401C80B200901B4A1D49B2
:104AB0001B4805F0C5FF00240AE039190198405C45
:104AC0001849095D48403A190C998854601C84B211
:104AD000102CF2DB2846103885B238461030C7B2A9
:104AE000102DDCDA002D16DD0D490098C8730B4A35
:104AF0000C490B4805F0A4FF00240AE0391901987D
:104B0000405C0849095D48403A190C998854601C7A
:104B100084B2AC42F2DB05B0F0BD0000AC0F002067
:104B20004C0100209C0F0020FFB587B005460E46C3
:104B30001746182200211A4806F0F6FB1221684693
:104B4000017404A8FFF7E8FD012168460170029690
:104B50008781057169460A98C8736846017D81732B
:104B6000FFF73AFD030005F0E6FC0B0709101414EB
:104B700014140B0D0E12140000240CE001240AE0A2
:104B8000022408E000BF032405E0042403E0062417
:104B900001E0012400BF00BF20460BB0F0BD0000C3
:104BA000680F0020F0B587B005460E46174618225C
:104BB0000021184806F0B8FB12216846017404A8C9
:104BC000FFF7AAFD002168460170029687810571F2
:104BD000017D8173FFF700FD030005F0ACFC0B07BE
:104BE0000910141414140B0D0E12140000240CE000
:104BF00001240AE0022408E000BF032405E00424A5
:104C000003E0062401E0012400BF00BF204607B0F6
:104C1000F0BD0000680F00203EB504460221684642
:104C200001700471FFF71EFE3EBD3EB50446002133
:104C3000684601700471FFF715FE3EBD014908701A
:104C40007047000081000020014908707047000093
:104C5000F400002000B587B000BF2048C06A0221E0
:104C600008431E49C8620846C06A022108400190F4
:104C700000BF00BF00BF1948C06A0121084317499F
:104C8000C8620846C06AC007C00F019000BF00BFDD
:104C9000881402900120039004900320059002A93B
:104CA0000F48FCF7ABFC0120C003029001200390E9
:104CB00004900320059002A905200007FCF79EFC44
:104CC00000220121C90305200007FCF797FD0122FE
:104CD00011030348FCF792FD07B000BD001002402D
:104CE0000004005010B50E480E490860E120400253
:104CF000486000210B488160C16001610C21416165
:104D000000218161C16101620020064948620846B4
:104D1000FEF7F2FE002801D0FCF7C4FB10BD000036
:104D200000380140DC02002010B514481449086026
:104D30004B20C0014860002111488160C1600161C1
:104D40000C21416100218161C161016200200C4997
:104D500048620846FEF7D0FE002801D0FCF7A2FB0F
:104D6000012208490648FEF769FF002202211C20A3
:104D7000FCF78AFD1C20FCF77BFD10BD00440040C1
:104D80004C0300203606002010B504466078124916
:104D900008701248007840084000401C0F49087015
:104DA000A0780D49C87060798870207948700C48E7
:104DB00000788007C00F00280CD109480078400710
:104DC000C00F002806D10748026804489047002019
:104DD0000249087010BD0000680F00202C0100205F
:104DE000290100203401002010B5044660781E49D6
:104DF00008701E48007802218843801C1B490870F7
:104E00000846007830218843617C09013022114036
:104E10000843164908700846007808218843A1789D
:104E2000C90008221140084310490870607B01281E
:104E300006D10846007804218843001D0B490870FC
:104E4000E07809490871A0688860207B0873E089D0
:104E5000C881207C087406480268044890470020F6
:104E60000249087010BD0000680F00202C010020CE
:104E70003401002010B50446607800283BD120782A
:104E8000002802D0012834D118E060782149087048
:104E90002148007840084000401C1F49087008461F
:104EA000007802218843801C1B490870084600785E
:104EB000802188438030184908701BE0164800782C
:104EC00040084000401C1449087008460078022140
:104ED0008843801C104908700846007840218843A8
:104EE00040300D490870207A0A490875607A487583
:104EF00000E000BF00BF094800788007C00F00280D
:104F000007D1074803490268034890470020024937
:104F1000087010BD680F00202C010020290100201E
:104F2000340100207047000010B5002819DA1A4A31
:104F300003071B0F083B9B089B00D2588307DC0E1E
:104F4000FF23A3409A438B071B0E8407E40EA34064
:104F50001A43114B0407240F083CA408A4001A515B
:104F600018E00E4A03231B02D21883089B00D25874
:104F70008307DC0EFF23A3409A438B071B0E840795
:104F8000E40EA3401A43054B032424021B19840892
:104F9000A4001A5110BD00001CED00E000E100E08B
:104FA00010B5002819DA1A4A03071B0F083B9B08A3
:104FB0009B00D2588307DC0EFF23A3409A438B0744
:104FC0001B0E8407E40EA3401A43114B0407240F61
:104FD000083CA408A4001A5118E00E4A03231B023F
:104FE000D21883089B00D2588307DC0EFF23A3400E
:104FF0009A438B071B0E8407E40EA3401A43054B0C
:10500000032424021B198408A4001A5110BD0000B7
:105010001CED00E000E100E010B50D4804F0ACFD2F
:105020000C480078012807D10B4908700B4800682C
:10503000042188430949086009480078022806D1FC
:10504000084800780821884308300649087010BDD8
:10505000200F00208800002022010020F8000020FE
:10506000700000202901002070B504460D46287804
:10507000002804D0012804D0032803D100E002E076
:1050800001E000E000BF00BF2078C00900280FD079
:1050900057A005F011FA594804F06EFD0120584957
:1050A000087001F0B5FF00210520564A12689047AC
:1050B000687801280FD153480068002820D0524951
:1050C0000320504A1268904701205049087050A0B0
:1050D00005F0F2F914E020788007C00F00280FD106
:1050E0002078C00900280BD14D480078002807D14E
:1050F0004CA005F0E1F900210420424A12689047D3
:1051000020788007C00F002850D0287B3E49C880F7
:105110000846C2880830A968FBF781F8E8893A494F
:105120000880287C887020788006800F401CC8701A
:105130002879087101F06CFF20784007C00F002823
:1051400034D030480068002826D02F4901202D4A4D
:10515000126890472C48C088002813DD38A005F05D
:10516000ABF9002607E028480830815D37A005F03C
:10517000A3F9701CC6B22448C088B042F3DC35A045
:1051800005F09AF92048007A5F2805D11E49487A2F
:10519000FCF70EF93049C8701B480830FBF763F87C
:1051A0000646314618480830FBF752F82078C00709
:1051B000C00F00281AD013480068002816D000211C
:1051C0000846104A126890472078C009002803D08A
:1051D00000200E49C87002E001200C49C8701FA0D1
:1051E00005F06AF901F000FD04F032F870BD00002E
:1051F0006A6F696E20646F6E650D0A005813002097
:10520000F0010020EC0100206C1300207414002039
:1052100041434B2052656365697665640D0A000061
:10522000910200203D3D3D3D3D4E4F2041434B20EE
:105230005245504C593D3D3D3D3D0D0A000000009A
:105240005278496E666F2E6275663A002530327864
:10525000000000003B0D0A0088020020446F6E65CC
:105260000D0A000010B5AC4804F086FC0024AB48E1
:1052700000780007C00F00286FD0A84800784007CA
:10528000C00F002805D1A5480078C007C00F00282E
:1052900019D0A3484078022803D0A24840780228B9
:1052A00011D1A1480068400840009F4908609F480C
:1052B00000789B49487100200871886001249C494E
:1052C0009CA005F0F9F89E48007800284ED1002CEB
:1052D0004CD1924800784007C00F00280DD091486B
:1052E0000078002809D18F484078002801D19549DD
:1052F000086095480078954908708848007840070C
:10530000C00F002805D185480078C007C00F0028CD
:105310002CD08E4800788C490978884205DA7F487D
:1053200000788007C00F002818D000208749087037
:1053300087480068401C8649086086480078002835
:1053400004D180480068401C7E49086076480068A7
:10535000400840007449086008E06DE06F4800783C
:10536000082188436D49087003F0B0FD6B48007850
:105370008007C00F002821D069480079012805D096
:105380006A48007874490978884217DD002073491B
:1053900008706B4908706F480078002804D169488C
:1053A0000068401C67490860604800785C494871A3
:1053B0005D480068400840005B4908606748007825
:1053C000012857D15848006810210840002851D1C1
:1053D00062490870554800785F49097888422CDA9C
:1053E00052480078082828DC50480078401C4F4973
:1053F00008700878C10F091849104900411A01299D
:105400000DD1574900200856401E002803DD00201A
:105410000856401E00E0002040B2514908703F4845
:105420000078082188433D4908704EA005F044F8F3
:1054300003F04CFD03F00CFF1CE04E4800880721F0
:1054400008434C4908803848006840084000364905
:10545000086000203A4908703149087133480078E3
:1054600048713C480078002804D136480068401C48
:10547000344908602C48006802210840022804D101
:1054800029480068884328490860274800680028A0
:1054900028D122480078C007C00F00280AD036481B
:1054A000006801681E4888471C4800784008400092
:1054B0001A490870194800784007C00F00280AD020
:1054C0002D480068816817488847144800780421EF
:1054D00088431249087011480078082188430F4911
:1054E000087007E07D21C9000B4804F0F1FA0A4872
:1054F00004F0FEFA094800788007C00F00280AD09F
:105500001D48006841681D4888470448007802210A
:1055100088430249087010BDB40E00202901002004
:105520004C0F00205C0F0020F8000020210100201B
:105530005F0500006C696E65203D2025640D0A0042
:105540008800002078000020E4000020E500002012
:105550008400002080000020200100202201002083
:10556000E20000205363686564756C6554780D0A29
:1055700000000000A80E0020FC000020340F0020D6
:1055800010B50446012C05D10449887004A004F02C
:1055900093FF02E001200149487010BD94020020F1
:1055A0004361645F537461746533333333203D204A
:1055B0004361645F446574656374200D0A000000F4
:1055C000FFB595B005460C46FE480078401CFD49E5
:1055D00008700120FC4908700027002011901090ED
:1055E000FF200F9000200E900D9000260C900B9045
:1055F0000A9009900890F5480790F5480690002019
:1056000005900490F3490871F3491798C8811898D8
:105610000874F248007848740020C8708870487197
:10562000886008734873887448610870EC48007893
:10563000022802D0EB49C86A8047EB4804F09CFA84
:105640003846791CCFB2285C1390E848C07800280F
:1056500005D010A9087BE02188438030139010A862
:10566000007B4009030004F066FF08FD05FDFCFB1C
:10567000FAFDF9FDDE480078012800D112E3DDA033
:1056800004F01AFF601E81B2DE4BDF480268681C1E
:10569000FEF782FF10A8007BDA49491E0870201F20
:1056A00081B20DABD8480268D648401EFEF704FF11
:1056B000201FD449491E085C0643E01E085C000216
:1056C0000643A01E085C00040643601E085C00063A
:1056D00006430D9886427DD1BD48BC4B0090CB4817
:1056E0000288491CC8480068FEF710FFC548401EE4
:1056F0000079C7490860C348401E40790002096824
:105700000843C3490860BF48401E80790004096807
:105710000843BF490860BB48401EC079BD490860C6
:10572000B848401E007A000209680843B949086079
:10573000B448401E407A000409680843B54908602F
:10574000B048401E807A000609680843B1490860E5
:10575000AC48401EC07A4006400FAF490870A948C7
:10576000401EC07A0007000FAC4908710846017955
:10577000ABA004F0A1FEA348401E007B0007000F71
:10578000AE49086008460068002801D10120086081
:10579000AA480068FAF7E6FF0022A94B01910090A1
:1057A000FAF7ECFE03910290FBF70EF8A3490860AC
:1057B00008460068FAF7D6FF0022A14B019100903D
:1057C000FAF72AFE03910290FAF7FEFF9D4908605E
:1057D000601E00E04BE0102837DD5020694608735A
:1057E00099480068202108439749086003200190E8
:1057F000002000901FE000980D308249491E095C8E
:1058000000980E307F4A521E105C00020843009937
:105810000F31515C0904084364214843029001A8F8
:1058200007C8FEF7F9FB0198401CC0B20190009830
:10583000C01CC0B2009001980828DCDB82480068D8
:10584000202188438049086000BF00207F494870BC
:105850000120674908707E49002004E006E20BE061
:1058600009E00AE018E208567A49087002E00520CB
:105870007649487016E200BF00BF3846791CCFB2A7
:10588000285C11903846791CCFB2285C000211992F
:10589000084311903846791CCFB2285C0004119956
:1058A000084311903846791CCFB2285C0006119944
:1058B0000843119068A0119904F0FEFD00200590A6
:1058C00042480790424806906748006809900020C7
:1058D00001E0411CC8B2A042FBDB3846791CCFB2C4
:1058E000295C12913846791CCFB2285C0C9038465E
:1058F000791CCFB2285C00020C9908430C9010A8C8
:10590000007A0007000F08301090201F285C064323
:10591000E01E285C00020643A01E285C000406432B
:10592000601E285C00060643099880B20B900B9914
:105930000C98884203DA0020694688840B900B9902
:105940000C98401A80B20A900121C9030A98884233
:1059500016DA09990A98081809900DA800220999E1
:10596000009201910290201F81B22846119B079A54
:10597000FEF70AFC0D98864201D10120049098E0C0
:1059800001210904099841180A9800B208180390E7
:10599000002136A0039B099A04F08EFD0DA9002278
:1059A0000398009202910190201F81B22846119B1A
:1059B000079AFEF7E9FB0D98864279D10120049001
:1059C000039874E0E90100202A0100207C0B0020EC
:1059D0008C0B00204C0F0020340F002028010020E9
:1059E0007000002048BD00080C0F00209402002029
:1059F000820000206A6F696E2061636365707420A5
:105A00000D0A00009B0D00205C00002060000020BB
:105A10006400002068000020E0000020D800002082
:105A20005278324368616E6E656C2E4461746172A7
:105A3000617465203D2025640D0A000004010020EA
:105A400000408F4008010020F80000205C0F00207B
:105A5000E3000020E20000204465766963653A2592
:105A60003032783B0D0A00007C000020444F574E36
:105A70005F4C494E4B203D20256420646F776E4C6F
:105A8000696E6B436F756E746572203D20256420CE
:105A9000646F776E4C696E6B436F756E746572548C
:105AA0006D70203D2025640D0A00000000E0099083
:105AB00000BF049801287DD10020884948700598CE
:105AC000887010A8007AC006C00F48710020886056
:105AD000087309984861002081494870814908602D
