:020000040800F2
:100000005026002099010008413A0008E92900081B
:10001000E1390008C10C00087D83000800000000E1
:100020000000000000000000000000007B570008F6
:10003000FD0D000800000000A14C000849740008F4
:10004000B3010008B3010008B3010008B3010008C0
:10005000B3010008B3010008390E0008550E00086E
:100060005B0E0008610E0008B3010008B301000830
:10007000B3010008B3010008B3010008B301000890
:10008000410D00084D0D0008B3010008B301000840
:10009000B3010008B3010008B3010008670E0008AF
:1000A000B3010008B3010008B3010008B301000860
:1000B00069750008B3010008B3010008B301000826
:1000C000B3010008B3010008B3010008B301000840
:1000D000B3010008B301000869830008B3010008F8
:1000E0003F0E0008B3010008B3010008B301000887
:1000F000B3010008B3010008B3010008B301000810
:10010000B3010008B3010008B3010008B3010008FF
:10011000B3010008B3010008B3010008B3010008EF
:10012000B3010008B3010008B3010008B3010008DF
:10013000B3010008B3010008B3010008B3010008CF
:10014000B3010008B3010008B3010008B3010008BF
:10015000B3010008B3010008B3010008B3010008AF
:10016000B3010008B3010008B3010008B30100089F
:10017000B3010008B3010008B3010008000000004B
:10018000B3010008DFF80CD000F0D0FB00480047B6
:1001900091990008502600200648804706480047ED
:1001A000FEE7FEE7FEE7FEE7FEE7FEE7FEE7FEE727
:1001B000FEE7FEE70D750008850100082DE9F05FF8
:1001C0000546002092469B468846064681464024C6
:1001D0001BE0284641464746224600F0B4FA534603
:1001E0005A46C01A914110D311461846224600F0D3
:1001F0009BFA2D1A67EB01084F4622460120002189
:1002000000F092FA17EB00094E41201EA4F1010400
:10021000DFDC484631462A464346BDE8F09F40EAC7
:1002200001039B0703D009E008C9121F08C0042A74
:10023000FAD203E011F8013B00F8013B521EF9D25B
:100240007047D2B201E000F8012B491EFBD2704783
:100250000022F6E710B513460A4604461946FFF792
:10026000F0FF204610BD30B505462A460B4612F871
:10027000010B13F8014B08B1A042F8D01CB10028C3
:1002800002D06D1CF1E7284630BD421C10F8011B5E
:100290000029FBD1801A704730B504460020034680
:1002A00000E05B1C934203D2E05CCD5C401BF8D0C5
:1002B00030BD034611F8012B00F8012B002AF9D1BB
:1002C0001846704730B505460020034600E05B1C29
:1002D000934205D2EC5CC85C201A01D1002CF6D107
:1002E00030BD2DE9FE4F804681EA0300C00F0C4669
:1002F000009021F0004123F00045B8EB0200A94135
:1003000005D24046214690461C460B46024623F045
:100310000040104347D0270DC7F30A00C3F30A512A
:100320000290401A019040286BDAC3F3130040F4A6
:10033000801B0098924620B10023D2EB030A63EBA6
:100340000B0B01985946C0F14002504600F0ECF901
:1003500006460D4650465946019A00F004FA10EB45
:1003600008006141002487EA115284EAE7731A43C6
:1003700040D0009A62B3019A012A4FEA075215DC75
:10038000001B61EB02014FF0004202EA0752CDE987
:100390000042001C41F5801132462B4600F004FA61
:1003A00003B0BDE8F08F40462146F9E7001B61EB42
:1003B0000201001C41F5801300185B412018A2F5D2
:1003C000001747EB030140EAD570B6196D4111E003
:1003D0006D084FEA360645EAC0754FEA0752001B22
:1003E00061EB0201001C41F5801149084FEA300021
:1003F0000019514132462B4603B0BDE8F04F00F0E2
:10040000C4B90098012240000023D0EB020263EB44
:10041000E073009821464FEAE074B8EB000061EB0E
:100420000401E9E783F000435BE781F0004158E70E
:100430002DE9FE4F81EA030404F0004421F000415D
:1004400000944FF0000B23F0004350EA01045ED00B
:1004500052EA03045BD0C3F30A54C1F30A552C4497
:10046000A4F2F3340194A0FB0254C1F3130141F44C
:100470008011C3F3130343F4801301FB024400FB18
:10048000034E840A970A44EA815447EA8357A4FB3F
:10049000076802958D0A05FB07854FEA932C04FB3C
:1004A0000C542705029D4FEA065847EA1637B5EB6C
:1004B00008056EEB070C870E920E47EA811742EA99
:1004C0008312A7FB0201B6EB0B0164EB00042B0DBA
:1004D00043EA0C335E1844EB1C50DA465146E7FB06
:1004E0000201C5F313044FEA0B3343EA14534FEAF6
:1004F0000432019C43EA0603A4F10C040294009C1C
:10050000CDE900B400F050F903B0BDE8F08F002051
:100510000146F9E72DE9F04D81EA030404F0004BB0
:1005200021F0004514464FF0000A23F0004150EA44
:10053000050220D054EA01021DD0C5F30A57024635
:10054000C5F31303C1F31300C1F30A5640F4801539
:1005500043F48013A7EB0608101BD64608F2FD38BB
:1005600073EB050002D308F1010801E092185B412A
:10057000B8F1000F03DA00200146BDE8F08D00203D
:100580004FF48011064684460EE0171B73EB0507F7
:1005900005D3121B63EB050306434CEA010C490823
:1005A0004FEA300092185B4150EA0107EDD152EA60
:1005B000030012D082EA040083EA0501084305D053
:1005C000101BAB4106D20122002306E000224FF0AF
:1005D000004302E06FF0010253101AEB06004CEBEF
:1005E000085110EB0A0041EB0B01BDE8F04D00F0A3
:1005F000CCB870B521F0004303430CD0C1F30A55C9
:100600000024D5EB040564EB0403D617AD1AB341FF
:1006100002DB0020014670BD201841EB025170BD85
:100620000EB5C10F80EAE0700844CA07002140F20D
:1006300033438DE80E000A460B4600F0B5F803B0D0
:1006400000BD0EB540F2334102910021CDE9001109
:100650000A460B4600F0A8F803B000BD70B5C1F320
:100660000A5201F000450024C1F3130140F2FF33A8
:1006700041F480119A4201DA002070BD40F2334308
:100680009A42A2F2334203DC524200F05CF800E0EE
:1006900090402C43F1D0404270BDC1F30A5210B5D6
:1006A000C1F3130140F2FF3341F480119A4201DAA1
:1006B000002010BD40F233439A42A2F2334203DCE1
:1006C000524200F040F810BD904010BD30B5041EFD
:1006D00071F1000404DB4FF00044404264EB01017F
:1006E000141E73F1000405DB1C464FF00043524218
:1006F00063EB0403994208BF904230BD30B50B460E
:10070000014600202022012409E021FA02F59D4241
:1007100005D303FA02F5491B04FA02F52844151E15
:10072000A2F10102F1DC30BD202A04DB203A00FAFC
:1007300002F1002070479140C2F1200320FA03F338
:10074000194390407047202A04DB203A21FA02F036
:100750000021704721FA02F3D040C2F120029140FB
:10076000084319467047202A06DBCB17203A41FA86
:1007700002F043EAE07306E041FA02F3D040C2F12E
:100780002002914008431946704710B5141E73F1BA
:10079000000408DA401C41F1000192185B411A4341
:1007A00001D120F0010010BD2DE9F04D92469B468D
:1007B00011B1B1FA81F202E0B0FA80F22032904633
:1007C000FFF7B2FF04460F4640EA0A0041EA0B0178
:1007D00053465A46084313D0114653EA010019D034
:1007E000C8F140025046FFF7AEFF05460E465046A0
:1007F00059464246FFF798FF084305D0012004E020
:1008000020463946BDE8F08D0020054346EAE076F3
:100810002C4337430A986305E40AA0EB0800002242
:10082000FD0A44EA47540A3002D500200146E9E7B0
:10083000010510196941DDE9084500196941BDE864
:10084000F04DA2E72DE9F041054621F000400C46AD
:10085000284309D0C4F30A5040F23341884205DDF1
:1008600028462146BDE8F0812846FBE740F2FE31EC
:10087000884210DC0CDB4FEA043040EA155050EAA5
:10088000053105D0104804F0004101430020E9E79C
:1008900000200146E6E7A0F233404642C6F140029E
:1008A00028462146FFF740FF07468846284621464E
:1008B0003246FFF748FF43463A46FFF766FF3246A7
:1008C000BDE8F041FFF730BF0000F03FC1F30A522E
:1008D000C1F3130140F2FF3341F480119A4202DA6E
:1008E00000200146704740F233439A42A2F233425D
:1008F00002DC5242FFF727BFFFF716BF30B5041ED8
:1009000071F1000404DB4FF00044404264EB01014C
:10091000141E73F1000405DB1C464FF000435242E5
:1009200063EB04038B4208BF824230BD064C074D87
:1009300006E0E06840F0010394E8070098471034AF
:10094000AC42F6D3FFF722FC58BF000878BF00087E
:1009500070B58C1810F8015B15F0070301D110F881
:10096000013B2A1106D110F8012B03E010F8016BAE
:1009700001F8016B5B1EF9D12B0705D40023521E31
:100980000DD401F8013BFAE710F8013BCB1A921C99
:1009900003E013F8015B01F8015B521EF9D5A14297
:1009A000D8D3002070BDF0B589B00C4605461022A2
:1009B0000021684609F0EEF804F124026946164663
:1009C000084608F0A1F99DF80000694600064FF0BE
:1009D00000000FD50B180A5C5B78520042EAD31274
:1009E0000A54401C0F28F5DB9DF80F00400080F0F2
:1009F00087000CE00B180A5C5B78520042EAD312C5
:100A00000A54401C0F28F5DB9DF80F0040008DF8BC
:100A10000F00206A102815D09DF8000000064FF046
:100A2000000019D50B180A5C5B78520042EAD31219
:100A30000A54401C0F28F5DB9DF80F00400080F0A1
:100A4000870016E0002022180F5C137C401C7B40BE
:100A500013741028F7DB24E00B180A5C5B78520053
:100A600042EAD3120A54401C0F28F5DB9DF80F0010
:100A700040008DF80F00276A04F110028023BB5458
:100A8000002300E08354206A401C20621028F9D320
:100A9000002022180F5C137C401C7B40137410282C
:100AA000F7DB00202218215C127C51402154401CAD
:100AB0001028F7DB1022214604A809F055F8324629
:100AC000294604A808F020F910220021684609F000
:100AD00061F809B0F0BD10B504461022002109F0FC
:100AE00059F800200146206204F12400BDE81040BE
:100AF000F02209F04FB80B4600F1240210211846ED
:100B000008F02AB92DE9FF470446006A0F4615464A
:100B100004F1100804F1240900B3C0F11006AE423C
:100B200000D31646B2B24044394609F01DF8206A97
:100B300030442062102833D3B54231D0002022182F
:100B4000215C127C51402154401C1028F7DB2146C7
:100B50004A46084608F0D8F83744AD1B18E0002094
:100B6000215C3A5C51402154401C1028F8DB1022D3
:100B70002146684608F0F8FF69464A46084608F0EC
:100B8000C3F810226946204608F0EEFF103D1037EA
:100B9000102DE4D8AAB23946404608F0E5FF256298
:100BA000BDE8FF87F0B5174C0127A0F1020CE379EF
:100BB000134E1D465B1CDBB2BCF1070F1ED2DFE8F3
:100BC0000CF0040804080F0804000F2D14D270550F
:100BD00004E00E2D10D27055F1545B1CE37108E057
:100BE0000D2D09D27055F1545B1CD8B23254401C03
:100BF000E07100270120A0713846F0BD0220F0BD51
:100C0000BD0D0020A401002030B5114C05004FF0AF
:100C1000000094F90A3019D053B1246B402C00D352
:100C20000120602C12D3A406B4F1004F03D00DE0D4
:100C3000002121630AE0002B08DD5B1E5BB22BB9AB
:100C400021B104490C8844F007040C80137030BDB6
:100C5000A4010020CC0D002010B5164C20780028EF
:100C600026D100F0A1FC06F015FC02F06BFC02F0AE
:100C70005BFC02F025FD02F04FFD02F089FD02F061
:100C8000C3FD02F0F9FC02F0FBFD02F01FFE802222
:100C900009490A4801F09AFD08480068C16841F016
:100CA0001001C16004F07EFF02F012FC01202070F0
:100CB00010BD0000D0030020FF050020C406002066
:100CC000FEE7000070B505460A464FF6FF740020A7
:100CD0004AF201030DE0295C4C400021E6074FEA8F
:100CE000540400D05C40491CC9B20829F6D3401C0A
:100CF000C0B29042EFD3214602A007F083FB20460A
:100D000070BD0000726573756C74203A2025303216
:100D1000780D0A00F0B5002425460DE0C11700EB60
:100D2000117626F00F01471A2146641C102003F0AB
:100D3000B8FF07FB005530110028EFD12846F0BD61
:100D4000014800F00DB9000004070020014800F040
:100D500007B900006407002001681823CAB2103ADE
:100D6000B2FBF3F2054B6FF30901032A9B5CC365E9
:100D700000D9091D816508467047000056B4000877
:100D800010B5014600208B698A6A4FF0C07453B1D8
:100D9000B3F5005F15D072B1012A0CD0022A0AD037
:100DA000032A09D104E01AB1012A06D0022A03D18C
:100DB000C96AC90100D5012010BDC96AA142FAD093
:100DC00010BD002AF7D0012AF2D0022AF3D0032A5C
:100DD000F3D010BD30B50468256825F48025256062
:100DE000046863608368402B036803D099600068DF
:100DF000C26030BD9A600068C16030BD704708F0C5
:100E0000B2BA000070B54FF0E024002265690949CC
:100E1000A36989684843A1699942FCD002D2A3EB37
:100E2000010302E0A5EB010633441A440B4682425B
:100E3000F1D370BD7C030020012000F0B1BA10B5E1
:100E40004FF4806000F0ACFABDE810404FF4006051
:100E500000F0A6BA022000F0A3BA042000F0A0BA65
:100E6000082000F09DBA10B54FF4807000F098FA99
:100E7000BDE810404FF4007000F092BA094A00211A
:100E800052F83130834208D802EBC1039B68834299
:100E900003D902EBC10000797047491CC9B215297A
:100EA000EED3FEE720B9000800F06ABB2DE9F0415F
:100EB0000446876D00F06AFB064694F8350000256D
:100EC000022806D08020606584F834500120BDE8F7
:100ED000F0812068016821F01601016020684169F5
:100EE00021F080014161206C08B9A06C20B120681C
:100EF000016821F0080101602068016821F001010A
:100F000001600BE000F042FB801B052806D9202081
:100F1000606504F8345F03206070D8E720680068DB
:100F2000C007EFD194F85C103F208840B86004F807
:100F3000345F012060700020C9E790F83510022965
:100F400003D08021416501207047052180F83510CC
:100F50000068016821F00101016000207047000075
:100F60002DE9F84304464FF00009CDF8009063489E
:100F70004FF41651A56D0068B0FBF1F72E6894F898
:100F80005C10082000FA01F131420FD021680A6894
:100F900052070BD50A6822F004020A6094F85C102C
:100FA0008840A860606D40F00100606594F85C10B6
:100FB0004FF0010808FA01F0304208D02168496971
:100FC000090604D5A860606D40F00200606594F8E1
:100FD0005C1004208840304208D0216809688907E5
:100FE00004D5A860606D40F00400606594F85C1062
:100FF00010208840304218D021680968090714D5AC
:10100000A86020680168490304D50068000308D57A
:10101000A16C07E00168C90503D4016821F008014B
:101020000160216C09B12046884794F85C102020AB
:101030008840304231D021680968C9062DD5A860A2
:1010400094F8350005282068016806D0490347D583
:10105000006800031DD4616C1CE021F016010160E2
:101060002068416921F080014161206C08B9A06CC1
:1010700020B12068016821F00801016094F85C103B
:101080003F208840A86084F8349084F83580216D32
:101090001FE0E16B09B120468847606D00282BD026
:1010A000606DC00714D0052084F835002068016801
:1010B00021F0010101600098401C0090B84203D863
:1010C00020680068C007F6D184F8349084F8358031
:1010D000E16C002910D001B02046BDE8F04308477C
:1010E0000168C905D5D4016821F01001016084F8B8
:1010F000349084F83580CCE7BDE8F8830400002004
:101100002DE9F041044600F041FA06465CB10025A5
:1011100084F83450022084F835002068016821F0FA
:10112000010101600DE00120BDE8F08100F02EFA20
:10113000801B052805D920206065032084F8350030
:10114000F2E720680068C007F0D1226811682048E3
:101150000140D4E901031843D4E90336334318436B
:1011600063691843A3691843E3691843236A184362
:101170000843616A042903D1D4E90B1319430843D6
:10118000106020684069666A20F0070130460E430F
:10119000012704280CD1A06A0643E06A40B120462A
:1011A000FFF7EEFD20B14020606584F83570BAE7A6
:1011B000206846612046FFF7CFFD94F85C203F2170
:1011C00091408160656584F835700020ACE70000CF
:1011D0003F8010F02DE9F0410446866D90F8340010
:1011E000002501280DD0012084F8340094F83570D2
:1011F0000020012F07D084F8340002252846BDE8DE
:10120000F0810220FBE7022784F8357060652046F4
:10121000FFF7E0FD94F85C103F208840B060206844
:10122000016841F0160101602068416941F08001C8
:101230004161206C20B12068016841F00801016023
:101240002068016841F001010160D7E731B500F085
:101250009DF9009C0546601C00D0641C00F096F9C6
:10126000401BA042FAD338BD10B5012813D0022884
:1012700018D004281DD0B0F5807F21D0B0F5007FB4
:1012800025D0B0F5806F29D115A007F0BBF8BDE8D7
:10129000104005F023BD1AA007F0B4F8BDE81040D7
:1012A00004F0A2BC1EA007F0ADF8BDE8104004F0A9
:1012B000BDBD23A007F0A6F8BDE8104004F0FEBDB8
:1012C00027A007F09FF8BDE8104005F0C1BC2CA096
:1012D00007F098F8BDE8104005F0DEBC10BD000036
:1012E0004750494F5F50494E5F313020535831329B
:1012F000373654784F6E44696F324972710D0A0067
:101300004750494F5F50494E5F3020535831323774
:10131000364F6E44696F304972710D0A000000004B
:101320004750494F5F50494E5F3120535831323753
:10133000364F6E44696F314972710D0A000000002A
:101340004750494F5F50494E5F3220535831323732
:10135000364F6E44696F324972710D0A0000000009
:101360004750494F5F50494E5F382053583132370C
:101370003654784F6E44696F304972710D0A00001F
:101380004750494F5F50494E5F39205358313237EB
:101390003654784F6E44696F314972710D0A0000FE
:1013A000044910B50A68024202D00860FFF75CFFEA
:1013B00010BD0000143C01402DE9F84FDFF888B162
:1013C00000224FF001084FF0030A4FF00F090BF114
:1013D000040E00BF0B6808FA02F42340A3426ED14A
:1013E0004D68022D01D0122D0ED1D50800EB850CD1
:1013F000DCF820505607F70E09FA07F6B5430E69D8
:10140000BE402E43CCF82060066855000F790AFADA
:1014100005FC07F0030726EA0C06AF4037430760D8
:101420004E68012E05D0022E03D0112E01D0122EAF
:101430000ED18668CF6826EA0C06AF403743876036
:101440004668A6430C79C4F30014944034434460C6
:10145000C4688E6824EA0C04AE402643C6604C681B
:10146000E4006AD5394C256845F480452560246838
:1014700022F0030504F480440094354C2E19D6F86C
:10148000084895072F0F09FA07F5AC43314DA842DC
:1014900001D1002529E0304DA84201D1012524E0E9
:1014A0002E4DA84201D102251FE02D4DA84201D1A9
:1014B00003251AE02B4DA84202D1042515E03CE09B
:1014C000294DA84201D105250FE0284DA84201D1A0
:1014D00006250AE0264DA84201D1072505E0254D45
:1014E000A84201D1082500E00925BD402543C6F8E2
:1014F0000858DBF800405D464E689C43F60300D573
:101500001C432C60DEF8004075464E689C43B603D1
:1015100000D51C432C600C4D08352C684E689C434C
:10152000F60200D51C432C60074D0C352C684E6824
:101530009C43B60200D51C432C60521C102AFFF4B9
:1015400049AFBDE8F88F0000003C0140443802403C
:101550000030014000000240000402400008024048
:10156000000C02400010024000140240001802402B
:10157000001C02400020024042694A40426170471C
:101580000AB1816170470904FBE700000148006867
:10159000704700000000002002480168491C0160FB
:1015A00070470000000000200B4810B5016841F4AE
:1015B00000710160016841F480610160016841F4DB
:1015C00080710160032000F075F8002000F006F83B
:1015D00000F018F8002010BD003C024010B5044691
:1015E00007484FF47A710068B0FBF1F000F0D9FDC4
:1015F00000222146501E00F03DF8002010BD0000E2
:101600000400002010B5032000F054F80022114619
:101610006FF00B0000F02EF8002211466FF00A0068
:1016200000F028F8002211466FF0090000F022F8BF
:1016300000221146501F00F01DF800221146101F15
:1016400000F018F800221146901E00F013F8002256
:10165000BDE810401146501E00F00CB800F01F020B
:10166000012191404009800000F1E020C0F8001104
:1016700070470000F0B40E4B1B680C46C3F3022306
:10168000C3F10705042D00D90425191D072901D22E
:10169000002300E0DB1E012606FA05F1491E214069
:1016A00099409E40761E16403143F0BC02F0C9B905
:1016B0000CED00E0064900F0070208684FF6FF0352
:1016C000184040EA0220034A1043086070470000B7
:1016D0000CED00E00000FA052DE9F0470E4605008C
:1016E00063D0DFF81C81D8F80000F7B200F00F00DB
:1016F000B04207D288F80070D8F8000000F00F0060
:10170000B04252D128683F4C810712D5400703D51B
:10171000206840F4E05020602878000703D5206856
:1017200040F4604020602068A96820F0F000084381
:1017300020602878C0072BD0324968680839012812
:1017400010D00968022810D0890700292DDA2168F5
:1017500021F0030101432160FFF718FF814641F2A8
:10176000883A0EE009688903EFE78901EDE700BFD9
:10177000FFF70CFFA0EB0901514502D90320BDE89A
:10178000F0872068696800F00C00B0EB810FEFD1A2
:10179000D8F80010404601F00F01B14207D9077098
:1017A000006800F00F00B04201D00120E7E7287880
:1017B000400705D52068E96820F4E0500843206020
:1017C0002878000706D52068296920F4604040EA9F
:1017D000C100206000F052F82168F02292FAA2F2D3
:1017E00001F0F001B2FA82F2D140074A515CC840E0
:1017F000064908600020FFF7F1FE0020BFE7000067
:10180000003C0240083802405EB40008040000209A
:10181000014800687047000004000020084809499A
:10182000006809684FF4E05292FAA2F201F4E05124
:10183000B2FA82F2D140044A515CC84070470000BD
:1018400004000020083802406EB400080848094926
:10185000006809684FF4604292FAA2F201F4604114
:10186000B2FA82F2D140044A515CC840704700008D
:1018700004000020083802406EB40008154810B576
:10188000006810F00C02144813D01449042A0FD039
:10189000082A0ED10F4C241F2268236802F03F0251
:1018A0005B0207D52068C0F38810A0FB010106E0A9
:1018B000084610BD2168C1F38811A1FB0001002377
:1018C000FEF77CFC2168C1F30141491C4900B0FBD3
:1018D000F1F010BD083802400024F40040787D018A
:1018E0002DE9F84F04007BD0DFF8C8822078A8F1FA
:1018F000040BC007ABF1040536D0D8F80010404601
:10190000C1F38101012908D00068C0F381000228D9
:101910000AD1DBF80000400206D52868800323D5F1
:1019200060680028DFD01FE0A2492079891F087075
:10193000606860B1FFF72AFE064604E0FFF726FE66
:10194000801B642874D828688003F7D50CE0FFF763
:101950001DFE064605E000BFFFF718FE801B642849
:10196000F0D828688003F7D42078934E80074FF092
:10197000010A4FF0000742D5D8F80010404611F098
:101980000C0F08D00068C0F3810002280AD1DBF8F0
:101990000000400206D42868800714D5E0680128BA
:1019A0001ED110E0E068E0B1C6F800A0FFF7EEFD40
:1019B000814605E0FFF7EAFDA0EB09000228C1D847
:1019C00028688007F6D52868F82292FAA2F22169E1
:1019D000B2FA82F220F0F8009140084328600EE04D
:1019E000E5E03760FFF7D2FD814605E0FFF7CEFD69
:1019F000A0EB090002281BD828688007F6D42078BD
:101A0000000726D56D48616999B1C0F800A0FFF7BD
:101A1000BDFD814606E000BFFFF7B8FDA0EB090061
:101A2000022805D863486C3000688007F4D510E0C0
:101A300087E00760FFF7AAFD814605E0FFF7A6FDF6
:101A4000A0EB090002287CD85A486C300068800757
:101A5000F4D42078400749D556483830016841F021
:101A600080510160006800F0805000905448016887
:101A700041F480710160FFF789FD814606E000BFF7
:101A8000FFF784FDA0EB090002285AD84C480068F3
:101A9000C005F5D5DFF81C91207A09F1680989F8AD
:101AA0000000A06888B1FFF771FD009008E000BF5A
:101AB000FFF76CFD0099411A41F2883081426ED8DF
:101AC000D9F800008007F3D510E0FFF75FFD009024
:101AD00008E000BFFFF75AFD0099411A41F2883033
:101AE00081425CD8D9F800008007F3D4A06948B3DC
:101AF000D8F80010C1F38101022958D002283766B6
:101B000003D0FFF743FD04464CE0FFF73FFD0746D7
:101B100005E000BFFFF73AFDC01B64283FD82868E6
:101B20008001F7D4D4E90701084347F6C07292FA5E
:101B3000A2F2616AB2FA82F291404FF0FF33A26AD8
:101B400001E02CE031E003EB52024FF4403393FA12
:101B5000A3F3B3FA83F39A40114308434FF0706242
:101B600092FAA2F2E16AB2FA82F291400843CBF80B
:101B70000000C6F860A0FFF709FD044605E000BFBD
:101B8000FFF704FD001B642809D828688001F7D5F9
:101B90000BE000BFFFF7FAFC001B642802D903200A
:101BA000BDE8F88F28688001F4D40020F8E7012010
:101BB000F6E700000838024000004742800E474226
:101BC0000070004070B5040005D00025A56294F8AF
:101BD000510010B106E0012070BD84F8505020463D
:101BE00000F030F8022084F851002068016821F0EC
:101BF00040010160D4E901010843D4E90312114313
:101C0000084361690843218B01F400710843E169CD
:101C10000843216A0843A16A084321680860A06953
:101C2000042101EA1040616A084321684860206885
:101C3000C16921F40061C1616565012084F851002A
:101C4000002070BD70B525490468002002220323DE
:101C5000052586B08C4211D121490C6844F480548A
:101C60000C60096802AC01F480510591E021CDE9D6
:101C7000001284E8290069461A4814E018491A4EEF
:101C8000091FB44213D10C6844F480440C60096805
:101C900002AC01F480410591B100CDE9001284E865
:101CA000290069461148FFF787FB06B070BD104D4B
:101CB000AC42FAD10C6844F400440C60096801F4A9
:101CC000004105914FF4E0510091CDE9012006203B
:101CD000CDE9033069460748E5E7000000300140E0
:101CE0004438024000000240003800400004024036
:101CF000003C0040000802402DE9F84F04464068CF
:101D00000026984617460D464FF00409B0F5827F2D
:101D100001D1A06890B194F85000012819D04FF07B
:101D2000010B84F850B0FFF731FC009094F851009B
:101D30004FF0000A01280ED002267FE084F851906F
:101D400013460A462046CDF8008000F031F9BDE880
:101D5000F88F0220FBE7002D6FD0002F6DD084F8A4
:101D60005190C4F854A0A563A787E787C4F830A0B2
:101D7000A4F834A0A4F836A0C4F840A0C4F844A045
:101D8000A0684FF40047B84204D12068016821F4EC
:101D90008041016020680168490603D4016841F070
:101DA00040010160E068B8B133E020688168C9078C
:101DB00006D0007B05F8010BE08F401EE0870BE0AA
:101DC000B8F1000F23D0B8F1FF3F05D0FFF7DEFBDD
:101DD0000099411A41451AD2E08F0028E5D11BE055
:101DE00020688168C90706D0C06825F8020BE08F1B
:101DF000401EE0870DE0B8F1000F08D0B8F1FF3FBA
:101E000007D0FFF7C3FB0099411A414501D30326D0
:101E100014E0E08F0028E3D16068B0F5827F0AD13A
:101E2000A068B84202D0B0F5806F04D12068016884
:101E300021F040010160606D00B1012684F851B0CD
:101E400084F850A0304682E72DE9F84F044690F818
:101E500050000026994617460D4601280DD04FF038
:101E6000010B84F850B0FFF791FB804694F85100C5
:101E7000B246012804D0022694E00220BDE8F88F83
:101E8000002D7BD0002F79D0032084F85100C4F8B6
:101E900054A02563A786E786C4F838A0A4F83CA020
:101EA000A4F83EA0C4F844A0C4F840A0A068B0F5CF
:101EB000004F04D12068016841F48041016020682E
:101EC0000168490603D4016841F040010160E068FF
:101ED000B0F5006F606804D030B3E08E012823D0E5
:101EE0003EE010B1E08E01281AD135F8021B2068BF
:101EF00005E020688168890706D535F8021BC160B6
:101F0000E08E401EE0860BE0B9F1000F34D0B9F14D
:101F1000FF3F05D0FFF73AFBA0EB080149452BD264
:101F2000E08E0028E5D11EE0216815F8010B08734A
:101F300006E020688168890706D515F8011B017342
:101F4000E08E401EE0860BE0B9F1000F14D0B9F12D
:101F5000FF3F05D0FFF71AFBA0EB080149450BD264
:101F6000E08E0028E5D14B46012202212046CDF823
:101F7000008003F0B7FB10B1032613E011E04246E6
:101F80004946204603F088FB18B1012620206065F1
:101F900008E0A06818B92068C16880680090606D8A
:101FA00000B1012684F851B084F850A0304665E7AE
:101FB0002DE9F84F044690F8500000260A9F9A46F3
:101FC00093460D464FF0010801280ED0012084F8F9
:101FD0005000FFF7DBFA814694F851006168012850
:101FE0000CD0B1F5827F07D102E00220BDE8F88F66
:101FF000A16809B9042801D00226BDE055B1BBF1A2
:10200000000F07D0BAF1000F04D094F85100012856
:1020100002D004E00126AFE0052084F85100002042
:102020006065C4F838B0A4F83EA0A4F83CA02563CD
:10203000A4F836A0A4F834A0206460642068016885
:10204000490603D4016841F040010160E068B0F541
:10205000006F606804D0E8B3E08E01283BD06AE0EE
:1020600010B1E08E01282ED1216835F8020BC8602E
:10207000E08E401EE08626E0B8F1000F0DD0E08E25
:1020800058B120688168890707D535F8021BC160FF
:10209000E08E401EE0864FF00008E08F58B12068C7
:1020A0008168C90707D0C0682BF8020BE08F401E7B
:1020B000E0874FF00108781C05D0FFF767FAA0EB26
:1020C0000900B84246D2E08E0028D5D1E08F002822
:1020D000D2D136E0FFE7216815F8010B0873E08ED6
:1020E000401EE08627E000BFB8F1000F0DD0E08E63
:1020F00058B120688168890707D515F8011B01735D
:10210000E08E401EE0864FF00008E08F58B1206856
:102110008168C90707D0C0680BF8010BE08F401E2B
:10212000E0874FF00108781C05D0FFF72FFAA0EBED
:102130000900B8420ED2E08E0028D5D1E08F0028E9
:10214000D2D13B46012202212046CDF8009003F077
:10215000C9FA08B103260FE04A463946204603F083
:102160009BFA18B101262020606505E0A06818B927
:102170002068C16880680090012084F85100002028
:1021800084F85000304631E74FF0E0210428086918
:1021900003D020F004000861704740F00400FAE723
:1021A000704710B5401EB0F1807F01D3012010BDF3
:1021B0004FF0E02460610F21601701F042FC002025
:1021C000A06107202061002010BD10B5FFF7E8FFD7
:1021D00010BD7047704730B590F83C20012A20D0E0
:1021E000012280F83C20022380F83D3003685C68BF
:1021F00024F070045C6003685C680D682C435C60CC
:1022000003689C6824F080049C6003689C684968AB
:102210000C439C6080F83D20002180F83C1008466B
:1022200030BD022030BD10B5040003D094F83D004D
:1022300010B107E0012010BD002084F83C002046CA
:1022400000F00CF8022084F83D00211D206805F004
:10225000A7F9012084F83D00002010BD08B50068F2
:10226000B0F1804F08D10548016841F001010160DB
:10227000006800F00100009008BD000040380240F6
:102280000168CA6842F00102CA600068016841F052
:10229000010101600020704770B5044690F83C00D1
:1022A000012817D0012584F83C50022084F83D0015
:1022B0002068826822F0770222F47F4282600868F8
:1022C000502837D00DDC202859D005DC88B31028E1
:1022D00041D151E0022070BD302853D040283AD17E
:1022E0003FE060282ED070280BD0B0F5805F03D07F
:1022F000B0F5005F2FD110E02068816821F0070160
:1023000015E0CB68D1E90121206805F0ADF921681D
:10231000886840F0770088601DE0CB68D1E9012132
:10232000206805F0A1F92068816841F4804181604E
:1023300011E01EE0CA684968206805F0A7F950213D
:10234000206806E0CA684968206805F0B0F9602195
:10235000206805F093F984F83D50002084F83C0093
:1023600070BDCA684968206805F090F9402120686E
:10237000EFE700212068ECE710212068E9E7202141
:102380002068E6E730212068E3E7704770B504462F
:10239000006801694FF00005C943890715D4C16879
:1023A000C943890711D4E91E016101202077206803
:1023B00080698007204602D0FFF7E7FF04E000F0C5
:1023C00098F8204600F096F8257720680169C943FF
:1023D000490717D4C168C943490713D46FF00401F2
:1023E0000161022020772068806910F4407F204638
:1023F00002D0FFF7CAFF04E000F07BF8204600F0AF
:1024000079F8257720680169C943090716D4C1689E
:10241000C943090712D46FF0080101610420207735
:102420002068C0698007204602D0FFF7AEFF04E0B5
:1024300000F05FF8204600F05DF82577206801691C
:10244000C943C90617D4C168C943C90613D46FF07C
:1024500010010161082020772068C06910F4407FD6
:10246000204602D0FFF791FF04E000F042F820463A
:1024700000F040F8257720680169C943C90708D1F1
:10248000C168C943C90704D1891E0161204600F013
:1024900032F820680169C943090609D4C168C943F3
:1024A000090605D46FF0800101612046FFF791FE17
:1024B00020680169C943490609D4C168C94349066E
:1024C00005D46FF040010161204600F015F8206846
:1024D0000169C94389060BD4C168C943890607D479
:1024E0006FF0200101612046BDE87040FFF772BE29
:1024F00070BD704770477047704710B5044600685C
:10250000416994F83920C1F3C011212A0BD151B18E
:10251000416921F080014161206B08B1FEF7C6FCE2
:10252000204605F017FD2068416994F83A20C1F370
:102530008011222A0BD151B1416921F04001416142
:10254000606B08B1FEF7B2FC204605F0F5FC0020F8
:1025500010BD704770B5026804461068D1685369B1
:1025600010F00F0F51D003F0010501F490763543C0
:102570005DD0C20705D0CA0503D5E26B42F0010267
:10258000E263420705D5DA0703D0E26B42F00202AC
:10259000E263820705D5DA0703D0E26B42F004025A
:1025A000E263020705D5DA0703D0E26B42F00802C6
:1025B000E263E26B002A34D0800604D5880602D597
:1025C000204605F0D0FC20684069E16BC0F3801024
:1025D00001F008010143204624D005F0ADFC20683D
:1025E000416949061AD5416921F040014161606B9A
:1025F000A0B11B490165606BFEF79FFC002810D05D
:10260000606B016DBDE87040084783060FD58B06EF
:102610000DD52046BDE8704005F0A5BC2046FFF76B
:1026200098FF70BDFFF795FF0020E06370BD0306C3
:1026300006D50B0604D52046BDE8704005F030BE37
:102640004006F3D54806F1D5D168204621F0400177
:10265000D160202184F8391000F0A4F970BD000089
:10266000617E000870B5040004D094F8390000259C
:1026700010B106E0012070BD84F83850204600F00B
:1026800023F8242084F839002068C16821F400511F
:10269000C160204605F0AEFC2068016921F490413C
:1026A00001612068416921F02A0141612068C16807
:1026B00041F40051C160E563202084F8390084F8BA
:1026C0003A00002070BD00002DE9F0410646006888
:1026D000DFF8D0C00221012203230727324D002456
:1026E00086B0604512D13148046844F0100404609B
:1026F000006800F01000059058028DE88F006946D0
:102700002846FEF759FE06B0BDE8F081DFF8A0C00C
:102710006045F8D12548001FD0F800C04CF4003CBB
:10272000C0F800C0006800F4003005900C208DE86F
:102730008F0069462846FEF73FFE1F4D1D484FF0AB
:1027400000672860C5E901744FF48068C5E9034853
:102750006C61AC61EC612C6228466C62FEF7D0FCC7
:1027600018B1AF2115A005F04BFE7563AE63124D95
:10277000104860351830E5E802074020A5E811014F
:102780000D4845F814496030AC61EC612C626C6214
:10279000FEF7B6FC18B1C12108A005F031FE356383
:1027A000AE63B0E700100140000002404438024030
:1027B0000044004088600240040700202E2E2F5362
:1027C00072632F75736172742E630000F8B504464E
:1027D00090F83A0020283CD1C1B3BAB394F838003D
:1027E000012836D0012084F83800A162A285002596
:1027F000E563222084F83A00636B1748D863636B63
:1028000016481864636B1648D864606B13460565F8
:102810000846666B216802463046091DFEF7DAFC61
:10282000206801684168009184F83850C16841F41B
:102830008071C1602068416941F0010141612068F7
:10284000416941F0400141610020F8BDFFE70120EE
:10285000FBE70220F9E70000BB7E0008F77E0008D6
:10286000717E0008704770472DE9F843044690F8E0
:1028700039001F4616460D46202850D1A5B19EB1FD
:1028800094F8380001284AD0012084F838004FF02D
:102890000008C4F83C80212084F83900FEF776FE59
:1028A000A6848146E68426E00120BDE8F883E08C1A
:1028B000401EE084A0684B46B0F5805F4FF00002F8
:1028C0004FF080012046009703D005F01AFDE8B9CB
:1028D0000DE005F016FDC8B928882168C0F308008E
:1028E0004860206908B16D1C05E0AD1C03E021685B
:1028F00015F8010B4860E08C0028D8D14B46002227
:1029000040212046009705F0FCFC08B10320CCE7ED
:10291000202084F8390084F838800020C5E70220A0
:10292000C3E7000070B5044690F83900202830D184
:1029300069B362B394F8380001282AD0012084F8E2
:1029400038002162A284E2840025E563212084F816
:102950003900236B1048D863236B10481864236B2D
:102960000F48D864206B134605652668206B321D1E
:10297000FEF730FC21686FF04000086084F83850A2
:102980002068416941F080014161002070BD012053
:1029900070BD022070BD0000017F00082F7F00087D
:1029A000717E00080C4B026800219A4207D1006B2F
:1029B0000068026822F00102026008480AE0084B41
:1029C0009A4208D1006B0068026822F0010202609E
:1029D00002488630017070470010014078050020E1
:1029E000004400407047000001A005F00BFDFEE729
:1029F000486172644661756C745F48616E646C65B1
:102A0000720D0A0010B50446002008F099FCC4F3CA
:102A1000074002F051FEC4F3072002F04DFE04F01F
:102A2000F80002F049FE002000F006F804460120FC
:102A300008F086FC204610BD02F03EBE70B504468C
:102A40000D46002008F07CFCC4F3074002F034FE81
:102A5000C4F3072002F030FE04F0F800001DC0B2FD
:102A600002F02AFE284602F027FEBDE87040012051
:102A700008F066BC2DE9F05F00240D46924607463B
:102A80002646A346182802D30320BDE8F09F2A4813
:102A9000406BC10703D0800601D40120F5E74FFA4F
:102AA0008AF848F303018946B1EB281F0CDC08467D
:102AB0000522002105F09CFC30B14FEA28100522C8
:102AC000002105F095FC00B90124032F12D21A4809
:102AD000903050F83700854200D0012617498945CB
:102AE00000DD012405224FEA2810114605F080FC84
:102AF00000B9012412492846096B884708B105B17D
:102B000006B10126344201D00620BEE70CB10520F3
:102B1000BBE70EB10420B8E707480122903000EB74
:102B2000C700BA40C0E9005A80F805B005480188DE
:102B3000114301800020A8E7A4010020D8F3010878
:102B4000D0B90008CC0D002010B5344C0320D4E9D6
:102B50000012FFF78FFFD4E902120420FFF78AFF6B
:102B6000D4E904120520FFF785FFD4E906120620F8
:102B7000FFF780FFD4E908120720FFF77BFFD4E9B5
:102B80000A120820FFF776FFD4E90C120920FFF79C
:102B900071FFD4E90E120A20FFF76CFFD4E910127E
:102BA0000B20FFF767FFD4E912120C20FFF762FF3A
:102BB000D4E914120D20FFF75DFFD4E916120E20A0
:102BC000FFF758FFD4E918120F20FFF753FFD4E99D
:102BD0001A121020FFF74EFFD4E91C121120FFF744
:102BE00049FFD4E91E121220FFF744FF803413205E
:102BF000D4E90012FFF73EFFD4E902121420FFF7D8
:102C000039FFD4E904121520FFF734FFD4E9061286
:102C1000BDE810401620FFF72DBF000098B4000853
:102C2000124910B5496BCA0703D0890601D40120A7
:102C300010BD03280CD30D4A0021903202EBC002D4
:102C4000116051600A4A0109042901D8182801D3EA
:102C5000032010BD00F00F0432F811300120A04015
:102C6000834322F81130002010BD0000A401002091
:102C7000CC0D00202DE9F04117460A460546DDE956
:102C800006411948089E447183711C0AC4711C0CCA
:102C900004721B0E437281720B0AC3720B0C037316
:102CA000090E4173D4B2C4731048FDF714FF3946BE
:102CB0000E48FDF720FF10220B490C48FDF722FFBC
:102CC000224629460948FDF71DFF0849A1F58270F3
:102CD000FDF769FE06480178D0F8010041EA0020BE
:102CE0003060BDE8F081000014030020C40F002014
:102CF000C00E00200949084A0A60094A4A60094A88
:102D00008A60094902680A6040684860091F0860D3
:102D1000024800F035B8000019390008A40E002060
:102D200061390008E53900080C030020FEB50E46A5
:102D3000032101901C4615468DF80010684600F0EE
:102D40002FFA04208DF800006846019600F028FA5A
:102D500005208DF800006846019500F021FA062054
:102D60008DF800006846019400F01AFA01208DF8F1
:102D700000008DF80400684600F012FAFEBD000065
:102D800070B5002879D00268002A76D04268002AFF
:102D900073D08268002A70D0394C00250126C4E91E
:102DA000160104F11A00374905706575C4E90A6512
:102DB0002563E5756670A570072065630880324855
:102DC000657231468670A672E67230A005F01AFB75
:102DD00026736573A573268425656565257640F69B
:102DE000B8304FF47A75A0676800C4E9185041F212
:102DF0008830A06641F27070E066224828490C30A5
:102E000004F0B0FC1F4829460C3004F023FD1D4897
:102E100024493C3004F0A6FC1A482349503004F001
:102E2000A1FC18482149643004F09CFC1548204955
:102E3000783004F097FC13481E492030224D016081
:102E40001D4981601D4901611D4941601D49C160E5
:102E500029688847286A804708F04CF9182060766E
:102E6000A675304604F0A0FA286C8047042006F0CE
:102E700045FE6062002070BDFFE70320FBE7000015
:102E8000A4010020CC0D0020CC08002052465F5346
:102E9000656E645F44617461203D2025640D0A0005
:102EA000C93D0008394C0008DD490008B94A00084E
:102EB000753A0008D947000881400008114700080A
:102EC0003949000875470008D0B900082DE9F041DC
:102ED00005461C4617460E460C48FDF7FCFD3946D4
:102EE0000A48FDF708FEF2B229460848FDF70AFE37
:102EF0000649A1F58270FDF756FD05480178D0F826
:102F0000010041EA00202060BDE8F081C40F0020EC
:102F1000C00E00202DE9FF4184B00F4604469846BC
:102F200006ADF02200211D480E9E06F033FE1B4A1E
:102F30001021204605F010FF10220021684606F0FF
:102F400029FE01208DF800006C4606223946601CDF
:102F500006F00AFE02222946E01D06F005FE0F4A91
:102F60004146684605F0D0FE10220021684606F072
:102F700011FE02208DF8000006223946601C06F082
:102F8000F3FD02222946E01D06F0EEFD034A31461C
:102F9000684605F0B9FE08B0BDE8F081D00E00200B
:102FA0002DE9F04117460E4605461C46F022002149
:102FB0000C4806F0EFFD0B4A1021384605F0CCFE18
:102FC000084A2146284605F09FFE102E08D304F13A
:102FD000100105F11000BDE8F041024A05F094BE71
:102FE000BDE8F081D00E00202DE9F84F04004FF02D
:102FF00002054FF000085CD03449486BC20702D18B
:103000008946C00602D50120BDE8F88F4FF0000ABE
:103010008DF800A0102251462D4806F0BBFDDFF8C8
:10302000B0B001208BF80100217821B101290AD02C
:1030300003293CD11AE089F80F009DF8000020F028
:10304000E000403009E089F81000E07B89F80F00CB
:103050009DF8000020F0E00080308DF8000094F82A
:103060000480A68994F90E50A7680BE089F80F0038
:103070009DF8000040F0E0008DF80000268994F9EA
:103080000A50676899F8030038B9052200212846DC
:1030900005F0AEF968B189F80A5033463A46414620
:1030A000684603F0D7FF050005D089F804A028463C
:1030B000AAE70320A8E7054821781A308BF800100A
:1030C000017841F001010170F1E70000A401002046
:1030D000700E002010B5002488B102782749172A05
:1030E00048D2DFE802F00E101315171A1C1F212317
:1030F000262B2D2F31333537393B3D3F41000320FF
:1031000010BD497D00E08978017134E0C978FBE7A2
:10311000896C00E0C96C41602DE01949FBE7184952
:103120001031F8E7897DEFE7C97DEDE7134990316C
:10313000F1E7D1E91F21C0E901211CE01149EAE7CB
:10314000097BE1E7896FE6E7096EE4E7496EE2E7AC
:10315000896EE0E7C96EDEE7897AD5E7497AD3E779
:10316000896AD8E7C96AD6E7496A416006A005F0CE
:1031700049F900E00224204610BD0000A40100200F
:10318000A00A0020CC0D00204D49425F4D554C5403
:1031900049434153545F4348414E4E454C0D0A004C
:1031A00070B504004FF0000606D0424D95F834008B
:1031B000C00703D0012070BD032070BD2078142803
:1031C00075D2DFE800F00A1D202326292E3438743A
:1031D0003B40474D505356595D672079687520B183
:1031E000012865D0022863D105E0334CE06B8047AD
:1031F000206C80475CE00020287101F05DFC57E006
:103200002079A87054E02079E87051E06068A864E3
:103210004EE06068E8644BE0616881B310222748A3
:1032200015E0616859B32548102210300FE020796D
:1032300004F0BAF83CE02079E87539E0D4E90101FE
:10324000C5E91F0134E06168C9B102221C4806F0DB
:103250008BFC2DE02079411E0E2926D8287327E00B
:103260006068A86724E06068286621E06068686696
:103270001EE06068A8661BE06068E86618E014E07D
:1032800094F904000522002105F0B2F868B1207914
:10329000A8720DE094F904000522002105F0A8F8B9
:1032A00018B12079687203E001E0032600E00226ED
:1032B000304670BDA4010020D0B90008A00A00204B
:1032C000CC0D0020FEB508AF97E870008DE87000C7
:1032D00000F002F8FEBD00002DE9FF5F0D46DDE9BC
:1032E0000F8A814600261F460124F02231462C48D1
:1032F000DDF838B006F04EFC294A1021029805F09E
:103300002BFD2848390A80F805B08771C171390C46
:103310000172390E417280F80A804FEA1821C17299
:103320004FEA184101734FEA18611D4F4173203F66
:10333000804619E088F80F40194A641CA4B2A2F133
:103340002001184805F0E0FC002031183B5C19F81A
:103350000120401C5A4080B20AF801201028F4D302
:10336000103D1036ADB2F6B2102DE3D2002D14D0C0
:103370000B4A88F80F40A2F120010A4805F0C4FC6E
:10338000002008E031183B5C19F801205A40401C2D
:103390000AF8012080B2A842F4D3BDE8FF9F0000E4
:1033A000D00E002024030020F0B515460E46074637
:1033B00087B01C4618220021184806F0EBFB1220AB
:1033C0008DF800006846FFF785FE0120ADF8185023
:1033D0008DF80C008DF81B409DF804008DF81A0044
:1033E00005968DF8107003A8FFF7FEFD0B2812D28A
:1033F000DFE800F006110D11111111090B0B0F0080
:10340000002007B0F0BD0220FBE70320F9E704200D
:10341000F7E70620F5E70120F3E700008C0E002017
:1034200070B514460D46064688B01822002117488C
:1034300006F0B0FB12208DF800006846FFF74AFE48
:1034400000208DF80C00ADF818409DF804008DF8B0
:103450001A0005958DF8106003A8FFF7C5FD0B282D
:1034600012D2DFE800F006110D11111111090B0B3A
:103470000F00002008B070BD0220FBE70320F9E731
:103480000420F7E70620F5E70120F3E78C0E002083
:103490000EB502218DF804008DF800106846FFF784
:1034A0007FFE0EBD0EB500218DF804008DF80010D2
:1034B0006846FFF775FE0EBD014948707047000071
:1034C000A40100200149087670470000A4010020F3
:1034D00030B5134887B00021026842F00202026052
:1034E000026802F002020592026842F008020260DD
:1034F000006842F2200400F00800009405900120CA
:10350000CDE90101074D039169462846FDF754FFB7
:10351000002221462846FEF733F807B030BD0000F0
:1035200030380240000C0240054808B5016841F4FB
:1035300000110160006800F40010009008BD000058
:10354000303802402DE9F04F454887B0002401682B
:1035500041F010010160016801F01001059101685E
:1035600041F080010160016801F08001059101686E
:1035700041F001010160016801F00101059101685C
:1035800041F002010160016801F00201059101684A
:1035900041F008010160016801F00801059101682E
:1035A00041F0040101600068DFF8B89000F0040009
:1035B000059000220C214846FDF7E2FFDFF8A8A0A5
:1035C00048F21006002231465046FDF7D9FFDFF8D9
:1035D0009CB04FF48057002239465846FDF7D0FF83
:1035E00043F23008002241462148FDF7C9FF1C2064
:1035F00000900125CDE90154694648460394FDF742
:10360000DBFE0096CDE90154694650460394FDF770
:10361000D3FE0095CDE90154694658460394FDF761
:10362000CBFE0097CDE90154694658460394FDF757
:10363000C3FE40F60F7000900E48CDE901046946C4
:103640000B48FDF7B9FECDF80080CDE9015469467D
:1036500007480394FDF7B0FE07B0BDE8F08F000007
:1036600030380240001002400000024000040240D6
:10367000000C02400000111010B5002201211C2096
:10368000FDF7F8FF1C20FDF7E9FF0022114610208E
:10369000FDF7F0FF1020FDF7E1FF00221146112099
:1036A000FDF7E8FF1120FDF7D9FF002208212620B1
:1036B000FDF7E0FFBDE810402620FDF7CFBF00007A
:1036C000104810B50E4901604FF48271416000212D
:1036D0008160C1604FF400720161C0E90512C161EF
:1036E0000162416281620721C162FEF76BFA002824
:1036F00005D0BDE81040462103A004F081BE10BDF6
:1037000000300140C40700202E2E2F5372632F7308
:1037100070692E6300000000124810B51049016066
:103720004FF48271416000218160C1604FF40072EA
:103730000161C0E905121822C0E9072141628162D6
:103740000721C162FEF73EFA002808D006A004F067
:1037500059FEBDE810405C2109A004F051BE10BD27
:10376000003800401C08002048414C5F535049324B
:103770005F496E6974204552524F520D0A00000095
:103780002E2E2F5372632F7370692E63000000007A
:10379000124810B5104901604FF482714160002158
:1037A0008160C1604FF400720161C0E90512182206
:1037B000C0E90721416281620721C162FEF702FA76
:1037C000002808D006A004F01DFEBDE810407321BB
:1037D00009A004F015BE10BD003C00407408002094
:1037E00048414C5F535049335F496E6974204552DC
:1037F000524F520D0A0000002E2E2F5372632F736A
:1038000070692E630000000010B5184886B04FF0B4
:103810008041016031210024C0E9011440F2E73108
:10382000C0E903148461FEF7FEFC18B13F2110A02B
:1038300004F0E6FD4FF48050009069460B48FEF717
:103840002BFD18B145210AA004F0DAFD049404A967
:1038500006480594FEF7BFFC18B14C2104A004F003
:10386000CFFD0248FEF70CFD06B010BD3805002064
:103870002E2E2F5372632F74696D2E63000000008B
:103880000D4810B50B4901604FF4E1314160002152
:1038900081600C22C160C0E904128161C161FEF740
:1038A000E1FE002805D0BDE810405C2103A004F033
:1038B000A7BD10BD00100140840600202E2E2F53FE
:1038C00072632F75736172742E6300000D4810B51A
:1038D0000B4901604FF4E1314160002181600C220D
:1038E000C160C0E904128161C161FEF7BBFE00281E
:1038F00005D0BDE810406E2103A004F081BD10BDCD
:1039000000440040C40600202E2E2F5372632F75F2
:10391000736172742E63000010B50E490E4C42782C
:103920000A70227842F0010222708278CA704279CD
:103930008A700079487009480078810709D44007E7
:1039400007D404F1080003490268083890470020B2
:10395000207010BD8C0E002004030020BE0100204A
:1039600010B5164B164C417819702178427C41F005
:10397000020162F30511827862F3C3012170427B78
:10398000012A02D141F004012170C17819718168C6
:103990009960027B1A73C189D981007C18742078E0
:1039A000C0F3400107A004F02DFD0548034908308D
:1039B0000268083890470020207010BD8C0E00204F
:1039C000040300205278203D20256420527842755F
:1039D0006666657253697A65203D2025640D0A008C
:1039E000FEE7000070B54378124CABB9214605786C
:1039F0000978114A41F0010115B1012D0CD104E003
:103A0000137041F08200207006E041F04201217005
:103A1000017A1175407A507508480078800707D4FC
:103A20000448054908300268083890470020207093
:103A300070BD0000040300208C0E0020BE01002099
:103A400070470907090E002806DA00F00F0000F1A0
:103A5000E02080F8141D704700F1E02080F8001489
:103A600070470000024800228178083006F058BAFA
:103A70000800002010B50B4803F026FF0A48017922
:103A800029B101214174416B21F004014163407D62
:103A9000022805D104481A30017841F0080101706C
:103AA00010BD0000440E0020A40100202DE9FC5FA1
:103AB0000D460646904991A004F0A4FC3078914C44
:103AC00000064FF0010B0DD58FA004F09BFC914830
:103AD00003F0FAFE84F800B001F008FD0021E2686E
:103AE000052090476878DFF82C920128A9F1400959
:103AF00007D03078810718D4000601D4207950B15E
:103B0000EDE0E26872B1834914310320904782A04E
:103B100004F078FC06E084A004F074FC0021E26864
:103B20000420904730788007EAD5DFF8E8812A7BC7
:103B300008F1140808F10800A8F80620A96847460B
:103B40000190FCF76CFBE8893880287CB8703078ED
:103B5000C0F30110401CF87028793871694F0020BB
:103B60004C37A9F808004D46B868FCF78EFB0146B3
:103B7000B868FCF76DFBB8686968016071A004F073
:103B800041FC0025B868415D75A004F03BFC6D1C4C
:103B9000EDB2042DF6D363A004F034FCB9F80800AC
:103BA0004D46001D80B2A9F80800B9F80A10BA689D
:103BB000090ABA461154B9F80800401C80B2A9F8A5
:103BC0000800BA6899F80A1011542889401C288105
:103BD0006889C2B2010A64A004F014FCE8892A8949
:103BE000B968000A88542889401C80B22881BA68C4
:103BF000A97B11542889401C80B22881BA68A97811
:103C000011542889401C82B22A81B8F8001040461D
:103C1000491EC943A8F80010BB6899542989491C5A
:103C200089B22981BB6898F802205A542989412217
:103C3000491C89B22981BB685A542989491C2981A8
:103C4000C1880091B0F90030827898F803104CA038
:103C500004F0D8FB3078400741D5E26852B32D49D3
:103C6000143101209047B8F806204546CAB1B9F88A
:103C70000800DAF8081008440199FCF7D0FA4BA0C4
:103C800004F0C0FB002706E0E819017A4BA004F01D
:103C9000B9FB7F1CFFB2E888B842F5D821A004F038
:103CA000B1FB287A5F2805D1687AFDF733F815490A
:103CB0001C31C87099F8081098F8060008448AF872
:103CC00007000198FCF7E1FA01460198FCF7C0FAF9
:103CD0003C48007818B184F802B0FFF7C3FE307892
:103CE000C00707D0E268002A04D0002108469047A8
:103CF00089F803B0BDE8FC9F38B5000825730D0AAC
:103D0000000000006C0000206A6F696E20646F6E16
:103D1000650D0A000C09002041434B205265636584
:103D2000697665640D0A00003D3D3D3D3D4E4F20E6
:103D300041434B205245504C593D3D3D3D3D0D0AC0
:103D4000000000004E65745F427566666572732EF2
:103D500053656E736F72427566203A200000000052
:103D600025303278000000004E6F64655F53657146
:103D700020253032782D253032780D0A00000000E1
:103D800077696E203D20256420736E72203D2025CA
:103D9000642072737369203D2025642073697A65FD
:103DA000203D202564200D0A000000005278496E55
:103DB000666F2E627566203D200000002530327847
:103DC00020000000B80100202DE9F0477B4803F0F7
:103DD0007BFD7B4D0027A5F11A042878000771D5DB
:103DE00040F2715177A004F00DFBDFF8D0912878F4
:103DF00009F1A8094107A9F110083E4601D4C007FE
:103E000017D098F801104046022903D099F8011004
:103E100002290ED1616B012721F001016163217C30
:103E20004171067140F27D5166A0C8F8086004F047
:103E3000E9FA207938432CD12878410709D599F837
:103E4000002042B999F8011001B9A662217B617383
:103E500001E0C1071DD0617B227B914201D2810725
:103E60000DD56673206B401C2063207810B9A06AC2
:103E7000401CA062606B20F00100606309E020F04C
:103E80000800287040F2A15151A004F0BBFA03F0E1
:103E90009FF82A78900716D598F80410012903D0C6
:103EA000217CE37B99420ED966742671217811B981
:103EB000A16A491CA162217C88F80510606B20F082
:103EC0000100606334E0607C90B3616BC8062FD45E
:103ED0006674207CE37B984217D2082815D8401CD2
:103EE0002074C00708D094F90A00411E002901DDA2
:103EF000401E00E00020A07222F00800287037A0C9
:103F000004F080FA03F064F812E02C4A21F0010179
:103F10000C3A138843F0070313806163267188F815
:103F2000046088F80500207810B9A06A401CA062DF
:103F3000606B810702D520F002006063C0B14FF4CE
:103F40007A711E4803F086FC1C4803F091FC287827
:103F500080070BD525A004F055FAA06D41681748DD
:103F600080308847287820F002002870BDE8F0876C
:103F70002878C00708D0A06D01681048983088479D
:103F8000287820F001002870287840070BD51FA062
:103F900004F038FAA06D81680848A830884728786E
:103FA00020F004002870287840F2036120F0080017
:103FB000287007A004F026FAC9E70000D80D0020F9
:103FC000BE0100206C696E65203D2025640D0A004D
:103FD0006C696E65203A2025640D0A00536368659C
:103FE00064756C6554780D0A000000004C6F5261D6
:103FF0004D6163466C6167732E426974732E4D6C1C
:104000006D655265713232320D0A00004C6F52619B
:104010004D6163466C6167732E426974732E4D6CFB
:104020006D655265713131310D0A0000044A01217C
:1040300010B1917003A001E051700AA004F0E2B940
:10404000300000204361645F53746174653333331F
:1040500033203D204361645F446574656374200DC3
:104060000A0000004361645F537461746533333345
:1040700033203D20436164446F6E65200D0A0000CB
:104080002DE9FF4F884605468BB01746F749F8A043
:1040900004F0B8F9DFF8E0B34FF0010A00218BF823
:1040A00013A00BF5A87000910590F44806900391B9
:1040B00000F5707008910991017118385A46C7814E
:1040C0000E9B0374937C4374C17081704171816055
:1040D000017341738174416101709BF815000C46B6
:1040E0000E46022802D0E648C06B8047E54803F040
:1040F000EBFBE5482F78C07810B127F0E007803758
:10410000DD4900204FF0030AC864F8B241090A9063
:10411000A8F10400A8F101094FF0050B0790082948
:104120007ED2DFE801F07D047DA3A3A37DF3D24C12
:10413000A078002875D1D5A004F064F9D74E1FFAF5
:1041400089F1731C681C626CFEF72AFF37700798B0
:1041500003AB81B23046626CFEF7B8FE06EB080096
:1041600006F5E17810F8041D427841EA02218278D0
:10417000C07841EA024141EA00600399884272D165
:10418000BE480090A0F11003E28B37463546711C03
:10419000606CFEF7BFFE2879697940EA0120A979B1
:1041A00040EA0140A064E879297A40EA0120697A6E
:1041B00040EA0140A97A40EA0160E064E87AC0F38D
:1041C0000211217200F00F0104F17C000171B4A012
:1041D00004F018F9287B10F00F00206601D10120AF
:1041E0002066FCF72EFAB54D00222B46FCF720F98D
:1041F000FCF753FA2066FCF724FA00222B46FCF762
:1042000070F8FCF74AFA60664846B9F1100F21DDF4
:10421000502161F307008146606B40F0200001E00F
:1042200034E2FFE1032500266063B8194A46D0F85E
:104230000D0020F07F41642041432846FEF71AFC20
:104240006D1CF61CEDB2F6B2082DEED3606B20F0BB
:1042500020006063002088F801000120A070E07A4F
:10426000A07219E2FFE788F801B015E29449687876
:10427000C871AB788B7140EA0322E878487142EA52
:1042800000422879087142EA00625FEA020A4FF0B0
:1042900005000CD078494E6AC6F800A0C1F84CA0C1
:1042A00012E0326852450ED101210891746A2A5CED
:1042B000401C83460146914682A004F0A3F8F8B260
:1042C00080280FD011E0B66A002EEAD16D48072190
:1042D0002830417000F03EFE80A004F093F80FB04B
:1042E000BDE8F08F6449012008750BF1010015F855
:1042F0000B10285C224641EA002771483946478165
:1043000009F00F0008308346034600E0AEE179A0D3
:1043100004F078F805EB0800009A10F8041D11432A
:10432000427841EA02218278C07841EA024141EABA
:104330000060A1B204908F4201D201210C467B1A89
:1043400098B201904FF4004000903A46794804F04A
:1043500059F80198B0F5004F24D20444002705987D
:10436000C15D75A004F04EF87F1CFFB2102FF6D38C
:1043700049A004F047F8002103A80091CDE90140CD
:104380000798534681B22846059AFEF773FCDDE98B
:1043900003126BA004F036F8DDE90301814226D157
:1043A00001211BE000B2271807F580373B46224663
:1043B00000216BA004F026F8002103A80091CDE9AC
:1043C00001700798534681B22846059AFEF752FCC1
:1043D000DDE90301814205D101213C4670A004F0D2
:1043E00011F80BE06EA0099904F00CF82EE16CA016
:1043F000099904F007F80998002834D0214F0021CA
:10440000283707F1180279700898B870C9F30010BE
:104410007871B960397318487C61517001630899EB
:10442000062349B102213970716AA14202D109B152
:104430007B70BDE074620FE00A990526B6EB511F50
:1044400001D1012100E0002141713970C16AA1420E
:1044500001D10029ECD1C4625FEA896104D5012051
:104460001071B874ADE0F1E0A5E0000087B8000875
:1044700025730D0A00000000A4010020B00A0020EE
:10448000D0B90008300E0020300000206A6F696E3D
:1044900020616363657074200D0A0000BE0C00206B
:1044A0005278324368616E6E656C2E44617461723D
:1044B000617465203D2025640D0A000000408F4096
:1044C000CC080020706B744865616465724C656E41
:1044D000203D202564202532780D0A005278446F53
:1044E0006E6541626F72742072657475726E0D0A2A
:1044F00000000000BDD3CAD5D6A1BAC5203D2025F5
:104500006420646F776E4C696E6B436F756E746573
:1045100072203D202564206170705061796C6F615C
:10452000645374617274496E646578203D2025641B
:104530000D0A200000BF000825303278000000007E
:104540006D6963202D2D2D20253032782C206D694A
:10455000635278202D2D2D20253032780D0A000051
:10456000444F574E5F4C494E4B203D2025642064FC
:104570006F776E4C696E6B436F756E746572203D1C
:1045800020256420646F776E4C696E6B436F756E87
:10459000746572546D70203D2025640D0A00000082
:1045A00069734D69634F6B203D2025640D0A00003F
:1045B00000F0D0FC93E600211171017CC07B8142A8
:1045C00002D9414803F080F95FEA097006D00E98DD
:1045D0005A46C3B20821284600F018FDA8EB0B008C
:1045E000001F002819DD0BF10100A8EB000215F8EF
:1045F0000B10121FD6B2F970A9B1DFF8D0800022DB
:104600008DE81401284453463146069AFEF75AFEB7
:10461000C7F808803E73012078732D48017841F077
:104620000201017038E0294900220092CDE90141E0
:10463000284453463146059AFEF744FE0E9832460A
:10464000C3B20021214800F0E1FCE6E71E48082142
:1046500014302346417044611D4822461A38C46212
:1046600074621CA0039903F0CDFEA1E7691C4246C9
:10467000164805F079FA14481430002180F800A09B
:1046800041701249816080F80C90C6E70E49012004
:104690001431487000F05EFC0D481A38817C21B955
:1046A000407D022801D100F007FA0948017841F065
:1046B00008010170044801216C3803F0CBF802486E
:1046C0006C3803F0D5F80AE6440E0020BE0C00203A
:1046D000BE010020494E464F5F5354415455535F2D
:1046E0004D49435F4641494C206D6963203D20257B
:1046F0003032782C20446F776E4C696E6B436F7547
:104700006E746572203D2025642C2025640D0A00FE
:1047100010B510A003F076FE134C1448617D0229F9
:1047200002D0C06B804703E0406C804700F0C4F9C2
:10473000A07C01280DD12179042009B10C494870D1
:104740000B491031487008481A30017841F00801CF
:10475000017010BD4F6E526164696F52784572727C
:104760006F720D0A00000000A4010020D0B90008FB
:10477000700E002010B510A003F044FE134C144836
:10478000617D022902D0C06B804703E0406C804706
:1047900000F092F9A07C01280DD12179032009B104
:1047A0000C4948700B491031487008481A3001789C
:1047B00041F00801017010BD4F6E526164696F5283
:1047C0007854696D656F75740D0A0000A4010020AE
:1047D000D0B90008700E002070B53F4E7068804759
:1047E00001463EA003F00EFE02F073FF454C054665
:1047F000607D022803D0306C8047F06B00E0B06C25
:1048000080474048617E903000EBC1003D4A4079CE
:10481000843200EB400102EB810000264560237EDC
:1048200033B132F82120A16B4A43511A816000E074
:1048300086602565218CA06B334D4143081A616D5C
:1048400008446065607858B3A5F15400216F03F007
:1048500001F8A5F1540003F00BF8607D02280DD09B
:10486000A5F14000616F02F0F5FFA5F1400002F0F4
:10487000FFFF607D022801D0207940B34FF47A71A8
:10488000484205F029FD616F01441F4801F5FA61B6
:104890002C3802F0DFFF1C482C3802F0E9FF13E04F
:1048A00019496E7010310320487016481A3001788B
:1048B00009B901210170C9B241F008010170C1F3C9
:1048C000C00112A003F09EFD2079002803D16E7074
:1048D000607B401C607370BDD0B900085478446F91
:1048E0006E6520526164696F2E47657453746174FC
:1048F00075732820292D2D2D313131203D2025643F
:104900000D0A0000A4010020700E002049735278A7
:1049100057696E646F7773456E61626C6564206978
:10492000732066616C7365204D6163446F6E652012
:104930003A2025640D0A000010B50DA003F062FDB9
:104940001048114C407D022803D0E06B8047206C5A
:1049500000E0A06C80470D4902204870103148707B
:1049600008481A30017841F00801017010BD0000BC
:104970004F6E526164696F547854696D656F7574D8
:104980000D0A0000A4010020D0B90008700E00201C
:1049900010B50C490120C8700B490CA003F032FD82
:1049A0004FF400410B48FCF7E7FD0B4802F08CFF89
:1049B0004FF4FA71084802F04DFFBDE81040064878
:1049C00002F056BF6C00002043B5000825730D0AA5
:1049D00000000000000002404C0A00202DE9F84FC2
:1049E000052700262B4802F06FFFDFF8AC8000257A
:1049F00088F8125098F81500022802D12748806CD8
:104A0000804798F80A0098F80810401A44B2002C21
:104A100001DA002405E0032C00DB0827062C00D176
:104A20000126C14698F819101DA003F0EBFC99F877
:104A30001900DFF86480DFF878B008F1900842F2DE
:104A4000107A072816D00F2814D0009558F8300097
:104A500018494D4608443B463246214600F08EFC3C
:104A6000687E58F8301000BFB1FBFAF0ABF80C00CC
:104A7000BDE8F88F401C0095C5B23B4658F835009C
:104A80003246214600F07AFC6D1CE9B258F831102C
:104A9000EAE700001C0E0020A4010020D0B90008A5
:104AA0004368616E6E656C203A2025640D0A000033
:104AB000CC080020400D03002DE9F84F3F4940A0ED
:104AC00003F0A0FC4FF0050B4FF0000A3E4802F047
:104AD000FBFE3E4C0026A674A07A217A401A45B20D
:104AE000002D00DA00253848143002F0EDFE37487A
:104AF00001217C30A1740079032801D34FF0080B09
:104B0000062801D14FF0010A607DDFF8C080DFF890
:104B1000C09008F1900842F21077022809D0009660
:104B2000607E5B46524658F83000294600F026FC6D
:104B30003FE0607E162804D9BDE8F84F25A003F0B9
:104B400061BCB8B1401EC4B2009158F834005B4655
:104B50005246294600F012FC58F834102A4623A089
:104B600003F050FC58F83400B0FBF7F0A9F80E0041
:104B7000BDE8F88FD8F80000FBF763FD0022244B56
:104B8000FBF750FCFBF789FD5B4652462946009631
:104B900000F0F4FB607E58F83000FBF752FD002275
:104BA0001B4BFBF73FFC02460B461AA0009503F097
:104BB00029FC607E58F83000D6E70000ABB800084A
:104BC00025730D0A000000001C0E0020A401002027
:104BD000CC0800205258324672657175656E637953
:104BE000206973204572726F720D0A005258324666
:104BF00072657175656E6379203D2025642C2044B3
:104C000061746172617465203D2025640D0A0000A5
:104C1000006A08415258324672657175656E637953
:104C2000203D2025662C20446174617261746520EA
:104C30003D2025640D0A00003EB5144802F044FEF4
:104C4000134C1449606B20F01000606312A003F055
:104C5000D9FB04F11A000078400713D50B487830CF
:104C6000007878B900208DF80400E278014662F3FC
:104C7000C7118DF8081003460246009002A901A84A
:104C800000F01AF802F0A4F93EBD0000080E002062
:104C9000A401002095B8000825730D0A000000004B
:104CA000704710B5044621B1491EFFF7FAFF604373
:104CB00010BD012010BD00002DE9FF5FDFF85C9200
:104CC0004FF0000B0E9DCDF80CB00C46A9F81CB0AF
:104CD00001461E1EEFB2904689F804B000D10025AF
:104CE000DFF83CA20A788AF80020012209781046F1
:104CF000490909D002294DD0042949D007297DD07E
:104D0000022004B0BDE8F09FD9F868105546491E4E
:104D1000C9F87010D9F86C104C46491EC9F87410C7
:104D2000A9F81C00681C0822D9F8401004F026FFDE
:104D3000A08B0822083080B2A0832844E16B04F0E5
:104D40001DFFA08B0830A0837648006A804701468B
:104D5000E083A08B03AB2954401C80B2090A29547C
:104D6000401CA083C1B26E48626CFEF7AFF8A18B05
:104D700003986854491C89B2020A6A54491C89B2D2
:104D8000020C6A54491C89B2000E6854491CB3E0F5
:104D900089F8042099F80200002859D020785F4A49
:104DA000C0090A320121FBF72FFF0146207861F389
:104DB00086102070E8B24D4699F8072099F90A103C
:104DC00003F0FAFA002845D0286E401E2867686E66
:104DD000401E6867687928B185F805B0207840F0F2
:104DE00020002070E96C8AF801100B0A8AF8023062
:104DF0000B0CA9462A468AF8033000E081E0090E30
:104E00008AF8041021788AF80510298D8AF806108E
:104E1000090A8AF8071008253EB337B399F8072026
:104E200048460F2A2AD8817941B321783EA001F063
:104E30000F0103F0E7FA207899F80710444B421865
:104E400062F3030020708AF805005246002009E052
:104E5000072056E7082054E71C5C54556D1C401C85
:104E6000EDB280B28842F7D308E099F8071029B173
:104E7000907918B1364E0F464FF0000889F806B009
:104E80004C4689F807B0E6B1DFB10AF8058024483E
:104E9000A26AFF30CDF800B0CDE901206D1CE36CB3
:104EA000EDB2B8F1000F29D0A0F20F12394630460A
:104EB000FEF712FA1A490AEB05003A46FF3104F0F0
:104EC00053FEE919A183A36A03AACDF800B0CDE986
:104ED0000132134A1248203AE36CFDF7CBFEA18B56
:104EE00003980AEB01020AF80100030A5370030C4D
:104EF000000E9370D070091DA1830DE0084A203A7E
:104F0000D4E74BB145B10AF101002A46314604F01D
:104F10002BFE6D1CA9F81C500020F2E6A401002015
:104F2000C00A0020D0B90008664374726C2D3E425E
:104F30006974732E464F7074734C656E203A202549
:104F40006420496E646578203A25640D0A000000EB
:104F5000BD0D002010B5174917A003F053FA184CE7
:104F6000606B20F001006063207908B1FEF782FDDC
:104F7000627DA17C13A003F045FAA07C50B9607D4E
:104F8000022807D119A003F03DFA1E48406C804763
:104F9000FFF792FD0A491A31087840F00A000870BC
:104FA0000121194802F056FCBDE81040164802F0F5
:104FB0005FBC000074B8000825730D0A00000000F3
:104FC000A40100205278536C6F74203A2025642C81
:104FD000204C6F52614D6163446576696365436C33
:104FE000617373203A25640D0A0000002EA1A3A16D
:104FF000A3A1A35278536C6F74203D3D20300D0A5D
:1050000000000000D0B90008D80D00202DE9FF4FA6
:1050100087B017460C4605464FF0000ADFF8348388
:105020004FF0010BDFF830938EE1285D641C801E89
:10503000E4B2072870D2DFE800F00411BCC9FDFC1F
:10504000FB00C448B43080F801A0295D0172641CE3
:10505000E1B26A5C491C4272CCB275E10726CDF818
:1050600004A0CDF808A0002001AACDF80CA000BF34
:1050700038F8101022F81010401CC0B20628F7D3E0
:10508000285D641C00F00F01C0F303100091049030
:1050900099F80300E4B288B999F90A2004998A4280
:1050A00004D199F909100098814207D000221146D5
:1050B0000320FBF777FDE41CE4B245E1285D641CA6
:1050C000E1B26A5C491C40EA0222C8B22B5C401C77
:1050D000C4B213F00F00C3F30211059001D10120F7
:1050E000059051EA020004D0481E042801D907297E
:1050F00002D306F0FE0624E0974B002090330629E9
:105100000BD00BFA00FC1CEA020F14D053F830C08D
:10511000BCF1000F0DD00EE019E153F830C0BCF126
:10512000000F08D00BFA00FC4CEA020C1FFA8CF2BC
:1051300001E006F0FE06401CC0B21828DFD3ADF82F
:10514000042005220021049803F052F908B906F062
:10515000FD0605220021009803F04AF908B906F07F
:10516000FB06F043400720D1049889F80A00009814
:1051700089F80900BDF80420A8F80020BDF8062031
:10518000A8F80220BDF80820A8F80420BDF80A20DD
:10519000A8F80620BDF80C20A8F80820BDF80E20BD
:1051A000A8F80A20059889F80C000022314603204F
:1051B000C8E02A5D641C89F80E200BFA02F1002277
:1051C000A9F82010E4B211460420BBE007200090AB
:1051D000285D641CC0F3021100F00F00CDE901014D
:1051E000E0B2295C401CC0B22A5C401CC0B241EA5B
:1051F00002212A5C401CC4B241EA024664204643B4
:105200005648016B3046884708B9062000900522B1
:105210000021019803F0ECF818B9009800F0FD00A7
:10522000009005220021029803F0E2F8002802E035
:1052300061E01FE013E0009802D100F0FB00009055
:10524000C043400707D1444901987C3108710E6082
:10525000029889F8080000220520009972E0D9F828
:105260005C00FF2118B1006808B1804701460620A4
:105270000A9A67E0032000902857641CE1B2D9F82D
:1052800034606B5C491CC9B246F020066C5C491C5A
:10529000C9B243EA04236C5C491C43EA0443C9B223
:1052A000642463436C5C01F1010164F30702CCB236
:1052B000C9F8346009D0C0B21946FDF7DBFB80B1F4
:1052C00004280AD0052806D109E0032803DBC0B270
:1052D000FDF7A6FC28B1002002E0022000E001203A
:1052E0000090D9F83410002221F02001C9F83410C0
:1052F0000720009926E0285D04F1010410F00F0654
:10530000E4B200D10126324640F6D81114A003F0D1
:1053100079F83046FBF795F9174E00223346FBF734
:1053200087F8FBF7BAF9C9F86000FBF78AF90022A1
:105330003346FAF7D6FFFBF7B0F90022C9F864004C
:1053400011460820FBF72EFCBC42FFF46EAE0BB0FA
:10535000BDE8F08FCC0D0020A4010020D0B90008DA
:105360006C696E65203D2025642064656C61792040
:105370003D2025640D0A000000408F402DE9FF4FBD
:10538000044640480E46404D8BB010F806B06868A1
:105390009846189F804701463CA003F033F86868A0
:1053A000804700286BD169692046884721463EA086
:1053B00003F028F8434800244FF0010A0671072E35
:1053C00019D041484FF001090A21C07888B3CDE9CE
:1053D0000847069407940594CDE90284CDE900417D
:1053E0000494AC6A01235A4648460D99A04737A059
:1053F00003F008F82EE04FF000095846FBF721F9BA
:105400000022374BFBF714F8FBF747F9CDE90847C3
:10541000CDE9044A06940521324BCDE9003102461C
:10542000079420460294039400234CF25031AC6A56
:105430000FE0FFE709970694CDE9074A0594CDE907
:105440000284CDE900410494AC6A504601235A46D7
:105450000D99A047244CE07D10B10A48103001E0BE
:1054600008480830AA6F815D48469047E96C27B12B
:1054700000200FB0BDE8F04F0847A06FF9E70FB06C
:10548000BDE8F08F5CB80008D0B9000852616469CB
:105490006F2E476574537461747573282029203DFD
:1054A0002025640D0A000000527857696E646F77FA
:1054B00053657475702066726571203D2025640DFA
:1054C0000A000000580E002030000020526164697C
:1054D0006F2E5365745278436F6E6669670D0A00CC
:1054E00000408F4085450100A40100202DE9F041D6
:1054F0000D4F00244FF496754FF40046284603F0F4
:1055000032FF012231463846FBF7CEFC284603F035
:105510002AFF002231463846FBF7C6FC641CE4B281
:10552000052CEBD3BDE8F0810000024010B5054C1E
:10553000601CB4F88210FAF78BFE0020A4F88200F9
:1055400010BD0000FE05002008B50020431E00909D
:10555000012269460748FCF7CFFB010007D006A0EF
:1055600002F050FF40F2171109A002F049FF009825
:1055700008BD00001C080020535049325F5265618D
:10558000645F6572726F72203D2025640D0A000011
:105590002E2E2F5372632F7370692E63000000004C
:1055A00001B54FF0FF33012269460748FCF74CFC78
:1055B000002807D005A002F025FF4FF4977108A03E
:1055C00002F01EFF08BD00001C08002053504932A5
:1055D0005F57726974655F6572726F720D0A0000C1
:1055E0002E2E2F5372632F7370692E6300000000FC
:1055F00008B50020431E0090012269460748FCF7C9
:105600007BFB010007D006A002F0FCFE40F2451132
:1056100009A002F0F5FE009808BD00007408002003
:10562000535049335F526561645F6572726F7220D7
:105630003D2025640D0A00002E2E2F5372632F7318
:1056400070692E630000000001B54FF0FF330122A6
:1056500069460748FCF7F8FB002807D005A002F0D0
:10566000D1FE40F25B1108A002F0CAFE08BD0000A6
:1056700074080020535049335F57726974655F6541
:1056800072726F720D0A00002E2E2F5372632F73E9
:1056900070692E630000000038B50B460092044686
:1056A0000022802100F01EF8002804D0606D40F038
:1056B00020006065032038BD0EB501238DF8080079
:1056C0006FF07F40009001AA02A90548FCF770FC2A
:1056D00010B1FF208DF804009DF804000EBD0000FD
:1056E000C40700202DE9F0411D4617460E4604462A
:1056F000DDF8188035E0681C33D02DB1FBF746FF8C
:10570000A0EB0800A8422CD32068416821F0E001FA
:1057100041606068B0F5827F0BD1A068B0F5004FA2
:1057200002D0B0F5806F04D12068016821F04001FB
:105730000160A06AB0F5005F0AD1206801684DF6EB
:10574000FF72114001602068016841F4005101605E
:10575000012084F85100002084F850000320BDE8A7
:10576000F0812068806836EA000004D00020B8424A
:10577000C1D10020F3E70120F9E77047012070470D
:10578000234800B5026887B0002142F00802026099
:10579000006800F00800059040F60F7000901D486A
:1057A000CDE9010169461C48FBF706FE00220321F2
:1057B0000620FBF75FFF0620FBF750FF00220321C6
:1057C0000720FBF757FF0720FBF748FF00220421C3
:1057D0000820FBF74FFF0820FBF740FF00220521C0
:1057E0000920FBF747FF0920FBF738FF00220621BD
:1057F0001720FBF73FFF1720FBF730FF00220721A0
:105800002820FBF737FF2820FBF728FF07B000BD53
:105810003038024000001110000C024030B50F4833
:1058200087B00021026842F008020260006841F27D
:10583000100400F00800009405900120CDE901015A
:10584000074D039169462846FBF7B6FD0022214625
:105850002846FBF795FE07B030BD00003038024007
:10586000000C02400349884201D28020704700208A
:1058700070470000C0CA89360148007970470000AF
:10588000DC1100202DE9F34F01008B4C81B04FF06B
:10589000000007D001296FD188494FF0010808782E
:1058A000F0B37AE0A246E069FAF7CBFE81460F46F4
:1058B0000298FAF7C6FE06468846302001F055FAEF
:1058C00030F0F9004FF0000401D07D4D00E00025DC
:1058D000272001F04AFA20F0F800BAF82010401C06
:1058E0000844FAF7AEFE9AF82220012A4FF000028F
:1058F00024D0734BFAF7F5FC22462B46FAF7F1FC5D
:1059000032464346FAF7EDFC9AF82420012A4FF07C
:10591000000215D05FF00003FAF7E3FC032200E079
:1059200011E0FAF766FE4A463B46FAF7F3FD00221D
:10593000644BFAF77DFD04F01BFEB6E00023D9E7C7
:105940004FF08043E8E7604A0720206455780A2238
:105950000823062D11D2DFE805F00305080A0D0B18
:105960000C2000E00B2060640AE062640BE0092078
:10597000606408E0636406E09CE0606C0A2802D979
:10598000A4F84A2001E0A4F84A3084F84E8084F854
:10599000498084F8488081F80080616C4BA00A46F9
:1059A00002F030FD0025206C2E46072804D0082880
:1059B00005D0092808D105E000254B4E04E000255C
:1059C0004A4E01E04A4E002554F8447F08FA07F099
:1059D000FAF726FE0B46024628463146FAF79AFDAC
:1059E00002460B4600203649FAF794FD05460E465E
:1059F000E088FAF726FE00223E4BFAF772FC3346A7
:105A00002A46FAF715FD834600916079001DFAF7E2
:105A100018FE814620798A4600B10220C0EB87003B
:105A2000FAF70FFE044602988846C000794200EB60
:105A30008101214890F84E0001EB00111E4890F8BA
:105A40004C0000B11420081A1C30FAF7FAFD224667
:105A50004346FAF75FFD03F02FFA4A465346FAF73A
:105A6000E7FC002207460C461346FAF72FFE02D247
:105A70003846214601E00020014600221E4BFAF77D
:105A800030FC2A463346FAF7D3FC02460B4658460A
:105A90000099FAF726FC00220A4BFAF7C9FC174ACC
:105AA000174BFAF71EFC03F053FE03B0BDE8F04FAE
:105AB000FAF7F3BDBDE8FE8FDC11002038030020AB
:105AC0000000F03F00408F40CC080020646174610A
:105AD000203D202564206C6F726164617461203DFB
