:020000040800F2
:1000000010180020D5000008C7760008A95D000878
:1000100000000000000000000000000000000000E0
:10002000000000000000000000000000E7A1000840
:100030000000000000000000B58A000855C8000854
:10004000E7000008E700000805950008E700000841
:10005000E7000008BD1E0008CD1E0008DD1E0008D8
:10006000E7000008E7000008E7000008E7000008D4
:10007000E7000008E700000859D40008E70000087E
:10008000E7000008E7000008E700000800000000A3
:10009000E7000008E7000008E7000008E7000008A4
:1000A000E7000008E7000008E7000008E700000894
:1000B00001D40008E7000008E7000008E700000896
:1000C0000348854600F08CFE00480047E9DE000842
:1000D000101800200448804704480047FEE7FEE768
:1000E000FEE7FEE7FEE7FEE741C90008C1000008A1
:1000F00030B50B46014600202022012409E00D46C0
:10010000D5409D4205D31D469540491B2546954047
:1001100040191546521E002DF1DC30BD70B500248B
:100120002546002801DA01244042002901DA012590
:100130004942FFF7DDFFAC4200D04042002C00D026
:10014000494270BDF0B51FB40646002082B0054696
:100150004024019100901BE0019922460F46304651
:1001600000F0F4FC049A059B801A994110D31046C4
:100170001946224600F0DAFC361A8F4101972246D2
:1001800001200021009F00F0D1FC38184D41009063
:100190002046641E0028DFDC019B00982946324679
:1001A00007B0F0BDF0B51FB486B0002000900190FC
:1001B00002900698069980B204900798090C0204F0
:1001C0000014114307900027089D099806913E46A8
:1001D0003C4603900398A9B20204000C03900498D3
:1001E0002D0C154348430021224600F09FFCC719FF
:1001F000714110340E46402CECDB3846029A00F078
:1002000095FC009A019B8018009059410298019139
:10021000103002904028CCDB00980BB0F0BD0346B4
:100220000B439B0703D009E008C9121F08C0042A2A
:10023000FAD203E00B780370401C491C521EF9D21D
:100240007047D2B201E00270401C491EFBD27047D9
:100250000022F6E710B513460A4604461946FFF792
:10026000F0FF204610BD30B505462A460B461078F3
:100270001C78521C5B1C002801D0A042F7D0002C37
:1002800003D0002802D06D1CEFE7284630BD421C89
:100290000178401C0029FBD1801A704710B500225C
:1002A00000E0521C835C8C5CA34201D1002BF8D18E
:1002B000D8B2E1B2401A10BD0321001D401E0378E0
:1002C00012021A43491EF9D510467047034610B56D
:1002D00008330722040E090221435B1E1C7800022A
:1002E0002043521EF6D510BD034603220870000AB3
:1002F000491C521EFAD51846704770B504460D4683
:10030000072310700E06000A3043090A521C5B1EB8
:10031000F7D52046294670BD0FB400B58DB00990C1
:100320000B9010A900200091C0430A9000200C906F
:1003300006480690064807906A4609A80F9900F0FB
:100340003FFC0DB008BC04B018470000E10B0008EA
:10035000010C0008FFB50027FF4383B000205C6854
:1003600001909E681D46A9697F1C049888470090EB
:10037000296A88470028F6D10098401C0CD0032039
:1003800040028443002E19DD600614D500982B2806
:1003900009D02D280FD103E00020C04307B0F0BDE5
:1003A000012080020443A9697F1C04988847761EB7
:1003B0000090002E02DD0098302803D00598002818
:1003C00025D035E0012040020443A969761E7F1C38
:1003D000049888470090002E03DD782805D058281F
:1003E00003D00598002810D022E00598002801D0FD
:1003F00010281DD1012040028443A969761E7F1C6C
:10040000049888470090102002E0082000E00A20AD
:1004100005900DE0012149020C43059A0199761ED1
:10042000514308180190A9697F1C049888470090DF
:10043000002E05DD0599009800F0ACFB0028E9DAF4
:10044000E96904988847A00502D40120C043A5E7C4
:10045000E00722D1600611D56005019800D5404221
:1004600029680A1D2A600968220501D5087014E070
:10047000220701D5088010E008600EE02868011D01
:1004800029600068210502D50199017005E0210766
:10049000019901D5018000E0016038467EE7F8B59A
:1004A00002464A40D40F42004B0052085B089A4271
:1004B00002D20246084611464A0023D0C30D4A0024
:1004C000DDB2120EAD1A202D35DA49020126490A95
:1004D000F6058A19002C00D0524220214F1B1146EC
:1004E000B9402A411018C20D9A4221D0002C17D0D1
:1004F000012D08DCDA05801AD20F8019D207DBB291
:1005000000F098FBF8BDDA05801A012340001B06B5
:10051000C01880185A428018CA0F1043490007E0DB
:100520004908C2071143DA05801A8019400880186B
:1005300000F078FBF8BD61000122511A001BF7E7BB
:100540000122D2075140AAE70122D2075040A6E774
:10055000024670B54A40D30FDB0740002DD04A0059
:100560002AD0010E140E000212020919400A520A82
:100570008418E50104465443000A120A2E0450432D
:10058000A4194219200CC543AA18120C0125AD0369
:10059000521C521912047F39240400D0521C1043FB
:1005A00001D44000491EC2B20C06C0092018401CEC
:1005B0004008802A02D003E0002070BD40084000BF
:1005C000002900DA0020184370BD70B502464A4089
:1005D000D50F40004A00ED0740085208002814D00B
:1005E000002A12D0C40DD30D41020120C0055202D1
:1005F000490A520AE41A091812187D34914201D3AB
:10060000641C00E04900002C01DA002070BD0023CA
:10061000914201D3891A0343400849000028F7D1C9
:1006200000290AD0914202D10121C90705E0914277
:1006300001D2012101E00121C943E005C0184019A0
:1006400000F0F0FA70BD0000F0B5074608465840CB
:1006500087B0C00F049048000E4659004008490872
:10066000BC1A884105D2384631461E4617460B460D
:1006700002465800400810434CD0300D039040050E
:100680005900400D490D0590401A0290402872DA39
:1006900018030121000B09050843019004980092FA
:1006A000002805D001995242002088410092019013
:1006B000029840210A1A0199009800F037FA05467D
:1006C0000C466B4607CB00F052FAC0197141039AF1
:1006D0000E0D0023D71756401A467A40164344D0D1
:1006E000049A002A2DD0029A012A039A15DC1205D9
:1006F000C01A914101263605001C7141D20F059E9A
:10070000D2070093019202962A46234600F0D8FAB7
:1007100007B0F0BD38463146FAE71605224A0F46C3
:10072000B218C01AB74101210905001C4F41001839
:100730007F41114618187941E20F10436D19644149
:1007400013E0E2076D0815436408C2071443039AD7
:1007500001261205C01A91413605001C7141CE07D1
:10076000400830434908C01851412A46234600F04A
:100770009AFACDE7FFE7049801224000C117121A48
:1007800000238B4104983146C417381AA141EEE783
:1007900030B40124E407634030BC55E730B4012491
:1007A000E407614030BC4FE70000E0FFF0B51FB444
:1007B00088B00B990998002448400999C00F490056
:1007C00049080991C0070B990090490049080B910D
:1007D00009990898A64608431CD00B990A98084323
:1007E00018D0099801244000420D4800410D099895
:1007F00024050003000B204309900B980003000B15
:1008000020430B9050181C494018002201901446B8
:10081000104605E0002001460DB0F0BD032801DAC6
:10082000034600E003239C46C11A0AAE0AE05F00BB
:1008300008ADED5B4F00F75B7D430027AA187C41B4
:10084000491C5B1E6145F2DD410004AB5A52210494
:10085000120C0A43240C401C0828DFDB019802908C
:100860000099704601910090059B049A079906989B
:1008700000F026FAD0E700000DFCFFFFF0B50C46B3
:100880005C4085B0E40FE40703944C000026640844
:1008900059009446490802460296224321D06246F6
:1008A0000A431ED06200570D4A000E032303550D64
:1008B000012402462C492405781B1B0B360B4018DB
:1008C00023432643614600901C46501AB44103D38B
:1008D0000098401C009002E0921800985B410028AC
:1008E00003DA0020014605B0F0BD00200121090512
:1008F0000746864611E064461D46141BB54106D3E3
:100900006546521BB341744607430C43A646CD07C8
:1009100040084908284392185B4105460D43EAD137
:100920001046184313D060461946504071400843A2
:1009300006D06046101AB34106D20122002306E019
:1009400000220123DB0702E00122D243531000986A
:1009500074460105381C6141029C039D00196941E0
:1009600000F0A1F9BFE70000FD03000010B5002270
:100970009623114600F05EF910BD00000EB5C217B7
:10098000C10F5040CA0740180021054B0293019245
:1009900000910A460B4600F093F903B000BD000039
:1009A000330400000EB505490291002100910A466A
:1009B0000B46019100F084F903B000BD3304000040
:1009C0000EB5054A0292002200921346019200F0F1
:1009D00077F903B000BD000033040000410040027D
:1009E0000122400AD205090E80187F2901DA002071
:1009F0007047962903DC9622511AC84070479639F1
:100A00008840704770B5CD0F4A0009030123090BD8
:100A10001B0519430B4BED070024520D9A4201DAD6
:100A2000002070BD074B34339A4203DC9A1A00F061
:100A30008DF802E00449511888402C43F1D040421F
:100A400070BD0000FF030000CDFBFFFF4A0009035B
:100A50000123090B1B051943094B10B5520D9A428E
:100A600001DA002010BD064B34339A4203DC9A1A97
:100A700000F06CF810BD03495118884010BD00000B
:100A8000FF030000CDFBFFFF4A0009030123090B10
:100A90001B0519430A4B10B5520D9A4202DA002089
:100AA000014610BD064B34339A4203DC9A1A00F01B
:100AB0004DF810BD034BD21800F038F810BD0000FF
:100AC000FF030000CDFBFFFF10B5002904DB01246C
:100AD000E40740428C412146002B04DB1C460123E5
:100AE000DB075242A3418B4200D1824210BD00007D
:100AF00010B5002904DB0124E40740428C41214663
:100B0000002B04DB1C460123DB075242A341994220
:100B100000D1904210BD00000122D207002800DB66
:100B2000101A002900DB511A8842704710B5202A9C
:100B300004DB0146203A9140002010BD9140202363
:100B40009C1A0346E3401943904010BD10B5202A7B
:100B500004DB0846203AD040002110BD0B46D340AC
:100B6000D0402024A21A91400843194610BD10B568
:100B7000202A06DBCB170846203A1041C1170B4349
:100B800006E00B461341D0402024A21A91400843AE
:100B9000194610BD3A2800D23038202302469A4325
:100BA000412A01D310463738884201D30020C04380
:100BB00070470000026813785118016018467047AA
:100BC00010B5D160044951610449116200211161DD
:100BD000114600F01FF910BDB50B0008050E000806
:100BE0004268002A08D001680B78491C002B03D00A
:100BF000521E06C0184670470121C160881E70470A
:100C00004268002A0BD0C3680168002B07D18368B3
:100C10008B4204D0491E521C06C0002070470020A1
:100C2000C0437047002904DA401C490001D1400844
:100C30004000704770B40024050C05D11024000456
:100C400002D1002921D01124050E01D1000208345F
:100C5000050F01D10001241D850F01D18000A41CC6
:100C6000002801DB4000641C002908D020252E1B31
:100C70000D46F540A14000D001212943084301065B
:100C80001B1B000ADB1D02D5002070BC7047DB0572
:100C9000181880180029F8DA401C4900F5D170BCFA
:100CA00040084000704710B5002B08DA0024401CB3
:100CB000614192185B411A4301D14008400010BDC8
:100CC000F0B51FB482B005460C0003D008460CF006
:100CD0006FFC02E00CF06CFC2030024600902146D4
:100CE0002846FFF723FF049B059A04460F46184346
:100CF0001143084314D0184610431BD000984021DC
:100D00000A1A18460599FFF721FF05460E46009A74
:100D100005990498FFF70AFF084305D0012004E075
:100D20002046394607B0F0BD0020C11705430E43E9
:100D30002C43374300990E986305401A7905E40A5D
:100D400000220C43FD0A0A3002D500200146E9E7E3
:100D50000105101969410C9C0D9D00196941FFF7AF
:100D6000A2FFDFE7F8B50546480040080C462843D7
:100D700004D06000184A400D904201DD2846F8BDBD
:100D800015493539884210DC88420BDB290D2003D8
:100D900008432903014305D0E00F1049C00741185B
:100DA0000020F8BD00200146F8BD161A4020821B25
:100DB00028462146FFF7BAFE0746009128462146FD
:100DC0003246FFF7C3FE3A46009BFFF76CFF324600
:100DD000FFF7ACFEF8BD0000330400000000F03F58
:100DE000064C0125064E05E0E36807CC2B430C3C7E
:100DF00098471034B442F7D3FFF766F904EC0008C3
:100E000024EC000810B50F21C0B2490200F09EF991
:100E100010BD0000F3B58DB000200A9001200B90AA
:100E2000002608460C300C46099062690121099899
:100E30009047051E2ED0252D2DD0216A88470028E9
:100E400018D06269012109989047216A88470028D3
:100E5000F7D1411E62690998904700E0761CA169AC
:100E60000D988847216A88470028F7D1E1690D98D5
:100E70008847DAE7A1690D9888470746A84201D15B
:100E8000761CD2E7E1690D9888477F1C02D10A9849
:100E9000002877D049E1002762693D463946099824
:100EA00090472A280CD162690121099890470125B1
:100EB00006E00A214F433F18303FEBD41020054392
:100EC0006269012109989047014630390A2903D205
:100ED0009B498F42DEDCECE7E90600D4994F6C2891
:100EE0000AD04C2810D0682824D06A282ED0742824
:100EF0000CD07A280AD00DE0626901210998904748
:100F00006C2823D004211CE02020054362690121C4
:100F100009989047A760656065284FD026DC58285F
:100F200039D01ADC452849D012DC252834D0412894
:100F3000B0D143E06269012109989047682802D046
:100F400008210D43E6E70120C002DEE70220DCE7CE
:100F5000462833D047282CD130E05B2870D0612858
:100F60002CD063286CD0642823D161E06F284FD047
:100F700009DC662822D0672820D0692826D06E2870
:100F800017D12EE0CDE070284DD073286FD0752892
:100F90004ED078280DD154E0A1690D9888470546B8
:100FA000252800D16CE7E1690D9888476D1C00D1B8
:100FB0006DE7BAE00A224CE00A2252E00120234603
:100FC0006A46C0430D99C046C046A3E0284640216A
:100FD00008436060A807234601D5002239E00022BB
:100FE0003FE0E80700D020E72068011D216000688D
:100FF000290501D5067018E7290701D5068014E7F1
:10100000A90703D5F117066041600EE706600CE7FB
:101010002846402108436060A807234601D50822DE
:1010200017E008221DE0484928460840606016E0A5
:101030002846402108436060A8072346BCD5B9E78D
:1010400015E02846402108436060A80707D52346DD
:1010500010220120C0430D99C046C0465AE02346E5
:1010600010220120C0430D99FFF774F952E00021CE
:101070000C910B460091632802D05B2807D043E017
:10108000E80601D40120A060012000903CE06269E4
:101090000121099890475E2805D101200C90014656
:1010A0006269099890472169002906D10B4601AA77
:1010B0008F00491CD3510829FADB002835D021695B
:1010C00000290ED1C117C90E09184A11930001AAAF
:1010D0009A1849094901411A0120136888400343BD
:1010E000136062690121099890475D28E5D10C9849
:1010F000002808D0002001AB81005A58401CD24380
:101100005A500828F8DB01AB01202246C0430D9954
:10111000C046C04600280ADA401C06D10B980028B9
:1011200003D00020C0430FB0F0BD0A98FBE7E907E9
:1011300002D10A99491C0A91361800200B9074E6D6
:10114000CCCCCC0CFFFFFF7FF1F7FFFF7F2801D94C
:10115000002207E0054B42089A5CC00700D1120943
:101160001207120F0120904008407047C2EB0008A0
:1011700070B58C180578401C6B075B0F01D10378A4
:10118000401C2A1106D10278401C03E006780E703C
:10119000401C491C5B1EF9D12B0705D40023521EAD
:1011A0000DD40B70491CFAE70378401CCB1A921C33
:1011B00003E01D780D70491C5B1C521EF9D5A1423D
:1011C000D8D3002070BD70B5044600252068806823
:1011D000042108408008002829D020688068084041
:1011E00000280BD02068806802210840002805D123
:1011F00020688068102108432168886001F0A0FD04
:1012000005460EE001F09CFD401B0A2809D9A06D9F
:1012100010210843A065E06D01210843E06501202D
:1012200070BD20688068042108400028EAD10020B1
:10123000F6E7000038B50446074908480068FEF79D
:1012400057FF6043009002E00098401E0090009815
:101250000028F9D138BD000040420F0000000020F6
:1012600070B504460025206880688007800F01283B
:1012700007D120680068C007C00F002801D00120F6
:1012800000E00020002837D0206880680521084051
:10129000012800D100E0002000280AD000BF20680B
:1012A0008068022108432168886003202168086063
:1012B00009E0A06D10210843A065E06D01210843FD
:1012C000E065012070BD01F03BFD05460EE001F038
:1012D00037FD401B0A2809D9A06D10210843A065DD
:1012E000E06D01210843E0650120EBE7206880689C
:1012F000C007C00F0028EAD10020E3E770B504461C
:101300000025206880688007800F012807D12068A9
:101310000068C007C00F002801D0012000E00020B5
:10132000002839D1206880681C490840002801D174
:10133000012000E00020002809D1A06D1021084301
:10134000A065E06D01210843E065012070BD2068C3
:10135000806801210843216888600120FFF76AFF47
:1013600001F0EEFC05460EE001F0EAFC401B0A2805
:1013700009D9A06D10210843A065E06D0121084343
:10138000E0650120E2E720680068C007C00F012186
:10139000484048400028E7D00020D7E717000080E9
:1013A00030B589B005460C461022002105A80CF086
:1013B00077FE2246243205A905A80CF087FB684673
:1013C000007D8021084000281CD000BF00200AE0DA
:1013D00005A9095C490005AB421C9A5CD211114376
:1013E00005AA1154401C0F28F2DB08A9C978490648
:1013F0000A0E08A9CA7000BFC8788721484008A90A
:10140000C87016E000BF00200AE005A9095C490089
:1014100005AB421C9A5CD211114305AA1154401C21
:101420000F28F2DB08A9C97849060A0E08A9CA7074
:1014300000BF206A10280FD100BF002009E021461C
:101440001031095C05AA125C514022461032115439
:10145000401C1028F3DB59E06846007D80210840DD
:1014600000281CD000BF00200AE005A9095C490043
:1014700005AB421C9A5CD211114305AA1154401CC1
:101480000F28F2DB08A9C97849060A0E08A9CA7014
:1014900000BFC8788721484008A9C87016E000BF7F
:1014A00000200AE005A9095C490005AB421C9A5CD2
:1014B000D211114305AA1154401C0F28F2DB08A9D0
:1014C000C97849060A0E08A9CA7000BF80212046C3
:1014D0001030226A815404E0002120461030226A34
:1014E0008154206A401C20621028F5D300BF0020E0
:1014F00009E021461031095C05AA125C51402246E0
:1015000010321154401C1028F3DB00BF00BF002034
:1015100006E0215C22461032125C51402154401CEE
:101520001028F6DB00BF1022214601A80CF09EFD1A
:1015300022462432294601A80CF0C8FA10220021C4
:1015400005A80CF0ADFD09B030BD10B50446102261
:10155000002120460CF0A4FD00202062F022002192
:10156000204624300CF09CFD10BD70B505460C469D
:101570002A462432102120460CF0D6FA70BDF0B570
:1015800085B004460F461546206A002830D0102149
:10159000206A081AA84202D2206A081A00E02846E7
:1015A0000646B2B223461033216AC81839460CF0F9
:1015B0005DFD206A80192062206A102801D3B5429F
:1015C00001D105B0F0BD00BF002006E0215C22463D
:1015D0001032125C51402154401C1028F6DB00BF31
:1015E00022462432214620460CF070FABF19AD1B6A
:1015F0001CE000BF002004E0215C3A5C5140215413
:10160000401C1028F8DB00BF1022214668460CF071
:101610002DFD22462432694668460CF057FA102206
:10162000694620460CF022FD1037103D102DE0D801
:10163000AAB23946204610300CF018FD256200BFD2
:10164000BFE70000FEB504460D46002600200090CE
:10165000019401200003029001A91B4800F000FF43
:10166000002801D000F068FC0021174800F08CFE33
:10167000002717E0144801F04BF96421124801F0EB
:10168000D3F800BF104800F08FFF01214902084045
:101690000028F7D00C4800F08AFF00900098361818
:1016A000781CC7B2AF42E5DB074801F06DF9019441
:1016B0000648029001A9044800F0D2FE29463046AF
:1016C000FEF716FDFEBD0000E4080020011000003A
:1016D00070B504460125A01E03000BF098FF070516
:1016E0001328364B677C8A00474800780F2808DAB1
:1016F000454803780078401C434E30704348C4543A
:10170000002578E0404800780E280FDA3E4803783C
:101710000078401C3C4E30703C48C454304603783E
:101720000078401C30703948C154002563E03648C9
:1017300000780F2808DA344803780078401C324ECD
:1017400030703248C454002555E02F4800780E28E8
:101750000FDA2D4803780078401C2B4E30702B4850
:10176000C454304603780078401C30702748C15478
:10177000002540E0244800780D2816DA2248037836
:101780000078401C204E30702048C4543046037806
:101790000078401C30701D48C154304603780078F2
:1017A000401C30701948C254002524E016480078C7
:1017B0000E280FDA144803780078401C124E30705F
:1017C0001248C454304603780078401C30700F48EB
:1017D000C15400250FE00C4800780F2808DA0A48A9
:1017E00003780078401C084E30700848C454002527
:1017F00001E0022070BD00BF002D02D10120044B8A
:1018000018702846F6E7000077000020FD0E002043
:101810007600002070B503460C460020154D295671
:10182000012B25D1002903D10025134E35601FE07F
:10183000114D2D68402D01D3012000E000200E4DF8
:101840002D68602D14D30C4D2D78203DAD06AD0EC6
:10185000002D0DD1002901DD4D1E69B2002907D1EF
:10186000012C05D1054D2D8807263543034E3580C3
:10187000117070BDB2000020700000200C0F00201D
:1018800000B587B087480068400840008549086077
:101890000846006801210906884382490860084615
:1018A000806B090488437F49886300BF0846C06A8B
:1018B000012108437B49C8620846C06AC007C00FBF
:1018C000019000BF00BF00BF0846C06A0221084364
:1018D0007449C8620846C06A02210840019000BFEE
:1018E00000BF00BF6F48C06A042108436D49C86249
:1018F0000846C06A04210840019000BF00BF00BF35
:101900006848C06A802108436649C8620846C06AC0
:1019100080210840019000BF00BF634800F066FFCF
:1019200000206149886561480068006840084000FF
:101930005E490968086000215C48403041705C489D
:1019400000680068400840005949096808600021A3
:1019500057486030417257480068006840084000AE
:101960005449096808600021524860304172524869
:1019700000680068400840004F490968086000217D
:101980004D48603041724D480068006840218843EE
:101990004A49096808600021484840304174484875
:1019A000029003200390002004900220059002A9D9
:1019B0000520000701F0BEF8F020029002200390FD
:1019C000012004900220059002A90520000701F0E3
:1019D000B1F83C48029003200390002004900220BC
:1019E000059002A9384801F0A5F8032040030290B1
:1019F0001120039002200490059002A9324801F0C2
:101A000099F80022032149032F4801F093F92F4848
:101A1000029003200390002004900220059002A968
:101A20002B4801F087F82648ED3002900320039000
:101A3000002004900220059002A9264801F07AF8BF
:101A400000220321234801F075F92348006902218F
:101A5000884321490861214840680121490608431B
:101A60001E49486000201E4908701E4908700D4834
:101A7000C06A400840000B49C8620846C06A02219B
:101A800088430849C8620846C06A0421884305495A
:101A9000C8620846C06A802188430249C86207B00C
:101AA00000BD000000100240E408002044090020AE
:101AB00038020020A802002018030020E8070020B8
:101AC0000FFF0000F79D000000040050FF3F0000E2
:101AD00000080050001C005000E000E000ED00E0B5
:101AE000300000200800002010B500BF0549097C27
:101AF000FF222D32514308466421FEF70FFBC4B28A
:101B0000204610BDD001002000B587B042480078C3
:101B100000287FD101F0E6FB4048406B01210843DB
:101B20003E4948630846806B090408433B49886383
:101B30000AF0ACFE00BF3948C06A042108433749A7
:101B4000C8620846C06A04210840069000BF00BF72
:101B500000BF3248C06A802108433049C862084645
:101B6000C06A80210840069000BF00BF00BF2B481C
:101B7000C06A022108432949C8620846C06A022196
:101B80000840069000BF00BF00BF2448C06A012182
:101B900008432249C8620846C06AC007C00F0690C1
:101BA00000BF00BF05F0AEFA1D48007800280AD03B
:101BB000012202A91B4802F0A5FD012201A9194832
:101BC00002F072FD00BF05F0BFFA05F06DFA05F0F6
:101BD0003BFA04F0C5FA07F0A1FC00220121022023
:101BE00001F0BEFB022001F0AFFB002203210E201A
:101BF00001F0B6FB0E2001F0A7FB08F06BFD05F02D
:101C0000D3F908F0E1F908F0ADF90120024900E04C
:101C100000E0087007B000BD300000200010024056
:101C200031000020C00800200EB500210091019174
:101C300002910D49096900910B49496901910A49CD
:101C4000496A02910849496A090E01700649496AC0
:101C50000902090E41700449898C0904090E81703A
:101C60000149898CC1700EBD4000F81F10B50022DB
:101C700001214902024801F05DF8012010BD000079
:101C8000000400503EB504460D460A2C01DD00203C
:101C90003EBD7D20C00001210B46224600950191EA
:101CA0000290D721054801F02BF9002804D004A0A8
:101CB0000BF06EFC0020EBE72878E9E744090020F0
:101CC00048414C5F4932435F4D656D5F52656164C9
:101CD000206572726F720D0A000000003EB5044666
:101CE0000D460A2C01DD00203EBD7D20C0000121F3
:101CF0000B462246009501910290D621054801F03D
:101D0000E1F9002804D004A00BF042FC0020EBE72E
:101D10000120E9E74409002048414C5F4932435F14
:101D20004D656D5F5772697465206572726F720DD3
:101D30000A000000F0B585B00020039004900A214D
:101D40000120FFF77FFC694688813249098B4A00F0
:101D50008A18694689894A431046FEF707FE0290B1
:101D60000A212D48FFF76EFC6946C8812949098B75
:101D70004A008A186946C9894A431046FEF7F6FDAB
:101D800001900A212548FFF75DFC69460882098A0F
:101D90000A03501AFEF7EAFD009000990298FEF738
:101DA00014FC05461E49FEF7D3FB04461D49FEF709
:101DB000B3FE03D201211C48C17302E000211A487E
:101DC000C17300990198FEF700FC07461749FEF71A
:101DD000BFFB06461649FEF7B3FB05461549FEF75D
:101DE000F4FB0446FEF7FAFDC1B20F480174007C13
:101DF000642803DB64210C48017406E00A48007C77
:101E0000052802DC0321084801740748007C05B05E
:101E1000F0BD00006000F81F020000040000024452
:101E200000A0BE4500A08C45D00100200000FA446F
:101E3000000061450000C040F0B5044600260027C0
:101E4000002512E02046E117090F091809110901C0
:101E5000661A39467F1C102006F036FE704345197D
:101E60002046E117090F09180C11002CEAD1284669
:101E7000F0BD10B50446204607F0ACFC10BD30B5EF
:101E8000024600231046D417240F24182405230EDD
:101E9000042B01DC052A01DB002030BD1046D417DD
:101EA000240F241824112401151B0124AC405D00CB
:101EB0004D5BA5435C000D530120EEE710B50120FA
:101EC00000F028FE022000F025FE10BD10B5042011
:101ED00000F020FE082000F01DFE10BD10B51020FF
:101EE00000F018FE202000F015FE402000F012FE49
:101EF000802000F00FFEFF20013000F00BFE0120DB
:101F0000400200F007FE0120800200F003FE0120E5
:101F1000C00200F0FFFD0120000300F0FBFD0120E6
:101F2000400300F0F7FD0120800300F0F3FD0120E5
:101F3000C00300F0EFFD10BD10B502A00BF028FBB0
:101F400010BD00006572726F720D0A0010B500249A
:101F500015E00122D1030520000700F02FF97D20B4
:101F6000C0000BF01FFF00220121C903052000075C
:101F700000F024F9C8200BF015FF601CC4B2032C3C
:101F8000E7DB10BD10B501228021024800F0D2FE2F
:101F900010BD00000004005000B587B000BF0D4820
:101FA000C06A022108430B49C8620846C06A022180
:101FB0000840019000BF00BF8020029001200390E4
:101FC00004900320059002A9034800F0B3FD07B078
:101FD00000BD0000001002400004005070B505462E
:101FE000002418E0062161430D4A8818FEF764F9C1
:101FF000A8420ED8611C06225143094A8818FEF7F0
:102000005BF9A84205D906206043054940180079CC
:1020100070BD601CC4B2152CE4D300BFFEE7000005
:10202000E6E6000870B54D48C07800282BD04B4834
:102030000078002827D000204849C870491D48482A
:1020400005F0A8F900F07CFE4449096C451A7D2191
:10205000C9002846FEF74CF80446214641A00BF083
:1020600097FA00203D49086410214348417401203B
:102070003A49087100F064FE40490860012138487F
:102080008030C17268E000F05BFE3449096C401A90
:102090003B4988422FD93148007800282BD02F485F
:1020A000C078002827D100F04BFE2C49096C451A56
:1020B0007D21C9002846FEF71BF80446214631A0C1
:1020C0000BF066FA2548401DFEF7E1F8044621466C
:1020D0002248401DFEF7BCF820212748417401200A
:1020E0001E49087100F02CFE2449086000211C489C
:1020F0008030C17230E01948007900282CD117488F
:102100000078002828D11548401DFEF7C0F8044685
:1021100021461248401DFEF79BF81F488078002892
:1021200006D03021144841741CA00BF031FA02E0B3
:102130000021114841740120084908711E480AF025
:1021400057FD00220121C9030520000700F0F2FD20
:1021500000F0F6FD0949086070BD0000A4070020EA
:10216000A40900204750535F54494D453131203A6E
:10217000202564530D0A0000D00100202C0000200F
:10218000E0930400B6A8CEBBB3ACCAB1203A202578
:1021900064530D0A00000000481300204861726477
:1021A000776172655F45786973745F475053204566
:1021B00052524F520D0A00009009002070B504469B
:1021C0000D46164632462946204600F0B3FD70BD46
:1021D00010B51248C078052805D11149FF202130DB
:1021E000FEF782F819E00D48C0780A2804D10C499E
:1021F0009020FEF779F810E00848C0780F2804D145
:1022000007496020FEF770F807E00448C0781E28F0
:1022100003D103493020FEF767F810BDE801002024
:102220004E13002010B5FFF7ADFE002400BF1C20A8
:1022300001F07EF8304B0E2230A1344803F03AFD15
:102240001C2001F081F87D20C00000F01FFC641C00
:102250002F480078002801D1032CE8D92C480078B9
:1022600000280DD1032C0BD92A488078002805D0EE
:1022700030212948417429A00BF08AF9002010BDB3
:1022800023480078002835D000BF1C2001F050F80A
:10229000194B342228A11D4803F00CFD1C2001F02D
:1022A00053F8C82000F0F2FB194840780028ECD021
:1022B00000BF1C2001F03CF80F4B13222BA1134848
:1022C00003F0F8FC1C2001F03FF8C82000F0DEFB12
:1022D0000F4880780028ECD006F0EDFB28480AF083
:1022E00087FC284926480AF02FFC25480AF03CFCC8
:1022F0000120C4E70020C2E7FFFF000024504D5436
:102300004B3130332A33300D0A000000A802002080
:10231000A407002048130020D00100204861726407
:10232000776172655F45786973745F4750532045E4
:1023300052524F520D0A000024504D544B33313449
:102340002C312C302C302C302C302C302C302C30AC
:102350002C302C302C302C302C302C302C302C309D
:102360002C312C302C302A32380D0A0024504D5498
:102370004B3232302C313030302A31460D0A0000D9
:102380009009002020A10700F8B50446002500268A
:10239000002700BF5420005D012801D10220F8BDB4
:1023A00001215420015500BF206880688007800FFC
:1023B000012806D1206800680840002801D00120CB
:1023C00000E0002000283FD1A06DFF2101318843AB
:1023D00002210843A0652068C0688707BF0F2068F6
:1023E000C068800880002168C8602068806801217A
:1023F000C90708432168886000F0A2FC064611E086
:1024000000F09EFC801B0A280CD9A06D0221884395
:1024100010210843A06500BF00215420015500BFD2
:102420000120BCE720688068C00FC0070028E7D102
:102430002068C06838432168C860A06D02218843C5
:1024400001210843A06504E0A06D20210843A06598
:10245000012500BF00215420015500BF28469EE7FA
:1024600070B504460D4600BF5420005D012801D11F
:10247000022070BD01215420015500BF20688068F2
:1024800004210840800800280AD0A06D20210843BC
:10249000A06500BF00215420015500BF0120E8E7DE
:1024A0003C496868884238D02068806A29684903B6
:1024B000490B08432168886228684003400B36496D
:1024C000084001218904884208D1344880684901C4
:1024D0000843324988600A20FEF7ACFE28684003B2
:1024E000400B2F49084001214904884205D12B485F
:1024F0008068490108432949886028684003400BE7
:10250000284908400121090488423BD123488068BA
:10251000090208432149886034E02068806A2968FC
:102520004903490B88432168886228684003400BAF
:102530001949084001218904884205D1174880685B
:10254000490188431549886028684003400B1449B5
:10255000084001214904884205D11048806849019A
:1025600088430E49886028684003400B0D490840A5
:1025700001210904884205D108488068090288437E
:102580000649886000BF00215420015500BF00208B
:102590006FE7000001100000000004480027014020
:1025A00000000244000001400146886D704701466A
:1025B0000868006C7047000010B50446002C01D17B
:1025C000012010BDA06D002806D1E0650021542037
:1025D0000155204600F00AF9A06D1021084000289E
:1025E00006D12068806804210840800800280AD0AD
:1025F000A06D10210843A06500BF002154200155A3
:1026000000BF0120DDE7A06DFF21013188430221D9
:102610000843A065206880688007800F012807D1E3
:1026200020680068C007C00F002801D0012000E02A
:10263000002000283AD100BF032189076068884242
:1026400007D049426068884203D0490060688842E8
:102650000CD120680069800080082168086120682A
:102660000069616808432168086112E02068006918
:1026700080008008216808615A4880680F21890419
:10268000884358498860084680686168084355490E
:10269000886000BF2068C068182188432168C8602E
:1026A0002068C068A16808432168C8604D488068F8
:1026B0000121490688434B49886008468068218F7C
:1026C0004906084347498860206880680121090756
:1026D0000840002804D12068806808432168886089
:1026E0002068C068404908402168C8602169E068E6
:1026F000022901D1042100E000210843216A490395
:102700000843216B49000843616B0843A1698903B1
:102710000843E169C90308432168C968084321687F
:10272000C860FF21C231A06A884207D0E16AA06A6E
:1027300008432168C96808432168C860606A0128A5
:1027400012D1206A002807D12068C068012109043D
:1027500008432168C86007E0A06D20210843A065F8
:10276000E06D01210843E065206C012817D1206845
:102770000069FF218900884321680861616CA06CB1
:102780000843E16C0843216809690843216808612E
:102790002068006901210843216808610BE0206876
:1027A0000069C007C00F002805D0206800694008F4
:1027B00040002168086120684069C008C0002168A5
:1027C000486120684069E16B084321684861002046
:1027D000E065A06D0221884301210843A065002027
:1027E000EFE60000002701401902FEFF10B586B099
:1027F00004460B492068884210D10A48406B4915AD
:1028000008430849486301200190032002900020FA
:10281000039001A90520000700F08CF906B010BD57
:102820000024014000100240F8B504460D46002681
:1028300000276069082801D1082711E02068C068D6
:10284000C007C00F00280AD0A06D20210843A06552
:1028500000BF00215420015500BF0120F8BD0C2706
:1028600000F06EFA064614E0681C002811D0002D16
:1028700004D000F065FA801BA8420AD9A06D04219B
:102880000843A06500BF00215420015500BF03206C
:10289000E4E72068006838400028E5D0A06D0121F9
:1028A00049020843A0652068C068032189020840E6
:1028B000002825D1206A002822D12068006808213C
:1028C000084008281CD1206880680421084080083E
:1028D00000280DD1206840680C2188432168486099
:1028E000A06DFF210131884301210843A06507E065
:1028F000A06D20210843A065E06D01210843E0653B
:10290000A069002802D10C20216808600020A5E7FA
:1029100070B50446002520688068042108408008BE
:1029200000282BD100BF5420005D012801D10220D6
:1029300070BD01215420015500BFE069012803D07A
:102940002046FEF7DBFC0546002D18D1A06D0D4991
:102950000840FF2101310843A0650020E06500BF69
:1029600000215420015500BF1C2021680860206808
:102970008068042108432168886000E00225284619
:10298000D6E70000FEF1FFFF70B50446002500BF4A
:102990005420005D012801D1022070BD0121542086
:1029A000015500BF2046FEF70EFC0546002D0CD158
:1029B0002046FEF755FC0546002D06D1A06DFF21EF
:1029C0000131884301210843A06500BF0021542044
:1029D000015500BF2846E0E770B5044600252520D4
:1029E000005D022803D00420E063012549E020684F
:1029F00000680E218843216808602068006840084C
:102A000040002168086020492068884201D10120E7
:102A100026E01D4914312068884201D110201FE0B2
:102A2000194928312068884201D1801518E01649DB
:102A30003C312068884201D1801411E012495031A4
:102A40002068884202D10120000409E00E49643167
:102A50002068884202D10120000501E00120000623
:102A600009490839486001212520015500BF00218E
:102A70002420015500BFA06B002802D02046A16B86
:102A80008847284670BD00000800024031B5002488
:102A900000F056F9044600BF00F052F9001B0099FF
:102AA0008842F9D338BD000010B50446022C0AD084
:102AB000042C0BD0E01FF93800280AD003210902AA
:102AC000401A10D109E007F029FE0DE008F00EF8D9
:102AD0000AE006A00AF05CFD06E008F0C1F808A0D4
:102AE0000AF056FD00E000BF00BF10BD4348415250
:102AF000474520494E5445525255500D0A0000009A
:102B00005358313237364F6E44696F324972710D06
:102B10000A00000010B5044605484069204000281E
:102B200004D0034844612046FFF7BEFF10BD0000FB
:102B30000004014070B50346002200240020DFE0BD
:102B4000012696400D6835402C46002C77D04D6804
:102B5000022D02D04D68122D15D1D508AE001D46AC
:102B60002035A8595507EE0E0F25B5400646AE4351
:102B700030465607F60E0D69B5402843D508AD001E
:102B80001E46203670514D68012D08D04D68022D2B
:102B900005D04D68112D02D04D68122D18D19868BE
:102BA00056000325B5400646AE4330465600CD6874
:102BB000B540284398605868012595400646AE43C5
:102BC000304610264D6835402D0995402843586001
:102BD000186856000325B5400646AE4330460D79C9
:102BE000AD07AD0F5600B54028431860D8685600B1
:102BF0000325B5400646AE43304656008D68B540C5
:102C00002843D860012636074D683540B54276D155
:102C10003E4D6D6B012635433C4E75633C4D960829
:102C2000B600A85995072E0F0F25B5400646AE43AE
:102C3000304605252D07AB4202D100251AE05EE0A3
:102C4000344DAB4201D1012514E0334DAB4201D1EB
:102C500002250FE0314DAB4201D103250AE0304D92
:102C6000AB4201D1042505E02E4DAB4201D1052533
:102C700000E006259607360FB5402843244D9608F8
:102C8000B600A851284D28680546A54328460126C8
:102C900036044D683540B54202D1054625432846E5
:102CA000214D286068680546A5432846012676041C
:102CB0004D683540B54202D10546254328461A4D98
:102CC0006860A8680546A5432846012636054D6874
:102CD0003540B54202D1054625432846124DA8602D
:102CE000E8680546A5432846012676054D68354027
:102CF000B54202D10546254328460B4DE860521CDB
:102D00000D68D540002D00D01AE770BD00100240BC
:102D1000080001400004005000080050000C005062
:102D200000100050001C00500004014042694A405D
:102D300042617047002A01D0816100E081627047E2
:102D4000014800687047000004000020024641204E
:102D5000805C20282FD100BF4020805C012801D159
:102D60000220704701234020835400BF24234120C8
:102D700083541068006840084000136818601068A9
:102D8000006801231B0398431368186010680068EB
:102D9000084313681860106800680123184313681B
:102DA000186020234120835400BF00234020835417
:102DB00000BF0020D5E70220D3E710B502460B463E
:102DC00000214120805C20282ED100BF4020805C63
:102DD000012801D1022010BD01244020845400BFED
:102DE000242441208454106800684008400014687E
:102DF0002060106801680F2424020846A0430146A1
:102E00001802014310680160106800680124204323
:102E10001468206020244120845400BF00244020F6
:102E2000845400BF0020D6E70220D4E710B5044642
:102E3000002C01D1012010BD4120005D002805D1EA
:102E4000002140200155204600F01EFA2421412097
:102E500001552068006840084000216808600F2183
:102E6000090660688843216808612068806801213C
:102E7000C903884321688860E068012806D10121E0
:102E8000C903A06808432168886005E02121890200
:102E9000A068084321688860E068022802D18002A7
:102EA00021684860206840681449084321684860E8
:102EB0002068C0680121C90388432168C86061692E
:102EC00020690843A169090208432168C860216A92
:102ED000E069084321680860206800680121084310
:102EE00021680860002060642021412001550020F5
:102EF000206300214220015500209CE70080000251
:102F0000FFB583B004460C9F0E9E00254120005D56
:102F1000202871D1002F02D00D98002802D1012065
:102F200007B0F0BD00BF4020005D012801D10220A4
:102F3000F6E701214020015500BFFFF701FF0546DC
:102F400019230122D1032046009503F047F80028F9
:102F500001D00320E4E722214120015540214220F5
:102F600001550020606467620D98608500206063F1
:102F700000960195204604A90EC902F085FF00289D
:102F800010D0606C042806D100BF002140200155FC
:102F900000BF0120C4E700BF00214020015500BF51
:102FA0000320BDE7608DFF280DD9FF202085092073
:102FB00080020090208DC2B201231B062046049996
:102FC00002F0F4FF0CE0608D208509208002009063
:102FD000208DC2B201235B062046049902F0E6FF71
:102FE00000BF3346002204212046009502F0F6FF80
:102FF000002802D0032093E75FE02068406AC1B256
:10300000626A501C60621170208D401E2085608DA8
:10301000401E6085208D002829D1608D002826D093
:103020003346002280212046009502F0D7FF002879
:1030300001D0032074E7608DFF280CD9FF20208584
:1030400000200090208DC2B201231B062046049967
:1030500002F0ACFF0BE0608D208500200090208DF9
:10306000C2B201235B062046049902F09FFF608DE7
:103070000028B6D12A463146204602F0D8FF002863
:1030800006D0606C042801D1012049E7032047E7FE
:1030900020202168C86120684068094908402168EB
:1030A000486020214120015500214220015500BFE8
:1030B0004020015500BF002032E7022030E7000029
:1030C00000E800FEFFB583B004460C9F0E9E00256D
:1030D0004120005D202870D1002F02D00D980028DB
:1030E00002D1012007B0F0BD00BF4020005D0128E3
:1030F00001D10220F6E701214020015500BFFFF772
:103100001FFE054619230122D1032046009502F037
:1031100065FF002801D00320E4E72121412001556B
:103120004021422001550020606467620D9860854F
:103130000020606300960195204604A90EC902F0A4
:10314000ECFE002810D0606C042806D100BF0021DE
:103150004020015500BF0120C4E700BF00214020EE
:10316000015500BF0320BDE7608DFF280CD9FF206B
:10317000208500200090208DC2B201231B0620462E
:10318000049902F013FF0BE0608D20850020009071
:10319000208DC2B201235B062046049902F006FF8F
:1031A00000BF2A463146204602F06EFF002807D0B5
:1031B000606C042802D1012094E760E0032091E7CD
:1031C000616A481C6062087821688862608D401ED0
:1031D0006085208D401E2085208D002829D1608D9E
:1031E000002826D03346002280212046009502F098
:1031F000F5FE002801D0032074E7608DFF280CD96C
:10320000FF20208500200090208DC2B201231B06E4
:103210002046049902F0CAFE0BE0608D2085002054
:103220000090208DC2B201235B062046049902F073
:10323000BDFE608D0028B4D12A463146204602F0FA
:10324000F6FE002806D0606C042801D1012049E771
:10325000032047E720202168C861206840680949A9
:10326000084021684860202141200155002142206A
:10327000015500BF4020015500BF002032E7022069
:1032800030E7000000E800FE10B586B004460E49A5
:103290002068884215D1032040030190122002903B
:1032A00001200390032004900520059001A9074800
:1032B000FFF740FC0648806B01218905084304495B
:1032C000886306B010BD00000058004000040050A4
:1032D0000010024002480068401C01490860704725
:1032E0000400002010B50648006840210843044946
:1032F0000860002000F006F800F018F8002010BD6B
:103300000020024070B504467D21C90006480068CF
:10331000FCF7EEFE054602F095F900222146501E0C
:1033200000F01EF8002070BD000000207047000073
:1033300000BFC206D20E01219140024A116000BFB7
:103340007047000080E100E000BFC206D20E0121FC
:103350009140024A116000BF7047000000E100E0A8
:1033600070B504460D4616462946204604F0ACF9D1
:1033700070BD0000034800680121890288430149AB
:10338000086070470070004003480068012149024E
:103390000843014908607047007000400348006816
:1033A0001021884301490860704700000070004008
:1033B0000348006810210843014908607047000075
:1033C0000070004010B5024600200E4B18688008BF
:1033D00080000346134318460A4B18600A4B1B69CA
:1033E00004242343084C2361012901D130BF02E0AA
:1033F00040BF20BF20BF044B1B690424A343024CE1
:10340000236110BD0070004000ED00E0F0B585B014
:10341000054600260020039002900024002701901A
:103420000090102D7ED008DC012D7CD0022D7BD0A9
:10343000042D7AD0082D79D13BE1202D0AD0402DE2
:1034400051D0E81FF938002871D007210902401A2D
:10345000F1D100E000BFC6480669006903210904F4
:103460000840044601200004844206D1C0113040C7
:10347000002802D06010029034E001204004844211
:1034800006D102203040002802D0BA48029029E03C
:1034900003200004844223D1B5484038006801214C
:1034A0004904084000281BD0B14840380068210179
:1034B00008400390012109050398401A09D0401AD9
:1034C00004D0401A08D1AC48029008E0AB48029002
:1034D00005E0AB48029002E0AA48029000BF01E07C
:1034E000002002903FE1A248C068012189060840FF
:1034F0000446002C42D19E484038006849100840DC
:1035000000283BD09A484038C0680F218904084001
:10351000074697484038C068032189050840019054
:10352000B80C05E0EAE03AE064E08FE01AE1F4E08C
:1035300095490F5C0198800D401C01908C484038E3
:10354000C06801210904084000280CD1884840388F
:10355000006810210840002802D08A48009004E04A
:103560008A48009001E08A480090009878430090D3
:1035700001990098FCF7BCFD02900FE00120800645
:10358000844209D17A4840388068022108400028E6
:1035900002D08048029001E000200290E3E07448ED
:1035A000C0688407A40F002C03D100F05FFB0290D9
:1035B0001FE0022C09D16E48403800680421084001
:1035C000002802D07148029013E0012C03D100F0D2
:1035D0005FFB02900DE0032C09D1654800690121D1
:1035E00049020840002802D08801029001E0002032
:1035F0000290B8E05E48C0680C2108400446002CE8
:1036000003D100F021FB02901FE0082C09D158489B
:103610004038006804210840002802D05B4802902E
:1036200013E0042C03D100F033FB02900DE00C2CCE
:1036300009D14F480069012149020840002802D001
:103640008801029001E0002002908CE04848C068A8
:103650000321890208400446002C03D100F0F4FA4B
:10366000029025E00120C002844209D14048403840
:10367000006804210840002802D04448029017E066
:1036800001208002844203D100F002FB02900FE08F
:1036900003208002844209D1354800690121490292
:1036A0000840002802D08801029001E0002002902A
:1036B00059E02F48C0680321090308400446002C44
:1036C00003D100F0C1FA029017E0012040038442C8
:1036D00009D127484038006804210840002802D05A
:1036E0002A48029009E001200003844203D100F03F
:1036F000CFFA029001E00020029034E01C484038EC
:10370000806B012189050840884203D100F09CFAB2
:10371000029001E00020029025E01548C0680321D6
:10372000090408400446002C03D100F08DFA0290F1
:1037300017E001204004844209D10D484038006858
:1037400004210840002802D01048029009E001201E
:103750000004844203D100F09BFA029001E00020B3
:10376000029000E000BF00BF029805B0F0BD00006D
:10377000401002408890000020A1070040420F0046
:1037800080841E0000093D0042E600080024F40089
:1037900000127A00006CDC02F8B504460026002511
:1037A000202120680840202804D089012068084092
:1037B00088427DD1202120680840202800D100BF08
:1037C0000121C90220680840884200D100BF0027BB
:1037D0009948806B012109070840002805D19648C7
:1037E000806B084394498863012794480068FF214F
:1037F00001310840002816D19048006808438F49DD
:103800000860FFF79DFA064606E0FFF799FA801B6D
:10381000642801D90320F8BD88480068FF210131E0
:1038200008400028F1D084480068032109050840B9
:10383000054660680840A84203D1A0680840A84235
:103840000ED00321090460680840884208D17A48F4
:103850000068012149040840002801D00120DAE76E
:103860007548403000690321090408400546002DD1
:1038700049D060680840A84204D020212068084050
:1038800020280BD003210904A0680840A8423AD0A0
:103890000121C90220680840884234D1664840307E
:1038A000006903210904884305466348403000E06D
:1038B00052E000690121C90408435F4940310861B1
:1038C000084600690121C90488435B494031086109
:1038D0000846056180152840002814D0FFF730FA0B
:1038E000064607E0FFF72CFA801B5549884201D9AC
:1038F000032090E750484030006901214902084008
:10390000400A0028EED000BF00BF03210904606810
:10391000084088420AD148480068090188430322C8
:1039200012056168114008434349086000BF4248DE
:1039300040300069032212046168114008433E4987
:103940004031086100BF012F05D13B48806B8905DC
:1039500088433949886300BF2078C007C00F00281A
:1039600009D035484030C06880088000E1680843CD
:1039700031494031C860022120680840022809D13D
:103980002D484030C0680C218843216908432A49EA
:103990004031C86004212068084004280AD1264824
:1039A0004030C06803218902884361690843224985
:1039B0004031C86008212068084008280AD11E4804
:1039C0004030C068032109038843A16908431A49AC
:1039D0004031C860FF2101312068084088420AD187
:1039E00015484030C068032109048843E169084351
:1039F00011494031C860402120680840402809D161
:103A00000D484030C06809058843616A08430A4987
:103A10004031C86080212068084080280AD10648CB
:103A20004030C068032189048843216A0843024961
:103A30004031C8600020EEE60010024000700040F7
:103A40008813000070B504460D46002676480068CD
:103A5000C007C00FA8420ED273480068400840005B
:103A600028437149086008460068C007C00FA84293
:103A700001D0012070BD022120680840022807D132
:103A80006A48C068F0218843A16808436749C86054
:103A90002078C007C00F00284CD06068022809D1E8
:103AA00062480068012149040840400C002824D1E4
:103AB0000120DFE76068032809D15C480068012124
:103AC00049060840400E002817D10120D2E760685F
:103AD000012808D1554800680421084080080028C2
:103AE0000BD10120C6E75148006801214902084076
:103AF000400A002801D10120BCE74C48C06880087A
:103B00008000616808434949C860FFF719F9064613
:103B1000606802280FD107E0FFF712F9801B4449C3
:103B2000884201D90320A5E74048C0680C2108401D
:103B30000828F1D134E0606803280FD107E0FFF7CF
:103B4000FFF8801B3A49884201D9032092E73748A1
:103B5000C0680C2108400C28F1D121E060680128E0
:103B60000FD107E0FFF7ECF8801B3149884201D9FB
:103B700003207FE72D48C0680C2108400428F1D1BC
:103B80000EE007E0FFF7DCF8801B2949884201D9E5
:103B900003206FE72548C0680C2108400028F1D1B8
:103BA00021480068C007C00FA8420ED91E4800680F
:103BB0004008400028431C49086008460068C007C8
:103BC000C00FA84201D0012054E70421206808401A
:103BD000042808D11548C068072109028843E16814
:103BE00008431249C860082120680840082809D104
:103BF0000E48C0680721C90288432169C9000843EB
:103C00000A49C86000F044F80849C968F022114028
:103C10000909084A515CC840074908600020FFF7BD
:103C200071FB002026E70000002002400010024047
:103C3000881300002AE60008000000200148006800
:103C4000704700000000002000B5FFF7F7FF0549AE
:103C5000C968072212021140090A034A515CC84090
:103C600000BD0000001002403AE6000800B5FFF772
:103C7000E5FF0549C9680722D2021140C90A034A73
:103C8000515CC84000BD0000001002403AE6000848
:103C9000FEB500250026002700240020019000909A
:103CA0002F48C5680C202840002847D0042804D09D
:103CB00008280ED00C2840D10EE0294800681021B9
:103CC0000840002802D02748009001E026480090D4
:103CD00042E0264800903FE00F2080042840800CFE
:103CE00023490E5C032080052840800D471C1C489A
:103CF000C068012109040840002807D01B4971430E
:103D000008463946FCF7F4F9044614E01448006804
:103D100010210840002807D012497143084639464F
:103D2000FCF7E6F9044606E00F49714308463946B8
:103D3000FCF7DEF9044600940EE000BF0848406836
:103D4000072149030840400B01900198401C0121C4
:103D50008140C803009000BF00BF0098FEBD000076
:103D60000010024000093D000024F40000127A0017
:103D700042E60008F8B5044600252078C007C00FC9
:103D800000287DD0FE48C0680C21084008280BD0D0
:103D9000FB48C06808400C2813D1F948C0680121CD
:103DA0000904084088420CD1F54800680121490403
:103DB0000840400C002863D06068002860D10120D2
:103DC000F8BD00BF012109046068884205D1EC48B4
:103DD00000680843EA49086027E005210904606893
:103DE00088420ED1E6480068012189040843E4496D
:103DF000086008460068012109040843E04908609A
:103E000013E0DF480068012109048843DC490860A9
:103E100008460068012109040840009000BFD84806
:103E2000006889008843D649086000BF60680028A0
:103E300013D0FEF785FF054606E0FEF781FF401B25
:103E4000642801D90320BBE7CD480068012149045B
:103E50000840400C0028F0D012E0FEF771FF054644
:103E600006E0FEF76DFF401B642801D90320A7E799
:103E7000C3480068012149040840400C0028F0D1E3
:103E8000022120680840022868D1BD48C0680C2182
:103E9000084004280BD0BA48C06808400C281DD13F
:103EA000B748C068012109040840002816D1B44869
:103EB0000068042108408008002804D0E068012838
:103EC00001D001207CE7AE4840681F2109028843E9
:103ED000216909020843AA4948603FE0E0680028D8
:103EE00024D0A748006809218843E1680843A44911
:103EF0000860FEF725FF054606E0FEF721FF401BA0
:103F0000022801D903205BE79D480068042108408E
:103F100080080028F1D09A4840681F210902884390
:103F20002169090208439649486017E094480068EF
:103F30004008400092490860FEF702FF054606E08F
:103F4000FEF7FEFE401B022801D9032038E78C480B
:103F500000680421084080080028F1D11021206861
:103F60000840102860D18648C0680C21084000280D
:103F70005BD183480068012149020840400A0028BB
:103F800004D0E069002801D1012019E77C48616A6A
:103F90004068072252031040814219D9606A05F037
:103FA00029FA002801D001200AE775484068072156
:103FB00049038843616A084371494860084640687C
:103FC0000002000A218C090608436D49486018E088
:103FD0006B484068072149038843616A0843684980
:103FE0004860084640680002000A218C0906084320
:103FF00063494860606A05F0FDF9002801D001209E
:10400000DEE6606A400B401C01218140C8035C4928
:10401000C968F022114009095A4A515CC8405A49FE
:1040200008600020FFF76EF949E0E06900282CD015
:1040300053480068FF210131084351490860FEF7E9
:104040007FFE054606E0FEF77BFE401B022801D9F5
:104050000320B5E64A480068012149020840400AA9
:104060000028F0D046484068072149038843616A28
:10407000084343494860084640680002000A218C12
:10408000090608433E49486019E03D480068FF21A1
:10409000013188433A490860FEF752FE054606E0C2
:1040A000FEF74EFE401B022801D9032088E6344863
:1040B0000068012149020840400A0028F0D1082187
:1040C00020680840082839D1606900281BD02C4896
:1040D0004030006901210843294940310861FEF759
:1040E0002FFE054606E0FEF72BFE401B022801D9F5
:1040F000032065E62248403000690221084040085C
:104100000028F0D01AE01E48403000694008400006
:104110001B4940310861FEF713FE054606E0FEF735
:104120000FFE401B022801D9032049E61448403005
:1041300000690221084040080028F0D104212068CD
:104140000840042877D100260D48806B8906084076
:10415000002805D10A48806B084309498863012675
:104160000A480068FF210131084000281ED1074895
:104170000068084305490860FEF7E2FD05460EE0C9
:10418000001002402AE600080000002000700040F5
:10419000FEF7D6FD401B642801D9032010E6A6488F
:1041A0000068FF21013108400028F1D000BFFF2145
:1041B0000131A068884205D1A048006908439F49A1
:1041C000086130E0A06800280DD19C480069FF21FB
:1041D00001318843994908610846006909158843F7
:1041E000964908611FE005210902A06888420DD1A7
:1041F00092480069012189020843904908610846F4
:104200000069891508438D4908610CE08B480069F5
:10421000FF21013188438949086108460069091571
:1042200088438649086100BFA068002815D0FEF7C2
:1042300087FD054608E02FE0FEF782FD401B804920
:10424000884201D90320BBE57C480069012149026D
:104250000840400A0028EFD013E0FEF771FD054644
:1042600007E0FEF76DFD401B7549884201D9032028
:10427000A6E572480069012149020840400A002869
:10428000EFD1012E07D16D484038806B310788434C
:104290006A494039886300BF2021206808402028EF
:1042A00052D1A06900282BD000BF644840388068F4
:1042B000012108436149403988600846406B01216B
:1042C00008435E49403948635E48006A012149035A
:1042D00008435C49086200BFFEF732FD054606E070
:1042E000FEF72EFD401B022801D9032068E5534844
:1042F000403880680221084040080028F0D023E0C0
:1043000000BF4E4840388068400840004B49403963
:1043100088604C48006A0121490388434949086282
:1043200000BFFEF70DFD054606E0FEF709FD401B48
:10433000022801D9032043E5404840388068022123
:10434000084040080028F0D1A06A002872D03B48FD
:104350004038C0680C2108400C2869D0A06A0228A7
:1043600048D136484038006801210906884333495E
:1043700040390860FEF7E4FC054606E0FEF7E0FC85
:10438000401B022801D903201AE52C484038006858
:10439000012149060840400E0028EFD1216BE06A58
:1043A0000843616B084325494039C968FD2212045E
:1043B0009143084321494039C860084600680121FB
:1043C000090608431D4940390860FEF7B9FC054657
:1043D00006E0FEF7B5FC401B022801D90320EFE4FC
:1043E000164840380068012149060840400E002860
:1043F000EFD01FE0114840380068012109068843CA
:104400000E4940390860FEF79BFC054606E0FEF7C2
:1044100097FC401B022801D90320D1E4074840380B
:104420000068012149060840400E0028EFD101E054
:104430000120C5E40020C3E40070004040100240A9
:1044400088130000000001407047000070B5054669
:1044500025484068C007C00F012148404840002857
:104460002AD022484078002826D072B6FEF7A0FF56
:1044700000201E4948701E49FBF736FF01201D49E8
:104480000870FDF741FBFF2101311B4800F082F865
:10449000FEF756FC19490860194808F0A9FB1949AC
:1044A000484209F05FFF184944182146144808F0B3
:1044B0004BFB134808F058FB0B484068C007C00F7F
:1044C000012148404840002809D008484078002889
:1044D00005D005480068042108430349086008F036
:1044E000D5FA62B670BD000000700040481300208D
:1044F0002E02002031000020C00800202C000020E7
:10450000D0130020A086010020A1070010B50446AA
:1045100020688068012109030840000B002811D0A1
:104520002068C06809110840000A00280AD0204607
:10453000FFF78CFF2068C0688021084012490843BB
:104540002168C86020688068012149030840400B49
:10455000002811D02068C06809110840400A0028CE
:104560000AD02046FFF770FF2068C068802108400D
:10457000064908432168C860012040040449486195
:1045800001212120015510BD7FFEFFFF7FFDFFFFB0
:104590000004014070B504460D46002600BF2020EF
:1045A000005D012801D1022070BD012120200155AC
:1045B00000BF02212120015500BFCA2021684862A6
:1045C00053202168486200BFFF20013085422CD172
:1045D0002068806829468843216888602068806850
:1045E0002901884321688860FEF7AAFB064615E08A
:1045F000FEF7A6FB801B7D21C90088420ED900BFB3
:10460000FF202168486200BF03212120015500BF1F
:1046100000212020015500BF0320C5E72068C068A5
:10462000C007C00F0028E3D02EE020688068012179
:104630004902884321688860206880680121490315
:10464000884321688860FEF77BFB064615E0FEF78D
:1046500077FB801B7D21C90088420ED900BFFF2057
:104660002168486200BF03212120015500BF0021BD
:104670002020015500BF032096E72068C068022172
:10468000084040080028E2D000BFFF2021684862AF
:1046900000BF01212120015500BF0021202001552C
:1046A00000BF002080E70000F0B506460C46174624
:1046B000002530684068124908400546FF20000484
:1046C0002840000CE0701F2000022840000A6070A3
:1046D000A806800EA070072040032840400B2070E1
:1046E000002F0BD1E07804F0D1FEE070607804F088
:1046F000CDFE6070A07804F0C9FEA0700020F0BD6F
:104700003FFFFF00F0B505460C4617460026286817
:10471000806A6060286800694004400CA0602868D6
:1047200000681249084006463F2000043040000C53
:1047300020707F2000023040000A60707006400E3A
:10474000A070012080053040000CE070002F0BD1DC
:10475000207804F09BFE2070607804F097FE607073
:10476000A07804F093FEA0700020F0BD7F7F7F0052
:1047700010B50446002C01D1012010BD2120005DA0
:10478000002805D1002120200155204600F054F8D2
:1047900002212120015500BFCA2021684862532010
:1047A0002168486200BF204604F08AFE002809D034
:1047B00000BFFF202168486200BF0421212001556D
:1047C0000120DAE7206880681A490840216888607B
:1047D000216960680843A169084321688968084322
:1047E000216888602168E068086120680069218983
:1047F00009040843216808612068C0688021884353
:104800002168C8602068C06C800880002168C86486
:104810006169E06908432168C96C08432168C8647C
:1048200000BFFF202168486200BF012121200155FF
:104830000020A2E7BFFF8FFF054A0168914206D121
:1048400004490969012292041143024A1161704727
:104850000028004040100240FEB504460D461646B2
:10486000002700200190009000BF2020005D01285B
:1048700001D10220FEBD01212020015500BF0221EF
:1048800021200155002E2AD120688068402108404F
:10489000002800D002E00020E87000BFE86900288E
:1048A00000D100E000BF287804F0FDFD0304687823
:1048B00004F0F9FD00020343A87804F0F4FD03437B
:1048C000E878000403432021485D04F0ECFD000675
:1048D0000343E86903436869034301932FE02068B9
:1048E000806840210840002804D0287804F0CEFDDC
:1048F000019002E00020E87000BFE869002805D1BF
:104900002021485D04F0C2FD019005E02021485DB2
:1049100004F0BCFD019000BF28780004697809020A
:104920000843A9780843E978090408432021495D30
:1049300009060843E9690843696908430190A969C0
:1049400068680843009000BFCA202168486253206D
:104950002168486200BFFF210131686A884241D165
:10496000206880688843216888602068C06880214A
:1049700008404D4908432168C860FEF7E1F9074641
:1049800015E0FEF7DDF9C01B7D21C90088420ED974
:1049900000BFFF202168486200BF0321212001558C
:1049A00000BF00212020015500BF032062E72068DE
:1049B000C068C007C00F0028E3D001982168C86113
:1049C00000982168486420688068FF21013108430D
:1049D00021688860206880680121090308432168F4
:1049E000886043E02068806801214902884321688B
:1049F00088602068C068802108402C4908432168ED
:104A0000C860FEF79DF9074615E0FEF799F9C01B4F
:104A10007D21C90088420ED900BFFF20216848626D
:104A200000BF03212120015500BF00212020015596
:104A300000BF03201EE72068C0680221084040082C
:104A40000028E2D0019821680862009821688864F3
:104A50002068806801214902084321688860206835
:104A60008068012149030843216888601048006874
:104A70000121490408430E49086008468068012165
:104A8000490408430A49886000BFFF202168486242
:104A900000BF01212120015500BF00212020015528
:104AA00000BF0020E6E600007FFEFFFF7FFDFFFF66
:104AB00000040140F8B504460D461646002700BF25
:104AC0002020005D012801D10220F8BD0121202015
:104AD000015500BF022121200155002E09D168781F
:104AE00010210840102804D16878EF2108400A30CE
:104AF0006870002E11D1E87804F0D5FC03046878C2
:104B000004F0D1FC00020343A87804F0CCFC03437A
:104B10002878400303431F4612E0687804F0B6FC8F
:104B20000746A87804F0B2FC0746E87800046978E4
:104B300009020843A978084329784903084307462E
:104B400000BFCA202168486253202168486200BF24
:104B5000204604F0B5FC00280ED000BFFF202168DD
:104B6000486200BF04212120015500BF0021202000
:104B7000015500BF0120A8E7194838402168486066
:104B80002068C068802188432168C86020688068E8
:104B900020210840002813D1204600F0CDF800283D
:104BA0000ED000BFFF202168486200BF04212120F1
:104BB000015500BF00212020015500BF012084E7DE
:104BC00000BFFF202168486200BF0121212001555C
:104BD00000BF00212020015500BF002075E7000024
:104BE0003FFFFF00F8B504460D461646002700BFFC
:104BF0002020005D012801D10220F8BD01212020E4
:104C0000015500BF022121200155002E1BD1206833
:104C1000806840210840002800D002E00020E870B1
:104C200000BF287804F03FFC0304687804F03BFCE4
:104C300000020343A87804F036FC0343E87800043C
:104C400003431F4618E02068806840210840002880
:104C500004D0287804F01AFC074602E00020E8702F
:104C600000BF28780004697809020843A97808433E
:104C7000E97809040843074600BFCA202168486252
:104C800053202168486200BF204604F019FC002828
:104C90000ED000BFFF202168486200BF0421212000
:104CA000015500BF00212020015500BF0120A4E7CD
:104CB0002048384021680860206880680121890404
:104CC0008843216888602969E86808432168896801
:104CD0000843216888602068C06880218843216873
:104CE000C8602068806820210840002813D1204631
:104CF00000F022F800280ED000BFFF202168486293
:104D000000BF04212120015500BF002120200155B2
:104D100000BF012071E700BFFF202168486200BF8B
:104D200001212120015500BF00212020015500BF95
:104D3000002062E77F7F7F0070B504460025206871
:104D4000C068A02188432168C860FDF7F9FF0546C7
:104D500008E0FDF7F5FF401B7D21C900884201D91D
:104D6000032070BD2068C068202108400028F0D0D2
:104D70000020F6E710B50446002C01D1012010BD3B
:104D80005120005D002805D100215020015520460A
:104D900000F038F8022151200155206800684021B8
:104DA000884321680860A16860680843E168084397
:104DB000216908436169084301225202A169114037
:104DC0000843E1690843216A0843A16A084321684E
:104DD0000860A069000C04210840616A084321684A
:104DE00048602168E06A08612068C06991008843D2
:104DF0002168C86100206065012151200155002013
:104E0000BDE7000010B586B004461449206888420A
:104E100022D100BF1248C06A012108431049C8626C
:104E20000846C06AC007C00F009000BF00BF084618
:104E3000406B891408430A494863E020019002202E
:104E4000029000200390032004900020059001A907
:104E500005200007FDF76EFE06B010BD00300140D2
:104E600000100240FEB504460E4615461F460020BF
:104E700001905120005D01287ED1002E01D0002D2F
:104E800001D10120FEBD00BF5020005D012801D1ED
:104E90000220F7E701215020015500BF22215120B7
:104EA000015500206065A663A587E587A064E064DE
:104EB0002063A086E0860121C903A068884205D14D
:104EC000206800684910884321680860012149036F
:104ED000A06A88420DD100BF20680068884321681D
:104EE00008602068006801214903084321680860C0
:104EF00000BFFF210531606888420FD1A0680028FB
:104F00000CD100BF00215020015500BF2B46324676
:104F100031462046009700F0C2F9B3E720680068E8
:104F200040210840402804D02068006808432168D8
:104F30000860E068002825D113E03B4600220121EB
:104F4000204605F0B7F8002801D003209AE7206832
:104F5000C068C1B2A26B501CA0631170E08F401EEC
:104F6000E087E08F0128E8D801214903A06A884240
:104F70002BD12068006800E0A2E0491008432168B6
:104F8000086022E013E03B4600220121204605F0A4
:104F900091F8002801D0032074E72068C068A16B55
:104FA0000880A06B801CA063E08F401EE087E08F2C
:104FB0000128E8D801214903A06A884205D1206868
:104FC000006849100843216808603B46002201211F
:104FD000204605F06FF8002801D0032052E7E06872
:104FE000002807D12068C068C1B2A26B501CA06322
:104FF000117006E02068C068A16B0880A06B801C5F
:10500000A063E08F401EE08701214903A06A884227
:1050100013D13B4600220121204605F04BF8002821
:1050200005D0606D02210843606503202AE72068EF
:10503000C06881B2019168468088FF2105316068AF
:1050400088420ED10121C903A068884203D04911CA
:10505000A068884205D12068006840218843216803
:1050600008600121512001554903A06A884220D1DE
:1050700020688068102108400009002819D0606D60
:1050800002210843606500BF206800680903884367
:1050900021680860206800680121490308432168ED
:1050A000086000BF00BF00215020015500BF012053
:1050B000E8E600BF00215020015500BF0020E1E6D6
:1050C0000220DFE6F8B504460E4615461F4651207D
:1050D000005D01287BD1002E01D0002D01D10120DF
:1050E000F8BD00BF5020005D012801D10220F7E784
:1050F00001215020015500BF1221512001550020EF
:1051000060652663A586E586E064A064A063A08749
:10511000E08701214903A06A88420DD100BF2068C1
:1051200000688843216808602068006801214903FD
:1051300008432168086000BF0121C903A0688842B4
:1051400005D120680068491008432168086020687C
:10515000006840210840402804D0206800680843C7
:1051600021680860E068002832D16068002802D019
:10517000E08E012808D1216B481C20630878216843
:10518000C860E08E401EE08612E03B46002202210D
:10519000204604F08FFF002801D00320A0E7216BF8
:1051A000481C206308782168C860E08E401EE086B5
:1051B000E08E0028E9D101214903A06A88423AD152
:1051C00020680068491008432168086033E064E003
:1051D0006068002802D0E08E012809D1206B008889
:1051E0002168C860206B801C2063E08E401EE08632
:1051F00013E03B4600220221204604F05BFF00281A
:1052000001D003206CE7206B00882168C860206B08
:10521000801C2063E08E401EE086E08E0028E8D1EE
:1052200001214903A06A884205D12068006849101D
:105230000843216808603B4600220221204604F012
:1052400039FF002805D0606D2021084360650320E8
:1052500046E73B4601228021204604F02BFF002830
:1052600005D0606D202108436065032038E7A06801
:10527000002808D100BF2068C068009020688068BE
:10528000009000BF00BF01215120015500BF002147
:105290005020015500BF002022E7022020E7F8B58A
:1052A00004460E4617461D46002000905120005D22
:1052B000012803D05120005D222873D1002E03D095
:1052C000002F01D0002D01D10120F8BD00BF5020DA
:1052D000005D012801D10220F7E70121502001558E
:1052E00000BF5120005D012802D13221512001551B
:1052F00000206065A763A587E5872663A586E58608
:10530000A064E06401214903A06A88420DD100BF76
:1053100020680068884321680860206800680121CF
:10532000490308432168086000BF206800684021E5
:105330000840402804D020680068084321680860BD
:105340000121C902E06888427DD16068002807D049
:10535000FF210531606888420CD1E08E012809D117
:10536000206B00882168C860206B801C2063E08E61
:10537000401EE086E08E002820D101214903A06A6A
:10538000884205D1206800684910084321680860F8
:10539000002201212046069B04F08CFE002802D04A
:1053A000032092E738E12068C068A16B0880A06BF9
:1053B000801CA063E08F401EE087D7E035E000222C
:1053C00002212046069B04F075FE002801D0032030
:1053D0007BE7206B00882168C860206B801C2063FD
:1053E000E08E401EE086E08E00280AD101214903AC
:1053F000A06A884205D120680068491008432168E6
:105400000860002201212046069B04F053FE00287C
:1054100001D0032059E72068C068A16B0880A06B09
:10542000801CA063E08F401EE087E08E0028C6D17C
:1054300060680028C1D1002201212046069B04F0AB
:1054400039FE002800E00DE001D003203DE7206890
:10545000C068A16B0880A06B801CA063E08F401E19
:10546000E08783E06068002807D0FF21053160688D
:1054700088420BD1E08E012808D1216B481C2063A3
:1054800008782168C860E08E401EE086E08E002823
:105490001CD101214903A06A884205D12068006817
:1054A0004910084321680860002201212046069B1C
:1054B00004F000FE002801D0032006E72068C06841
:1054C000A16B0870E08F401EE0874FE034E00022BF
:1054D00002212046069B04F0EDFD002801D00320A8
:1054E000F3E6216B481C206308782168C860E08ED1
:1054F000401EE086E08E00280AD101214903A06AFF
:10550000884205D120680068491008432168086076
:10551000002201212046069B04F0CCFD002801D08A
:105520000320D2E62068C068C1B2A26B501CA06301
:105530001170E08F401EE087E08E0028C7D16068C0
:10554000002813D1002201212046069B04F0B2FD61
:10555000002801D00320B8E62068C068C1B2A26B61
:10556000501CA0631170E08F401EE08701214903A9
:10557000A06A884213D1002201212046069B04F034
:1055800099FD002805D0606D022108436065032065
:105590009BE62068C06881B20091684600880122BD
:1055A00080212046069B04F085FD002805D0606D13
:1055B000202108436065032087E601215120015521
:1055C0004903A06A884220D12068806810210840E1
:1055D0000009002819D0606D02210843606500BFF2
:1055E0002068006809038843216808602068006813
:1055F0000121490308432168086000BF00BF002162
:105600005020015500BF01205FE600BF002150205F
:10561000015500BF002058E6022056E6042806D1B6
:105620000649096904221143044A116105E003494E
:10563000096904229143014A1161704700E000E0CA
:105640007047000070B504462546681E0949884227
:1056500001D901200CE0681E074948610321081F99
:1056600002F032F800200449886107200861002018
:1056700070BD0000FFFFFF0000E000E010B5FFF785
:10568000DFFF10BD704770470146002200236920EC
:10569000425C6A20435C104618437047F8B50446E4
:1056A0002068C569206806682807000F00900098E8
:1056B00000280BD120202840002807D0202030408F
:1056C000002803D0204607F0E8FBF8BD2068876873
:1056D000009800287ED0F807C00F002804D1FF20D2
:1056E000213030400028F5D0E807C00F00280BD04B
:1056F000FF2001303040002806D0012021680862D8
:10570000E06E01210843E0660220284000280AD00C
:10571000F807C00F002806D0022021680862E06E5A
:1057200004210843E0660420284000280AD0F80736
:10573000C00F002806D0042021680862E06E022114
:105740000843E0660820284000280ED02020304082
:10575000002803D1F807C00F002806D008202168D0
:105760000862E06E08210843E066E06E002841D040
:1057700020202840002806D020203040002802D0D9
:10578000204607F08AFBE06E08210840002805D17A
:105790002068806840210840002826D0204607F075
:1057A0005BFB2068806840210840002819D02068F1
:1057B0008068884321688860606E00280DD0264884
:1057C000616E8863606EFDF707F9002812D0606E85
:1057D000816B00E00FE088470CE02046FFF753FFA5
:1057E00008E02046FFF74FFF04E02046FFF74BFF9D
:1057F0000020E06669E7012000052840002811D05C
:1058000001208005384000280CD0012000052168C7
:1058100008622021692001556A2001552046FFF7C2
:1058200031FF52E780202840002807D080203040F8
:10583000002803D0204607F071FD46E740202840AD
:10584000002807D040203040002803D0204607F031
:1058500014FB3AE700BF38E741CE000810B5044614
:10586000002C01D1012010BDA069002800D000E06B
:1058700000BF6920005D002805D100216820015586
:10588000204600F02DF82421692001552068006889
:105890004008400021680860606A002802D0204665
:1058A00007F01CFA204607F041FB012800D1DAE797
:1058B000206840680921C90288432168486020683F
:1058C00080682A2188432168886020680068012157
:1058D000084321680860204607F078FAC3E7000013
:1058E00010B586B0044629492068884217D1284857
:1058F000406B012189030843254948630320400286
:1059000001900220029001200390032004900420C3
:10591000059001A905200007FDF70CF933E01D49AA
:105920002068884216D11A48806B01214904084337
:10593000174988630C2001900220029001200390F7
:10594000032004900420059001A905200007FDF71D
:10595000F1F818E010492068884214D10C48806B97
:105960000121090508430A49886318200190022093
:10597000029001200390032004900620059001A9C5
:105980000648FDF7D7F806B010BD0000003801400A
:10599000001002400044004000500040000400504D
:1059A00010B503466A20C05C20286AD1002901D0C6
:1059B000002A01D1012010BD012424039868A042CF
:1059C00008D11869002805D1C807C00F002801D0E8
:1059D0000120F0E700BF6820C05C012801D102204F
:1059E000E9E701246820C45400BF59655820C25219
:1059F0005A20C25200BF24039868A0420AD11869F5
:105A0000002803D1204C5C20C45220E0FF245C20FD
:105A1000C4521CE0986800280AD11869002803D1F4
:105A2000FF245C20C45212E07F245C20C4520EE0AC
:105A3000012424079868A04209D11869002803D1DD
:105A40007F245C20C45202E03F245C20C45200BF8B
:105A50000020D86622246A20C45400BF0024682095
:105A6000C45400BF18688068012420431C68A060EB
:105A700018680068FF24213420431C68206000203F
:105A800099E7022097E70000FF010000F8B50446FF
:105A900069492068884278D16848807A0D2803D106
:105AA0000121664801739DE06448807A0A286DD11F
:105AB0006248007B00287DD00021604801730025EA
:105AC0005FA1FF38FD38FAF7E9FBA84206D10120B3
:105AD0005F4908705FA007F05BFD19E060A16548B1
