:020000040800F2
:10000000700C0020D5000008814C0008BF42000899
:1000100000000000000000000000000000000000E0
:100020000000000000000000000000002D4E00084D
:100030000000000000000000C94C0008E55D000859
:10004000E7000008E7000008E7000008E7000008F4
:10005000E7000008E7000008E7000008E7000008E4
:10006000E7000008E7000008E7000008E7000008D4
:10007000E7000008E7000008E7000008F55E000858
:10008000E7000008E7000008E700000800000000A3
:10009000E7000008E7000008E7000008E7000008A4
:1000A000E7000008E7000008E7000008A564000872
:1000B000E70000083D4D000800000000E7000008D0
:1000C0000348854600F08CFE004800479574000800
:1000D000700C00200448804704480047FEE7FEE714
:1000E000FEE7FEE7FEE7FEE7A15E0008C1000008AC
:1000F00030B50B46014600202022012409E00D46C0
:10010000D5409D4205D31D469540491B2546954047
:1001100040191546521E002DF1DC30BDF0B51FB45C
:100120000646002082B005464024019100901BE065
:10013000019922460F46304600F012FD049A059BB5
:10014000801A994110D310461946224600F0F8FC57
:10015000361A8F410197224601200021009F00F0AE
:10016000EFFC38184D4100902046641E0028DFDC6B
:10017000019B00982946324607B0F0BD03460B4369
:100180009B0703D009E008C9121F08C0042AFAD24D
:1001900003E00B780370401C491C521EF9D27047D3
:1001A000D2B201E00270401C491EFBD2704700220F
:1001B000F6E710B513460A4604461946FFF7F0FF66
:1001C000204610BD30B505462A460B4610781C78EF
:1001D000521C5B1C002801D0A042F7D0002C03D099
:1001E000002802D06D1CEFE7284630BD421C017884
:1001F000401C0029FBD1801A704730B5054600200D
:10020000034600E05B1C934205D2EC5CC85C201AFC
:1002100001D1002CF6D130BD0321001D401E037812
:1002200012021A43491EF9D51046704703460322AD
:100230000870000A491C521EFAD518467047000083
:100240000FB400B58DB009900B9010A9002000915B
:10025000C0430A9000200C9006480690064807907C
:100260006A4609A80F9900F0B5FC0DB008BC04B0AF
:1002700018470000F50B0008150C0008FFB5002713
:10028000FF4383B000205C6801909E681D46A96909
:100290007F1C049888470090296A88470028F6D177
:1002A0000098401C0CD0032040028443002E19DD2E
:1002B000600614D500982B2809D02D280FD103E013
:1002C0000020C04307B0F0BD012080020443A969AB
:1002D0007F1C04988847761E0090002E02DD00984F
:1002E000302803D00598002825D035E001204002B1
:1002F0000443A969761E7F1C049888470090002E4D
:1003000003DD782805D0582803D00598002810D0A0
:1003100022E00598002801D010281DD101204002BC
:100320008443A969761E7F1C04988847009010209A
:1003300002E0082000E00A2005900DE001214902BA
:100340000C43059A0199761E514308180190A9693A
:100350007F1C049888470090002E05DD05990098C1
:1003600000F022FC0028E9DAE96904988847A00532
:1003700002D40120C043A5E7E00722D1600611D5D1
:100380006005019800D5404229680A1D2A60096865
:10039000220501D5087014E0220701D5088010E07D
:1003A00008600EE02868011D29600068210502D55B
:1003B0000199017005E02107019901D5018000E054
:1003C000016038467EE7FFB5002083B0009050689A
:1003D000019091691446002697680498884705465D
:1003E0000C990698084305D009E0A169761C049889
:1003F00088470546216A284688470028F5D1681CA9
:1004000003D00198C00704D017E00020C04307B014
:10041000F0BD2068011D2160006800900DE001988A
:10042000C00704D1009805700098401C0090A16995
:10043000761C7F1E049888470546002F1CDD681C2B
:100440001AD0069800280FD0E817C00E40194111A5
:100450008A0006994009511840012A1A09680120AA
:1004600090400142DBD107E00C980028D7D1216AE7
:10047000284688470028D2D0E169049888470C981C
:10048000002807D1002E05DD0198C00702D1009891
:1004900000210170A068B84204DD0C98002804D047
:1004A000002F02D00120C043B1E73046AFE7F8B5D6
:1004B00002464A40D40F42004B0052085B089A4261
:1004C00002D20246084611464A0023D0C30D4A0014
:1004D000DDB2120EAD1A202D35DA49020126490A85
:1004E000F6058A19002C00D0524220214F1B1146DC
:1004F000B9402A411018C20D9A4221D0002C17D0C1
:10050000012D08DCDA05801AD20F8019D207DBB280
:1005100000F09AFBF8BDDA05801A012340001B06A3
:10052000C01880185A428018CA0F1043490007E0CB
:100530004908C2071143DA05801A8019400880185B
:1005400000F07AFBF8BD61000122511A001BF7E7A9
:100550000122D2075140AAE70122D2075040A6E764
:10056000024670B54A40D30FDB0740002DD04A0049
:100570002AD0010E140E000212020919400A520A72
:100580008418E50104465443000A120A2E0450431D
:10059000A4194219200CC543AA18120C0125AD0359
:1005A000521C521912047F39240400D0521C1043EB
:1005B00001D44000491EC2B20C06C0092018401CDC
:1005C0004008802A02D003E0002070BD40084000AF
:1005D000002900DA0020184370BD70B502464A4079
:1005E000D50F40004A00ED0740085208002814D0FB
:1005F000002A12D0C40DD30D41020120C0055202C1
:10060000490A520AE41A091812187D34914201D39A
:10061000641C00E04900002C01DA002070BD0023BA
:10062000914201D3891A0343400849000028F7D1B9
:1006300000290AD0914202D10121C90705E0914267
:1006400001D2012101E00121C943E005C018401990
:1006500000F0F2FA70BD420005D04200120E524284
:100660008A4201DB00207047C90508187047000066
:10067000F0B507460846584087B0C00F04904800C0
:100680000E46590040084908BC1A884105D2384630
:1006900031461E4617460B46024658004008104396
:1006A0004CD0300D039040055900400D490D059088
:1006B000401A0290402872DA18030121000B090544
:1006C0000843019004980092002805D001995242F5
:1006D0000020884100920190029840210A1A019955
:1006E000009800F02DFA05460C466B4607CB00F04B
:1006F00048FAC0197141039A0E0D0023D7175640CE
:100700001A467A40164344D0049A002A2DD0029A01
:10071000012A039A15DC1205C01A914101263605FB
:10072000001C7141D20F059ED207009301920296E0
:100730002A46234600F0CEFA07B0F0BD38463146CF
:10074000FAE71605224A0F46B218C01AB74101212E
:100750000905001C4F4100187F41114618187941C6
:10076000E20F10436D19644113E0E2076D08154371
:100770006408C2071443039A01261205C01A914166
:100780003605001C7141CE07400830434908C018A7
:1007900051412A46234600F090FACDE7FFE704983E
:1007A00001224000C117121A00238B4104983146E0
:1007B000C417381AA141EEE730B40124E4076340BE
:1007C00030BC55E730B40124E407614030BC4FE74A
:1007D0000000E0FFF0B51FB488B00B990998002421
:1007E00048400999C00F490049080991C0070B9971
:1007F0000090490049080B9109990898A6460843BA
:100800001CD00B990A98084318D00998012440007D
:10081000420D4800410D099824050003000B2043B8
:1008200009900B980003000B20430B9050181C49B3
:100830004018002201901446104605E000200146B1
:100840000DB0F0BD032801DA034600E003239C4607
:10085000C11A0AAE0AE05F0008ADED5B4F00F75B1E
:100860007D430027AA187C41491C5B1E6145F2DDCF
:10087000410004AB5A522104120C0A43240C401CC0
:100880000828DFDB019802900099704601910090E2
:10089000059B049A0799069800F01CFAD0E700001F
:1008A0000DFCFFFFF0B50C465C4085B0E40FE4079B
:1008B00003944C00002664085900944649080246F7
:1008C0000296224321D062460A431ED06200570D91
:1008D0004A000E032303550D012402462C4924052A
:1008E000781B1B0B360B40182343264361460090B0
:1008F0001C46501AB44103D30098401C009002E0FB
:10090000921800985B41002803DA0020014605B0E8
:10091000F0BD0020012109050746864611E0644626
:100920001D46141BB54106D36546521BB3417446A0
:1009300007430C43A646CD074008490828439218B0
:100940005B4105460D43EAD11046184313D060467B
:10095000194650407140084306D06046101AB34112
:1009600006D20122002306E000220123DB0702E079
:100970000122D2435310009874460105381C61418E
:10098000029C039D0019694100F097F9BFE7000040
:10099000FD03000070B54B005B0803430BD04B0018
:1009A0005C0D002633466542B341D417AD1AA3410E
:1009B00002DB0020014670BD12053018514170BDA8
:1009C000C217C10F504010B54018CA079623002126
:1009D00000F03AF910BD10B500229623114600F040
:1009E00033F910BD0EB505490291002100910A4668
:1009F0000B46019100F06EF903B000BD3304000016
:100A0000C20F410040020123400ADB05D207090E54
:100A1000C0187F2901DA00207047962903DC96234D
:100A2000591AC84001E096398840002AF4D0404263
:100A30007047410040020122400AD205090E801889
:100A40007F2901DA00207047962903DC9622511A8B
:100A5000C8407047963988407047000070B5CD0F88
:100A60004A0009030123090B1B0519430B4BED0732
:100A70000024520D9A4201DA002070BD074B343336
:100A80009A4203DC9A1A00F06BF802E0044951180C
:100A900088402C43F1D0404270BD0000FF030000AD
:100AA000CDFBFFFF4A0009030123090B1B05194376
:100AB000094B10B5520D9A4201DA002010BD064BC9
:100AC00034339A4203DC9A1A00F04AF810BD034905
:100AD0005118884010BD0000FF030000CDFBFFFF50
:100AE000C20FD207400040080BD0C10D0723DB0125
:100AF000C91840020905400A1143C20840071143C2
:100B00007047002001467047CB0FDB07490010B546
:100B1000490802460A4307D00A0D07240903E401E5
:100B2000090B121B002A01DC002010BDC900440F74
:100B30000C43C100E018D205801800F07DF810BD0C
:100B400010B5202A04DB0146203A9140002010BD58
:100B5000914020239C1A0346E3401943904010BD66
:100B600010B5202A04DB0846203AD040002110BDF1
:100B70000B46D340D0402024A21A91400843194686
:100B800010BD10B5202A06DBCB170846203A1041CD
:100B9000C1170B4306E00B461341D0402024A21A94
:100BA00091400843194610BD3A2800D2303820231E
:100BB00002469A43412A01D310463738884201D36E
:100BC0000020C0437047000002681378511801608C
:100BD0001846704710B5D16004495161044911624B
:100BE00000211161114600F015F910BDC90B000874
:100BF000050E00084268002A08D001680B78491CDD
:100C0000002B03D0521E06C0184670470121C16058
:100C1000881E70474268002A0BD0C3680168002B09
:100C200007D183688B4204D0491E521C06C00020A5
:100C300070470020C0437047002904DA401C490077
:100C400001D140084000704770B40024050C05D164
:100C50001024000402D1002921D01124050E01D155
:100C600000020834050F01D10001241D850F01D1B8
:100C70008000A41C002801DB4000641C002908D06F
:100C800020252E1B0D46F540A14000D0012129430F
:100C9000084301061B1B000ADB1D02D5002070BCA7
:100CA0007047DB05181880180029F8DA401C490045
:100CB000F5D170BC40084000704710B5002B08DA31
:100CC0000024401C614192185B411A4301D1400845
:100CD000400010BDF0B51FB482B005460C0003D033
:100CE000084605F039FF02E005F036FF20300246E5
:100CF000009021462846FFF723FF049B059A0446EF
:100D00000F4618431143084314D0184610431BD014
:100D1000009840210A1A18460599FFF721FF054659
:100D20000E46009A05990498FFF70AFF084305D07C
:100D3000012004E02046394607B0F0BD0020C1176D
:100D400005430E432C43374300990E986305401A20
:100D50007905E40A00220C43FD0A0A3002D500207E
:100D60000146E9E70105101969410C9C0D9D001928
:100D70006941FFF7A2FFDFE74A0009030123090BDE
:100D80001B0519430A4B10B5520D9A4202DA002096
:100D9000014610BD064B34339A4203DC9A1AFFF722
:100DA000DFFE10BD034BD218FFF7CAFE10BD0000D6
:100DB000FF030000CDFBFFFF10B5002904DB012479
:100DC000E40740428C412146002B04DB1C460123F2
:100DD000DB075242A341994200D1904210BD00006E
:100DE000064C0125064E05E0E36807CC2B430C3C7E
:100DF00098471034B442F7D3FFF766F9B07600088D
:100E0000D076000810B50F21C0B2490200F09EF95B
:100E100010BD0000F3B58DB000200A9001200B90AA
:100E2000002608460C300C46099062690121099899
:100E30009047051E2ED0252D2DD0216A88470028E9
:100E400018D06269012109989047216A88470028D3
:100E5000F7D1411E62690998904700E0761CA169AC
:100E60000D988847216A88470028F7D1E1690D98D5
:100E70008847DAE7A1690D9888470746A84201D15B
:100E8000761CD2E7E1690D9888477F1C02D10A9849
:100E9000002877D049E1002762693D463946099824
:100EA00090472A280CD162690121099890470125B1
:100EB00006E00A214F433F18303FEBD41020054392
:100EC0006269012109989047014630390A2903D205
:100ED0009B498F42DEDCECE7E90600D4994F6C2891
:100EE0000AD04C2810D0682824D06A282ED0742824
:100EF0000CD07A280AD00DE0626901210998904748
:100F00006C2823D004211CE02020054362690121C4
:100F100009989047A760656065284FD026DC58285F
:100F200039D01ADC452849D012DC252834D0412894
:100F3000B0D143E06269012109989047682802D046
:100F400008210D43E6E70120C002DEE70220DCE7CE
:100F5000462833D047282CD130E05B2870D0612858
:100F60002CD063286CD0642823D161E06F284FD047
:100F700009DC662822D0672820D0692826D06E2870
:100F800017D12EE0CDE070284DD073286FD0752892
:100F90004ED078280DD154E0A1690D9888470546B8
:100FA000252800D16CE7E1690D9888476D1C00D1B8
:100FB0006DE7BAE00A224CE00A2252E00120234603
:100FC0006A46C0430D99C046C046A3E0284640216A
:100FD00008436060A807234601D5002239E00022BB
:100FE0003FE0E80700D020E72068011D216000688D
:100FF000290501D5067018E7290701D5068014E7F1
:10100000A90703D5F117066041600EE706600CE7FB
:101010002846402108436060A807234601D50822DE
:1010200017E008221DE0484928460840606016E0A5
:101030002846402108436060A8072346BCD5B9E78D
:1010400015E02846402108436060A80707D52346DD
:1010500010220120C0430D99C046C0465AE02346E5
:1010600010220120C0430D99FFF708F952E000213A
:101070000C910B460091632802D05B2807D043E017
:10108000E80601D40120A060012000903CE06269E4
:101090000121099890475E2805D101200C90014656
:1010A0006269099890472169002906D10B4601AA77
:1010B0008F00491CD3510829FADB002835D021695B
:1010C00000290ED1C117C90E09184A11930001AAAF
:1010D0009A1849094901411A0120136888400343BD
:1010E000136062690121099890475D28E5D10C9849
:1010F000002808D0002001AB81005A58401CD24380
:101100005A500828F8DB01AB01202246C0430D9954
:10111000FFF759F900280ADA401C06D10B9800287D
:1011200003D00020C0430FB0F0BD0A98FBE7E907E9
:1011300002D10A99491C0A91361800200B9074E6D6
:10114000CCCCCC0CFFFFFF7FF1F7FFFF7F2801D94C
:10115000002207E0054B42089A5CC00700D1120943
:101160001207120F0120904008407047AD7500082B
:1011700038B50446064805490068FEF7B9FF6043E4
:1011800000E0401E00900028FBD138BD40420F0017
:10119000C4000020F8B50446006881688907890FFB
:1011A000012902D10168C90722D18168114A10269C
:1011B0001140012500290ED1816829438160012059
:1011C000FFF7D6FF01F0FAF807460CE001F0F6F859
:1011D000C01B0A2807D9A06D3043A065E06D2843E5
:1011E000E0650120F8BD20680068C043C007EDD16C
:1011F0000020F8BD17000080F8B504461B4800F039
:10120000A1F80121FFF727FAFFF76AFC184A194BEA
:10121000FFF7E0FAFFF778FC0646FFF761FC0546AA
:101220000F462A463B4614A005F072FC1848864239
:1012300001DC002018E028463946164A164BFFF715
:10124000BBFA164A164BFFF72DFB0022154BFFF792
:10125000C1FAFFF703FC0146206013A005F058FC1B
:101260002068642801DD64202060F8BD02000004CD
:10127000C7293A92CB7FF03F42617474657279203E
:10128000566F6C746167653A25660D0A00000000B0
:1012900066666640CDCCCCCCCCCC0C408CC2F5285C
:1012A0005C8FE23F00005940426174746572793A84
:1012B0002564A3A50D0A000010B5012000F042F836
:1012C000FFF70EFC044A054BFFF784FAFFF7C6FB55
:1012D000FFF776FB10BD000066666666666618401E
:1012E000FEB506460090012000030F460190002540
:1012F0006946124800F0DAFC002411E00F4800F0C3
:1013000083FE64210D4800F01FFE0C4800F018FD1C
:101310008005FAD5094800F015FD2D18641CE4B2CB
:10132000BC42EBD30648019069460096034800F0A2
:10133000BDFC39462846FEF7DBFEFEBDD00000208E
:101340000110000070B51421FFF7CAFF05461421F3
:101350001148FFF7C5FF06461048002D1BD0002E90
:1013600019D00F48008B41004018FFF73BFB0B22C0
:10137000D243FFF70FFBFFF7C7FB04463046FFF7EA
:101380002AFB06462846FFF726FB2146FFF7E8F82A
:101390003146FFF722F970BD00000244000080BF13
:1013A0006000F81F10B512481049016000210122A9
:1013B00092070164426081600522C263C1600162DC
:1013C000012241620261FF22C162C2328262016374
:1013D00041638161042281634261C16100F0B6FC16
:1013E000002801D0002010BD012010BD00240140C4
:1013F000D000002010B5012100224902014800F070
:10140000D7FF10BD00040050012300B583400348FE
:1014100000F0F8F81840C0B200BD000010FD01084F
:1014200038B5012181400A4C0091204600F0EAF8CD
:1014300000990122884300906946204600F06EF929
:10144000204600F0DFF8014602A005F061FB38BD40
:1014500010FD0108466C6167206166746572204367
:101460006C65616E3A25780D0A00000010B50849D8
:1014700000224A6107494B684C1523434B604B6877
:10148000082423434B60C009C001026010BD000066
:10149000580800200020024010B5214A0021906920
:1014A000C305204804D541690223194341619115C0
:1014B00093699B0505D54369012423434361630276
:1014C000194393695B0505D54369082423434361A8
:1014D000E301194393691B0505D54369042423439C
:1014E00043616302194393699B0405D54369102442
:1014F000234343616302194393699B0304D5446901
:1015000020231C43446119439369DB0305D54369D8
:10151000402423434361A0020143916110BD0000B8
:10152000002002405808002070B5054600F046FF34
:101530000646184C0AE0681C08D0002D04D000F0C4
:101540003DFF801BA84201D9032070BDA069C007E0
:10155000F1D1A069800701D50220A061A069C00572
:1015600011D4A06980050ED4A06940050BD4A069F0
:10157000000508D4A069800405D4A069800302D4C2
:10158000A069C00303D5FFF787FF012070BD0020CD
:1015900070BD0000002002400121C906884206D328
:1015A000054A928F120492095118814201D20020FB
:1015B00070470088704700004000F81F70B504466F
:1015C0000120C00615460E46844208D30C4A690025
:1015D000928F0919120492091018814201D9002032
:1015E00070BD002307E02046FFF7D6FF59005B1CC3
:1015F00070529BB2A41CAB42F5D3012070BD000019
:101600004000F81F0121C906884206D3054A928F7F
:10161000120492095118814201D2002070470068DB
:10162000704700004000F81F0121C906884206D318
:10163000054A928F120492095118814201D200206A
:1016400070470078704700004000F81F70B51646DC
:101650000C460546002309E02846FFF7E5FF207009
:10166000002807D05B1C641C9BB26D1CB342F3D3F3
:10167000002070BD184670BD0122D20690420AD3E8
:10168000094B9B8F1B049B099B1802468032934297
:1016900001D3430603D00020704708C808C1904218
:1016A000FBD30120704700004000F81FF8B501236C
:1016B000DB060E4698422BD3164C5500A48F2918F2
:1016C0002404A409E318994222D8C30720D1402A50
:1016D0001ED8040A2402C7B27F2F01D98034803F6C
:1016E00020468030814213D80B492046FFF7C4FFC3
:1016F00001280DD1B8080849800040182A46314613
:10170000FEF73CFD0449204600F048F8012800D0CF
:101710000020F8BD4000F81FD8070020F7B5164696
:1017200001220024D20690421DD31A4BB1009B8F98
:1017300009181B049B099A18914214D8820712D1E8
:10174000202E10D8050A2D02C7B27F2F01D980356F
:10175000803F28468030814205D80F492846FFF750
:101760008BFF012801D00020FEBD0B4AB80809E01C
:101770000199031909689B00D1500199091D641C46
:10178000A4B20191B442F3D30349284600F006F80D
:10179000FEBD00004000F81FD8070020F0B5044649
:1017A0000027012085B0C0060E46039784420AD365
:1017B0001A492546898F8035090489090818A842E5
:1017C00001D3600602D0002005B0F0BD00F00CFD92
:1017D0000120029003A900970194684600F09AFC4A
:1017E000002815D000F0D2FC01460DA005F090F9BC
:1017F00009E021460220326800F0D8FC002805D01C
:101800000DA005F085F900F0C7FCDCE7241D361DAE
:10181000AC42EED300F0C0FC0120D5E74000F81F39
:10182000455241534520464C415348204552524F62
:10183000523A2025780D0A00577269746520466C6B
:10184000617368204572726F720D0A0070B5214C89
:1018500000256088642800D165801E481E490278F2
:1018600060880A54401C80B20918608020398A7F41
:101870000D2A11D1C97F0A290ED10F280BD917A122
:101880001548FEF79FFC002805D0134962880846DA
:101890006430FEF773FC658001220E49114802F0A6
:1018A00043FC040014D00F4802F005FB0246214619
:1018B0000DA005F02DF90B4802F0A8FB002800D080
:1018C000FEE701220349074802F02EFC0028F8D168
:1018D00070BD0000C00000201007002024475052B7
:1018E0004D4300006C020020D6D8C6F4B4AEBFDA77
:1018F000D7DCCFDF3A25782C25780D0A00000000D0
:10190000F7B5B4B00E46002400F058FD329000F058
:1019100055FD3A4F0546387800285BD000F04EFD63
:101920000546364936A005F0F3F838A13348FEF7EE
:1019300049FC00280CD0214635A005F0E9F8641CCC
:10194000A4B21E2C10D864212C48FEF730FCE2E72C
:1019500064212A48FEF72BFC00F030FD3299411A31
:10196000369800688142D6D93878002830D023498B
:1019700017A803F011F859221BA96846FEF7FEFBD1
:1019800017AC0FCC00F074F828A8417A401D234C06
:10199000234D572926D0FEF73FFCFFF723F80022FE
:1019A0002B46FEF77FFF349A03C228A800795328FC
:1019B00028981ED0FFF716F800222B46FEF772FF7C
:1019C00003C600F0FBFC3299411A369801600120F1
:1019D00037B0F0BD00F0F2FC411B124881429AD9A9
:1019E0000220F5E7FEF718FCFEF7FCFF0022234675
:1019F000D7E7FEF7F7FF00222346DFE77407002052
:101A000047657420446174613A2573002C412C00B1
:101A1000636F756E743A25750D0A0000006AF8C090
:101A2000006AF840B80B000010B500F017F801226A
:101A30000249034802F078FB012010BDC0000020DD
:101A40006C02002010B501210022C903024800F0F9
:101A5000AFFC012010BD00000004005010B50122B1
:101A6000D103024800F0A4FC012010BD0004005086
:101A70000FB410B5544892B00FC80EAC0FC426A8CE
:101A80000130FEF7C9FBFEF7A6FF504C2146FEF7DA
:101A9000A4FDFFF725F80B4620A9497F02460091D7
:101AA0004BA101A805F044F801A94FA005F030F8BA
:101AB0002598FEF790FF2146FEF78FFDFFF710F8FF
:101AC0000B4620A9097E0246009149A101A805F014
:101AD0002FF801A944A005F01BF82CA80330FEF74D
:101AE0009BFBFEF76DFF4849FEF777FDFEF7F8FF19
:101AF00002460B4645A101A805F01AF801A93AA033
:101B000005F006F828A9087EC97D00020843FEF703
:101B100062FF4349FEF761FDFEF7E2FF02460B4616
:101B200040A101A805F004F801A92FA004F0F0FFDE
:101B300028A9087B03280AD880000EA90A583EA1CC
:101B400001A804F0F5FF01A927A004F0E1FF20A8F7
:101B5000C27F3CA101A804F0EBFF01A922A004F080
:101B6000D7FF10A8007C6421FEF7C2FA0A463BA109
:101B700001A804F0DDFF01A91BA004F0C9FF20A803
:101B8000007C009020A8817BC37B407B0A0202433B
:101B900038A101A804F0CCFF01A913A004F0B8FFFC
:101BA00020A8C07C009020A8837C427C38A101A89A
:101BB00004F0BEFF01A90CA004F0AAFF12B010BCF3
:101BC00008BC04B0184700007C7500080050C347EB
:101BD0004C6F6E6769747564653A252E35662025ED
:101BE000316320202000000025730D0A0000000052
:101BF0004C617469747564653A252E35662025310B
:101C0000632020200000000000002041416C746926
:101C1000747564653A252E31666D202020202000E1
:101C200000007A4453706565643A252E33666B6D07
:101C30002F68202020202000466978204D6F6465A1
:101C40003A25730056616C696420736174656C6C2D
:101C50006974653A25303264000000005669736982
:101C6000626C6520736174656C6C6974653A2530CB
:101C70003264000055544320446174653A25303481
:101C8000642F253032642F2530326420202000005C
:101C90005554432054696D653A253032643A2530F5
:101CA00032643A253032642020200000F8B5064620
:101CB0000D464036317D01290DD001213175016875
:101CC0008A68520709D5816D202211438165002061
:101CD00030750120F8BD0220F8BD174B6A68D805A1
:101CE00047109A42154C8A6A2B6812D05B035B0B33
:101CF0001A438A622968490305D5A1680143A16096
:101D00000A20FFF735FA2868800312D5A068384307
:101D10000EE05B035B0B9A438A622968490302D594
:101D2000A1688143A1602868800302D5A068B843F8
:101D3000A06000203075F8BD0110000000270140B0
:101D4000806D70470068006C7047000070B504003B
:101D500006D0A06D264600254036002802D006E0B9
:101D6000012070BDE5653575204600F0D1F8A06D05
:101D7000C00603D421688868400705D5A06D1021EE
:101D80000843A0653575EBE7A06DFF220132904353
:101D900002221043A06588688207920F5A48012AE0
:101DA00002D10A68D2072BD1032362689B079A42AB
:101DB00005D05B429A4202D05B009A4209D10A697F
:101DC000920092080A6121680A6963681A430A61ED
:101DD0000CE00A69920092080A6181680F2292045D
:101DE0009143816081686268114381602168CA689B
:101DF00018239A43CA602168CA68A3681A43CA6054
:101E0000816801225206914381608168228F5206C7
:101E10001143816020688168C90004D4816801226F
:101E20001207114381602068C168384A1140C160BF
:101E30002169E068022923D000210843216A226B2E
:101E40004903520011430843616B0843A1698903A8
:101E50000843E169C90308432168CA681043C860A0
:101E6000A06A0146FF39C23905D0E16A08432168FA
:101E7000CA681043C860606A0121012802D00BE0E3
:101E80000421DAE7206A002823D0A06D2022104325
:101E9000A065E06D0843E065206C012820681FD034
:101EA0000169C90703D00169490849000161206837
:101EB0004169C908C900416120684169E26B114369
:101EC0004161E565A06D80088000401CA065002090
:101ED00070BD2068C26801231B041A43C260DBE79F
:101EE0000269FF239B009A43026120680269636CC8
:101EF000E66C1A43A36C33431A43026120680269FB
:101F00000A430261D3E70000002701401902FEFFE7
:101F100000B500680A4985B088420ED10948416B76
:101F2000421511434163032000900190002002906C
:101F300005206946000700F075F905B000BD0000F6
:101F40000024014000100240F8B5044640692546CF
:101F500040350E4608280BD02068C068C00709D05D
:101F6000A06D20210843A065002028750120F8BD40
:101F7000082700E00C2700F021FA009011E0701C07
:101F80000FD0002E05D000F019FA0099401AB04287
:101F900007D9A06D04210843A065002028750320FF
:101FA000F8BD206800683842E9D0A06D01214902DF
:101FB0000843A0652068C16809058A0F0C21002A22
:101FC0001AD1226A002A17D10268120714D5826832
:101FD00053070122002B08DB43688B434360A06D4D
:101FE000130298431043A06506E0A06D2023184318
:101FF000A065E06D1043E065A069002801D120686C
:1020000001600020F8BD000070B504462168002082
:102010008968490721D425464035297D01291CD0EE
:1020200001212975E169012904D02046FFF7B2F8A2
:10203000002811D1A16D0A4A1140FF22013211433B
:10204000A1650021E165297522681C2111602168C4
:102050008A6804231A438A6070BD022070BD0000A4
:10206000FEF1FFFF70B500240246203251790229AB
:1020700003D00421C16301243CE001680B680E25F4
:10208000AB430B6001680B685B085B000B601A4B8D
:102090000168994201D1012121E0174B1433994283
:1020A00001D110211BE0144B2833994201D189152D
:1020B00015E0114B3C33994201D189140FE00E4BCE
:1020C0005033994202D10121090408E00A4B6433DC
:1020D000994202D10121090501E001210906064BBF
:1020E000083B59600121517100211171816B002958
:1020F00000D08847204670BD0800024031B500F08E
:102100005DF9044600F05AF90099001B8842F9D3A2
:1021100038BD0000F8B51A4E0546307C0F46012840
:1021200007D0012030741748FFF7FEF9010002D0F4
:1021300021E00220F8BD0020C04338606C6814E044
:102140002046FFF793F90F48FFF7EEF901460E48D6
:10215000426808239A434260426843159A434260AA
:10216000002901D03C6006E08034A8686A68C0019C
:102170008018A042E4D8002030740846F8BD000062
:102180005808002050C30000002002400148406968
:10219000704700005808002003484168022211439C
:1021A000416000207047000000200240F8B50C4C50
:1021B0001646207C0F46012808D0012020740948CB
:1021C000FFF7B2F90025002802D006E00220F8BD92
:1021D00065613E600348FFF7A7F92574F8BD00006C
:1021E0005808002050C300000948416889070CD5F1
:1021F0004168C90703D00749C1600749C160074961
:10220000016107490161002070470120704700000B
:1022100000200240EFCDAB8905040302BFAE9D8CC8
:1022200016151413F8B500230124A7E027469F4094
:102230003A4070D04D68022D01D0122D14D1DD0826
:10224000AD002D1800952D6A5E07AC46F50E0F26E1
:10225000AE46AE406546B543AC460E697546AE40E7
:1022600065462E43009D2E624D68012D05D0022D3E
:1022700003D0112D01D0122D16D185680326AC464E
:102280005D00AE46AE406546B543AC46CE68754689
:10229000AE4065462E43866046680D79BE43ED0626
:1022A000ED0F9D403543456006685F000325BD4046
:1022B000AE46AE430D79B446AE07B60FBE40654696
:1022C0002E430660C6687546AE438D68BD403543F3
:1022D000C5604D68ED0050D52B4D6E6B26436E6387
:1022E0009E082A4DB6007519AC46AD689E07360F9C
:1022F0000F27B740BD4305273F07B84201D100274C
:102300001AE0234FB84201D1012715E0214FB8420E
:1023100002D1022710E030E01F4FB84201D103275D
:102320000AE01E4FB84201D1042705E01C4FB84215
:1023300001D1052700E00627B7402F436546AF606F
:10234000184D2E684F689643FF0300D516432E6044
:102350006E684F689643BF0300D516436E60AE6843
:102360004F689643FF0200D51643AE60EE684F6893
:102370009643BF0200D51643EE605B1C0A68154603
:10238000DD4000D052E7F8BD0010024000000140DF
:102390000004005000080050000C005000100050D5
:1023A000001C00500004014042694A4042617047ED
:1023B000002A01D08161704781627047014800683E
:1023C00070470000C800002070B5024640325378C4
:1023D000202B1CD11378012B19D001231370242436
:1023E0005470046825689D432560046825681E03B1
:1023F000B5432560046825680D43256000680168C1
:1024000019430160202050700020107070BD022020
:1024100070BD70B5024640325378202B1BD1137823
:10242000012B18D0012414702423537003681D68F5
:10243000A5431D6005682B680F263602B3430902C9
:102440001943296000680168214301602020507011
:102450000020107070BD022070BD000070B5040037
:1024600006D02546403568780026002802D005E0D1
:10247000012070BD2E70204600F010FA24206870F4
:10248000206801684908490001600F216068090659
:1024900088432168086121688A680120C00382435B
:1024A0008A60E1680129A16808D0212292021143C3
:1024B00022689160E168022902D005E00143F7E754
:1024C00001212268C902516021684A680F4B1A43F2
:1024D0004A602168CA688243CA606169206908430A
:1024E000A169090208432168C860216AE0690843BC
:1024F0002168086020680168012211430160666458
:10250000202068702663AE70002070BD008000023D
:10251000FFB5054604464035687881B020287DD156
:10252000287801287AD001202870FFF747FF074656
:10253000012200901923D103204601F057FF002803
:102540003ED1222068701020A8700026666403988F
:102550006062049860856663618D3148FF2903D904
:10256000FF222285009034E0618D2185009036E0C5
:102570002046029901F026FF36E001F05BFF0028BB
:1025800003D0606C042847D01AE02068416A606A72
:10259000421C62620170208D401E80B22085618DD8
:1025A000491E618500281FD1608D00281CD000972E
:1025B0000022802120460A9B01F018FF002802D04B
:1025C000032005B0F0BD608DFF2805D9FF222285CC
:1025D000009601231B06CBE7608D20850096208D99
:1025E0000123C2B25B06C3E7608D0A9900283A4610
:1025F0002046C2D101F05AFF0028C2D12168202014
:10260000C86121684A68074B1A404A606870AE701A
:102610002E700020D5E701E00120D2E70220D0E7AC
:102620000024008000E800FEFFB505460446403562
:10263000687881B020287DD1287801287AD00120BF
:102640002870FFF7BBFE0746012200901923D10333
:10265000204601F0CBFE00283ED1212068701020DA
:10266000A8700026666403986062049860856663BB
:10267000618D3148FF2903D9FF222285009034E083
:10268000618D2185009036E02046029901F09AFE86
:1026900036E001F032FF002803D0606C042847D0F8
:1026A0001AE0606A411C6162017820688162608D75
:1026B000401E6085208D401E0004000C20851FD127
:1026C000608D00281CD000970022802120460A9BA4
:1026D00001F08CFE002802D0032005B0F0BD608D13
:1026E000FF2805D9FF222285009601231B06CBE790
:1026F000608D20850096208D0123C2B25B06C3E762
:10270000608D0A9900283A462046C2D101F0CEFEDB
:102710000028C2D121682020C86121684A68074B7F
:102720001A404A606870AE702E700020D5E701E054
:102730000120D2E70220D0E70020008000E800FE60
:10274000FFB5054604464035687883B0202872D12D
:102750000C98002870D00D9800286DD0287801289A
:1027600069D001202870FFF729FE0746012200905A
:102770001923D103204601F039FE002875D122200B
:1027800068704020A870002666640C9860620D98FE
:10279000608566630E980090019704A90EC92046D3
:1027A00001F0DAFD002804D0606C2E7004285FD0A0
:1027B0005BE0618D3748FF2905D9FF22228501237F
:1027C0001B06009006E0618D21850090208D01237D
:1027D000C2B25B062046049901F0F4FD0097002286
:1027E000042120460E9B01F001FE00283DD1206807
:1027F000416A606A421C62620170208D401E81B293
:102800002185608D401E6085002921D1608D0028C2
:102810001ED000970022802120460E9B01F0E6FD8D
:10282000002822D1608DFF2807D9FF2222850123AD
:102830001B06009608E02AE01AE0608D20850096CD
:10284000208D0123C2B25B062046049901F0BAFD37
:10285000608D0028C2D13A4620460E9901F026FE2E
:10286000002807D0606C042802D0032007B0F0BD18
:102870000120FBE721682020C86121684A68064BD7
:102880001A404A606870AE702E700020EEE7022099
:10289000ECE700000024008000E800FE00B50068BE
:1028A0000D4985B0884214D10320400300901220C6
:1028B00001900120029003200390052004906946B6
:1028C0000648FFF7AFFC0648816B012292051143D1
:1028D000816305B000BD00000058004000040050B6
:1028E0000010024070B504000FD021681348086042
:1028F00021681348086003CC41602068083C2168C7
:102900008860FFF75BFD054608E0012070BDFFF71A
:1029100055FD401B302801D9032070BD2068C068D8
:102920000028F4D120680269E1688A4201D001617F
:1029300001E004490160002070BD0000CCCC000023
:1029400055550000AAAA0000006802490160002055
:1029500070470000AAAA000002480168491C0160F3
:1029600070470000C800002010B5064801684022EA
:1029700011430160002000F007F800F019F8002072
:1029800010BD00000020024010B5044607487D211C
:10299000C9000068FDF7ACFB01F0E8F80022214611
:1029A000501E00F035F8002010BD0000C4000020CB
:1029B00010B50C48416B012211434163816B020445
:1029C0001143816300221146501F00F021F80022BC
:1029D0001146901E00F01CF800221146501E00F017
:1029E00017F810BD00100240C106C90E0120884032
:1029F000014908607047000080E100E0C106C90E8F
:102A000001208840014908607047000000E100E0B3
:102A100010B502F037F910BDBFF34F8F04490348DA
:102A2000C860BFF34F8F00BFFDE700000400FA0548
:102A300000ED00E002480168821511430160704713
:102A400000700040F8B56649074601250020ED03F7
:102A5000624B634A4031102F6FD011DC012F77D0C9
:102A6000022F6CD0042F6BD0082F24D1C968032407
:102A7000240321407BD0BD026C10A9427CD0A0E091
:102A80000326584C3604202F0BD0402F35D0FF3F63
:102A9000012F10D1C968314069D07C04A1426BD0AC
:102AA00096E00B690969012731403F04B94203D11F
:102AB000990559E02846F8BD01256D04A94203D1C6
:102AC0009907F8D54848F8BDB142FCD1116889038F
:102AD000F9D5116803200005014001200005091AFD
:102AE00009D0091A05D0814201D14048F8BD2046DD
:102AF000F8BD3F48F8BD3F48F8BDC9680125AD069F
:102B0000294006D0A942F7D191688907F4D53A48FF
:102B1000F8BD11688901FBD5D068D1688002374DB6
:102B2000000F2D5C0802810FD068491CC0030AD435
:102B30001068C00605D5204606E045E008E023E021
:102B400030E0184600E02E486843FDF7D1FAF8BDA2
:102B5000CC68A407A40F0CD0022C0DD0012C10D0EF
:102B6000032CF4D1096989050029A3DBF8BD16E01F
:102B700002E000F0D7F9F9E711684907F6D51846E1
:102B8000F4E700F0DFF9F1E7CC680C26344006D01A
:102B9000082CF1D0042CF4D00C2CE3D0E6E700F0A4
:102BA000B1F9E3E7CC680326B6023440F7D0012739
:102BB000FF02BC42E0D07A109442E2D0B442D1D0BD
:102BC000D4E7A142DDD0D1E7916B4902E7D4CDE74C
:102BD000012212049142D4D0C8E700000024F4007E
:102BE0000010024000093D008890000020A107006D
:102BF00040420F0080841E00006CDC029C750008BF
:102C000000127A00F8B5044600785E4D800672D551
:102C10005C4E0027403EB06BC00004D4B06BA905E9
:102C20000843B063012758480168C90511D40168F9
:102C3000821511430160FFF7C1FB009005E0FFF72B
:102C4000BDFB0099401A642837D84F480068C0057A
:102C5000F5D532680321090560680A4001409142B8
:102C600008D08103890F032904D13168890301D574
:102C70000120F8BD2A69032109040A4022D0084036
:102C800090421FD0207880061CD528692A69884385
:102C90000121C9040A432A612A698A432A612861F9
:102CA000C0050FD5FFF78AFB009008E0FFF786FB11
:102CB0000099411A3548814201D90320F8BD28699D
:102CC0008005F3D561688803800F032805D1326839
:102CD0000005824301400A4332602869032261688B
:102CE0001204114008432861002F04D0B06B012169
:102CF00009078843B0632078C00705D0E868A16859
:102D0000800880000843E8602078800705D5E868DF
:102D10000C218843E1680843E8602078400706D525
:102D2000E86803218902884321690843E860207824
:102D3000000706D5E8680321090388436169084351
:102D4000E8602088C00506D5E868032109048843A7
:102D5000A1690843E8602078400606D5E8680121AB
:102D600089068843216A0843E8602078000606D572
:102D7000E868032189048843E1690843E86000208A
:102D8000F8BD0000401002400070004088130000B1
:102D9000F8B5054653480E460068C007C00FB0425C
:102DA0000AD250480168490849003143016000686F
:102DB000C007C00FB0426FD128784B4C800705D5B3
:102DC000E068F0218843A9680843E0602878C007DC
:102DD00052D06868022817D0032818D0216801282B
:102DE00018D08905002957DAE1688908890001436C
:102DF000E160FFF7E3FA69680746022912D0032968
:102E00001CD0012926D033E021688903EAE7216834
:102E10008901E7E74907E5E7FFF7D0FAC11B334827
:102E2000814223D8E0680007800F0228F4D123E014
:102E3000FFF7C4FAC11B2D48814217D8E06800078C
:102E4000800F0328F4D117E0FFF7B8FAC11B274819
:102E500081420BD8E0680007800F0128F4D10BE015
:102E6000FFF7ACFAC11B2148814201D90320F8BD0C
:102E7000E0680007800FF3D11A480168C907C90F3D
:102E8000B1420BD90168490849003143016000682B
:102E9000C007C00FB04201D00120F8BD287840071C
:102EA00006D5E068072109028843E9680843E06025
:102EB0002878000707D5E0680721C90288432969F7
:102EC000C9000843E06000F03DF8E168084A0906DF
:102ED000090F515CC840074908600020FFF754FD06
:102EE0000020F8BD002002400010024088130000BE
:102EF0008C750008C400002001480068704700007D
:102F0000C4000020044805490068C968044A49050E
:102F1000490F515CC8407047C400002000100240B7
:102F2000A5750008044805490068C968044A890471
:102F3000490F515CC8407047C40000200010024097
:102F4000A575000810B5184AD1680C20084004285F
:102F50000BD0082810D00C2810D050680004410F66
:102F60000120C003491C884010BD1068C00601D56F
:102F70000E4810BD0E4810BD0E4810BD88020E4B05
:102F8000000F185C0902D368890F491CDB0301D5C7
:102F9000084A05E01268D20601D5044A00E0044A56
:102FA0005043FDF7A5F810BD0010024000093D0098
:102FB0000024F40000127A009C750008F8B504465D
:102FC0000078FE4DC0074AD0E8680007800F02284D
:102FD00007D0E8680007800F032809D1E868C0031C
:102FE00006D5286880033AD56068002873D036E09B
:102FF000012062680004824203D1296801432960EC
:1030000011E0052301211B0489049A422A6802D198
:103010000A432A60F1E782432A602A68024000924C
:10302000286888432860606800280CD0FFF7C6F93C
:10303000064604E0FFF7C2F9801B64287ED82868A2
:103040008003F7D50BE0FFF7B9F9064604E0FFF778
:10305000B5F9801B6428F1D828688003F7D420785C
:10306000800741D5E8681F270007800F3F0201282D
:1030700007D0E8680007800F032809D1E868C0037B
:1030800006D42868400717D5E068012823D113E04B
:10309000E068002817D0296809229143014329607C
:1030A000FFF78CF9064604E0FFF788F9801B022839
:1030B000C4D828684007F7D568682169B843090271
:1030C0000843686010E02868400840002860FFF767
:1030D00075F9064605E095E0FFF770F9801B0228B8
:1030E000ACD828684007F7D42078C00672D5E868C5
:1030F000B34E0007800F0AD0E06900282868B14964
:103100005AD008432860FFF759F9074644E0286879
:10311000800502D5E069002874D0606A6968314092
:10312000884212D901F0D2FD0028AFD16868616AE7
:10313000B043084368606868000200E0DCE0218C6E
:10314000000A0906084368600FE06968B14301435B
:1031500069606868218C0002000A090608436860FB
:10316000606A01F0B3FD002890D1606A410B012034
:10317000C003491C8840E96809060A0F9249895C26
:10318000C840924908600020FFF7FEFB22E0FFF7ED
:1031900015F9C01B02288BD828688005F7D5686808
:1031A000616AB043084368606868218C0002000AC5
:1031B0000906084368600DE088432860FFF7FEF8C1
:1031C000064604E0FFF7FAF8801B022888D8286832
:1031D0008005F7D420787E4E000723D5606900284B
:1031E000306910D0012108433061FFF7E7F8074646
:1031F00004E0FFF7E3F8C01B02287DD830698007A0
:10320000F7D50FE001E1400840003061FFF7D6F844
:10321000074604E0FFF7D2F8C01B02286CD83069DB
:103220008007F7D42078400760D5A86B0027C0003E
:1032300005D4A86B012109070843A8630127654845
:103240000168C90511D40168821511430160FFF7B7
:10325000B5F8009005E0FFF7B1F80099401A64282E
:103260004AD85C480068C005F5D55648A268824235
:1032700003D131690143316111E001218902002A42
:1032800007D005231B029A4203D132690A433261F7
:10329000EFE7326982433261306988433061A06868
:1032A00000280ED0FFF78AF8009006E0FFF786F8B6
:1032B0000099411A484881421ED830698005F5D5E9
:1032C0000DE0FFF77BF8009006E0FFF777F8009934
:1032D000411A414881420FD830698005F5D4002F4A
:1032E00004D0A96B012000078143A96320788006E0
:1032F00030D53A48421400E080E0A169002916D098
:10330000AB6801210B43AB606B6B0B436B63016AD2
:1033100011430162FFF752F8064604E0FFF74EF84A
:10332000801B02286AD8A8688007F7D512E0A96830
:1033300049084900A960016A91430162FFF73EF81C
:10334000064604E0FFF73AF8801B022856D8A86822
:103350008007F7D4A06A002855D0E9680907890FCB
:10336000032952D0012636060228286805D0B0432A
:103370002860FFF723F8044642E0B0432860FFF7D7
:103380001DF8074604E0FFF719F8C01B022835D8DE
:1033900028688001F7D4216BE06AEA680843616B12
:1033A000FD231B049A4311430843E8602868304317
:1033B0002860FFF703F8044617E000000010024001
:1033C00000E00000000100008C750008C40000202F
:1033D00040100240007000408813000000000140CF
:1033E000FEF7ECFF001B022808D828688001F7D5FB
:1033F00009E0FEF7E3FF001B022801D90320F8BD16
:1034000028688001F5D40020F8BD0120F8BD0068CF
:1034100089005030081800687047006889005030F3
:1034200008180260704710B500680B464068C0215C
:10343000C94301400002000ECC04D870E40E5C7059
:103440008C06A40E0904490F9C701970002A0AD139
:1034500001F07CFCD870587801F078FC58709878AE
:1034600001F074FC9870002010BD000030B50B46D0
:103470000168896A5960016809694904490C9960C1
:10348000006804680F482146014088024D04800E00
:1034900018706D0E49065D70490E99706102490EF3
:1034A00040242140D970002A0AD101F04FFC187045
:1034B000587801F04BFC5870987801F047FC9870F0
:1034C000002030BD7F7F7F0070B5040005D0254609
:1034D00020356878002802D006E0012070BD002069
:1034E0002870204600F042F8022068702168CA2047
:1034F0004862216853204862204601F03AFCFF21CF
:103500000028206803D0416204206870E5E78268E3
:10351000154B1A408260226890686368A669184358
:1035200023693343184390602268E0681061206883
:10353000026923891B041A4302612068C268802340
:103540009A43C2602068C26C92089200C264E26929
:10355000606902432068C36C1A43C26420684162F8
:1035600001206870002070BDBFFF8FFF0068054913
:10357000884205D104480169012292041143016186
:10358000704700000028004040100240FEB506468B
:103590000446203630780B46012841D00120307097
:1035A0000220707020681D46002720358068002AA0
:1035B00038D0400654D5187801F0C8FB287801F0BF
:1035C000C5FB19789878090408435978DA78090214
:1035D000120411430843297809060843D9690843AE
:1035E000596905460D439969586808430090216858
:1035F000CA204862216853204862586AC11F206867
:10360000F9392FD0816801225202914381602068EC
:103610008168120191438160FEF7D0FE019056E06F
:103620000220FEBD400600D4DF70187801F096FB42
:103630000204587801F092FB00020243987801F0EE
:103640008DFB0243D87800040243287801F086FB02
:1036500000060243D8690243586902431546C2E78F
:10366000DF70ABE78268FF2101318A438260206806
:1036700081680122120391438160FEF79FFE019051
:1036800008E0FEF79BFE01460198091A7D20C00064
:10369000814215D82068C068C007F2D02068C56193
:1036A00021680098486420688168FF2201321BE08D
:1036B000FEF784FE0199411A7D20C000814206D99F
:1036C0002168FF204862032070703770FEBD2068BB
:1036D000C0688007ECD5206805622168009888647E
:1036E0002068816801225202114381602168FF2015
:1036F00048620120707037700020FEBDFEB506469E
:103700000446203630780B46012842D00120307024
:103710000220707020681D46002720358068002A2E
:1037200039D0400655D5187801F010FB287801F003
:103730000DFB19789878090408435978DA7809025A
:10374000120411430843297809060843D96908433C
:1037500059690843054699695868084300902168EB
:10376000CA204862216853204862FF205A6A01300B
:10377000802182424AD12268936883439360226801
:10378000D0680840FF388238D060FEF717FE0190FD
:1037900029E00220FEBD400600D4DF70187801F059
:1037A000DDFA0204587801F0D9FA00020243987851
:1037B00001F0D4FA0243D87800040243287801F0DB
:1037C000CDFA00060243D869024358690243154600
:1037D000C1E7DF70AAE7FEF7F1FD0199411A7D20EC
:1037E000C00081422AD82068C068C007F3D0206892
:1037F000C56121680098486420688168FF22013211
:103800001143816020688168120130E0206882687D
:1038100001235B029A4382602068C2680A401D4906
:103820005118C160FEF7CAFD01900EE0FEF7C6FD1B
:103830000199411A7D20C000814206D92168FF20EC
:103840004862032070703770FEBD2068C068800732
:10385000ECD520680562216800988864206881683A
:1038600001225202114381602068816812011143D4
:10387000816009480268012149040A4302608268A4
:103880000A4382602168FF2048620120707037700F
:103890000020FEBD7FFDFFFF00040140F8B5054696
:1038A0000446203528780B46012815D001202870C1
:1038B000022068705878002A10D001F047FA9878F2
:1038C00001F044FAD8789E780004064358781978B5
:1038D00000024903084316E00220F8BDC10603D5E3
:1038E000EF2108400A305870D87801F037FA060402
:1038F000587801F033FA00020643987801F02EFA66
:1039000006431878400306432168CA2048622168AC
:1039100053204862204601F02CFA0027002811D1DC
:1039200010480640206846602068C16880229143A4
:10393000C1602068806880060CD4204600F08CF8B6
:10394000002807D02168FF204862042068702F708B
:103950000120F8BD2168FF204862012068702F70A7
:103960000020F8BD3FFFFF00F8B5064604462036AC
:1039700030780D4601280ED0012030700220707082
:10398000206800278068002A07D040061AD52878CA
:1039900001F0DCF917E00220F8BD400600D4EF701A
:1039A000287801F0DBF90204687801F0D7F9000209
:1039B0000243A87801F0D2F90243E87800040243F8
:1039C00000920BE0EF702978A87809040843697821
:1039D000EA78090212041143084300902168CA20C2
:1039E0004862216853204862204601F0C2F900284D
:1039F0001FD1184900980840216808602068816834
:103A000001229204914381602969E8680843216892
:103A10008A68104388602068C16880229143C16031
:103A20002068806880060CD4204600F015F8002835
:103A300007D02168FF204862042070703770012091
:103A4000F8BD2168FF2048620120707037700020A7
:103A5000F8BD00007F7F7F0070B504460068C16834
:103A6000A0229143C160FEF7A9FC7D260546F60021
:103A700006E0FEF7A3FC401BB04201D9032070BD55
:103A80002068C0688006F4D5002070BD70B50400C1
:103A900006D025464035687C0026002802D005E087
:103AA000012070BD2E74204600F032F802206874A8
:103AB00020680168402291430160A1686068226922
:103AC0000843E16811430843616901220843A16981
:103AD000520211400843E1690843216A0843A16A80
:103AE000084321680860A0690421000C0840616A4D
:103AF0000843216848602168E06A08612068C1695C
:103B000092009143C161666501206874002070BD18
:103B100000B500680C4985B0884212D10B48416B52
:103B2000821411434163E0200090022001900021A3
:103B30000320039002910491052069460007FEF7D7
:103B400071FB05B000BD00000030014000100240D4
:103B5000042204490428086902D090430861704790
:103B60001043FBE700E000E070470000094910B592
:103B7000401E884201D9012010BD074C606103211D
:103B8000081F01F07FF80020A061072020610020BD
:103B900010BD0000FFFFFF0000E000E010B5FFF7E0
:103BA000E3FF10BD70B502462032137D012B1BD000
:103BB0000123137502245475046865687026B543A3
:103BC0006560046865680E68354365600468A568CB
:103BD0008026B543A5600068846849680C4384600A
:103BE00053750020107570BD022070BD70B50400C3
:103BF00005D025462035687D002802D006E001204A
:103C000070BD00202875204600F00AF80220687573
:103C1000211D206802F076F901206875002070BD32
:103C200010B500680121890788420CD10648816BD4
:103C3000012211438163002201210F20FEF7E8FEDB
:103C40000F20FEF7DBFE10BD001002400268D368B3
:103C500001210B43D360006802680A430260002020
:103C60007047F8B5054604462035287D012817D051
:103C700001272F7502206875226890687726FF2338
:103C8000B0431B02984390600868502837D00EDC80
:103C9000202857D006DC00284ED0102840D14EE016
:103CA0000220F8BD302850D0402839D13CE06028AF
:103CB0002DD0702817D001221203801A0ED0904206
:103CC0002ED1CB684A688968206802F04BF92068D9
:103CD0008168012292031143816021E0206881689C
:103CE000C908C900F8E7CB684A688968206802F00B
:103CF00039F921688868B0433043886010E0CA68A9
:103D00004968206802F041F95021206806E0CA683D
:103D10004968206802F04AF96021206802F02DF914
:103D20006F7500202875F8BDCA684968206802F0E0
:103D30002CF940212068F1E700212068EEE71021EE
:103D40002068EBE720212068E8E730212068E5E7DC
:103D5000704770B50446006801690025C9438907AA
:103D6000002915DBC168C943890711D4E91E016127
:103D700001202075206880698007204602D0FFF767
:103D8000E7FF04E000F078F8204600F076F82575AB
:103D900020680169C943490717D4C168C943490765
:103DA00013D40421C9430161022020752068806971
:103DB0008005800F204602D0FFF7CAFF04E000F024
:103DC0005BF8204600F059F8257520680169C94361
:103DD000090716D4C168C943090712D40821C94389
:103DE0000161042020752068C0698007204602D048
:103DF000FFF7AEFF04E000F03FF8204600F03DF88A
:103E0000257520680169C943C90617D4C168C9432B
:103E1000C90613D41021C943016108202075206808
:103E2000C0698005800F204602D0FFF791FF04E0B3
:103E300000F022F8204600F020F82575206801697E
:103E4000C943C90708D1C168C943C90704D1891E3C
:103E50000161204600F012F820680169C943490653
:103E600009D4C168C943490605D44021C943016149
:103E7000204600F01DF870BD70477047094910B525
:103E800081420DD1084C2068401C2060142804D1C8
:103E90000648FEF759FD00202060322000F066FB46
:103EA00010BD000058030020000000207C0100200D
:103EB000704770477047C06E704701466031487A5E
:103EC000897A084370470000F8B502680446D06953
:103ED00011680607360F07D1830605D58B0603D573
:103EE000204602F024F9F8BD95682023002E65D005
:103EF000EE07F60FFF2721370F4037435ED0C70785
:103F000006D0CF0504D501271762E26E3A43E26678
:103F1000820708D5EA0706D0276802223A62E26ED5
:103F200004273A43E266420708D5EA0706D0256827
:103F300004222A62E26E02252A43E266020709D5BC
:103F40000A461A40324305D0236808221A62E36EFB
:103F50001343E366E26E002AC5D0800604D58806C6
:103F600002D5204602F0E3F8E06E000703D4206893
:103F7000806840061CD5204602F0CAF82068816897
:103F8000490611D5826840218A438260606E00280C
:103F90000AD01D498163606EFEF764F80028A2D044
:103FA000606E816B8847F8BD2046FFF783FFF8BD40
:103FB0002046FFF77FFF0020E066F8BD2646C702D7
:103FC0006036002F0ADA6D0208D501200005106264
:103FD0007372B3722046FFF76CFFF8BD050605D576
:103FE0000D0603D5204602F0F9F9F8BD4006FCD5D0
:103FF0004806FAD52046146840218C431460737239
:1040000000F05CF9F8BD0000FD60000870B5040028
:1040100005D025466035687A002802D006E00120E8
:1040200070BD00202872204600F026F82420687217
:1040300020680168490849000160606A002802D0D0
:10404000204601F0C6FF204602F0B0F80128E7D074
:10405000206841680922D20291434160206881684A
:104060002A22914381602068016801221143016086
:10407000204602F013F870BDF0B50668254800220E
:10408000254902230324042585B0864213D1886B79
:104090005E0430438863A0020090019302AE34C6F0
:1040A00069461E48FEF7BEF8002211461D20FEF7A5
:1040B000AFFC1D2018E01A4F05200007BE4217D1A3
:1040C0004E6B0127BF033E434E630321490200911B
:1040D000019302AE34C66946FEF7A4F800221146E9
:1040E0001B20FEF795FC1B20FEF788FC05B0F0BDF9
:1040F0000C4FBE42FAD18E6B01277F043E438E6384
:104100000C210091019302AE34C66946FEF78AF88D
:10411000ECE700000048004000100240000400509E
:104120000038014000440040F0B5034660339C7AFB
:10413000202C44D100290BD0002A09D00125846805
:104140002D03AC4206D10669002E03D1CE0701D063
:104150000120F0BD1E7A012E31D001261E7241656C
:10416000014640310A834A83FF27AC4204D10269E9
:10417000002A12D1134A0EE07F22002C08D001251C
:104180002D07AC420AD10469002C04D03F2202E082
:104190000469002C01D08A8300E08F830021C1666E
:1041A00022229A72197201688A6832438A60006812
:1041B0000168FF222132114301600020F0BD02207E
:1041C000F0BD0000FF010000074910B5884204D08F
:1041D0000649884202D101F0F5FA10BD044988422F
:1041E000FBD1FDF733FB10BDFC0100208C0100204A
:1041F0006C020020FFB5064604466036707A83B034
:104200000D46202858D1002D0CD00598002809D043
:104210000120A1680003814207D12069002804D150
:10422000E80702D0012007B0F0BD307A012843D062
:10423000012030720020E06621207072FEF7BEF887
:10424000019027464037059838820598788218E013
:10425000788A401E788206980090002280212046AD
:10426000019B02F0EEF8002818D10120A16800039C
:10427000814202D12069002812D021682878886202
:104280006D1C788A0028E3D1069800900022402116
:104290002046019B02F0D5F8002808D00320C2E791
:1042A00028882168C005C00D8862AD1CE9E7202080
:1042B000707200203072B6E70220B4E77047FEE764
:1042C00001688A69D243920701D400228A62006899
:1042D0008169C943C90703D0816901221143816102
:1042E00070470000F7B5044600680E468069C04379
:1042F000C0062CD420272546403520688069C0435D
:1043000080060FD5701CF8D0002E05D0FEF756F8A9
:104310000299401AB042F0D96F700020A87028703E
:104320000320FEBD21681020C8612068C7612046B7
:10433000FFF7C6FF20684168064A1140416004202B
:1043400060646F700020A87028700120FEBD0020FE
:10435000FEBD000000E800FEF8B504461646184809
:104360001D46DAB20090079F0023204600F02AF88D
:104370003A462046069900F0C0F8002803D0606C49
:1043800004281BD018E02846F5B2012809D021687E
:10439000300A88623A462046069900F0AEF80028B6
:1043A000EDD1206885620097002240212046069BBF
:1043B00000F01CF8002800D00320F8BD0120F8BD53
:1043C00000200080F0B50668059C7568064F600DFA
:1043D000384385438805800D110408431843204362
:1043E00005437560F0BD0000FF63FF03F8B51C4690
:1043F00017460E46054611E0601C0FD0002C05D074
:10440000FDF7DCFF0699401AA04207D9202040356D
:1044100068700020A87028700320F8BD28688169A2
:104420003046884304D00020B842E5D00020F8BDD3
:104430000120F9E7F7B50027202605460446403558
:104440002AE02046029A0199FFF74CFF002801D08C
:104450000120FEBD20688069C04380060BD420681F
:10446000C66120684168104A1140416067646E70FF
:10447000AF702F70ECE70198002806D0FDF79EFF83
:104480000299411A0198814206D9606C30436064F8
:104490006E702F700320FEBD20688069C043400706
:1044A000CFD40020FEBD000000E800FE70B5164627
:1044B0000D4604461AE0324629462046FFF712FF11
:1044C000002801D0012070BD002D04D0FDF776FF3B
:1044D000801BA8420AD9616C2020014361644034EA
:1044E00060700020A0702070032070BD206880697B
:1044F000C0438006DFD4002070BD70B516460D465F
:1045000004461CE0324629462046FFF7EBFE002811
:1045100001D0012070BD681C11D0002D04D0FDF722
:104520004DFF801BA8420AD9616C202001436164C1
:10453000403460700020A0702070032070BD20689F
:104540008069C0438007DDD4002070BD0149087038
:1045500070470000BC00002010B50121052000229A
:10456000C9020007FDF724FF10BD0000F8B5254C77
:10457000064660880027401C85B2658020780328A5
:104580000ED07D22D200012817D002281AD004288C
:1045900025D0052833D0002813D100F037F80FE0DC
:1045A00031461948FBF7A4FDA8420AD10122052093
:1045B000D1020007FDF7FCFE02E03146104603E0A1
:1045C0006780F8BD3146C820FBF792FDA842F8D1BC
:1045D00001210520C9020007FDF7E6FEF0E730469D
:1045E0006843904202DA00F011F8F8BDFFF7B4FF1B
:1045F000608846434B2000018642E1DCF8BD31462D
:104600003220E1E7BC000020B80B000010B5012209
:104610000520D1020007FDF7CBFE10BDF0B53A48EA
:1046200087B0C16A04221143C162C16A1140059179
:10463000C26A80210A43C262C26A0A400592C16A04
:1046400001252943C162C16A29400591C16A022638
:104650003143C162C06A0022304005902B492C488A
:10466000FDF7A6FE09210520002209020007FDF73B
:104670009FFE680303270024009069460197029477
:104680002448FDF7CFFD2448009005206946019796
:1046900002940007FDF7C6FD392000906946019796
:1046A00002941B48FDF7BEFD1C4800900294694629
:1046B000019503941648FDF7B5FD042000901848B5
:1046C0000190694602941248FDF7ACFD09200002F2
:1046D0000090052002946946019503940007FDF7B8
:1046E000A1FDFF20C1300090019469460294084862
:1046F000FDF798FD68026A46039461C26946044862
:10470000FDF790FD07B0F0BD0010024002920000DE
:10471000000400500008005010F00000029000005B
:104720000000111010B51248104901601149416094
:10473000002181600161416181610122C161C2602A
:104740000162FDF78BFE002800D0FEE7002108483B
:10475000FDF73AFE002800D0FEE700210448FDF7EF
:1047600058FE002800D0FEE710BD000000580040B1
:1047700030010020BB7C700010B50B480949016076
:104780004B21C901416000218160C16001618161EB
:104790000C22016242614162FFF738FC002800D020
:1047A000FEE710BD004800408C01002070B52B4D85
:1047B00090B02948286000212846FEF728FE284EA0
:1047C000B04247D000247F206C60A8602C616C61EF
:1047D000AC61FF20EC61E8602846FEF775FE00281A
:1047E00000D0FEE768460470447084700394012290
:1047F00069461A480494FFF7B7F8002800D0FEE78E
:1048000001256846057545758575C4752A4605A94F
:104810001248FFF743F8002800D0FEE76846047608
:1048200044768476079409940A940B940C9408A80F
:104830000D940576FF2001300F90012206A907484C
:10484000FEF7A4FE002800D0FEE732460021034810
:10485000FEF7E3FD10B070BD00280040DC02002030
:10486000F232000010B50E480C490160FF210531FD
:10487000416000218160C16001614161C16101222B
:10488000016252024162826181620721C162FFF7C7
:10489000FDF8002800D0FEE710BD00000030014008
:1048A0000003002010B50121124886B0890701607D
:1048B000002411498460416049110461C160FFF71F
:1048C00095F9002800D0FEE701200003009069461A
:1048D0000848FFF7C6F9002800D0FEE7049404A9B1
:1048E00004480594FFF75EF9002800D0FEE706B003
:1048F00010BD000058030020FF7C000010B50C48DC
:104900000A490160E1214902416000218160C160E2
:1049100001618161C1610C22016242614162FFF764
:1049200075FB002800D0FEE710BD000000380140F4
:10493000FC01002010B50C480A4901604B21C90157
:10494000416000218160C16001618161C1610C220F
:10495000016242614162FFF759FB002800D0FEE787
:1049600010BD0000004400406C02002003460DE032
:1049700002782A2A03D0202A01D37A2A01D9FF20DB
:1049800070472C2A01D1491EC9B2401C0029EFD121
:10499000C01AC0B270470000F0B50A46044687B09E
:1049A0007BA11046FBF70EFC06460121FFF7DEFF58
:1049B000254640350746FF281BD06846017C0A2063
:1049C00000F0EEF80090F01904A900F0F3F8009957
:1049D000FBF78EFB07467049FBF78AFB6870642182
:1049E0003846FBF785FB0F466421FBF781FBA97076
:1049F000EF7003213046FFF7B9FFFF2847D030188A
:104A000004A900F0D7F807466846007C801CC1B2B4
:104A10000A2000F0C5F801463846FBF769FB21463D
:104A200044310391FBF702FC6846007C801CC1B254
:104A30000A2000F0B5F801463846FBF759FB084656
:104A4000FBF7C9FF07466846017C0520401AC1B242
:104A50000A2000F0A5F8FBF7BEFF3946FBF780FD02
:104A60004E49FBF7BAFD02900398FBF7D5FB0746CA
:104A700005210A2000F094F87843FBF7ACFF029977
:104A8000FBF715FDFBF7D5FF0399FBF7CFFB0421DF
:104A90003046FFF76BFFFF2801D0305C28720521FC
:104AA0003046FFF763FFFF2847D0301804A900F015
:104AB00081F807466846007C801CC1B20A2000F0DD
:104AC0006FF801463846FBF713FB21464931039145
:104AD000FBF7ACFB6846007C801CC1B20A2000F0EA
:104AE0005FF801463846FBF703FB0846FBF773FF08
:104AF00007466846017C0520401AC1B20A2000F032
:104B00004FF8FBF768FF3946FBF72AFD2349FBF70F
:104B100064FD00900398FBF77FFB074605210A2000
:104B200000F03EF87843FBF756FF0099FBF7BFFC17
:104B3000FBF77FFF0399FBF779FB06213046FFF770
:104B400015FFFF2801D0305C687309213046FFF75C
:104B50000DFFFF2819D0301804A900F02BF80646E5
:104B60000D49FBF7C5FA287064213046FBF7C0FAFF
:104B70000D466421FBF7BCFA3F2001557D20000162
:104B8000281821342077000A607707B0F0BD0000B4
:104B90004750524D430000001027000000007042B3
:104BA0000246012000E050430B46491EC9B2002BCB
:104BB000F9D17047F3B5002182B002980222019129
:104BC0000D460C460E460123009101782D2901D196
:104BD0001643401C01782C2908D02A2906D02E29FA
:104BE0000BD030390A290AD300252C46B00702D54C
:104BF0000298401C0290002719E01E43401CF10758
:104C000002D0641CE4B201E06D1CEDB2401CDCE794
:104C1000E81B401EC1B20A20FFF7C2FF0299C95D1E
:104C200030394843019940187F1CFFB20190AF42D0
:104C3000EED3052C00D9052403980027047010E05A
:104C4000E01B401EC1B20A20FFF7AAFF0299EA1931
:104C50005118497830394843009940187F1CFFB2F9
:104C60000090A742ECD321460A20FFF799FF019953
:104C7000484300994018B10700D5404204B0F0BD48
:104C8000704700008307FF22DB0E9A408907090E58
:104C9000994000280BDA0007000F083883080848FD
:104CA0009B001818C36993430B43C3617047830883
:104CB00004489B001B18186890430843186070470D
:104CC00000ED00E000E400E07047000070B5174917
:104CD0000023CA681206120F18D18A6B154CD50032
:104CE000134A02D51268224009E08E6B01252D0778
:104CF0002E438E6312688E6B2240AE438E63A242B7
:104D000004D103218903884200D101230A480168A4
:104D100049084900194301600068C007C00F984264
:104D200001D0012070BD002070BD000000100240C5
:104D300000700040001800000020024010B502483A
:104D4000FFF7C2F810BD00008C01002001090A2203
:104D500000075143000F4018C0B27047002102E025
:104D60000A38C0B2491C0A28FAD20907090E0843BA
:104D7000704770B504460068C168490613D4002125
:104D8000C943C160FDF71AFB7D260546F60006E023
:104D9000FDF714FB401BB04201D9032070BD206811
:104DA000C0684006F4D5002070BD000070B51E46F6
:104DB00013460D460446202219460B48FCF746FCD4
:104DC0000948102231462030FCF740FC06482022DA
:104DD00021463030FCF73AFC034820222946503067
:104DE000FCF734FC002070BD90FF010810B50022D4
:104DF00021460748FEF73AFB002221460448FEF709
:104E000012FBA3786278217802A001F081FE10BD28
:104E1000DC020020BFAABBFACAB1BCE43A2530329A
:104E2000643A253032643A2530326400704700001D
:104E3000F0B585B0064600246846047214250123A7
:104E400002AA80212F4800950194FDF7EDFB002870
:104E50003BD11420FDF752F9022301AA81212948F0
:104E60000095FDF755FB00282FD16846808840BA91
:104E7000FBF7B1FD0F21C943FBF7EDFB2249FBF71F
:104E80006FFB2249FBF764FB214F3946FBF768FBB8
:104E9000FBF7B6FD308004940121748068460173ED
:104EA0000B4603AA802117480095FDF7BDFB00289B
:104EB0000BD11420FDF722F9022304AA8121114805
:104EC0000095FDF725FB002802D0002005B0F0BDBD
:104ED0006846008A40BAFBF77EFD0F21C943FBF705
:104EE000BAFB0C49FBF73CFB3946FBF739FBFBF7F8
:104EF00087FD02B272800021715E07A001F008FEFA
:104F00000120E3E73001002000002543000020429B
:104F1000000020410000C84254656D7065726174E4
:104F20007572655F44617461203D202564A1E3438F
:104F30002048756D69646974795F44617461203DCE
:104F4000202564A3A552480D0A00000001207047E7
:104F500070B586B004467D25012603A8ED000090BB
:104F6000334603229621019602951948FDF7E8FB86
:104F700000280BD104A80090012304229621019659
:104F800002951348FDF7DCFB002802D0002006B094
:104F900070BD6A46117B127C08071207000E120FC3
:104FA000104309090F290DD08840FBF71BFD002293
:104FB000084BFBF70FFC084A084BFBF70BFCFBF711
:104FC00071FD206006A0216801F0A2FD2068DEE7E7
:104FD0003001002000001240A8C64B378941004034
:104FE0006C75783A25750D0A000000007CB5044602
:104FF000002501A80095FFF7ABFF0226002813D07B
:10500000A6700198010CA180E08068460834FFF783
:105010000FFF00280FD0A67068460088A080684661
:105020004088E08001207CBD06A001F071FDA670E3
:10503000A580E580E9E708A001F06AFDA670A580DB
:10504000E580EFE7B6C1C8A1B9E2D5D5B6C8CAA711
:10505000B0DC0D0A00000000B6C1C8A1CEC2CAAAC9
:10506000B6C8CAA7B0DC0D0A00000000F8B50446B7
:10507000FDF7A4F90546264F264EFDF79FF9401B84
:10508000B842307802D20028F7D001E000281ED0C4
:10509000002000901F4920A001F03AFD214B224A38
:1050A00022A1274801F044FD25491A48FBF78AF858
:1050B000002807D06A4623A11648FBF7C1F8C0B202
:1050C000012809D023A001F023FD02241AE027A023
:1050D00001F01EFD0120F8BD226800998A4204D12A
:1050E00025A001F015FD00240CE026A001F010FD24
:1050F00020680099884200D80846206029A001F065
:1051000007FD032480210348FBF751F82046F8BD32
:10511000881300009004002041434B3A25730D0A88
:105120000000000060040020400400202461636B44
:105130004025733A24453D25732C247365713D0049
:1051400090050020252A5B5E2C5D2C247365713D43
:105150002575000041434B204461746120466F7205
:105160006D6174204552524F520D0A0041434B3A33
:105170006E6F6E650D0A000041434B204F4B0D0AC8
:10518000000000007365715F7265636976653A259A
:10519000750D0A7365715F73656E643A25750D0A46
:1051A00000000000726573656E64200D0A00000047
:1051B000F0B50746BD4893B00078002813D000260C
:1051C000BA4D0D962C460E9680340F960C962946B5
:1051D000B7A0129601F09CFC022000F039FA287862
:1051E00043284ED103E00020C04313B0F0BDB349C3
:1051F0002846FAF7E7FF002843D0B1A12846FAF77E
:10520000E1FF00283DD0AFA12846FAF7DBFF0028D8
:1052100037D0ADA12846FAF7D5FF002831D00CAB26
:105220000DAAABA128460094FBF70AF845B20DABD6
:1052300022460CA9AFA001F06BFC681C07D0002D22
:1052400005D012AAB5A10DA8FAF7FAFF45B2B4A08D
:10525000129901F05DFC129800281FD008A9097C62
:1052600000291BD02178002918D0002D16D06D1CE4
:1052700014D03968814216D1B0A001F049FC052054
:10528000B3E7B3A001F044FC582008A9087448749F
:1052900001220CA9B348FCF709FA02E0B2A001F020
:1052A00037FC0620A1E73860B6A001F031FC0122EE
:1052B00012A9B948FCF732FA01220CA9A948FCF757
:1052C000F5F9022000F0C4F90CAD0222B3A1284682
:1052D000FAF793FF00281DD00222B1A12846FAF761
:1052E0008CFF002845D00222AEA12846FAF785FFA0
:1052F00000287BD00222ACA12846FAF77EFF0028C6
:1053000072D00222A9A12846FAF777FF00286CD0B4
:1053100004206AE7654D2421803D6846FAF747FF7F
:1053200020466B462A46A2A1FAF78AFF297840B2A6
:1053300000297CD069460978002978D0002876D0E9
:10534000401C7ED0012000F083F92846FAF74EFF7A
:105350004008401C82B2904829467030FCF7A6F9FC
:105360006846FAF743FF4008401C82B269469448F9
:1053700033E020216846FAF71AFF089609960A9644
:10538000204608AB6A468FA10B96FAF759FF69468B
:10539000097840B2002954D008A90978002950D0D2
:1053A00000284ED0401C4CD008AA694689A001F0C4
:1053B000AFFB6846FAF71AFF4008401C82B28048EB
:1053C00069465038FCF772F908A8FAF70FFF400851
:1053D000401C82B27A4808A93038FCF767F90020EF
:1053E00000F036F960E001E030E054E0009601960C
:1053F000029620466A467FA10396FAF721FF694686
:10540000097840B200291CD000281AD0401C18D0BE
:1054100003AA42A16846FAF713FF039940B2002994
:105420000FD000280DD0401C0BD074A000E008E085
:1054300001F06EFB5848012203A91030FCF76EF909
:10544000CDE774A001F064FB0320CEE6524C60343B
:105450002046FCF7A1F8302805D14F486830FCF70A
:105460009BF8312805D02046FCF796F8312803D068
:1054700008E001226AA10CE047486430FCF78CF890
:10548000312804D067A001F043FB0220ADE60122E1
:105490006AA12046A1E7042000F0DAF8002000F01D
:1054A000D7F867A001F034FB00209EE6100500202D
:1054B0006374726C3A25730D0A00000040040020EA
:1054C0002C613D002C6E3D003A7365713D0000007B
:1054D000252A5B5E3A5D3A7365713D2531305B5E2E
:1054E0002C5D2C6E3D25325B5E2C5D2C613D2532A2
:1054F00030307300636D645F636861723A25730DC9
:105500000A6172675F636861723A25730D0A736599
:10551000715F636861723A25730D0A00257500009A
:105520007365715F646F776E73747265616D5F72BE
:1055300065636976653A25750D0A0000416C7265F0
:105540006164792065786563757465640D0A00008F
:105550004461746120466F726D6174204552524FF0
:10556000520D0A0030FD01084461746120466F72DB
:105570006D6174204552524F523A4E4F4E450D0ABE
:10558000000000004578656375746520436F6D6D9C
:10559000616E640D0A00000040FE010855440000E1
:1055A000495000005350000053560000474C000083
:1055B0002539385B5E7C5D7C25333273000000004A
:1055C000E0FF01082533315B5E7C5D7C253136735D
:1055D000000000004368616E67652049503A0D0A7B
:1055E00069703A25730D0A706F72743A25730D0A4B
:1055F0000000000025313073000000004E65772068
:1056000053616D706C652074696D65A3BA25750D65
:105610000A000000617267206572726F720D0A00E5
:105620003100000043616E2774205377697463680A
:105630002056657273696F6E200D0A0030000000FD
:10564000476574204C6F636174696F6E0D0A0000CA
:1056500038B5012181400A4C00912046FBF7D2FF6A
:10566000009901220843009069462046FCF756F84D
:105670002046FBF7C7FF014602A001F049FA38BDFA
:1056800010FD0108466C61672061667465722053E5
:1056900065743A25780D0A00F0B595B006460022EB
:1056A00001A92248FDF7E2FE002213A91F48FDF7D9
:1056B000BAFE684605794479877922463B462946F1
:1056C0001BA001F025FAB8193C21FAF711FD0F468D
:1056D00000193C21FAF70CFD0C4640191821FAF785
:1056E00007FD6846017644768776F8B20A46009050
:1056F0002346314615A001F00BFA00200121079046
:10570000C90709900A900C900B910D90012108A8EF
:10571000017608020F90002206A90448FDF7EEFF6B
:10572000002800D0FEE715B0F0BD0000DC0200202C
:10573000B5B1C7B0CAB1BCE43A253032643A2530BD
:1057400032643A253032640D0A00000025642CC40E
:10575000D6D6D3CAB1BCE43A253032643A253032C9
:10576000643A253032640D0A0000000070B50D491E
:1057700005208881002000F03DF90A4D0824083DED
:10578000012804D06C7008A001F0C2F908E00920DB
:1057900000F030F9012804D006A001F0B9F96C70CE
:1057A000002070BD0C000020CDA8D1B6CAA7B0DC87
:1057B0000D0A000053494DBFA8CEB4B2E5C8EB0DA9
:1057C0000A000000F8B55E4CA0880026802800D1B1
:1057D000A6805B480178A0885A4D2A18401CA080FA
:1057E000117059A001F094F9A088554F281820385D
:1057F000807F28373E2805D1A08828182038C07F10
:10580000202809D0A088042810D2A0882818203881
:10581000807F0D2804D009E00120B877A0700FE048
:10582000A08828182038C07F0A2809D0A08804281A
:105830000FD3A08828182038807F0D2802D008E0D8
:10584000A6804DE03E48808828182038C07F0A286E
:105850000FD0A0880F2843D9A08828182038807F2F
:105860000D283DD0A08828182038C07F0A2854D0A1
:1058700036E033488830006A00280DD030488088F0
:105880002E5430488030FAF7B1FC2E492D4A803131
:1058900040182EA101F04CF90A24294821010830B2
:1058A0000D1828486968FAF78DFC002801D00120FE
:1058B000A87327A12348FAF785FC002801D002200D
:1058C000B873641E64B2002CE7DA25A11D48FAF70C
:1058D00079FC002802D01A480421417018488680BB
:1058E000012217492048FEF71FFC040026D01E485D
:1058F000FEF7E3FA05461C48FEF7DDFA02462B46A2
:1059000021461AA001F004F91748FEF77FFB002892
:105910000AD01CA001F0FCF8FEE7A0882E54A18854
:10592000084800F0E7F98BE7012205490E48FEF729
:10593000FBFB0028F8D116A001F0EAF8F8BD000042
:1059400004000020100600202563000025730000DD
:10595000434F4E4E454354204641494C0000000001
:10596000434C4F53454400008C010020686C707517
:1059700061727431D7DCCFDF3A25782C25782C255D
:10598000780D0A00D6D8C6F43ACAA7B0DC0D0A00D2
:10599000D6D8C6F43AB3C9B9A60D0A0000B591B07D
:1059A0000B4602460AA1684601F0C2F81049684653
:1059B0000862022000F01EF8012802D0002011B079
:1059C00000BD0B490220083948700120F7E70000AC
:1059D00041542B43495053544152543D2254435057
:1059E000222C222573222C222573220D0A0000006E
:1059F0000C000020F8B506460A2803D180211E4875
:105A0000FAF7D5FB1D48002537013C1821E000219D
:105A1000A173C1591AA001F07BF8FCF7CFFC0090EC
:105A2000304600F08DF9012804D016A001F070F87E
:105A30000220F8BDA07B002806D1FCF7BFFC00992E
:105A4000401AA1688842F5D3A07B012808D06D1CBC
:105A5000EDB2A1890948A942D9D8A07B002802D07B
:105A60000A2E02D005E00320F8BD04490020803151
:105A70000862A07BF8BD0000900600200C0000200A
:105A80002573000053696D204D6F64756C6520456A
:105A900072726F720D0A0000F0B585B007461CA047
:105AA00000901EA001901E480222694602908A8141
:105AB00000268E731B49039C019B009A4C63CB62AA
:105AC0008A6208630A20FFF795FF012802D00020B0
:105AD00005B0F0BD144D28780028F9D0002408E066
